:100000000C9422110C943F110C943F110C943F114D
:100010000C943F110C943F110C943F110C943F1120
:100020000C943F110C943F110C943F110C943F1110
:100030000C943F110C943F110C943F110C943F1100
:100040000C9441110C943F110C943F110C943F11EE
:100050000C943F116E616E00696E660078B4E7F92A
:10006000FEFDE5CBB290776D6B594331241E17101E
:100070000C0B0A080808060201010122232323238E
:10008000232424211E1915131213121010111011FC
:100090001216171517160B0908083930221B1317EB
:1000A00027394F647E7B4431381F0F090608090643
:1000B000030203040301010001202F3635343732D7
:1000C0002323271E110D0C07040301010101000069
:1000D000000000000000000018346D9B8B7B5F3C2B
:1000E0002E170E0C0A0C0704030100010101010088
:1000F000000000000000000E1C33566B512F2E3004
:100100001E171916150E0606030101010101010053
:1001100000000000000028487379627593AA9B5F75
:100120003223252E1F0C09060605070606060504C0
:100130000305030302A1DBF6F5E3C0957B72706E45
:100140005E4832231B130E0C090706050504020145
:100150000101010124242424252526231A14110F2A
:1001600010101112131514191D1C1F1D180C060751
:1001700005050446332F312F445950749D91664430
:100180002D1B130C060807040204020101010100E3
:1001900000003648515F5B4130241C12110F0804E7
:1001A0000302010000000000000000000000000049
:1001B000003D798A6C4A28181614120E0D090301A5
:1001C000010100000000000000000000000000002D
:1001D0001E2C313B34222024292B2214120C06041D
:1001E00003010000000000000000010000000045C5
:1001F00067A0BC9D8D8C6A5039211D17110B0C0B0B
:100200000707090908090608040301000101B2D61D
:10021000E6EBEEF4F7F2EBE5D8B79275615C5B4A7A
:10022000352419130E0B090605040301001E1E1FB9
:100230001F201F1D1915141414161819141111104C
:10024000111010111110131514140E06344A4D53C9
:10025000637A9BB39970573B2E2E2C363E2A1B1285
:100260000A060403010000000000002B2E271F1FB8
:10027000232A292C383723100A0907060503010110
:100280000000000000000000000018201F21211EB7
:1002900022211B16120F0C08070706050401000097
:1002A0000000000000000000000F19232C2D28285A
:1002B000251D1918181B211D16100B070404030215
:1002C0000000000000000000565D5B8EAEA29C9412
:1002D00068483E2F231F1A17140D0C07040504034A
:1002E0000202020201010049503D20232A221B2163
:1002F000221C1E2627221B2A3C4A99F5FFFFFFFFDE
:10030000F5D3A17A696110060B1719151E241D1962
:1003100021251A192731282729252524242322229B
:10032000211F191A1807080F13070A110A0A0E0EBF
:10033000191D130808110A13180F14180F07113884
:100340004749454407070202020303030707030363
:1003500003070A080E0C070A080A0C14201B0E0FCC
:100360000C0A0A0303030305030202030503020543
:1003700007080702020240A0B3A26725160E080A6A
:100380000805050505070502080A03050705020219
:1003900003070807050A1D271B0C131E1408030E6C
:1003A000111916130E11140E080F0E080A0C0F0C5B
:1003B000051416195867BDFFA74F42422540452C2A
:1003C000BCBDC2CAD2D4DCE9E9EAF8F9EAD4BBA3DD
:1003D0009384725A443A2F211917140F0B0A0923D8
:1003E000292C29272A2B25201C161312131413112C
:1003F00010100F10100E0F0F0D0E10151B1E261EC5
:100400002632383C33374A54442D201F2731321EC0
:1004100021271817100503040203030403181516F7
:1004200014131A21202226211B19140E0C0D0A095F
:100430000805020201020101010303010E12181650
:100440001920201A1C2926191D1C0F090608080549
:1004500005030100010201000101011A1D222720EC
:100460001D1F2A3333302114181616130F0C0704DE
:100470000504030302010202020288AE8A8A836B2A
:1004800094B59166383C36281D1F211917100A09AA
:10049000070A0B0C0E0B06090DB2D4E5F3FEECB9FE
:1004A0007D5740302319120E0A080604030201008A
:1004B00000000000000000001F1E201F1D1E202045
:1004C000202427292F3B42413C3A4141381F060056
:1004D0000000000000000082B6B1ADAE91734A2E5C
:1004E0002A22160808070404030202000000000084
:1004F0000000000000003541302E383E5056311CBF
:1005000018130D080706010100000000000000009C
:1005100000000000001A33454F584229140A080809
:100520000A0C09060404000000000000000000009E
:1005300000000000102026292C2C2A151014120B64
:100540000E120F0D08060403010000000000000059
:10055000000000BAA8C5C46E84AD83715E5C5F33D1
:100560002833281B14130F080500000000000000AA
:100570000000CAD9EAF0F4F8EFD5CED4D8D1B7A0AC
:100580009C825238271D1A1D201A1A18130C0603B4
:1005900003282E322F291F16120E0E10100E1114C2
:1005A0001514181A151A110A0A090A08030605056E
:1005B0001F16182830221E1E1817181E130B110B99
:1005C0000604030202020102010000010000002BE8
:1005D000262D435E5332241C15100A0B0907080709
:1005E00004040202010102000000000000001113D7
:1005F000161A1716140B0305090C0A09070403043D
:10060000030200010101000000000000001A25267D
:1006100029303425150F090A0C0C0A0605060502B7
:100620000201000101000000000000008EFCCEA7C6
:10063000B68B4A312522221C262F1C0D140F0F0EBB
:1006400005040303020202020100008EBFDCE8F28F
:10065000FAF9D0986E4D3D312419120E0C09070697
:1006600004020100000000000000202222212221BB
:100670001E1F24211D1E242E393E3B39393B44497F
:100680003515040000000000003527325E7E8283AD
:1006900060382A20120B0904010202010001010046
:1006A00000000000000000001B31363042443329B6
:1006B0002D32261007080606020202000100000083
:1006C000000000000000001013181C18181E1B105A
:1006D0000B060C0F090506060503030100000000C8
:1006E0000000000000000B172C443E36373126175F
:1006F0000B0D0E0A0A0A080405040402000000009B
:100700000000000000616C54596FEAEF9B6A493A9F
:100710002E3927111015120C0A05020201000000E3
:1007200000000000B9D9EFFBFCEFBC7A5240322543
:100730001B130E0B09070404030100000000000056
:100740000000001F2021222424282A221F25282BD4
:100750003435322D2F3E42351B06000000000000CC
:1007600000005FC2977EA98641353A2A27180A04FD
:10077000020402020000020200000000000000006B
:10078000006D919A8397C7BE69443A190F0A07050D
:100790000200000000000000000000000000000057
:1007A000152C3539464039240E0E0F13110C070253
:1007B0000000000000000000000000000000002712
:1007C0003827263B4134190C181611120908060661
:1007D000020202020000000000000000000073732B
:1007E0004D92CAA17958596264582B2D2A1A1F1CA0
:1007F000100A0805020000000000000000AAD3EE65
:10080000F8F9F0CF8D5A4738271C150E0B0907054C
:100810000303010000000000000000001F1E1F1F56
:100820001F212324222023272C34393635393A44FA
:1008300043280B0000000000000000505D5E5B5B81
:1008400065502D272A1F0D03030302020201000039
:100850000000000000000000000027323436445140
:10086000483A301C120C0906040402000100000082
:1008700000000000000000000011152037433D3A41
:10088000240C0C0E0D0C08040303020001000000F0
:100890000000000000000000131A212D383E30191E
:1008A0000E0E0E0E0B0A06040504030100000000E4
:1008B00000000000000000636595C4BFA76E4834C7
:1008C00042403231271C15130C0B0B0806020000A6
:1008D000000000000000CDCCD3DAEAFAFAF0DBAA7F
:1008E000724D392B1D16100C090605040302010177
:1008F0000000000000202324222322222220201F87
:100900001C191918161722363E34282620180E02F4
:100910000000000057483C1D232D384545666032D5
:100920001C0B080906030201010000000000000082
:10093000000000323F353E44363A4F58311912100C
:100940000C0806020100000000000000000000008A
:10095000000028444C362834342A1B11110F0B0692
:100960000200000000000000000000000000000085
:100970000026272A2A333D433E2F1E17130807035C
:10098000000000020401010000000000000000005F
:10099000E7AE957486AC8B807639293328140E1314
:1009A000100C1626210C050604020000000000357C
:1009B0002F2A1F110B0F2E77B8CBD2E4F1F3F2EBF5
:1009C000D9BE8B5B402C1E16100C09070504A2A093
:1009D0009F9A92837258311E22242322222222219E
:1009E00020201C1A1A1A1714152335352E04040456
:1009F000020101040F2425140F0C0A0C1316161FF4
:100A00001E140B0404040201010100000706050482
:100A1000020101050A0D0D12141314151210121102
:100A200009050302020100000000000B0A09060389
:100A3000020307090B1216181411110E0A0A0704F3
:100A40000302010000000000000013110E0D090553
:100A5000060C0D0D1011141615110E0C09080603C5
:100A6000010100000000010000D9C8977451313A1B
:100A70004E43353D392E312A30311D1E190C0D09DA
:100A80000606040305090906343433281B0E060440
:100A90001355B9F0F0ECF4F9FCFCF4EAD3AD856041
:100AA000361E18130E0A099E998E87969A765F6CE9
:100AB0004D21233035312F2C28282E322B1E15277F
:100AC000311E16151F3F050604030201000005191B
:100AD000372D1919140E0B111221292A2C17090769
:100AE000090703020209060A0902010000040E12A6
:100AF00015272A1A131D1A0B21240E0C08030201B4
:100B0000000000000A0E100C0803010000040A1483
:100B10001F1F19201F1819171B15070401000000BB
:100B2000000000131D201D140503031622191D309B
:100B30003C3E4345292022120E0B0B0906040101FD
:100B4000010069534C455D3908092F424F9FCEB9CA
:100B5000AA908370515D82762E1A1C171408090919
:100B60000E4B4A45381F0C09165CBEE8E5E6EFFA65
:100B7000FDFCEFDDB27C6042221714110F0E0D0A4E
:100B8000998C858E9587665C4421202B32302A26ED
:100B9000262A2B27211C1D201C15131A3A50400E03
:100BA0000F0B080601000A2F352332241211090EFB
:100BB000112021130D0504060301010201000B0F92
:100BC000140F060102070E15211F16131219121910
:100BD000201912070303010000000000001316147F
:100BE000100A050305070B0D1C36321C15150F10D6
:100BF000110B05020000000000000101292C27193B
:100C00001009040C121E302F241F1F191C2720133B
:100C1000100D040100000001010303B2C9AAB4646D
:100C20002223295F5640469EB9817D7367524A2A26
:100C3000211E0E060403080C0F122F201109050CAB
:100C40003277BCE2EAEDF2F6F4F8F8E6D8AC6C4D97
:100C5000362017120F0C080808A3A4A8877C826A04
:100C600043242528282826242322262826251E1C1E
:100C70001E1914141A3E68580802020200021A349F
:100C8000402E1E362A1C2F484632524419140B0897
:100C90000E0C0804030000080806000002030C14F0
:100CA0001C1A24322010244437201C120A06080281
:100CB000000000000000120E06000002060E25359E
:100CC0002029413C2A1C261C22240E080400000076
:100CD00000000000021A3C3808080B0C182A3428BF
:100CE000313A28363D36442A0A0C0A050200000033
:100CF00000040200C37B443C303147A1E09F8C9C40
:100D0000ECFFB0916A4C6F5C282C130C0804040BA8
:100D100014271C3B332E2920150A060D2668C2EF26
:100D2000F2F0F3F9F0E1BD805544392A19110D0BA9
:100D30000A07647579737B7E6C56545C492A262BAE
:100D40002C2B2826211C18161311121314110E1403
:100D50001C0705050706010100041234503F1F1F40
:100D6000221825414A3B2114100A070302020201FE
:100D70000E0D0D120D060100040A101D2A2822294D
:100D800028272C2821120907050202010101001160
:100D90000E100E0B0702010A100F13242B24211C26
:100DA0001D190F09030201010100000000002726A0
:100DB00022251C1009030B191E1C2A3B5459422ED4
:100DC000160C0705030201000000010101699BC820
:100DD000916537262627468EB4979A948B89937807
:100DE0002D1C1A110A08030203070907E0EAEBF4B5
:100DF000FAF4DC9A61524E3D2518110D0A080604DA
:100E00000504020000000000000000212525262620
:100E100025211F1E1912121717141215191B1A1843
:100E20001A14050200000000000036241E1C181CC5
:100E300027262424170C08060403010101000000E2
:100E400000000000000000000016201D181C252FC7
:100E500022100C090502020201000000000000003F
:100E600000000000000000001E23201B18120F0AC3
:100E70000604020101000000000000000000000064
:100E8000000000000000001D2424242117150B037E
:100E9000020202010100000000000000000000004A
:100EA000000000000000C7D5B98363616A4A332699
:100EB000120B0705040404030402020302010000EC
:100EC00000000000003A343226191010215DB1E311
:100ED000EEF2F4EBDEB9825A463E322215100C0ACD
:100EE000070503039F9EA09A8D827D7449231F23CB
:100EF00025242523201D1A17151618181614151A3F
:100F00001D1A16070402010102030824412F1518B7
:100F10001714293221130A080806040201010000EF
:100F200000000C0C0B05030201040911171C201A08
:100F3000141922210F05050303020101000000001E
:100F4000000F0F100A0705070A0C0C11181E1F15B9
:100F50000C09090502010101000000000000000069
:100F60001C1E1D160E060B1314151E231D13131421
:100F70000C0705030201010001000000010000A3AD
:100F8000C3A66B5B474B5053736E64705E4B50341B
:100F900016130D0707060203030305030101DFD53E
:100FA000DAEFFFEFBB733D3A3E3421120D0A08061B
:100FB000040404030100000000000000001C1E26C1
:100FC0002B2823212620151310121010141C1D1677
:100FD0002326292106000000000000005F50667CE7
:100FE00057249299160F0F1D1D07070707000000D1
:100FF00000000000000000000000002C575F2C3AA9
:101000003A666D3324070700000707000000000060
:1010100000000000000000000000165F8A8AA06641
:101020002C1D160F0700000000000000000000004B
:10103000000000000000000000838ABDDBA05F16F6
:101040000F0F0F0000000000000000000000000073
:101050000000000000000000FF49AFDB99662C3A59
:10106000330F161D0F161D07161D0F07000F070063
:101070000000000000000035332C231A100809126C
:1010800044AAECF4F4F6F3F6F2C07A564D422D1C65
:10109000110E0B0A08067B76787C86867C665D4C92
:1010A000291F22252A2C2622201915121414131464
:1010B000100E12181C0605080804010001011A345C
:1010C0002714120D0908152C220D0C080606030121
:1010D00000000000090A0B060302000203030E17BA
:1010E000131319100E3040240E08030302010000F0
:1010F000000000090808070502000204060C101C85
:101100002B1F100F110D060302010000000000004C
:10111000000013170E0B080402051014171A1816F6
:10112000181C1C180D06030202010000000000013B
:10113000004B4D403831221211284C64B7F2CB934A
:101140007D6C4E391E140C060404030203040604CD
:1011500095D2F4F6E7CA9E847D786E5F4C36261CE5
:10116000140F0D0A070706050503020100000023FE
:10117000242424252425231B1612101011111213C8
:101180001414171B1A1E1E180D0A04020302402D08
:101190002624263B52526F8C86653D261A0E080681
:1011A0000705030203020202010000000034444B61
:1011B0005552402C201D15100B080503010000009E
:1011C0000000000000000000000000003468837B85
:1011D00061422A1C16120E0C0805030101000000D2
:1011E0000000000000000000000000192730454703
:1011F0002E2426282820140F0C08040301010000C7
:101200000000000000010000000040608A96898F05
:1012100098845735261D16120D0A0907070607067A
:101220000906070403010001008DB6D8EAF1E5B90B
:10123000835A463D31251A15161A1E1F1817171105
:101240000B090503030201012D333939332A252304
:10125000201A161515171716191C1C181009060543
:1012600004040202000102201E191C22292E261B42
:10127000120D0A060406060403030302020201001B
:101280000000000000002329322D2327271E130D04
:101290000804030202020201010101010000000032
:1012A0000000000000171E2221201D170D07040357
:1012B0000200010102020101010001000000000022
:1012C00000000000131F262C2F25160A0604040216
:1012D0000101010202020101010100000000000001
:1012E0000000005F769DB7B38B563226180E0C08AF
:1012F000080B0D0B070505030302010101000000A7
:10130000000052341C1D2147A7ECFFFFFFFFEEC772
:10131000A3897B77766841342E1C1613100D0908BB
:101320000908161C18181B1F222222222120201E09
:101330001B1714110F16140D0E0C0D0E0B0F14119C
:101340001E0C1E37374943315B613773671E5BC81C
:10135000FF8C6DA4796D490C000006060006061E80
:101360000C060C0C3773672A183D4F5B491E1E2A6A
:101370001E2A2A18060600060000000000001206B9
:101380000C0C0C1E43495BC2C26DA4A43D180C1882
:101390001E120C060600000000000000003124129E
:1013A0001200123767BCF9FF8C313D241E0C121E4F
:1013B0001206060C0C0600000606000637556D3DA9
:1013C0002A3D554F376D73797967495561373D37F8
:1013D0002A1E120C0606060C06060649503D20235E
:1013E0002A221B21221C1E2627221B2A3C4A99F551
:1013F000FFFFFFFFF5D3A17A696110060B171915DE
:101400001E241D1921251A192731282729252524AD
:1014100024232222211F191A1807080F13070A1163
:101420000A0A0E0E191D130808110A13180F1418B2
:101430000F07113847494544070702020203030317
:101440000707030303070A080E0C070A080A0C140F
:10145000201B0E0F0C0A0A030303030503020203F9
:101460000503020507080702020240A0B3A2672590
:10147000160E080A0805050505070502080A0305F2
:101480000705020203070807050A1D271B0C131E88
:101490001408030E111916130E11140E080F0E085E
:1014A0000A0C0F0C051416195867BDFFA74F4242CE
:1014B0002540452C8DA2CCDEE7E0D8D6B998A29F76
:1014C0008A7C6950393029201C1A181314191713F3
:1014D0001211111D1F23242222242222221A140F4A
:1014E0000E101010121213141414111314141A20C5
:1014F0001F20564E555431342E2C70CAE0B06F5612
:101500004E3B2212141C170F09040609060809078E
:10151000081C3944494838483725362E2116120907
:10152000070703000004020002020202020505028E
:1015300024447480644C42463E1C0F13100C070771
:101540000403020304030100020402000202021F5A
:10155000222C30383E32404A2B181E261E110A0912
:1015600004000302020203050402020204044244CE
:1015700090A36B666F92D49E463C3E3E2716111098
:101580001917100A061012161E1A10171E79736406
:10159000576D9DC9E4F7F8EEEDEAE6DCD2CABCA5CA
:1015A0008D806B51403529211B1512101011100F21
:1015B000131F2A2D29272B2F30322F2B2723201DB5
:1015C0001814131211100E0D0D0B0B201C1E2636B5
:1015D0003426191928291E1D212632484949625CE2
:1015E000504123140F0B07050403090403050B10D6
:1015F000161920271C1D252A34373127231B110CCF
:101600000A0602010100000000060402030D1D2B62
:10161000281B161F2C2B2C2E24190F0D0C0B080623
:101620000502010200000000050304040A1619293E
:10163000372D32413A382F22251A100D0A08060597
:1016400002020101010100190E0A1020427D968557
:101650007281B3CAC78B605E40372C1A22190E0BF9
:1016600006060403040277737DA6D2E6EEF6F8F5CB
:10167000FFFCF0E8E2CAA88E786048372C281C14DA
:101680001414100A06121212161C2024272C3438A7
:1016900030282B2A21201D17141412100E0C0C0CAC
:1016A0000C0A0A120D121A24241E161812131B16E5
:1016B0001828484849543C2A20110A080302040407
:1016C0000000010A0506080811161C12090B141D5A
:1016D000243228160E06040200000000000000005C
:1016E0000000080508162830263839180A0C11138E
:1016F0000F100E08040404020000000000000000A7
:1017000000060405141A1020332B1C191F283C2E28
:10171000140E060406030000000000000000000094
:10172000160F113649E4EC9F9E51808EE8F15B4420
:101730003E2016100C0A0702020204040203026F84
:101740006B637194BCE0F2F2EEEBE4D9CEC7BEADB0
:10175000978470554033271E1712100D0A08100F7A
:1017600010151F2C2E2A2C303436332F2A25201BFF
:101770001817161714110F0F0F0D0D0D0D16161D3E
:1017800024241F1D1C1E1D181722282931394446E8
:101790003F3829140B0B0A05030201000906040552
:1017A0000D171C1D1C1B1A1D262E2C261E120B0A83
:1017B0000A050302020000000000000705030B1CDD
:1017C00029241F2120222E2E1D1615110B09070575
:1017D00004020200000000000000040303070F18C9
:1017E00023292B2C29231E1D161612080708060272
:1017F00002020100000000000015100F18295C769D
:101800009DE7B285896C54383B3A2728210E0D0894
:1018100007060503040403027B7960608BC0EEFFBA
:10182000F2E2DCD0C2B8B4BAAB968463463A2A215D
:101830001A110C0C0E0D0A12100E1620242C28253D
:101840002A323836332B201B1818181414100E1097
:101850001012100A0A10374E4441303030465A3EBA
:10186000413E4B586E70524E918E4E2814140C050A
:101870000202000200120F1216161E413E202028FE
:101880003F5C58645A260F0F12140A05000000002E
:10189000000000000C05021E4B504E483C3C667692
:1018A0003E232828262A190508050000020000000A
:1018B0000000000A0502232D3450464E55413A2DB2
:1018C0002D301E1C160A0A0A05050500000000003E
:1018D000000023161C4680A5AA987DA0AFD2D09602
:1018E000B68E624B34201E190A0C0C080805020241
:1018F00005757D787295D5EFEDEAF2FAFEFAF3F010
:10190000F6F7E6C7A7927D6A60584939322920194F
:101910000E0F0F1015202933372D24262B31352D8E
:10192000211B1A1D1A14110F0E0D0D0C0C0A071590
:10193000191A120D1112111013120E0F141A263744
:101940002F22180D18160C0D0C06060603020203B2
:1019500003040807060C0E0E09080C162122242089
:10196000100B090A0A03020302020100000203032A
:101970000409171F151A1C0C0D1215170F0A0B0C52
:101980000A06050503020302020201000203030323
:101990000F1B1E242A242628372E211F14130E0E57
:1019A00007030403020201010101000D0B090C11E0
:1019B0004C5D55A0BEC1ACA39496B59E5A331C197C
:1019C000150B0A0A07040202020171757C87A0B593
:1019D000C6DDE7ECEDF3F6ECE0CEA46A4B453A2D1C
:1019E00021170E0B09090A09071313131516181BE3
:1019F000212E35312E2D2D2B272221222733393C24
:101A000031252835557073602C344C3522363B34E3
:101A100019131E211F2E2C2118111A140B06020156
:101A20000201000100000108050204060A110F145A
:101A300026333E3729383B230F09090703040300E7
:101A4000000000020100080908090B1210163840B6
:101A500037292A3C2A212113100B07070502010010
:101A600001020403020605060B0F111A2936412A4A
:101A70001E2926302E180E0D13150E0D0903020215
:101A8000050608042D2327333D75724F7F859A90F4
:101A900094BCA56C36293471697D9C551E121015B5
:101AA0002D2D248092AFD2E8EEF4FAFAF4E0A66C81
:101AB000534434281F19130C080605080A050000B2
:101AC0000000141414161E2A343636323130272002
:101AD0002835344152412D252740676C3C0C0000CD
:101AE000001C101A24191A232022221313160C0783
:101AF00007040202020100000000000000000000D4
:101B000008040D18170F0F1014140E080405040212
:101B100002030301000000000001010000000004B6
:101B200004080F203246392A271A15100B0707061A
:101B3000030403010000000202020000000003068B
:101B4000060D181B1F1E1E1D140F090C0E090A0975
:101B50000807030200000404020000000010161829
:101B6000263C3F5885E7DB724826322C282E272357
:101B70001C130D0A0B1620130400000074838B9BAA
:101B8000BCDFF1F9F9FBF8D8A0745B4735261B14CC
:101B90000E0B080606070603010000121313161F9A
:101BA00028292C2F3030312E292527313B3F3F3635
:101BB0002C2934495E572F1002003D3A373D3B3106
:101BC00034404339393B32241A1812090302010206
:101BD0000100010000000000000C0C0B1014161D89
:101BE0002A292E2D2722160E0705030201000000C8
:101BF0000000000000000000090A0C16334C4330BE
:101C000040565A533519110F0D0804030000010006
:101C10000000020200000006070C10181F232C3FD2
:101C200041372E1B14141214130F07030201020470
:101C30000605010000001F33436E8D9896839C9427
:101C4000A6BA7E5B605851686C4F351E0E0D173D6D
:101C500040190500008094B8D3E8F5F8FAF2DCB535
:101C60007B4F4131241C150E0B09070708070300A1
:101C7000000000001414171D242B2E2E302F2C2BA7
:101C8000292B3841424639272B446068562A0800E0
:101C90000000001914202419202D2E261B151510C4
:101CA0000A08070401010101000001010000000011
:101CB0000000080B1215111315161214170D0B083E
:101CC0000502020201000000000202010000000003
:101CD00000080E141924262835463C281C0F0B0832
:101CE00005040202000000010202010000000000E1
:101CF00003070C181D1B1C21221817120A0B0F10AA
:101D00000A03030101020203050300000000003280
:101D10004A536F978882C69A3F4D43354B586C7330
:101D2000451E181B1A2B3130240400000000C2E1AC
:101D3000EBEBECEFF0EFF0F3F2DCC1AAABB0A9B043
:101D4000A28D77493434271B110E0D101112121772
:101D50001E23272A2E2D26201D1B2322181B1C176D
:101D6000100B10192A2C2A3C433A2D1D2523231928
:101D700017140B1017151517141316140F0E090945
:101D800008060403020001010100000D110C1013EC
:101D9000101316151B1B1617120D0A0A080404034C
:101DA000020102020100000000000B0C0C1A31338A
:101DB0002A2014100F0E0C1214100C070504030334
:101DC0000202020101010101010809141E1E282F4F
:101DD00024282D241F1C17120D13160D08070608A2
:101DE00008070303040402013C4666996CA7A87D1A
:101DF0008B96C1877A6D64809970514D21131013B1
:101E0000211B141D1205057284A6D6FFEED2D1CC7B
:101E1000C0C3E0E8D6D6C28854332317110C070597
:101E2000070807030000292B362F2326323C3A3AB5
:101E300039343334302D25201E150D0F151B366215
:101E40006D6C4D1100BBAE8F9B767095958F958F05
:101E5000576A8FB4FFBB8F6A1F0C130C0000000081
:101E600000000000131F25192C4B57574B384470A6
:101E7000764B3219130C0000000000000000000037
:101E80000000001F1F385132130C191F1F446495A6
:101E9000AEA8833E250606000000000006060000EE
:101EA00000000C0C32AEAE321F1F13192C441F065B
:101EB0001F250C0C060000000000000606000000B4
:101EC00000323E1F44E6D3383EA8AE4483E6CD95AB
:101ED00064645D2513130000000032320C19060003
:101EE000666A5B5E6B7DA1D6F4F2EFEADECDC7D207
:101EF000DDD5B792663C271C140E0A08090A08189B
:101F00001E272B2C3435302F3136383834302C29DD
:101F100028231A1A1B151214131C3C647D764A568A
:101F2000452C343E3A32332D273646413B3E479EC0
:101F3000E59F523A1E100E0905010101010D0D0C1D
:101F40000D0F1627313C403C37393D342B271E0FEF
:101F50000F0C050401000000010101001713141704
:101F6000161721343E444244545F584E6071603E1F
:101F70001F0B080602010101010202090E121216CE
:101F80001D1B252A1F1C26302C262D2D251D120C2D
:101F9000080501000001060A06022025181C1E295A
:101FA000343C729498B0ACB99C837D7877452E2AE6
:101FB0001C0A0605062D3D3837737D91A9C9E7F542
:101FC000F5F3EEECE5DCD9D7CDB28E6941261A13D4
:101FD0000D0A0A0D0D0A070421242C32302A2B2E5B
:101FE0002F3234312A252222221F1D191716141DC3
:101FF0002E5177877B5C383128302E2823282F24D8
:1020000026282C2D4260666556351B100C090503E9
:102010000100010101000A090D141D23212A2D26AA
:1020200026282628271C130A0805020100000000A4
:1020300001010000000C0E15212A2B292829303A15
:1020400043433C3831251B0E050402000000010209
:10205000030504010F0E19252F31322F2426312EAE
:102060002727211E1C140D08030101000305040489
:10207000050301171A2D3C5482928A7679ADA0741B
:10208000837D73623A28180A0705040E24332D2C29
:10209000220C6188CDF0ECEEF3F2E8E3EAD9AB80F4
:1020A0005B39261D160F0D0C0C09070502000000F8
:1020B000002526242B2F3135342D2622201D1B15DB
:1020C0000F12120E1838566872664E301102000058
:1020D000342A2D2D243633222531475A74774A1D50
:1020E00014150B0500000101000000000000000BAA
:1020F000192A2D283135373024261F160E060604DE
:1021000002000001020201000000000000000B13A9
:1021100022271F1B2C41564C384034140C07020256
:10212000000201020304030100000000000C10146F
:102130001B262628221C20201F190C040402010043
:10214000000407070402020100000000132456786F
:1021500096A784645F5B383A3B24261C0E0C081B50
:102160002C4C542D24201103000000595C6E7B7F01
:1021700097B3C4CFDBE9F6FBF6F1EFEDD9C7B18E2B
:102180006A4F3B25160F0D0C0D0D1819181C1D1C40
:1021900023282B2B2E2F2A292B2728302F2A221EAB
:1021A0001D15131A171E42677C191D1A18242316B1
:1021B0001312101218120B1B2A1F3342483E21180B
:1021C0000F0909080405030105050404040A0D07A5
:1021D0000A110E0A12131226211310080606050210
:1021E000020100000000000203050606080C0F13A0
:1021F0000E080D101A241C181F20160B05020301CF
:1022000001000000020303050A0A0A0C11181E242B
:10221000262C2C242924232A2C231A190E0A0701E0
:1022200000000203050A09090E11141D45596182B7
:102230008D91C2E9BC6A8A772E3A3A1E0B090603D1
:10224000030B161411241FBECFE5D8E0DEBFCDBFAF
:1022500011E0A0E6B0E0E8E2F0E402C005900D92E3
:10226000A032B107D9F724E0A0E2B1E001C01D928D
:10227000A332B207E1F70E9487150C94951F0C94C6
:1022800000001F920F920FB60F9211240F931F930D
:102290002F933F934F935F938F939F93AF93BF93EE
:1022A000EF93FF9344B155B188B7886088BF8091A0
:1022B000600090916100A0916200B0916300840F72
:1022C000951FA11DB11D8C019D01EAE03695279552
:1022D00017950795EA95D1F7801B910BA20BB30BCD
:1022E0008093600090936100A0936200B0936300BC
:1022F0002091240330912303FAE0B695A795979592
:102300008795FA95D1F7481B590B80E8289FF00173
:102310001124E30FF11DEE0FFF1FED5DFE4F518302
:10232000408381E0830F3F3799F080932303FF912F
:10233000EF91BF91AF919F918F915F914F913F919D
:102340002F911F910F910F900FBE0F901F90189516
:102350001092230381E0820F8093220181E02827DD
:1023600020932403E4CF95B39F70282F207F922BD6
:1023700095BBAA98A89A94E09A95F1F7A898E8E2F4
:10238000F2E03197F1F700C0000095B38295807FAD
:102390009F70892B85BBA89AF4E0FA95F1F7A8986D
:1023A00089E995E10197F1F700C0089595B39F7011
:1023B000282F207F922B95BBAA9AA89A94E09A95F1
:1023C000F1F7A898E8E2F2E03197F1F700C00000D9
:1023D00095B38295807F9F70892B85BBA89AF4E086
:1023E000FA95F1F7A89889E995E10197F1F700C00E
:1023F00008958FEF84BB8FEF97ED0197F1F700C041
:10240000000082E00E94B31188E20E94B3118CE0C8
:102410000E94B31186E00E94B31181E00E94B311C3
:1024200089E995E10197F1F700C00895CF93DF9313
:10243000EC018991811103C0DF91CF9108950E9431
:10244000D611F7CFCF93DF93D42FC52F81110BC0B7
:10245000862F8F70806860316CF08D2F9C2FDF91FC
:10246000CF910C9416128130C1F76031B4F7862FEA
:102470008F70806C0E94B311F0CF81E00E94B31185
:1024800089E995E10197F1F700C080E80C94B31158
:10249000CF93DF93D62FC72F90EC980F913440F451
:1024A0000E94B3118D2F9C2FDF91CF910C941612A7
:1024B000DF91CF910895811106C0862F8F708068BB
:1024C000603144F008958130E9F76031DCF7862F00
:1024D0008F70806C0C94B3110E94B3118FE084BB99
:1024E000AA9AA99AA89A8AE48A95F1F793B3907F59
:1024F000A898E8E2F2E03197F1F700C00000A89A4E
:10250000FAE4FA95F1F783B3A8982FEF24BBA998C2
:1025100082958F70892B08958A98833059F4929808
:1025200085B7836085BF8AB780648ABF8BB78064B4
:102530008BBF0895929A813051F0823071F08111F1
:10254000F2CF85B78D7F85BF85B78E7FEBCF85B7FF
:102550008D7F85BF85B78160E5CF85B78260F3CF7A
:102560008B98833059F4939885B78C6085BF8AB770
:1025700080688ABF8BB780688BBF0895939A81303B
:1025800051F0823071F08111F2CF85B7877F85BF1E
:1025900085B78B7FEBCF85B7877F85BF85B7846095
:1025A000E5CF85B78860F3CFBA98833059F4C298E5
:1025B00084B7806484BF8AB780628ABF8BB7806229
:1025C0008BBF0895C29A84B78F7BF4CF5F9BFECFF9
:1025D0008CB190E008955D9BFECF8CB980E090E0D7
:1025E00008959B01AC0184E0220F331F441F551F47
:1025F0008A95D1F760E070EC88EA90E00E94461D71
:102600002150310929B930BD549A539A80B5866852
:1026100080BD08955F9B03C08CB190E008958FEF5B
:102620009FEF0895EDE1F4E084E690E093838283E8
:102630009183808308953F924F925F926F927F9231
:102640008F929F92AF92BF92CF92DF92EF92FF92C2
:102650000F931F93CF93DF93D82FF92EE62ED72E0B
:10266000C42E952E00E010E0C0E0312C44244A94A2
:10267000542C32018EEF8C0F823000F1C801845A45
:102680009F4F5C0185E0882E95014C2D592D6E2DB4
:102690007D2D8D2F9F2D0E942914462F572FBC0171
:1026A000441555056605770518F43C2E2A013B01B3
:1026B0008A9499EDA90EB11C8110E6CFCF5F035C1F
:1026C0001B4FC830B9F6832DDF91CF911F910F9129
:1026D000FF90EF90DF90CF90BF90AF909F908F9042
:1026E0007F906F905F904F903F900895883048F4AE
:1026F000E82FF0E0EE0FFF1FE458FF4F808191813B
:10270000089588E191E0089528E2FC0111922A954C
:10271000E9F708956F927F928F929F92AF92BF9246
:10272000CF92DF92EF92FF920F931F93CF93DF939D
:1027300031E9632E30E0732EFC018C010C5E1F4FDB
:102740006B01770FEE08FF08E301A991B9913E01F3
:1027500081909190A190B190A50194010E94911D4A
:10276000DC01CB012EE0B595A795979587952A9525
:10277000D1F78C0D9D1DAE1DBF1D40895189628909
:102780007389841B950BA60BB70B808A918AA28A4A
:10279000B38A9F0124503109E90188839983AA8370
:1027A000BB83E017F10781F6DF91CF911F910F9165
:1027B000FF90EF90DF90CF90BF90AF909F908F9061
:1027C0007F906F9008950F931F9324E0629FF00114
:1027D0001124E80FF91F008111812281338137FF15
:1027E00007C030952095109501951F4F2F4F3F4FF3
:1027F000448955896689778977FF07C07095609508
:10280000509541955F4F6F4F7F4FDB01CA01041711
:1028100015072607370710F4D901C801B695A79503
:1028200097958795401751076207730710F4B90110
:10283000A801840F951FA61FB71F009721E0A207CC
:10284000B10520F08FEF9FEFA0E0B0E01F910F9156
:1028500008952F923F924F925F926F927F928F9244
:102860009F92AF92BF92CF92DF92EF92FF920F931F
:102870001F93CF93DF93CDB7DEB766970FB6F8946B
:10288000DEBF0FBECDBF8C839D836E837F83488761
:102890005987390148EF50E06FEF70E085E293E02F
:1028A0000E94B31E00E010E041E04D8B19820E8BB8
:1028B000802F053008F485E02BEF280F9E899A3190
:1028C00008F099E155E0590F5A87622F70E07C8B30
:1028D0006B8B211599F0FB0131977FE14D89749F36
:1028E000E00DF11D1124EE0FFF1FEE0FFF1FEB5D3A
:1028F000FC4F5FEF50835183528353834A854E319F
:1029000099F09A5F5FE14D89549FF0011124E90F1E
:10291000F11DEE0FFF1FEE0FFF1FEB5DFC4F5FEF92
:1029200050835183528353834981242F30E0319562
:10293000219531092F7133274B895C89240F351F6D
:10294000220F331F220F331FB9016B5D7C4F2B0108
:10295000865E1301280E311C4D89842F90E09195DD
:10296000819591098F7199274B895C89840F951FF7
:10297000880F991F880F991FAC014B5D5C4F5B83DB
:102980004A836C817D81600F711F788B6F878E8188
:102990009F81800F911F9A8B898B8B884A85481560
:1029A00070F50F5F1F4F0F31110521F54D895CE761
:1029B000459FF0011124E356FC4F608171818281B3
:1029C000938166960FB6F894DEBF0FBECDBFDF9140
:1029D000CF911F910F91FF90EF90DF90CF90BF901C
:1029E000AF909F908F907F906F905F904F903F90AF
:1029F0002F90089589815D8959838D8B58CFEB89FC
:102A0000FC89E60DF71D8491EF85F889A081A81B4C
:102A1000BB0B9D010E94681D6B017C01F10184913B
:102A2000E989FA89A081A81BBB0B9D010E94681D42
:102A3000C60ED71EE81EF91EA884B984A00EB11ECA
:102A40008B89825CF301E80FF11D85E0982E84915B
:102A5000D5019C91292F281B330BD9010E94681D99
:102A6000C60ED71EE81EF91E9A943FE1A30EB11CB4
:102A70007F969110ECCF8E8988298115E9F1F201BA
:102A800080819181A281B3818114D9F0EA81FB8197
:102A9000B290A29092908290F20152914291329122
:102AA00022912B873C874D875E87281739074A0775
:102AB0005B0710F4DA01C90188169906AA06BB065D
:102AC00018F18F3F3FEF9307A307B307C1F4EA81E3
:102AD000FB8181939193A193B193FB83EA834B890B
:102AE0005C894F5F5F4F5C8B4B8B54E0450E511CF4
:102AF0006FEF261A360A51CF80E090E0DC018C0D92
:102B00009D1DAE1DBF1DE3CFD501C401F8CFCDB7CC
:102B1000DEB7CF52D1400FB6F894DEBF0FBECDBFA7
:102B200060E875E280E090E00E94F1120E941213CA
:102B30001FBC1AE01EBD8CEA90E09BBD8ABD99BD0A
:102B400088BD83E087B98EEE86B980B78F7180BF6C
:102B500080B7806A80BF78940E94F91160E080E0BD
:102B60000E945B1278949E01245F3E4FCA5EDE4F46
:102B700039832883C651D140D9011D921A95E9F7AE
:102B8000FE01ED51FF4FC85EDE4FF983E883C85167
:102B9000D1408FE1C82E1192CA94E9F72854310927
:102BA000C65EDE4F39832883CA51D140D9011D92B8
:102BB0008A95E9F7FE013196C45EDE4FF983E8831A
:102BC000CC51D1408BE911928A95E9F7CB5DDE4F6C
:102BD0001882C552D140F1E0C05EDE4FF883C0528A
:102BE000D140212C312CCF5DDE4F188219821A8200
:102BF0001B82C152D14010E0C12C4CE0D42EE12CFC
:102C0000F12CCA5DDE4FC882D982EA82FB82C652AD
:102C1000D140CA5EDE4FD880C651D140C65DDE4F7E
:102C2000D882CA52D140C95EDE4FE880C751D14038
:102C3000C55DDE4FE882CB52D14028523109C25ED9
:102C4000DE4F39832883CE51D140AE014C535F4FC4
:102C5000415E5F4FC45DDE4F59834883CC52D14003
:102C6000809122018115E1F38091220110922201CD
:102C70008150990B982F8827DC01AD5DBE4F5D0117
:102C80008091200190912101892B09F0B9C0A3E026
:102C9000B0E0CA5DDE4F288139814A815B81C6522E
:102CA000D1400E94861D2AE0969587957795679575
:102CB0002A95D1F7F501A501539500E0412C512C3F
:102CC000320188249924861A970A20813181C9010A
:102CD00037FF04C088279927821B930B092E000C0D
:102CE000AA0BBB0B480E591E6A1E7B1ECA5DDE4F27
:102CF000C880D980EA80FB80C652D140C80ED91E58
:102D0000EA1EFB1ECA5DDE4FC882D982EA82FB82C0
:102D1000C652D1408AE0F694E794D794C7948A9536
:102D2000D1F7CA5DDE4F88819981AA81BB81C652E5
:102D3000D1408C199D09AE09BF09CA5DDE4F888359
:102D40009983AA83BB83C652D140621773070CF0E4
:102D500022C2111120C20F5F11E03296E417F5076D
:102D600009F0B3CFB7E07694679457944794BA9537
:102D7000D1F797E4491618F4003108F441C0A1E0F6
:102D8000B0E0B0932101A09320018FE1C85EDE4F37
:102D9000E881F981C851D140C82E1192CA94E9F74F
:102DA000C65EDE4FA881B981CA51D1401D928A9575
:102DB000E9F78AE0CA5EDE4FE881F981C651D14069
:102DC00011928A95E9F78BE9C45EDE4FA881B9813B
:102DD000CC51D1401D928A95E9F74BE950E060E073
:102DE00080E00E942212CB5DDE4F1882C552D14096
:102DF000B1E0C05EDE4FB883C052D140212C10E05C
:102E00008091200190912101019709F08CC0F5017A
:102E10008081918177247394181619060CF0712C17
:102E2000CE0184569F4F0E9484139501339549012A
:102E300000E0C12CD12C7601D5016D917C91CB01A4
:102E400077FF04C088279927861B970B092E000C53
:102E5000AA0BBB0BC80ED91EEA1EFB1E872D7724BA
:102E60007394161617060CF0712C78120F5FCE01B2
:102E700084569F4F0E948A13B2E0AB0EB11CA81477
:102E8000B904D1F65E01EEEFAE1ABE0A4501712C0F
:102E90005A2C6B2C672DCE0184569F4F0E94E31352
:102EA000D4018D939D934D017394B5E07B12F2CFC5
:102EB000C05EDE4FE881C052D140E11509F475C112
:102EC0008AE0E52DF62DC65DDE4FA881CA52D140BD
:102ED000C55DDE4FB881CB52D14001900D928A95ED
:102EE000E1F7CB5DDE4FF881C552D140C05EDE4FC9
:102EF000F883C052D140C05EDE4F3881C052D1400D
:102F0000CB5DDE4F3883C552D140302ECF5DDE4FD2
:102F1000C882D982EA82FB82C152D140C05EDE4FB4
:102F20001882C052D14080912001909121010297D6
:102F300009F096CEFE01ED51FF4F7F014FE1E40E07
:102F4000F11CDF0120E08D91281708F4282FEA16E4
:102F5000FB06C9F7211589F04FEF30E081918F0111
:102F600001501109489FC0011124B9010E94321D6E
:102F7000D8016C93EE16FF0689F7FE0131962F01FA
:102F8000CF0120E05F01FC013FE14191241708F4EB
:102F9000242F3A95D1F74F96C25EDE4FC880D98074
:102FA000CE51D140C816D90671F7211509F1F201A9
:102FB00099249A9430E08F014FE1D8018D918D01D1
:102FC0006D01B1E0CB1AD108989EC0011124B9015E
:102FD0000E94321DD6016C934A9579F77F96C25EA6
:102FE000DE4FC880D980CE51D140CE16DF0619F70A
:102FF0004CEA50E060E080E00E942212A501BE0190
:103000006C537F4FCE018D519F4F0E941B13182F81
:103010004DEB50E060E080E00E9422124EEC50E068
:1030200060E081E00E942212812F0E947613AC01A1
:1030300060E081E00E9422128FED90E00E940B1F61
:103040008E010D511F4FD8018D918D011F928F93CD
:1030500085EE90E09F938F930E94F51E0F900F9046
:103060000F900F9054EEC52E50E0D52EF8018191AF
:103070008F011F928F93DF92CF920E94F51E0F90C7
:103080000F900F900F900E151F0581F78BEE90E0BB
:103090000E940B1F88EE90E00E940B1F8E010C53C4
:1030A0001F4FD8018D918D011F928F9385EE90E077
:1030B0009F938F930E94F51E0F900F900F900F908B
:1030C00044EEE42E40E0F42EF80181918F011F922E
:1030D0008F93FF92EF920E94F51E0F900F900F902A
:1030E0000F90C45DDE4FC880D980CC52D140C0164D
:1030F000D10651F78BEE90E00E940B1F82E7E82E7D
:1031000080E0F82E9DEE692E90E0792E25EEA22E1D
:1031100020E0B22E34EE832E30E0932ED7018C9136
:1031200011969C91B2E0EB0EF11C9F938F937F92CE
:103130006F920E94F51EF20181916F011F928F9391
:10314000BF92AF920E94F51E0FB6F894DEBF0FBE7D
:10315000CDBF1EE1D6018D916D011F928F939F927D
:103160008F920E94F51E11500F900F900F900F90AC
:103170001111F0CF8BEE90E00E940B1FBFE14B0EC0
:10318000511CECE7EE16E0E0FE0641F6109221013C
:103190001092200165CD281539050CF0DECD1130D7
:1031A00009F0DBCD0F5F10E0D8CD822D90E0FE015D
:1031B000ED51FF4FE20DF11DCF5DDE4F488059808C
:1031C0006A807B80C152D1404C0C5D1C6E1C7F1C00
:1031D0007727672D562D452D4114510421E06206B5
:1031E000710408F04FEF4083AE014C535F4F840FE2
:1031F000951F232D200FDC012C93C65DDE4F8880A8
:10320000CA52D140C55DDE4F9880CB52D140ECE828
:10321000F0E0CF5DDE4FF983E883C152D140DE019B
:103220001196A20DB11D9501265F3F4FAF01C25D02
:10323000DE4FB982A882CE52D140C25DDE4FE88116
:10324000F981CE52D14061917191C25DDE4FF98317
:10325000E883CE52D140F401419051904F01FA01E0
:103260003190AF01612C712C460E571E611C711CF0
:1032700004C076946794579447943A94D2F74114D3
:10328000F1E05F066104710410F044244A944C920A
:103290005F96C25DDE4F88819981CE52D140821700
:1032A000930759F6B701A601E7E07695679557951C
:1032B0004795EA95D1F7D5018D919D915D01CF5D3F
:1032C000DE4FA881B981C152D140ED91CF5DDE4F73
:1032D000B983A883C152D14002C096958795EA95DB
:1032E000E2F7039798F4A216B30629F7473451057D
:1032F0006105710558F4CB5DDE4FB881C552D140F0
:10330000BF5FC05EDE4FB883C052D1408AE0FE018D
:10331000EE5FFE4FDE01A45FBE4F01900D928A95D5
:10332000E1F72394EAE02E1608F4E5CDC05EDE4F07
:10333000F881C052D140FC3020F42FE1221608F46D
:10334000DACD82E090E09093210180932001D3CDEB
:10335000AFE0B0E0EEEAF9E10C94991D7C013B018D
:103360005A01FC0117821682838181FF57C39AE0BC
:10337000292EF7012381F30123FD859123FF8191FC
:103380003F01811509F442C0853239F423FD95913E
:1033900023FF91913F01953239F4B70190E00E94EB
:1033A000C51E65015601E5CF30E010E0912C812C5F
:1033B000F0E28F1608F03CC09B3279F160F4903255
:1033C00071F1933291F19E3209F046C086FC1EC025
:1033D000689486F806C09D3229F1903359F56894B7
:1033E00080F8F30123FD959123FF91913F01911105
:1033F000DFCF082D097F903709F486C208F07CC220
:10340000983509F484C29F3609F488C2F701868191
:1034100097812F96E2E10C94B51D689481F8689429
:1034200082F8DFCF689483F8DCCF689484F8D9CF32
:1034300087FC1CC080ED890F8A3028F686FE05C007
:10344000129D800D1124182FCCCF929C800D112439
:10345000982E689485F8C5CF9C3619F4689487F83F
:10346000C0CF9C3409F1983609F4BBCF3115F1F087
:10347000892F8F7D8554833008F098C1650128E03D
:10348000C20ED11C8FE3898301E010E0AE014F5FD3
:103490005F4F5A01E89487F883FC04C009151105B1
:1034A00008F4F0C1592C03C231E09BCF8BEB890F9C
:1034B000833098F4689484F8905E86FE16E0582D68
:1034C0005F73852E953689F4689486F8212F18301D
:1034D00010F027E017E0412C14C08BE9890F8330EE
:1034E00008F064C1E89484F8E8CF963681F56894D2
:1034F00087F8812F1C3308F08BE344244394480E53
:1035000027E0F50161917191819191916F01042DF5
:10351000AE014F5F5F4F0E94D01D5C01398030FECD
:1035200003C00DE233FE05C082FA002705F981FCD5
:103530000BE2F32DFC705F2EF11529F1011171C220
:1035400024E0512C921608F483C283E06FC220E07D
:10355000111509F4C0CF1150B9CF81108052B701B5
:1035600090E00E94C51E0F5F1F4FF80184918111EA
:10357000F4CF511409F416CFB70180E290E00E9415
:10358000C51E5A94F6CF87FE30C0842D8A0D34FEB6
:1035900004C09A81913309F481504424439418164D
:1035A00034F4482EF9E08F1710F088E0482EC5015A
:1035B000B7FE02C080E090E001960111019611155E
:1035C00031F0212F30E02F5F3F4F820F931F89157D
:1035D000910514F4592C581A882D8970811136C020
:1035E00051102DC00115D9F133C086FC25C0E12F43
:1035F000F0E01A151B043CF02CEFA2162FEFB206D8
:1036000014F0689487F83296AE014F5F5F4FE40F75
:10361000F51F01C01150111519F082918033D1F3BB
:1036200087FE0AC044244394410EA116B10414F449
:103630001A19BDCF10E0BBCF85E090E0BECFB70137
:1036400080E290E00E94C51E5A94CACF011529F06D
:10365000B701802F90E00E94C51E83FC02C051106C
:103660003FC087FE57C04501B7FE02C0812C912C98
:10367000CE0101968A0D9B1DFC01E819F909FD8711
:10368000EC879501241931093F872E87012F10E01F
:10369000119501951109A814B9044CF14E855F8567
:1036A0004815590524F5EC85FD858181F1E08F1AD7
:1036B00091082C853D852F5F3F4F3D872C878016D5
:1036C0009106BCF0B70190E00E94C51E3FEF831643
:1036D000930609F7B7018EE290E00E94C51EDBCF8A
:1036E000B70180E390E00E94C51E5A94B8CF80E3F2
:1036F000DDCFA814B90439F49A81963348F4953390
:1037000011F434FE05C0B70190E00E94C51E31CF10
:1037100081E3F9CF8A81813311F0E89434F8B7015D
:1037200090E00E94C51E111125C085E490E084FC44
:1037300002C085E690E0B7010E94C51EB7FC05C037
:10374000A114B10461F534FE2AC0B194A194B1086A
:103750008DE2B70190E00E94C51E80E35AE0A516F5
:10376000B104FCF4B70190E00E94C51EB701C50189
:10377000C096CBCFB7018EE290E00E94C51E1E5FBF
:1037800002E0802F0F5FFE013196E80FF11D80816E
:10379000B70190E00E94C51E0113F3CFC6CF8BE2A4
:1037A000D8CF8F5F4AE0A41AB108D8CF9336E1F1A1
:1037B000933709F447C0933509F453C0943619F090
:1037C000993609F080C0F50187FE75C0619171914D
:1037D000819191916F01082D0F7697FF08C0909508
:1037E0008095709561957F4F8F4F9F4F00682AE0BD
:1037F00030E0AE014F5F5F4F5A010E94371FB82E75
:10380000BA1806FF95C0802F8E7FB11608F08FC0C2
:1038100004FFE1C002FDD5C00E7E512E802F8678B8
:10382000811509F490C0D2C0650182E0C80ED11C98
:10383000F5018081898301E010E09E012F5F3F4FF9
:10384000590128CEF501A190B1906F01612F70E070
:1038500086FC02C06FEF7FEFC5010E94BA1E8C018B
:1038600019CEF501A190B1906F01612F70E086FC37
:1038700002C06FEF7FEFC5010E94A81E8C01689403
:1038800087F80ACEB70180E290E00E94C51E9A94A4
:1038900005CEF50187FC859187FE81915F01B70117
:1038A00090E00E94C51E51105A9401501109011553
:1038B000110579F75ECE619171916F01072E000CB1
:1038C000880B990B88CF082D0F7E2AE030E09537C2
:1038D00009F08FCDF50107FF24C0619171918191AD
:1038E00091916F01AE014F5F5F4F5A010E94371FE8
:1038F000B82EBA180F7785CF983709F087CD84FC9A
:1039000004C020E130E0E6CF00610460FACF84FE1D
:1039100002C0082D066020E132E0DCCF28E030E074
:10392000D9CF619171916F0180E090E0DBCF082FDA
:103930005B2C04FF73CFFE01EB0DF11D8081803302
:1039400009F042C0097E03FD0EC000FF50C01B2DD0
:10395000591418F4190D1519592C892D8519951418
:1039600008F480E0580E591408F043C09518592CFB
:1039700004FF41C0B70180E390E00E94C51E02FF32
:1039800009C088E590E001FD02C088E790E0B7013A
:103990000E94C51EB116D8F1BA940B2D10E00F5F2E
:1039A0001F4FCE0101965C01080F191FF80182918B
:1039B0008F01B70190E00E94C51EA016B106B1F7B5
:1039C000D8CD512E082FB7CF02FD02C05394BBCFE4
:1039D00053945394B8CF512E082F20CFB70180E2D3
:1039E00090E00E94C51EA394A914C0F3B6CFA52CE5
:1039F000FBCF512CBDCF802F8678811559F280E204
:103A000001FD8BE207FD8DE2B70190E0C1CFB70168
:103A100080E390E00E94C51E1150BCCF8FEF9FEF56
:103A2000F8CCF5E0512C9F1670F084E0592C581A10
:103A300083FC07C0B70180E290E00E94C51E5A9443
:103A4000C9F7011529F0B701802F90E00E94C51E2B
:103A500004E510E033FC02C008E510E0282D2071D9
:103A6000822E83CDAA1BBB1B51E107C0AA1FBB1F1F
:103A7000A617B70710F0A61BB70B881F991F5A95FA
:103A8000A9F780959095BC01CD010895A1E21A2E69
:103A9000AA1BBB1BFD010DC0AA1FBB1FEE1FFF1FF2
:103AA000A217B307E407F50720F0A21BB30BE40B42
:103AB000F50B661F771F881F991F1A9469F7609589
:103AC0007095809590959B01AC01BD01CF01089543
:103AD0000E94701D332312F48A1B9B0B0C94811DD2
:103AE000A29FB001B39FC001A39F700D811D11243F
:103AF000911DB29F700D811D1124911D08950E948A
:103B0000701DB7FF0895821B930B08950E94701DCE
:103B1000A59F900DB49F900DA49F800D911D112421
:103B20000895B7FF0C94861D0E94861D821B930B7F
:103B300008952F923F924F925F926F927F928F9251
:103B40009F92AF92BF92CF92DF92EF92FF920F932C
:103B50001F93CF93DF93CDB7DEB7CA1BDB0B0FB636
:103B6000F894DEBF0FBECDBF09942A8839884888F3
:103B70005F846E847D848C849B84AA84B984C88489
:103B8000DF80EE80FD800C811B81AA81B981CE0F80
:103B9000D11D0FB6F894DEBF0FBECDBFED01089565
:103BA000283008F027E03327DA01990F311D87FD0F
:103BB000916000966105710539F432602E5F3D9386
:103BC00030E32A95E1F708959F3F30F08038710582
:103BD000610509F03C5F3C5F3D93913008F08068DF
:103BE000911DDF93CF931F930F93FF92EF92192FA5
:103BF000987F9695E92F96959695E90FFF27E857B8
:103C0000F04C99273327EE24FF24A701E701059004
:103C10000894079428F4360FE71EF81E491F511D1B
:103C2000660F771F881F991F0694A1F705900794C8
:103C300028F4E70EF81E491F561FC11D770F881F75
:103C4000991F661F0694A1F70590079428F4F80EB3
:103C5000491F561FC71FD11D880F991F661F771F49
:103C60000694A1F70590079420F4490F561FC71F2B
:103C7000D81F990F661F771F881F0694A9F7849194
:103C80001095177041F0D695C79557954795F794BD
:103C9000E7941A95C1F7EEE2FFE368941590159149
:103CA00035916591959105907FE27395E118F10A40
:103CB000430B560BC90BD009C0F7E10CF11E431F93
:103CC000561FC91FD01D7EF4703311F48A95E6CFBC
:103CD000E894015030F0080F0AF40027021708F4A6
:103CE000202F2395022F7A3328F079E37D932A95AC
:103CF000E9F710C07D932A9589F606949795679504
:103D0000379517951794E118F10A430B560BC90B19
:103D1000D00998F023957E9173957A3308F070E37B
:103D20007C932013B8F77E9170617D9330F083957A
:103D300071E37D9370E32A95E1F71124EF90FF90F2
:103D40000F911F91CF91DF91992787FD909508954D
:103D5000FC010590615070400110D8F78095909556
:103D60008E0F9F1F0895DC0101C06D93415050409C
:103D7000E0F70895FC016150704001900110D8F700
:103D8000809590958E0F9F1F08950F931F93CF934B
:103D9000DF93182F092FEB018B8181FD09C01FEFE5
:103DA0000FEF812F902FDF91CF911F910F910895E9
:103DB00082FF14C02E813F818C819D812817390795
:103DC0003CF4E881F981CF010196998388831083BF
:103DD0008E819F8101969F838E83E3CFE885F9854D
:103DE000812F0995892BA1F3DACFA0E0B0E0EBEFAA
:103DF000FEE10C94A91DAE014B5F5F4FFA0161918A
:103E00007191AF0180911F04909120040E94A81924
:103E1000E2E00C94C51D0F931F93CF93DF93E091C5
:103E20001F04F0912004238100E010E021FD0EC06A
:103E30000FEF1FEFC801DF91CF911F910F910895F0
:103E40000995892B11F00FEF1FEFCE01EC0189913D
:103E500060911F0470912004DB011896ED91FC9194
:103E60008111EECF8AE00995892B21F3E1CFFA0188
:103E7000AA27283051F1203181F1E8946F936E7FA9
:103E80006E5F7F4F8F4F9F4FAF4FB1E03ED0B4E09A
:103E90003CD0670F781F891F9A1FA11D680F791FDB
:103EA0008A1F911DA11D6A0F711D811D911DA11DEC
:103EB00020D009F468943F912AE0269F11243019FC
:103EC000305D3193DEF6CF010895462F4770405D97
:103ED0004193B3E00FD0C9F7F6CF462F4F70405D46
:103EE0004A3318F0495D31FD4052419302D0A9F7A1
:103EF000EACFB4E0A6959795879577956795BA959B
:103F0000C9F700976105710508959B01AC010A2E60
:103F100006945795479537952795BA95C9F7620F37
:103F2000731F841F951FA01D0895F894FFCF0040B4
:103F30007A10F35A00A0724E18090010A5D4E800B8
:103F400000E87648170000E40B54020000CA9A3BD0
:103F5000000000E1F5050000809698000000404256
:103F60000F000000A08601000000102700000000E4
:103F7000E803000000006400000000000A000000E8
:103F800000000100000000002C76D888DC674F0894
:103F900023DFC1DFAE59E1B1B796E5E3E453C63A9A
:103FA000E651997696E8E6C28426EB898C9B62ED11
:103FB000407C6FFCEFBC9C9F40F2BAA56FA5F490CB
:103FC000055A2AF75C936B6CF9676DC11BFCE0E442
:103FD0000D47FEF520E6B500D0ED902E0300943598
:103FE00077050080841E080000204E0A000000C8EB
:103FF0000C333333330F986E12831141EF8D21143C
:10400000893BE65516CFFEE6DB18D1844B381BF70B
:104010007C1D901DA4BBE424203284725E228100AA
:08402000C9F124ECA1E53D27E4
:10402800000004000000000300000000EB12E6128C
:1040380000005E018403A4068C0AAC0DF300F600B0
:10404800FA000001050108010D0112010A0807061E
:1040580005337B0562AC1E2ABEBE895265636F724A
:1040680064696E672E2E2E2020202000436C617319
:1040780073696679696E672E2E2E20200044657458
:1040880065637465643A20202020202020002020C9
:104098002020202020202020202020202020005305
:1040A80054450D002C2575005A43450D00472575CC
:1040B8000D0A004F4E004F464600535441525400DB
:1040C80053544F5000555000444F574E004C4546EE
:1040D8005400524947485400554E4B4E4F574E00D6
:00000001FF
