:100000000C94FE050C941B060C941B060C941B060A
:100010000C941B060C941B060C941B060C941B06DC
:100020000C941B060C941B060C941B060C941B06CC
:100030000C941B060C941B060C941B060C941B06BC
:100040000C941D060C941B060C941B060C941B06AA
:100050000C941B066E616E00696E6600EFF8F9F392
:10006000E8D9BB9C868390969794816B605D5D5CBC
:100070005B5C5C5B5B5B5B5C5C5B5B212122221EEF
:100080001917161414110D0A0807060402000000BF
:100090000000000000000000000000000000000060
:1000A0000000000000000000000000000000000050
:1000B0000000000000000000000000000000000040
:1000C0000000000000000000000000000000000030
:1000D0000000000000000000000000000000000020
:1000E0000000000000000000000000000000000010
:1000F0000000000000000000000000000000000000
:1001000000000000000000000000000000000000EF
:100110000000000000002927262628292826282953
:1001200027262627292624272F67B7DBEEFCFE0388
:100130000DFFF6F6EC180E0806020402000000009F
:1001400000000000000000011322232424272521A1
:10015000241B10120000000000000000000000003E
:10016000000000000000000000000000000000008F
:10017000000000000000000000000000000000007F
:10018000000000000000000000000000000000006F
:10019000000000000000000000000000000000005F
:1001A000000000000000000000000000000000004F
:1001B000000000000000000000000000000000003F
:1001C000000000000000000000000000000000002F
:1001D0002C2D2C2C416887AED6E9787EF4DC3EA726
:1001E000825A453833302D2D2C2A2B2A2C2B2A0CC1
:1001F00007080A0C0E1220262426221A1616120FA1
:1002000016171615120D0500000000000000000072
:1002100000000000000000000000000000000000DE
:1002200000000000000000000000000000000000CE
:1002300000000000000000000000000000000000BE
:1002400000000000000000000000000000000000AE
:10025000000000000000000000000000000000009E
:10026000000000000000000000000000000000008E
:10027000000000000000000000000000000000007E
:1002800000000000000000000000BFCDCCB071886D
:1002900087976F50403934312F2E2C2C2C2C2C2D3D
:1002A0002D2D2D2D2D2E2E2E2E21232423211C1BD2
:1002B0001A181A1C18120C06020000000000000098
:1002C000000000000000000000000000000000002E
:1002D000000000000000000000000000000000001E
:1002E000000000000000000000000000000000000E
:1002F00000000000000000000000000000000000FE
:1003000000000000000000000000000000000000ED
:1003100000000000000000000000000000000000DD
:1003200000000000000000000000000000000000CD
:1003300000000000000000000000000000000000BD
:10034000000000003B38332E2B2B37515990B19BC6
:10035000CDD1F3F3CBA0DC7A7D7C5B46392E292707
:10036000272625424445382016191E211C20232407
:10037000292C2B2927231F1D1C18130D0B090502DF
:10038000000000000000000000000000000000006D
:10039000000000000000000000000000000000005D
:1003A000000000000000000000000000000000004D
:1003B000000000000000000000000000000000003D
:1003C000000000000000000000000000000000002D
:1003D000000000000000000000000000000000001D
:1003E000000000000000000000000000000000000D
:1003F00000000000000000000000000000009CA7BA
:10040000978A9BA3A14CA6967B6D625C56627E96F2
:1004100097969F4A9A9B9C99AAA88C837D0D0F174B
:1004200019181D27302D1E130E090B100F0D0E0F5E
:1004300013151313130F0D15262924240000000093
:1004400000000000000000000000000000000000AC
:10045000000000000000000000000000000000009C
:10046000000000000000000000000000000000008C
:10047000000000000000000000000000000000007C
:10048000000000000000000000000000000000006C
:10049000000000000000000000000000000000005C
:1004A000000000000000000000000000000000004C
:1004B000000000000000000025272625262726240E
:1004C00028262428262F3A3E423D35322A2726293F
:1004D0003A6EB6E3FF080C090605030000010404A8
:1004E0000404030113385B706A66633E13020D1F38
:1004F00029282624201F0000000000000000000022
:1005000000000000000000000000000000000000EB
:1005100000000000000000000000000000000000DB
:1005200000000000000000000000000000000000CB
:1005300000000000000000000000000000000000BB
:1005400000000000000000000000000000000000AB
:10055000000000000000000000000000000000009B
:10056000000000000000000000000000000000008B
:100570000000474F4E4B4E546373849E9E997C52AD
:10058000526F5E888860463D3B39332E2D2D2D2CD1
:100590002C4C483E322014161D262B251E1D1D1CDA
:1005A000191816130D0C0D090807040201010000AB
:1005B000000000000000000000000000000000003B
:1005C000000000000000000000000000000000002B
:1005D000000000000000000000000000000000001B
:1005E000000000000000000000000000000000000B
:1005F00000000000000000000000000000000000FB
:1006000000000000000000000000000000000000EA
:1006100000000000000000000000000000000000DA
:10062000000000000000000000000000B9DDF4FF41
:10063000E69B655F5F52403A3A3A39393939383882
:1006400039383939393839393838392F31312D2459
:100650001E19100B0D0B0602000000000000000028
:10066000000000000000000000000000000000008A
:10067000000000000000000000000000000000007A
:10068000000000000000000000000000000000006A
:10069000000000000000000000000000000000005A
:1006A000000000000000000000000000000000004A
:1006B000000000000000000000000000000000003A
:1006C000000000000000000000000000000000002A
:1006D000000000000000000000000000000000001A
:1006E000000000000000BEE2F5F7DFA68C8E7C6300
:1006F000514E4F4F4E4E4F504F4E4F4F4F4E4F4F0C
:100700004E4E4E4E4F363A3A2E1F150E0A0B080526
:1007100004010000000000000000000000000000D4
:1007200000000000000000000000000000000000C9
:1007300000000000000000000000000000000000B9
:1007400000000000000000000000000000000000A9
:100750000000000000000000000000000000000099
:100760000000000000000000000000000000000089
:100770000000000000000000000000000000000079
:100780000000000000000000000000000000000069
:100790000000000000000000000000000000000059
:1007A000C5E1F3F6F4F6EBDDD1C2B4A79C907D6908
:1007B0005A4E4A463F3A3837373636373736363D5F
:1007C0003F434548494139322A26231C130F0C0A5E
:1007D00009070605040201000000000000000000F7
:1007E0000000000000000000000000000000000009
:1007F00000000000000000000000000000000000F9
:1008000000000000000000000000000000000000E8
:1008100000000000000000000000000000000000D8
:1008200000000000000000000000000000000000C8
:1008300000000000000000000000000000000000B8
:1008400000000000000000000000000000000000A8
:10085000000000000000000000003D3937393A4038
:10086000423C4D6A60637A7E808496B1D2EBF4F8A4
:10087000FAFFFDEBE4CDB3A99B220E0400000404B3
:1008800000030A0B0707080E16293535332C3037BD
:100890003E43464232302E26000000000000000099
:1008A0000000000000000000000000000000000048
:1008B0000000000000000000000000000000000038
:1008C0000000000000000000000000000000000028
:1008D0000000000000000000000000000000000018
:1008E0000000000000000000000000000000000008
:1008F00000000000000000000000000000000000F8
:1009000000000000000000000000000000000000E7
:1009100000000000F0F3F8F8F7E2AD795A4B433EDF
:100920003B3A3A3938373738383838383838383841
:10093000383838292D2C2D2C2924201F23241D152F
:100940000C03000000000000000000000000000098
:100950000000000000000000000000000000000097
:100960000000000000000000000000000000000087
:100970000000000000000000000000000000000077
:100980000000000000000000000000000000000067
:100990000000000000000000000000000000000057
:1009A0000000000000000000000000000000000047
:1009B0000000000000000000000000000000000037
:1009C00000000000000000000000000000007F8424
:1009D0008682ABEDFFF4F9FEFAD99C715D4D3F3B89
:1009E0003C3C3B39393938383939393838161312E3
:1009F000141B2531312F363334311D1C29302A1276
:100A000002000000000000000000000000000000E4
:100A100000000000000000000000000000000000D6
:100A200000000000000000000000000000000000C6
:100A300000000000000000000000000000000000B6
:100A400000000000000000000000000000000000A6
:100A50000000000000000000000000000000000096
:100A60000000000000000000000000000000000086
:100A70000000000000000000000000000000000076
:100A800000000000000000007182A2C9DED3CBCEBE
:100A9000D0D6DCE5DED4E5DDB8957A68564644422A
:100AA0003F40403E3E3F401C1F2224252A2C2C2E36
:100AB000313636312C2828201B160D0B070200007A
:100AC0000000000000000000000000000000000026
:100AD0000000000000000000000000000000000016
:100AE0000000000000000000000000000000000006
:100AF00000000000000000000000000000000000F6
:100B000000000000000000000000000000000000E5
:100B100000000000000000000000000000000000D5
:100B200000000000000000000000000000000000C5
:100B300000000000000000000000000000000000B5
:100B40000000AEC6CED5DEE9F3F8F0E3DCDDD4B1CB
:100B50008E765D4C433F3E3E3E3D3D3E3E3E3D3DFE
:100B60003E28292B313334353838332A2523211CAC
:100B7000150F0C070301000000000000000000003A
:100B80000000000000000000000000000000000065
:100B90000000000000000000000000000000000055
:100BA0000000000000000000000000000000000045
:100BB0000000000000000000000000000000000035
:100BC0000000000000000000000000000000000025
:100BD0000000000000000000000000000000000015
:100BE0000000000000000000000000000000000005
:100BF00000000000000000000000000011241FBEE3
:100C0000CFE5D8E0DEBFCDBF10E0A0E6B0E0ECE17C
:100C1000FAE202C005900D92A83FB107D9F721E092
:100C2000A8EFB0E001C01D92A330B207E1F70E9427
:100C300092090C948F140C9400001F920F920FB61F
:100C40000F9211248F939F9384B195B19093FA00E2
:100C50008093F90088B7886088BF81E08093F800AE
:100C60009F918F910F900FBE0F901F90189595B385
:100C70009F70282F207F922B95BBAA98A89A94E06A
:100C80009A95F1F7A898E8E2F2E03197F1F700C001
:100C9000000095B38295807F9F70892B85BBA89AB1
:100CA000F4E0FA95F1F7A89889E995E10197F1F751
:100CB00000C0089595B39F70282F207F922B95BB7D
:100CC000AA9AA89A94E09A95F1F7A898E8E2F2E037
:100CD0003197F1F700C0000095B38295807F9F7037
:100CE000892B85BBA89AF4E0FA95F1F7A89889E9D1
:100CF00095E10197F1F700C008958FEF84BB8FEF66
:100D000097ED0197F1F700C0000082E00E943706DE
:100D100088E20E9437068CE00E94370686E00E9437
:100D2000370681E00E94370689E995E10197F1F7DE
:100D300000C00895CF93DF93EC018991811103C026
:100D4000DF91CF9108950E945A06F7CFCF93DF939A
:100D5000D42FC52F81110BC0862F8F708068603112
:100D60006CF08D2F9C2FDF91CF910C949A068130DF
:100D7000C1F76031B4F7862F8F70806C0E94370600
:100D8000F0CF81E00E94370689E995E10197F1F7FC
:100D900000C080E80C943706CF93DF93D62FC72F7F
:100DA00090EC980F913440F40E9437068D2F9C2FC1
:100DB000DF91CF910C949A06DF91CF910895811124
:100DC00006C0862F8F708068603144F008958130AE
:100DD000E9F76031DCF7862F8F70806C0C94370652
:100DE0000E9437068FE084BBAA9AA99AA89A8AE43F
:100DF0008A95F1F793B3907FA898E8E2F2E03197F3
:100E0000F1F700C00000A89AFAE4FA95F1F783B36D
:100E1000A8982FEF24BBA99882958F70892B0895ED
:100E20008A98833059F4929885B7836085BF8AB7D2
:100E300080648ABF8BB780648BBF0895929A81309B
:100E400051F0823071F08111F2CF85B78D7F85BF6F
:100E500085B78E7FEBCF85B78D7F85BF85B78160E6
:100E6000E5CF85B78260F3CF8B98833059F49398A0
:100E700085B78C6085BF8AB780688ABF8BB780686A
:100E80008BBF0895939A813051F0823071F08111B7
:100E9000F2CF85B7877F85BF85B78B7FEBCF85B7CF
:100EA000877F85BF85B78460E5CF85B78860F3CF3E
:100EB000BA98833059F4C29884B7806484BF8AB7E3
:100EC00080628ABF8BB780628BBF0895C29A84B755
:100ED0008F7BF4CF5F9BFECF8CB190E008955D9B3C
:100EE000FECF8CB980E090E008959B01AC0184E0D6
:100EF000220F331F441F551F8A95D1F760E070EC15
:100F000088EA90E00E94CB112150310929B930BD07
:100F1000549A539A80B5866880BD08955F9B03C03C
:100F20008CB190E008958FEF9FEF0895EDEFF0E022
:100F300080E690E0938382839183808308952F924B
:100F40003F924F925F926F927F928F929F92AF9259
:100F5000BF92CF92DF92EF92FF920F931F93CF93A6
:100F6000DF93CDB7DEB72C970FB6F894DEBF0FBE78
:100F7000CDBF7C0169837A83488759878CE5282E09
:100F800080E0382E90E080E088248A94982C5401E8
:100F90009701215E3F4F3D832C8329813A81215E59
:100FA0003F4F3F832E83610122E070C034912D9129
:100FB000231B330B229F8001239F100D100D112442
:100FC000012E000C220B330B400F511F621F731FA9
:100FD00031964C805D804A165B0641F7F6017F969C
:100FE000A981BA8134912D91231B330B229F80015B
:100FF000239F100D100D1124012E000C220B330B1A
:10100000400F511F621F731F31966E807F806A16DA
:101010007B0641F778847B8629852A872EE330E09A
:10102000F601E20FF31FAB85BA858D01015E1F4FFC
:1010300044905D90652C641877087C866B8623014C
:10104000449C3001459C700C700C11242301770CDA
:1010500066087708440D551D661D771D31960A17E1
:101060001B0731F7215E3F4F2A3B3105B1F448158C
:1010700059056A057B0518F4892F4A015B012AEBA3
:10108000C20ED11C3B81313059F021E02B83D701B6
:10109000F60140E050E0BA0189CF0B871A87C0CF34
:1010A0009F5F3CE8231A3EEF330A983009F07BCF6C
:1010B0002C960FB6F894DEBF0FBECDBFDF91CF9157
:1010C0001F910F91FF90EF90DF90CF90BF90AF9066
:1010D0009F908F907F906F905F904F903F902F9058
:1010E0000895883048F4E82FF0E0EE0FFF1FE25932
:1010F000FF4F8081918108958FEE90E0089520E266
:10110000FC0111922A95E9F708956F927F928F92D0
:101110009F92AF92BF92CF92DF92EF92FF920F9386
:101120001F93CF93DF933EE7632E30E0732EFC01D5
:101130008C01005F1F4F6B01770FEE08FF08E30182
:10114000A991B9913E0181909190A190B190A50192
:1011500094010E94ED11DC01CB012EE0B595A7951D
:10116000979587952A95D1F78C0D9D1DAE1DBF1DB6
:101170004485558566857785841B950BA60BB70B33
:1011800084869586A686B7869F0124503109E90199
:1011900088839983AA83BB83E017F10781F6DF91E7
:1011A000CF911F910F91FF90EF90DF90CF90BF9064
:1011B000AF909F908F907F906F9008952F923F9265
:1011C0004F925F926F927F928F929F92AF92BF9257
:1011D000CF92DF92EF92FF920F931F93CF93DF9303
:1011E000CDB7DEB72A970FB6F894DEBF0FBECDBFDE
:1011F000E62EF12CFA86E98604E0609FF0011124C6
:10120000E80FF91F80819181A281B38189839A833C
:10121000AB83BC834088518862887388BC01CD0150
:101220009B01AC010E944D1249014D835E831B015D
:101230008F839887C301B201A30192010E944D12CE
:1012400059016A017B018C0194014D815E81B101DC
:101250008F8198850E94DB12922E832E342E252EAC
:101260006D837E838F839887A985BA85AA0FBB1F5C
:10127000A258BF4F6D917C91072E000C880B990BE3
:1012800029813A814B815C810E944D128301720158
:10129000110FEE08FE2C8701E982FA820B831C8372
:1012A00052016301E980FE2C0E2D1E2D0E94F511C6
:1012B0000EE00E94BE1259016A017B018C01292DAA
:1012C000382D432D522D6D817E818F8198850E940E
:1012D000E4122983B32FF42FE52FA0E00E94ED1232
:1012E00024F41982B0E0F0E0E0E069817B2F8F2FD9
:1012F0009E2F2A960FB6F894DEBF0FBECDBFDF91AA
:10130000CF911F910F91FF90EF90DF90CF90BF9002
:10131000AF909F908F907F906F905F904F903F9095
:101320002F900895CDB7DEB7C351D1400FB6F894D2
:10133000DEBF0FBECDBF60E875E280E090E00E94A6
:1013400075070E9496071FBC8AE08EBD8CEA90E06C
:101350009BBD8ABD99BD88BD83E087B98EEE86B9F5
:1013600080B78F7180BF80B7806A80BF78940E94F9
:101370007D0660E080E00E94DF0678948E010454D0
:101380001F4FC551DF4F19830883CB5ED0408FE1DB
:10139000D801E82F1D92EA95E9F70F511109C351C1
:1013A000DF4F19830883CD5ED040D8011D928A9506
:1013B000E9F71E01BDE72B0E311CC1010E947F0819
:1013C000025C1F4FC151DF4F19830883CF5ED040AD
:1013D000C552DF4F188219821A821B82CB5DD04022
:1013E000C152DF4F188219821A821B82CF5DD04012
:1013F000CD51DF4F188219821A821B82C35ED04002
:10140000C951DF4F188219821A821B82C75ED040F1
:10141000E12C11E0C25FDE4F1883CE50D140812C09
:1014200001E0C15FDE4F0883CF50D140912CF12CF9
:10143000C150DF4F19821882CF5FD040612C712CD0
:10144000412C512C0DE710E0C750DF4F1983088362
:10145000C95FD04000E41FE1C85FDE4F19830883F5
:10146000C850D140C350DF4F19821882CD5FD040A1
:101470000DE710E0CB50DF4F19830883C55FD040E4
:1014800000E010E024E030E0C65FDE4F08831983FF
:101490002A833B83CA50D140CF50DF4F3982288204
:1014A000C15FD0408E010F5F1F4FCD50DF4F1983BA
:1014B0000883C35FD0408091F8008115E1F310925A
:1014C000F8008091FB009091FC00892B59F58091E8
:1014D000F9009091FA00092E000CAA0BBB0BC65F15
:1014E000DE4F088119812A813B81CA50D140800F8B
:1014F000911FA21FB31FAC01BD011AE0769567953D
:10150000579547951A95D1F78C019D01041B150B32
:10151000260B370BC65FDE4F088319832A833B8374
:10152000CA50D140A090F900B090FA00C65FDE4FDB
:10153000088119812A813B81CA50D140AAE03695A1
:10154000279517950795AA95D1F7CC5FDE4F0883AD
:1015500019832A833B83C450D1408501CC5FDE4F81
:1015600028813981C450D140021B130B8091FB00AC
:101570009091FC00892B09F00FC1680117FF03C08F
:101580006901CA18DB08C350DF4F48815981CD5F1C
:10159000D040C40ED51EB801C1010E948508CB50B1
:1015A000DF4F88819981C55FD0400197C350DF4FDD
:1015B00099838883CD5FD040892B09F0DBC0CC0CA8
:1015C000CD2CCC1CDD08D194CF5FDE4F1882C150EA
:1015D000D140CD5FDE4F1882C350D140CF5FDE4F88
:1015E0006881C150D140C1010E94DE089B01AC015D
:1015F000E4E15695479537952795EA95D1F7CB5075
:10160000DF4F288339834A835B83C55FD040322D07
:10161000232D611571058105904180F05FEFCB505E
:10162000DF4F5883C55FD040C950DF4F1882C75F76
:10163000D040C850DF4F1882C85FD040CD5FDE4F2A
:101640008881C350D140CB50DF4F9881C55FD040D7
:10165000891728F4CD5FDE4F9883C350D140CF5F08
:10166000DE4FB881C150D140BF5FCF5FDE4FB8833E
:10167000C150D140B43009F0B1CF832F922F0E94D6
:101680007F08E5E6CE16D10440F4CD5FDE4FF88149
:10169000C350D140F23008F486C121E030E03093ED
:1016A000FC002093FB008FE1C551DF4FA881B98179
:1016B000CB5ED040E82F1D92EA95E9F7C351DF4F8A
:1016C000A881B981CD5ED0401D928A95E9F7C1010C
:1016D0000E947F0880E1C151DF4FE881F981CF5E30
:1016E000D04011928A95E9F78CE7CD50DF4FA88161
:1016F000B981C35FD0401D928A95E9F746E850E072
:1017000060E080E00E94A606C150DF4F1982188277
:10171000CF5FD040612C712C412C512CE12CB1E0D9
:10172000C25FDE4FB883CE50D140812CE1E0C15F73
:10173000DE4FE883CF50D140912CF12C2DE730E0E3
:10174000C750DF4F39832883C95FD04040EA5FE04C
:10175000C85FDE4F59834883C850D1405DE7CB5006
:10176000DF4F5883C55FD040CA50DF4F1882C65F35
:10177000D04012C0C350DF4F88819981CD5FD040E7
:10178000CB50DF4F99838883C55FD040C350DF4F74
:10179000D982C882CD5FD0408091FB009091FC003F
:1017A000019709F06FC0C750DF4FA881B981C95FA9
:1017B000D0401197C750DF4FB983A883C95FD0408D
:1017C000C80117FF08C0CC5FDE4F88819981C450E3
:1017D000D1408A199B09CF5FDE4F99838883C1501E
:1017E000D140C750DF4FE881F981C95FD040EF2B6E
:1017F00009F4E0C0860D971DCF5FDE4F9983888383
:10180000C150D140DD24D394101611060CF0D12C18
:10181000C25FDE4FF881CE50D140F11102C08D1071
:10182000F394B801C1010E948508CF2CF92CC15056
:10183000DF4F68807980CF5FD040C25FDE4F188273
:10184000CE50D140C85FDE4F08811981C850D140C9
:1018500001501109C85FDE4F19830883C850D14079
:10186000012B09F4DDC18D2C9F2CFC2CC150DF4FC6
:1018700079826882CF5FD040CF5FDE4F6880798009
:10188000C150D1408091FB009091FC00029709F07B
:1018900012CEFE01E454FF4F8F01015E1F4FDF01A6
:1018A00020E06F018D91281708F4282F0A171B07D5
:1018B000C9F7211591F030E081915F0141E0A41A50
:1018C000B1085FEF589FC0011124B9010E94B71100
:1018D000D5016C930E171F0779F7FE013196CB5097
:1018E000DF4F2882C55FD040C350DF4F3882CD5FC5
:1018F000D040DF018FE120E09D91291708F4292FC6
:101900008A95D1F7211193C17F96CF50DF4F08817F
:101910001981C15FD0400E171F0759F747E950E002
:1019200060E080E00E94A606AE014F5F5F4FBE01FF
:1019300063567F4FC6010E949F070E9471088C0169
:1019400048EA50E060E080E00E94A60649EB50E0E3
:1019500060E081E00E94A606A80160E081E00E94AC
:10196000A6061092FC001092FB00CB50DF4F88813E
:10197000C55FD040C350DF4F9881CD5FD0400E94FB
:101980007F08C350DF4F19821882CD5FD040BDE77A
:10199000CB50DF4FB883C55FD040CA50DF4F1882AD
:1019A000C65FD04088CD9DE7CB50DF4F9883C55FA1
:1019B000D040DACEC15FDE4F2881CF50D140211513
:1019C00081F16E013BEDC30ED11CB12C6B2DC10119
:1019D0000E94DE08D6016D937D938D939D936D01DA
:1019E000B394B4E0BB12F2CFC1010E947F08DD24A2
:1019F000D394101611060CF0D12CC82CCD24B801AC
:101A0000C1010E948508C15FDE4F1882CF50D140CE
:101A10000DE710E0C750DF4F19830883C95FD0403E
:101A200011CFC150DF4F88819981CF5FD040860DA3
:101A3000971DFE01E454FF4FE40DF51D9083FE0158
:101A4000E356FF4FE40DF51D9F0C90826E012BEDC8
:101A5000C20ED11CAA24A394B12CAC0EBD1EA40CA2
:101A6000B51CC150DF4FD982C882CF5FD040912CC6
:101A7000692DC1010E94DE08C05FDE4F6883C0513E
:101A8000D140CF5EDE4F7883C151D140CE5EDE4F74
:101A90008883C251D140CD5EDE4F9883C351D1407F
:101AA000C150DF4FE881F981CF5FD04081919191A2
:101AB000A191B191C150DF4FF983E883CF5FD0404E
:101AC000C05FDE4F288139814A815B81C051D1409E
:101AD000820F931FA41FB51F9C01AD0166E15695AF
:101AE0004795379527956A95D1F7C750DF4F2883DB
:101AF00039834A835B83C95FD040CD5FDE4F288244
:101B0000C350D140CC5FDE4F3882C450D1400097E3
:101B1000A105B044A8F04FEFC750DF4F4883C95F1D
:101B2000D040C650DF4F1882CA5FD040C550DF4F4B
:101B30001882CB5FD040C450DF4F1882CC5FD040BA
:101B4000C750DF4FE881C95FD040D501EC93C15049
:101B5000DF4FE881F981CF5FD040C05FDE4F288141
:101B600039814A815B81C051D14052934293329373
:101B7000229393943FE1A30EB11C44E0941278CFDA
:101B8000C301880F892F881F990B91959601205FBB
:101B90003F4FD6014D915D916D917D916D01411544
:101BA00051056042710538F4C216D30691F7E394EB
:101BB0008536910508F0E12CEFEF4E1A5E0ACD5FF5
:101BC000DE4F8881C350D140CC5FDE4F9881C45036
:101BD000D1400E947F08DD24D394101611060CF02A
:101BE000D12CC82CCD24B801CD5FDE4F8881C350E5
:101BF000D140CC5FDE4F9881C450D1400E9485080F
:101C0000FAE04F16510408F403CF08E0E01608F498
:101C1000FFCE22E030E03093FC002093FB00F8CEB2
:101C200022E030E03093FC002093FB001CCE8F01BB
:101C30004FE130E0D8018D918D015D01B1E0AB1A2B
:101C4000B1085FEF589FC0011124B9010E94B7117C
:101C5000D5016C934A9571F757CEAFE0B0E0E3E35E
:101C6000FEE00C9487127C013B015A01FC011782B3
:101C70001682838181FF57C39AE0292EF7012381C1
:101C8000F30123FD859123FF81913F01811509F423
:101C900042C0853239F423FD959123FF91913F0194
:101CA000953239F4B70190E00E94011465015601A4
:101CB000E5CF30E010E0912C812CF0E28F1608F097
:101CC0003CC09B3279F160F4903271F1933291F122
:101CD0009E3209F046C086FC1EC0689486F806C095
:101CE0009D3229F1903359F5689480F8F30123FD72
:101CF000959123FF91913F019111DFCF082D097F2D
:101D0000903709F486C208F07CC2983509F484C281
:101D10009F3609F488C2F701868197812F96E2E108
:101D20000C94A312689481F8689482F8DFCF6894C9
:101D300083F8DCCF689484F8D9CF87FC1CC080ED91
:101D4000890F8A3028F686FE05C0129D800D112469
:101D5000182FCCCF929C800D1124982E689485F872
:101D6000C5CF9C3619F4689487F8C0CF9C3409F12C
:101D7000983609F4BBCF3115F1F0892F8F7D85544A
:101D8000833008F098C1650128E0C20ED11C8FE3B2
:101D9000898301E010E0AE014F5F5F4F5A01E89484
:101DA00087F883FC04C00915110508F4F0C1592C0B
:101DB00003C231E09BCF8BEB890F833098F468949A
:101DC00084F8905E86FE16E0582D5F73852E95365A
:101DD00089F4689486F8212F183010F027E017E076
:101DE000412C14C08BE9890F833008F064C1E8945A
:101DF00084F8E8CF963681F5689487F8812F1C33F4
:101E000008F08BE344244394480E27E0F5016191E8
:101E10007191819191916F01042DAE014F5F5F4FE0
:101E20000E9413135C01398030FE03C00DE233FEC3
:101E300005C082FA002705F981FC0BE2F32DFC7046
:101E40005F2EF11529F1011171C224E0512C921677
:101E500008F483C283E06FC220E0111509F4C0CFFB
:101E60001150B9CF81108052B70190E00E94011447
:101E70000F5F1F4FF80184918111F4CF511409F4C1
:101E800016CFB70180E290E00E9401145A94F6CF79
:101E900087FE30C0842D8A0D34FE04C09A819133B0
:101EA00009F4815044244394181634F4482EF9E080
:101EB0008F1710F088E0482EC501B7FE02C080E001
:101EC00090E0019601110196111531F0212F30E0BB
:101ED0002F5F3F4F820F931F8915910514F4592CE2
:101EE000581A882D8970811136C051102DC00115E6
:101EF000D9F133C086FC25C0E12FF0E01A151B0490
:101F00003CF02CEFA2162FEFB20614F0689487F87D
:101F10003296AE014F5F5F4FE40FF51F01C01150C5
:101F2000111519F082918033D1F387FE0AC0442441
:101F30004394410EA116B10414F41A19BDCF10E058
:101F4000BBCF85E090E0BECFB70180E290E00E9479
:101F500001145A94CACF011529F0B701802F90E0DF
:101F60000E94011483FC02C051103FC087FE57C07D
:101F70004501B7FE02C0812C912CCE0101968A0D3D
:101F80009B1DFC01E819F909FD87EC8795012419CF
:101F900031093F872E87012F10E011950195110916
:101FA000A814B9044CF14E855F854815590524F5F0
:101FB000EC85FD858181F1E08F1A91082C853D85A6
:101FC0002F5F3F4F3D872C8780169106BCF0B701ED
:101FD00090E00E9401143FEF8316930609F7B701C2
:101FE0008EE290E00E940114DBCFB70180E390E025
:101FF0000E9401145A94B8CF80E3DDCFA814B9042D
:1020000039F49A81963348F4953311F434FE05C0BF
:10201000B70190E00E94011431CF81E3F9CF8A81AA
:10202000813311F0E89434F8B70190E00E94011474
:10203000111125C085E490E084FC02C085E690E0A3
:10204000B7010E940114B7FC05C0A114B10461F5E9
:1020500034FE2AC0B194A194B1088DE2B70190E09A
:102060000E94011480E35AE0A516B104FCF4B70104
:1020700090E00E940114B701C501C096CBCFB70113
:102080008EE290E00E9401141E5F02E0802F0F5F3D
:10209000FE013196E80FF11D8081B70190E00E94AA
:1020A00001140113F3CFC6CF8BE2D8CF8F5F4AE084
:1020B000A41AB108D8CF9336E1F1933709F447C099
:1020C000933509F453C0943619F0993609F080C05D
:1020D000F50187FE75C061917191819191916F01B8
:1020E000082D0F7697FF08C09095809570956195A3
:1020F0007F4F8F4F9F4F00682AE030E0AE014F5F67
:102100005F4F5A010E943114B82EBA1806FF95C0CD
:10211000802F8E7FB11608F08FC004FFE1C002FD52
:10212000D5C00E7E512E802F8678811509F490C07F
:10213000D2C0650182E0C80ED11CF501808189837F
:1021400001E010E09E012F5F3F4F590128CEF501BD
:10215000A190B1906F01612F70E086FC02C06FEF1B
:102160007FEFC5010E94F6138C0119CEF501A190F5
:10217000B1906F01612F70E086FC02C06FEF7FEFBE
:10218000C5010E94EB138C01689487F80ACEB70151
:1021900080E290E00E9401149A9405CEF50187FC3C
:1021A000859187FE81915F01B70190E00E94011443
:1021B00051105A94015011090115110579F75ECE9D
:1021C000619171916F01072E000C880B990B88CFDC
:1021D000082D0F7E2AE030E0953709F08FCDF5010C
:1021E00007FF24C061917191819191916F01AE01BE
:1021F0004F5F5F4F5A010E943114B82EBA180F7703
:1022000085CF983709F087CD84FC04C020E130E009
:10221000E6CF00610460FACF84FE02C0082D06609C
:1022200020E132E0DCCF28E030E0D9CF619171913C
:102230006F0180E090E0DBCF082F5B2C04FF73CFB1
:10224000FE01EB0DF11D8081803309F042C0097E53
:1022500003FD0EC000FF50C01B2D591418F4190DBA
:102260001519592C892D8519951408F480E0580EFC
:10227000591408F043C09518592C04FF41C0B70108
:1022800080E390E00E94011402FF09C088E590E01D
:1022900001FD02C088E790E0B7010E940114B11669
:1022A000D8F1BA940B2D10E00F5F1F4FCE010196AD
:1022B0005C01080F191FF80182918F01B70190E0AE
:1022C0000E940114A016B106B1F7D8CD512E082FE7
:1022D000B7CF02FD02C05394BBCF53945394B8CFF1
:1022E000512E082F20CFB70180E290E00E94011408
:1022F000A394A914C0F3B6CFA52CFBCF512CBDCF0E
:10230000802F8678811559F280E201FD8BE207FD6E
:102310008DE2B70190E0C1CFB70180E390E00E9469
:1023200001141150BCCF8FEF9FEFF8CCF5E0512C8A
:102330009F1670F084E0592C581A83FC07C0B7012F
:1023400080E290E00E9401145A94C9F7011529F027
:10235000B701802F90E00E94011404E510E033FCE7
:1023600002C008E510E0282D2071822E83CDAA1B23
:10237000BB1B51E107C0AA1FBB1FA617B70710F070
:10238000A61BB70B881F991F5A95A9F780959095A2
:10239000BC01CD010895A1E21A2EAA1BBB1BFD01B1
:1023A0000DC0AA1FBB1FEE1FFF1FA217B307E40734
:1023B000F50720F0A21BB30BE40BF50B661F771F8C
:1023C000881F991F1A9469F760957095809590956C
:1023D0009B01AC01BD01CF010895B7FF0C94081318
:1023E0000E940813821B930B0895DF93CF931F93D2
:1023F0000F939A9DF02D219FF00D8B9DF00D8A9DDE
:10240000E02DF10D039FF00D029FE00DF11D4E9D9B
:10241000E00DF11D5E9DF00D4F9DF00D7F936F93CC
:10242000BF92AF925F934F93D5010E94F9128B0137
:10243000AC01D7010E94F912EB01E80FF91FD60198
:102440000E9444122F913F91D6010E94F912C60FAB
:10245000D71FE81FF91FAF91BF910E9444122F911F
:102460003F910E94F912C60FD71FE81FF91FD6012E
:102470000E94F912E60FF71F9801BE01CF010F91DC
:102480001F91CF91DF9108950E94F912460F571FB7
:10249000C81FD91F08F43196089597FB57FF0C9475
:1024A0005D129F938F930E945D126E1B7F0BAF9105
:1024B000BF918A0B9B0B0895E894DF93CF93FC01A7
:1024C000DB010E94F9127F936F93E9019A01AC013D
:1024D000BF93AF933F932F93DF010E94F91226F42D
:1024E0006C1B7D0B820B930B9E01EB01FC010E9488
:1024F0004412AF91BF912F913F910E944412BE01AF
:10250000CF01F9012F913F91CF91DF9108952F9243
:102510003F924F925F926F927F928F929F92AF9273
:10252000BF92CF92DF92EF92FF920F931F93CF93C0
:10253000DF93CDB7DEB7CA1BDB0B0FB6F894DEBF57
:102540000FBECDBF09942A88398848885F846E847D
:102550007D848C849B84AA84B984C884DF80EE80C7
:10256000FD800C811B81AA81B981CE0FD11D0FB6D0
:10257000F894DEBF0FBECDBFED01089597FD109416
:10258000002E083098F00850232F342F452F562F57
:10259000672F782F892F912DF4CF159497958795D4
:1025A0007795679557954795379527950A95AAF793
:1025B0001124002D08952A0D3B1D4C1D5D1D6E1D1F
:1025C0007F1D801F911F08952A193B094C095D0941
:1025D0006E097F09800B910B08950024A7FD0094DC
:1025E0002A173005400550056005700580059005E7
:1025F0000895A29FB001B39FC001A39F700D811DDC
:102600001124911DB29F700D811D1124911D0895FB
:102610000E94F912A59F900DB49F900DA49F800D6C
:10262000911D11240895283008F027E03327DA019E
:10263000990F311D87FD916000966105710539F490
:1026400032602E5F3D9330E32A95E1F708959F3F76
:1026500030F080387105610509F03C5F3C5F3D93C7
:10266000913008F08068911DDF93CF931F930F93F3
:10267000FF92EF92192F987F9695E92F9695969550
:10268000E90FFF27E458F64D99273327EE24FF245E
:10269000A701E70105900894079428F4360FE71E78
:1026A000F81E491F511D660F771F881F991F06943A
:1026B000A1F70590079428F4E70EF81E491F561F4E
:1026C000C11D770F881F991F661F0694A1F70590FB
:1026D000079428F4F80E491F561FC71FD11D880FF5
:1026E000991F661F771F0694A1F70590079420F4A1
:1026F000490F561FC71FD81F990F661F771F881FC6
:102700000694A9F784911095177041F0D695C79556
:1027100057954795F794E7941A95C1F7E2E2F9E2E5
:1027200068941590159135916591959105907FE28A
:102730007395E118F10A430B560BC90BD009C0F78A
:10274000E10CF11E431F561FC91FD01D7EF47033CC
:1027500011F48A95E6CFE894015030F0080F0AF49E
:102760000027021708F4202F2395022F7A3328F030
:1027700079E37D932A95E9F710C07D932A9589F630
:10278000069497956795379517951794E118F10A70
:10279000430B560BC90BD00998F023957E91739586
:1027A0007A3308F070E37C932013B8F77E91706160
:1027B0007D9330F0839571E37D9370E32A95E1F783
:1027C0001124EF90FF900F911F91CF91DF919927E6
:1027D00087FD90950895FC010590615070400110AF
:1027E000D8F7809590958E0F9F1F0895FC0161503A
:1027F000704001900110D8F7809590958E0F9F1F23
:1028000008950F931F93CF93DF93182F092FEB0198
:102810008B8181FD09C01FEF0FEF812F902FDF917A
:10282000CF911F910F91089582FF14C02E813F8197
:102830008C819D81281739073CF4E881F981CF010B
:1028400001969983888310838E819F8101969F834F
:102850008E83E3CFE885F985812F0995892BA1F334
:10286000DACFFA01AA27283051F1203181F1E8941A
:102870006F936E7F6E5F7F4F8F4F9F4FAF4FB1E073
:102880003ED0B4E03CD0670F781F891F9A1FA11D6E
:10289000680F791F8A1F911DA11D6A0F711D811D6F
:1028A000911DA11D20D009F468943F912AE0269F34
:1028B00011243019305D3193DEF6CF010895462F93
:1028C0004770405D4193B3E00FD0C9F7F6CF462F74
:1028D0004F70405D4A3318F0495D31FD40524193DD
:1028E00002D0A9F7EACFB4E0A6959795879577959A
:1028F0006795BA95C9F700976105710508959B0121
:10290000AC010A2E06945795479537952795BA95A9
:10291000C9F7620F731F841F951FA01D0895F894B7
:10292000FFCF00407A10F35A00A0724E1809001031
:10293000A5D4E80000E87648170000E40B54020034
:1029400000CA9A3B000000E1F5050000809698005F
:10295000000040420F000000A08601000000102788
:1029600000000000E8030000000064000000000018
:102970000A00000000000100000000002C76D8884A
:10298000DC674F0823DFC1DFAE59E1B1B796E5E35D
:10299000E453C63AE651997696E8E6C28426EB8976
:1029A0008C9B62ED407C6FFCEFBC9C9F40F2BAA513
:1029B0006FA5F490055A2AF75C936B6CF9676DC1AB
:1029C0001BFCE0E40D47FEF520E6B500D0ED902EAF
:1029D0000300943577050080841E080000204E0A0D
:1029E000000000C80C333333330F986E128311414B
:1029F000EF8D2114893BE65516CFFEE6DB18D18416
:102A00004B381BF77C1D901DA4BBE424203284723C
:0C2A10005E228100C9F124ECA1E53D2705
:102A1C0000000003000000006F076A070000CA00F6
:102A2C00CD00D100D700DC00DF00E400E900397AEA
:102A3C00CA589C016B915265636F7264696E672E04
:102A4C002E2E2020202000436C61737369667969F7
:102A5C006E672E2E2E2020004465746563746564A9
:102A6C003A20202020202020002020202020202060
:102A7C00202020202020202020004F4E004F4646B2
:102A8C000053544152540053544F5000555000447D
:102A9C004F574E004C454654005249474854005538
:082AAC004E4B4E4F574E000047
:00000001FF
