:100000000C9422110C943F110C943F110C943F114D
:100010000C943F110C943F110C943F110C943F1120
:100020000C943F110C943F110C943F110C943F1110
:100030000C943F110C943F110C943F110C943F1100
:100040000C9441110C943F110C943F110C943F11EE
:100050000C943F116E616E00696E6600D1DEE8F0AF
:10006000F4F7FAFCF8F5FAF7EED7BCABA08A7056B5
:100070004337291C130E08040302022B30302F2FA4
:10008000302D221A161212121314120E0E0E0C0D0F
:100090000D0C0C0B090D10151A181E233248696B34
:1000A0006A886021100E1821221D1C110E0F0602F5
:1000B0000100000000000000003131655C67793A02
:1000C00061DFF2B040251D18121310070401000073
:1000D00000000000000000004567A9A3C0CDA05D9E
:1000E00094A13C3D3430300E090A060201000000A4
:1000F0000000000000000071CBC5DCB492D2E0D853
:10010000993C7886A9A865776726140C040100003D
:10011000000000000000FFFFFFFFFFFFFFFFCFCA4E
:10012000CAB498481A435C360C0204060402020161
:1001300000000000007CAAC8D6DBE4F8FFFAF1F268
:10014000EBDDBE81656862563C291E14100C080662
:10015000040202021D1E20201E22221C1A18141442
:1001600012141A1A170F0E141414140E0A0C151761
:100170001A1A140E20293364A0C2FAFFD98E662AF7
:1001800018191C2218120A020200000000000000C8
:100190000000302016101A180A04143C89A04830B8
:1001A000080102030200000000000000000000003F
:1001B0000014303E3C2C2958824C1C16121B120491
:1001C0000402030200000000000000000000000024
:1001D000081644C0BEC2FFDA3127281E344B4C40FB
:1001E000240F0E080300000000000000000000368D
:1001F00086D6CCECFFFFFFFFEA652A2C2F1E160ED9
:100200000F0E020002020000000000000000A0CE5D
:10021000E1E4EAF5F7F3EEEAE1BB93765F5E5E4771
:100220002D2016100D09080604030201001D1D1ED5
:10023000202222201914141314151817110E11104E
:1002400010100E101010141A18100A00121A1E3175
:10025000425DA9C680412911141311161408030127
:100260000000000000000000000000797A4A21230D
:100270002034394E98AC3E0904030302010000000B
:1002800000000000000000000000194B5A49425CC9
:100290007A64321F1E1A0F060404030201000000D4
:1002A000000000000000000000121E28729760424B
:1002B0003B27201819243529160D070501010000D8
:1002C000000000000000000040316EB2E3B5DCF930
:1002D000BE6856351C1711120B08080301010000F7
:1002E00000000000000000C6D4E0EBFBF7F4F6F0DD
:1002F000F0F5F8F6ECD7BBAAA0916C4B4034271B65
:1003000016160E050402293032271F283230291D07
:10031000141312121718120F0F0F0E0E0C0E100CD2
:10032000080C121A26221D1C3E5E6872A29F9E8730
:100330002A0B23302C200C090B08040201000000BA
:10034000000000009F9250244851544C337BE8E059
:1003500032181A0C070A0E07040200000000000001
:100360000000002AD0E6A896FFFFF6809B9F62322D
:1003700021353C181B0E0608060000000000000096
:100380000000C6B8EAFFB4E6AD666AA6958878971D
:10039000C2E6E59C660C131508060000000000008C
:1003A00000FFFFFFFFFFFFFFFFFFFF7AB2FFCF9CC1
:1003B000497074491718160406060501000000006C
:1003C000C9E4F0F4F4F7F7EEE6DFCCAA82665B59F5
:1003D0005648342318120E0B080506050302001EAA
:1003E0001F1F1F1F1D1B181514141518191916127D
:1003F0001111101010121112131111120E05121EEC
:10040000293B5381A4B28D673C1D0D111114120CB0
:100410000602010000000000000000000033332746
:100420002E354A595E748050290A030302010101E6
:100430000000000000000000000000004B5E435080
:100440004C37403D3528160F080304040303010010
:100450000000000000000000000000335565797BBB
:100460006B73524840373A4753391E150A0301014E
:1004700001000000000000000000C5DBE0EEE8CD58
:10048000BEA6AD6E513B291712100F0D09010100D8
:10049000000000000000000000ABD4EFF7F8FAED18
:1004A000A85E4B412E2218110D0A08060404020012
:1004B00000000000000000001E1E1F2120201F2140
:1004C000252122292E3A423E3F3E3E4A4F26000039
:1004D00000000000000000120E101B1A2E280A0453
:1004E0000504010000000000000000000000000002
:1004F0000000000000001626423A41634F2F2214EC
:100500000B040100000000000000000000000000DB
:1005100000000000000812385A4828211508070A70
:10052000141103010202010000000000000000009D
:10053000000000001527849E6D80591A09080704E1
:100540000605020102020000000000000000000099
:100550000000003520DAE497828C683924221112D9
:100560000B02020301010100000000000000000076
:100570000000A8CFE6F4F9EEC78A604A36281E15B7
:100580000F0C090705040301000000000000000033
:10059000001F20202020212324222023252A333835
:1005A0003734373B3F371D050100000000000000D5
:1005B00010171A192021150B070602010000000070
:1005C0000000000000000000000000000000002DFE
:1005D000494D41506D6142291A0F0501010000008B
:1005E00000000000000000000000000000000E1FDE
:1005F0002B53776A502E06050605040301010000FF
:10060000000000000000000000000000000B1C23A0
:100610003A524C3C23160B07060505030201010064
:1006200000000000000000000000000063AD9D76A7
:1006300097B99C5D2F1A1C1A110B080403020100C4
:100640000000000000000000000000C9D9EAF2F537
:10065000F7EAC7C8DEE0C9A88D80603A2519201ADC
:10066000110F080A10120B0502012A3036322B1F17
:1006700014110C0E11110F12161A161D1C0F171241
:100680000B0D0C0D090303020516191F1E241B1167
:10069000120E1311120D02020200000000000000F1
:1006A0000000000000000000E6DEDEE6D6F6CE6EBA
:1006B000321F0C181C09070502020100000000008F
:1006C00000000000000000929ED5F7E0C3963102C2
:1006D000092030220D07060202020000000000007F
:1006E000000000000000C3B4AFB789B18D2D17160C
:1006F0001C2C31190706050402010100000000004E
:100700000000000000FFFFFFFFFFFFAFAE7E494487
:10071000667B74381C190605040100000000000007
:1007200001010000CCD9E8ECF1FAFFFEE1B6BFE927
:10073000E3DCF1E89A7251151C42554F4C32170F09
:100740000A060923272625221D1B1613110E0E0942
:100750000C0B060C0B1228230C0402010203010DE2
:100760000E050C0904161610221F0D0A2F350E1A3D
:100770001A04020100000000000000000000000058
:1007800000FFFFFDFFFFFFFFFFA17D4D141B1211B6
:100790001A0C040402000102010000000000000025
:1007A0001520313E30275A45090A0F1E2234300DDC
:1007B0000D120803000103020000000000000056B3
:1007C0004FCFFFFFFFFFA5831E15181D210D0A1037
:1007D0000B00000001040300000000000000FFFF08
:1007E000FFFFFFFFFFFFFF5FEC95BAFF6F131B18C2
:1007F00012110502090B03000000000000A0D8FF41
:10080000FAFAFBF2E9B76F524732231A110D0D0ABB
:100810000605040100000000000000001C1E20214D
:100820001F1D1F2021221D1E2D33364436293B3F1C
:10083000435B4900000000000000000A0F09191E78
:10084000182011010206060201000000000000004D
:10085000000000000000000000000C2758BB895574
:10086000CBA224555B0B0302020100000000000034
:10087000000000000000000000070728605023224D
:100880001907080504050303030101000000000027
:1008900000000000000000000753D5FFFF8FFFFF9E
:1008A0004703050B080000020201000000000000E1
:1008B00000000000000000BEFFFFCD89FFFFFFFF2A
:1008C00093272437170202030403010000000000ED
:1008D000000000000000362F2A1E110B0F2D75BAE4
:1008E000CDD2E3F0F3F4EDDAC08B5A402C1D151095
:1008F0000C09070504A0A09F9A9282735A311E2208
:1009000023232222222221211F1C1A1B1A1814150C
:100910002233352C000000000000000514160B09DE
:10092000040303060B10151107020000000000006D
:1009300000000005050403010000030B1316212924
:10094000232126271F1B14080301010000000000BB
:1009500000001D1E160D04020410152142678A6E48
:100960004E3D2D17160F0603010000000000000089
:10097000004A47301B0D040A1F2A393F48544D5284
:10098000443326150E07040100000000000000009B
:10099000FFF7EDD6A15476B199718C935F817EA655
:1009A000A456452C110B070301010001030402CDDD
:1009B000CCD3DAEAFAFAF0DBAA724D392B1D161005
:1009C0000C090605040302010000000000002023BA
:1009D00024222322222220201F1C19191816172234
:1009E000363E34282613160000000000000E0A08C8
:1009F000030607090E10161308020000000000008D
:100A0000000000000000000000000000192D303D33
:100A1000412B273B381607020201010000000000AD
:100A20000000000000000000000000357C9C6134E4
:100A300058522A17090806040100000000000000AF
:100A400000000000000000000000302B342C3E4A63
:100A50005E5F46280E0A0200000000000000000051
:100A6000000000000000000000DDB0798B718F886D
:100A7000716A2B12100C030101010104060401002C
:100A80000000000000000000494C47381E09051115
:100A90004CAEEBF4EEF2FCFCFAF5E9D1A87C543450
:100AA00020171412110F0CAD9A8D8E978C63615A1A
:100AB0002D1F2D38362D2B2B2D2D2C2A201C1E1BA7
:100AC00016151B395A5901050602000000002F7146
:100AD0004F1C1209070405092131211A0F010201D7
:100AE0000000000000061E2811060001030F356BF0
:100AF000627B853D343061756C5A1505020000003B
:100B0000000000002A3D5C441402020405285FD264
:100B1000FFDFB4A0801F6B9F894A03000000000024
:100B2000000000C1E3DB7E2E0A022C8BC3E1F8FF3C
:100B3000FFE2AFF6D4E49148280F04010000000161
:100B40000303FFFFFFFFC41B1B6FDBFEBFC8FFFFDC
:100B5000F7ECFFFFFEFF986F140D0401010311175E
:100B6000122A21160F0E1131627E92C0EEF4F0EDC2
:100B7000F3FEFAF0D4A88462462C18130E0B0A096F
:100B800090928D70758C69393E402C282E30302E15
:100B90002929272D332719141C2016122C4F5F00EA
:100BA000000000000015190608241E0E180E070A82
:100BB0000C242D29200D090201000000000006026E
:100BC0000202020408172C200938B29C502250441B
:100BD000303E1E0B0E0C0000000000000026100826
:100BE0000906040A147F8282627D4C3C96CEC7942B
:100BF0003B8E821000000000000000003838200EFC
:100C000004080A06D5FFFFEEFFF2FFFFFFFFFFB16A
:100C10009A79060E0E010000020201E5BE8A350E29
:100C2000979483FFFFEAFFFFFFFFFFFFFFFFA07125
:100C3000632935360B02000C0F0D3A373A3727156A
:100C400008030D4ABBFDFAF4FEFFFAF8F4F8DEC122
:100C5000A76F38222119130D0A958A8B97ADB88595
:100C6000586954221E2D342A2323262F313033274E
:100C70001C405127120E0C1E000100000000000055
:100C8000003B430E090C0F080308152A31261D12DC
:100C90000501020100000008011817000000000112
:100CA0000E5378686333283B1B2CE4BC1A371F01B2
:100CB0000100000000001A7BAA4F1404000000008D
:100CC000010EFDF522795D2AFFFF5B222221000043
:100CD000000000000029061CE0CC0902001C957CE5
:100CE00029FFFFFFFFFFDB42542B251A151C220FA3
:100CF00000000000FFFFFFFFFFFF0001029BFFFF5E
:100D0000FFFFFFFFFFFFFFFFFFFFFF1044C18B0549
:100D1000030002382E2C20120C12307FCBE6EAEEB4
:100D2000EEDEC1854F433B2D2017100D0A08060447
:100D3000020296999A94887A7C713E1F212323237C
:100D400023201C1B1913131514121010151C251821
:100D5000110000000000000006274629060B0B0AC0
:100D6000181C0B0201010000000000000000000040
:100D70000B06060401000002090A2A50482B12182B
:100D8000170F0B0000000000000000000000000F23
:100D90001C210C050518201F1F243E453F32170556
:100DA000010101000000000000000000000090763A
:100DB0004C2B0704184743305C874F12130A040179
:100DC00003020100000000000000000000F7FFD453
:100DD000B883516FE1FFE29BC0CBAA685D3C0C1069
:100DE000070302000000000001010000E0E7E9F451
:100DF000FAF4D8965D4F4C3C2417110D0A080604EE
:100E00000403020000000000000000202425262624
:100E100024211F1E19121217161413161A1B1B1544
:100E2000161003000000000000001B090707060958
:100E3000191A0E0904010000000000000000000063
:100E400000000000000000000016283124264E6932
:100E500045120A040200000000000000000000002B
:100E60000000000000000000517C624A422B160D79
:100E7000050300000000000000000000000000006A
:100E800000000000000000657E9A96763A25120167
:100E9000010101000000000000000000000000004F
:100EA000000000000000F4E9D8C8CDAD824E2A1B36
:100EB0000C03010100010000000000000000000020
:100EC00000000000003B352D261B0F07050A277B7D
:100ED000D7F5EFEBF2FBF4E0B06E4C463A27171073
:100EE0000D0C0A076773766E797D6B4F4950391F79
:100EF000242C2F2D28231E1A181412121214141029
:100F00000D141D01000000000000000005434F19F2
:100F10000A0708070F333413080402010000000019
:100F200000002219141A10010000000413566C610D
:100F300063413FA7A58A31040203020000000000BC
:100F400000402111170E0401000414384FB4CBC720
:100F5000787697811D080101010000000000000063
:100F60006C8E6A3F230604011D527961D3EFFBDFCB
:100F7000DAB437170703020100000000010100E2A4
:100F8000C9EDEAA74819092E9DDBFFFFE6E2FFFF46
:100F9000E0C266230F0C0503000000010201373692
:100FA00032281D130D12327ECEF0F2F8F9F4E6C4A9
:100FB00088595047311D130E0B090705048C8D917C
:100FC000908C847D715C3820222625252524221FC3
:100FD0001B1615191A1816131516171B00000100F9
:100FE00000000000082724080606060A0F16160C43
:100FF000050201000000000000000008090A0401C9
:1010000000000105152D2C252C2E3D5D7F541F0C55
:1010100006010100000000000000202C32140C0723
:1010200002081C233C598DAC692324230D050201C1
:101030000000000000000000005A6C6342230F0D06
:101040001E5E6C5F7A684D3C342528190703020048
:101050000000000000000000D3F2D9BBB96C3437A7
:10106000559DD7D9DDDDE6F0AD555A2A11080201AC
:10107000010000000203003B33323030241006052B
:101080000F2B83E8FEF3F4FFFFFBEFB46E4B453EFE
:101090002515110D0A0B9E8B8B93919A817A727E86
:1010A000904D1F242F312D2B22181818120C0D10C3
:1010B000110F0B0B0C0002020000000000000000EA
:1010C000555F120C050106176D680E020303000040
:1010D0000000000002000408100B00000002051BC5
:1010E0002298EDFEA237A8FFFF8816050504000030
:1010F000000000380C2D33382F050100060907E2E7
:10110000F5FFFFFF392436220B000001010000002B
:101110000000FF56385DCA9004020057E9FDBBFF8E
:10112000FFFFFFFF5D070501010101010000000055
:1011300002FFFFFFFF0DFFFF2C0FFFFFFFFFFFFF71
:10114000FFFFFFFFE77E380F0503020000000000ED
:1011500092C2E1EBF5FBC3774F413C2E1F15110EF8
:101160000B08050302010000000000000000002F32
:10117000383F4037292424211C1817191A17161A2A
:1011800020231D130C0000000000000000000203DB
:10119000040406131A0D0201000000000000000004
:1011A00000000000000000000000000000233241A9
:1011B000444036322A0E0402010000000000000004
:1011C0000000000000000000000000000F23536139
:1011D0004F56350703010100000000000000000029
:1011E000000000000000000000000025484458787E
:1011F0006012040302010000000101000000000071
:101200000000000000000000000040C7D9F3FAFF12
:101210008B221708040101000001010000000000FA
:101220000000000000000000009CC7F3FEFDF3BBBF
:10123000734D44402E1D11101A37799E878D966983
:10124000453C2716120E0C092A313B3B392B1B1645
:1012500017130D0E1114110F12120F0904030304BA
:101260000303040402040E090A0C0A0513221708DA
:10127000030100000000000003040202020100005C
:1012800000000000000037503B252B97DA8706034B
:101290000200000000000205050202030200000037
:1012A00000000000003450585D6E6E3D10020100D9
:1012B0000000000001020204030404010100000018
:1012C0000000000028356CD7F5C34A0A0503010069
:1012D00000000103070606060909020100000000DC
:1012E000000000A9FFFFFFFFDF805F1B0903020072
:1012F00001080C0A0B1012191C0B0402020000005A
:101300000000718AAFCAD4E6EFCD834E413D34254B
:101310001A130E0B09060301010000000000000073
:10132000002C30343A3B342A2623201C1613181B79
:101330001B171A1E1B0E0300000000000000000017
:101340000906020202040B120C0300000000000058
:10135000000000000000000000000000000000107D
:101360001A2F2D1410253F29090401000000000048
:101370000000000000000000000000000000181D38
:1013800019131A32391F0802010000000000000082
:10139000000000000000000000000000000E162306
:1013A0002E4870581C0602010000000000000000DA
:1013B0000000000000000000000000002A446B94C0
:1013C000BCF0FF97230C04020202010000000000A1
:1013D000000000000000000000000090B8DBF2FCFC
:1013E000D6915E474135251A12100F0A06040201F4
:1013F000010000000000000000002C363C392F27BF
:1014000026261F161316181717171E221E160F084A
:10141000020303020200000000060304050B100B88
:1014200003010000000000010100000000000000B6
:1014300000000000000000002A334B40252A1F0A4C
:101440000403020000000000000000000000000093
:101450000000000000000023434A4840210E07011D
:10146000000000000000010000000000000000007B
:101470000000000000001B3E4B7B702E1205010196
:10148000000000000000000000000000000000005C
:1014900000000000007385B2E6B4612A1007040260
:1014A0000101000609030000000000000000000028
:1014B00000000000B5E3F2EDE3C89C704027251E54
:1014C000181F2D8AF3FFD39B8C85623E28120D0BCB
:1014D0000804033E40403C2F221A171B180E0E0D25
:1014E0001319120C08070807050404040304030178
:1014F000141301020403031719070400000000017C
:1015000002050608060706040401000000000000AA
:1015100000FFFF601551602509080303000006085D
:10152000161403090B06040301000000000000006C
:1015300058FFFFFFFF3A140B0100000002020631C2
:1015400054431C0301010000000000000000009251
:10155000BFDECB685E1B0B000000000102052F3AC6
:101560002D230A0804000000000000000000FFFF17
:10157000FFFFFF91842C04050200010722557E81A4
:1015800053190D0C010100000000000000777C9051
:10159000CDFCFCF8F6F5F9FFFDFAF5EED4BDAA8C0A
:1015A000694E4A3C32281D1D1C150D061211111AD8
:1015B0001F1C1F242A2C2B271E25281D1C1814181D
:1015C00017100E0E0D0E0B07070A130B0B1C1F0E28
:1015D0000A090D09101204030918262E4335211D8E
:1015E00008020100000000000000050213154B8DE9
:1015F0004312134A5C54649DC17B552202010100D1
:10160000000000000000000000060225FFFFFFD4DC
:10161000FFFFE32D46AB932C404712060809050057
:101620000000000000000000050202C8CD28FDFFF8
:10163000FF57555D206F954D2505050A09010000EE
:1016400000000000000000391F4FFFFFFFFFFFFFF9
:1016500050FFFFFFFF7CE1F7531A05080703010164
:101660000202000000007570687BAAD4F0F8F0EA6E
:10167000EBE5DBCDC3BDAD97836B503F30261F1626
:1016800012100E0B0811101117212C2E2B2E33388F
:101690003A35322D25201A1716151614110E0D0F76
:1016A0000D0C0C0E0806050B0C07060607060506B2
:1016B000070A0E111C211D1B12060101010000006A
:1016C000000000030201020714253531282939459D
:1016D000504B32190C060504010000000000000008
:1016E000000005020318698F907A553E6DA0803581
:1016F00020251B1009040201010000000000000069
:1017000000030205192B507C6D80875D50505D46AB
:101710001F16060304030000010000000000000083
:101720001D15081F5FA8E9F7FFE6EBBF9769524652
:101730003A27110F0603030202010000000000888F
:10174000958F8AB0E5F1ECEEF6FBFAF5F2F1F3EEE7
:10175000DBBC9E907B666155463C312720191011F9
:1017600011111620292F2F29232630343129231E29
:101770001B1D18100F0E0E0E0D0B0B090712181D56
:101780001F130A0A0906030809040A172B3E3B32F5
:10179000413023260D080703030100000304060758
:1017A0001E242228323C2B446080ABCEC1AE502A8E
:1017B000221C170501020101000000070605107B2D
:1017C000FFFFB1BEB63A4576C1F0CA6E2B120F08C4
:1017D000090806030505010100000306091294F13A
:1017E000FFFFFFC9B5EAFFFFADCBD3CE492D1E0BDE
:1017F0001310080803010100003C2E1A7DF3FFFFBF
:10180000CAF4FFFFFFFFFFFFFFFFEEEF887B432FD0
:10181000290C141002030101726C5D546694C5E832
:10182000F7F5EBE6DDD9D3C8B9A7937F6A5340300B
:10183000261D16130F0C0A10100F0F16232B2B2822
:10184000292D30302F2B2724201D1B171614111182
:1018500011100E0D0C0C09040305090806040506F9
:10186000040506060A1011151D201D150C050101A1
:1018700000000000000201000103071015202B1BCF
:10188000142E464A4C402E210F080402010000008D
:101890000000000003010003102C494C4041567326
:1018A00079634B2F150B09050504010100000000A9
:1018B00000000003010103080F215A7C63706E4D84
:1018C00060492A25100807040401000000000000F8
:1018D0000000180C0405224C75D4E3C9B6D4D6BD5B
:1018E000784B442F1C110E11080302010100000067
:1018F000004B3D3E476BBAE9EDECF3FAFFFDEDE33B
:10190000EDF6E6CAB09785725B594A34342B211D37
:101910000C0D0D0E141F2A3B46332929242C3A396D
:1019200024191E1E1E1A110F0D0D0E0D0D0A07098A
:10193000060101161A0A0807120E05102023193194
:101940004D34352F191C1007020002020000000060
:1019500000001314053E3E0C0B1015B0FFFFFFB83E
:10196000482E0E150B0201000000000000000000D0
:101970000000FFFFFFFFFFD5D7FFFF682F3962B3DD
:101980009B36090B08020401010201000505000055
:1019900001235B52FFFFFFFFFFACFFFFAF98799A77
:1019A00028030503020102000101000305020102F0
:1019B000FFFFFFFFFFFFFFFFFFFFFFFF8147342413
:1019C00023060E0E0407040304017F92ABC7DFEC6D
:1019D000F4F9F9F4E4B87D5846372A1F17110B09BA
:1019E00007060707040000000013141418212B3009
:1019F000343634322F2824272C3444483A2C262CD1
:101A000043625D3E080000000E0A090F1A1A161AFA
:101A10001B1617160D06030201000000000000004F
:101A2000000000000000000503122A28171B221ED8
:101A3000242119110503010001000000000000002D
:101A400000000000000006090E4497FDDEB6DDD35D
:101A5000B39B63190F0D0703030200000000010090
:101A6000000000000005070D215172717E9D836703
:101A70004614141612120D09060100000103030199
:101A80000000000035404A9CBED4EBDCDCE6DFB849
:101A900074726C6C6F64482C1307141B2A3E240468
:101AA000000000C1E2EBECECECEEEFF4F9F3C897C8
:101AB0007BA2CCBAA27E7C68403F3420170C080B76
:101AC000141712131A242B2F2F2E271D181B1D2D10
:101AD0002A121A251F110A101D41483C3929180DD8
:101AE00007322016100D0C080B12100E0E090507F8
:101AF00008050402030200000000000000000000CE
:101B000026261324332D303041B3C25119090F0C4E
:101B10000C0B030101020101000000000000001C89
:101B2000222378FFFFFFC363171C28173D4E35267D
:101B30000904030403020504010000000000262438
:101B4000A3E9EBB7C9AEC99B78579EA23A218ABDDB
:101B5000530D0B171D19190F0100000000C3D4C647
:101B6000FFFDFFFFFFFFE1F8E0FFF9CFFFFFFFA35D
:101B700072206570678C43040401010171747781E0
:101B80009BB6CCE1ECF0F2F5F6EAD1B79260443CBA
:101B900032261C140C09090A08070514141214161D
:101BA0001A20242F36343434312C272223252D3685
:101BB00035342B222C44646A563D1F1B121212121C
:101BC0000E0A07050707060C0E08040304020100AD
:101BD00000000000000000000002020101020507F1
:101BE000080C26486C835E534A410F03040301002E
:101BF0000000000000000000070705080D17297904
:101C0000EBD1A08193B7663C33100C0805040201A8
:101C1000000000030200000303040B1418283E56C2
:101C2000869D788A9373542E17102425120E0C016A
:101C3000000102030401251A1A3D5A839B85E0EF37
:101C4000E2DEC8A2A173685C4F9CA39A7B5518077B
:101C50000B0F15201AC4E0EAEAEEF2F3F0EAEAF11B
:101C6000FAFFF1B8878FC6D8A78C582432322019D2
:101C700017110C0811111316181B222E35342C1EA7
:101C8000171416221D100C0E0D101408030E416AB5
:101C90006C5C3D233A3D2C1E0E06090A0A08040B13
:101CA0001E1F1812040102020200000000000000C2
:101CB00000000A282B2E42392616222A246DA8A8B5
:101CC0002E120904040606020000000000000000B5
:101CD00000222C3E4934609691CCFFFF8687D0AC21
:101CE0006038220E10080100000000000204040108
:101CF00016151E6E90C09EFFFFFFFFC48A72523EF3
:101D000024262A322A0C020000000C24200A03B5E3
:101D1000FFFFFFDCFFFFFFFFFFFFFFFFFFD2FFFF23
:101D2000AA76FFFF9312030212849A832810778900
:101D3000A0B5D3F0F9FCF3E4C68A5947382A1F1737
:101D4000100C090807060602000000000012131616
:101D50001A21272827292A282B29293541423E39AB
:101D600032344A5C56471F0300000000110E090977
:101D7000070D100E100C0B0B0502020100000000F5
:101D800000000000000000000000000204090A0A30
:101D90000C151C14111D16050301000100000000A4
:101DA000000000000000000000000615242130584B
:101DB0006B8FA4BC817410090404030101000000AE
:101DC000000000000000000000010913273733382D
:101DD0004145383124080913170C0604010000019D
:101DE00002020000000000001E3849B3CCD7D7DA49
:101DF000D2775B827895C6CD986C46291A1918124D
:101E000018120000000000A9BDC9D5DFE3ECF6FD03
:101E1000FCFAF2EAE5E1D8C7B68E57301B150E0A78
:101E20000F1719130D0A222125282A29292B2C2EB8
:101E30002E2620211F242823211C191C181C326542
:101E40009FB49E846026242019120D0E130D0504E4
:101E50000F27434E6EA887310D06020201000000D5
:101E600000000000130A1639554522182A5C6FCA73
:101E7000F7D1952A1E0C04020100000000000101A8
:101E800000000029619CB17D928B2E188AD0E3DA84
:101E900099748975501E03000000000000020C1B9D
:101EA000150D915D8A88DDFFFFFFFFDDB5EAEB9C34
:101EB000DDFFFFD579341D010001040A0B0B0E0B69
:101EC00007749583ABB0FFFFFFF0D7FFFFFFFFFF65
:101ED000FFD3B6412210040100158FB0BF29352968
:101EE0006283B4D8EBF4F4F3ECE5E4D9C0A78A67D5
:101EF0004C311E16110E0B080706040302000022C7
:101F0000262A2F2E2E32322F2C2A29241E1916165D
:101F1000161316293A445356584631230000080731
:101F20000809060708060509101B20211E150F07C2
:101F30000100000000000000000000000002061C7C
:101F4000231B2832393F3B2E2113070603010000D3
:101F500000000000000000000000000009142946F5
:101F60003C335585AFD49EA19761461806080401FD
:101F7000000000000000000000000003050F354CC9
:101F80003C2D1B21333F4830130B08050100000195
:101F900002010001010000000000061D353979BA78
:101FA000BFA067767C5C3432301B0D040109112D13
:101FB0002C0B05070604030000666A5B5E6B7DA1BF
:101FC000D6F4F2EFEADECDC7D2DDD5B792663C2774
:101FD0001C140E0A08090A08181E272B2C34353049
:101FE0002F3136383834302C2928231A1A1B151271
:101FF00014131C3C647D7613150C060709080706AC
:10200000040306090B0C0C112F43280E08030000D3
:102010000000000000000303020306080E172A3523
:102020002E39434A3C19181306040201000000002F
:102030000000000000100B0E12121A2A516F817658
:102040007DB6DCB9A79ACEB468340603020000005E
:102050000000000003090F0C1A2D1F3848271E2D01
:10206000372921424A2C1C0A070500000000000203
:102070000201000C16110F11192F6BB0A483BAAE18
:10208000968279848B5D382C1304010000010E13B5
:102090000E0E5F5F7793B7E0F4F0E8E3E6E4D8D2A2
:1020A000D9DAB9926D42261C150E0A090A0A0806E9
:1020B0000324262E35322A2C3232333735302C2861
:1020C00026231F1D1916121118243E6176765E35DF
:1020D0000D0B0C0C0908080908090A0C0E13233211
:1020E000363E26050101000000000000000000044B
:1020F000040505122019192122363C30322A1B0F03
:1021000006030100000000000000000000000809B4
:102110001A3F696A4B43415085C1D9758EB88139E0
:102120001602020100000000000001010011162F3C
:1021300077A58181692A4A79704B5240232510077F
:102140000300000000000102010200001217111C30
:102150005B8358728C906EA1BF958A726648250980
:102160000200000001101A12171202595C6E7B7FE8
:1021700097B3C4CFDBE9F6FBF6F1EFEDD9C7B18E2B
:102180006A4F3B25160F0D0C0D0D1819181C1D1C40
:1021900023282B2B2E2F2A292B2728302F2A221EAB
:1021A0001D15131A171E42677C0C120E0B151C11FD
:1021B000070605080B0805112536525B66603E339D
:1021C000180203030101000003030304050C0E0BB6
:1021D000141E1F152133569A6F403B0F050A090143
:1021E00000000000000000010A0E090C17254974C8
:1021F0004A273F3BB7B6C977A2C18C370C0404010C
:10220000000000000104051A39281A2975ACBBC961
:10221000F9FFEEC2E2C1A3D0B2966A675831250138
:1022200000010305060D163434140F2B95A5F5FF98
:10223000FFFFFFFFFFFFD1F998728A7D08080701B1
:102240000513231D11241FBECFE5D8E0DEBFCDBF8F
:1022500011E0A0E6B0E0E0E6F2E402C005900D92E5
:10226000A032B107D9F724E0A0E2B1E001C01D928D
:10227000A332B207E1F70E94F0150C94B1200C9440
:1022800000001F920F920FB60F9211240F931F930D
:102290002F933F934F935F938F939F93AF93BF93EE
:1022A000EF93FF9344B155B188B7886088BF8091A0
:1022B000600090916100A0916200B0916300840F72
:1022C000951FA11DB11D8C019D01EAE03695279552
:1022D00017950795EA95D1F7801B910BA20BB30BCD
:1022E0008093600090936100A0936200B0936300BC
:1022F0002091240330912303FAE0B695A795979592
:102300008795FA95D1F7481B590B80E8289FF00173
:102310001124E30FF11DEE0FFF1FED5DFE4F518302
:10232000408381E0830F3F3799F080932303FF912F
:10233000EF91BF91AF919F918F915F914F913F919D
:102340002F911F910F910F900FBE0F901F90189516
:102350001092230381E0820F8093220181E02827DD
:1023600020932403E4CF95B39F70282F207F922BD6
:1023700095BBAA98A89A94E09A95F1F7A898E8E2F4
:10238000F2E03197F1F700C0000095B38295807FAD
:102390009F70892B85BBA89AF4E0FA95F1F7A8986D
:1023A00089E995E10197F1F700C0089595B39F7011
:1023B000282F207F922B95BBAA9AA89A94E09A95F1
:1023C000F1F7A898E8E2F2E03197F1F700C00000D9
:1023D00095B38295807F9F70892B85BBA89AF4E086
:1023E000FA95F1F7A89889E995E10197F1F700C00E
:1023F00008958FEF84BB8FEF97ED0197F1F700C041
:10240000000082E00E94B31188E20E94B3118CE0C8
:102410000E94B31186E00E94B31181E00E94B311C3
:1024200089E995E10197F1F700C00895CF93DF9313
:10243000EC018991811103C0DF91CF9108950E9431
:10244000D611F7CFCF93DF93D42FC52F81110BC0B7
:10245000862F8F70806860316CF08D2F9C2FDF91FC
:10246000CF910C9416128130C1F76031B4F7862FEA
:102470008F70806C0E94B311F0CF81E00E94B31185
:1024800089E995E10197F1F700C080E80C94B31158
:10249000CF93DF93D62FC72F90EC980F913440F451
:1024A0000E94B3118D2F9C2FDF91CF910C941612A7
:1024B000DF91CF910895811106C0862F8F708068BB
:1024C000603144F008958130E9F76031DCF7862F00
:1024D0008F70806C0C94B3110E94B3118FE084BB99
:1024E000AA9AA99AA89A8AE48A95F1F793B3907F59
:1024F000A898E8E2F2E03197F1F700C00000A89A4E
:10250000FAE4FA95F1F783B3A8982FEF24BBA998C2
:1025100082958F70892B08958A98833059F4929808
:1025200085B7836085BF8AB780648ABF8BB78064B4
:102530008BBF0895929A813051F0823071F08111F1
:10254000F2CF85B78D7F85BF85B78E7FEBCF85B7FF
:102550008D7F85BF85B78160E5CF85B78260F3CF7A
:102560008B98833059F4939885B78C6085BF8AB770
:1025700080688ABF8BB780688BBF0895939A81303B
:1025800051F0823071F08111F2CF85B7877F85BF1E
:1025900085B78B7FEBCF85B7877F85BF85B7846095
:1025A000E5CF85B78860F3CFBA98833059F4C298E5
:1025B00084B7806484BF8AB780628ABF8BB7806229
:1025C0008BBF0895C29A84B78F7BF4CF5F9BFECFF9
:1025D0008CB190E008955D9BFECF8CB980E090E0D7
:1025E00008959B01AC0184E0220F331F441F551F47
:1025F0008A95D1F760E070EC88EA90E00E94951D22
:102600002150310929B930BD549A539A80B5866852
:1026100080BD08955F9B03C08CB190E008958FEF5B
:102620009FEF0895EDE1F4E084E690E093838283E8
:102630009183808308953F924F925F926F927F9231
:102640008F929F92AF92BF92CF92DF92EF92FF92C2
:102650000F931F93CF93DF93D82EC92EB62EA72E9C
:10266000942E852EE12CF12CC0E0312C44244A9488
:10267000542C32018701045A1F4FD5E09801492D8F
:10268000582D6B2D7A2D8D2D9C2D0E949214462F46
:10269000572FBC01441555056605770518F43C2EE7
:1026A0002A013B01D15007521F4FD111E7CFCF5F15
:1026B00083ECE81A8BEFF80AC830E1F6832DDF913E
:1026C000CF911F910F91FF90EF90DF90CF90BF902F
:1026D000AF909F908F907F906F905F904F903F90C2
:1026E0000895883048F4E82FF0E0EE0FFF1FE4581B
:1026F000FF4F80819181089588E191E0089528E25B
:10270000FC0111922A95E9F708956F927F928F92BA
:102710009F92AF92BF92CF92DF92EF92FF920F9370
:102720001F93CF93DF9331E9632E30E0732EFC01CA
:102730008C010C5E1F4F6B01770FEE08FF08E30161
:10274000A991B9913E0181909190A190B190A5017C
:1027500094010E94E01DDC01CB012EE0B595A79508
:10276000979587952A95D1F78C0D9D1DAE1DBF1DA0
:102770004089518962897389841B950BA60BB70B1D
:10278000808A918AA28AB38A9F0124503109E90183
:1027900088839983AA83BB83E017F10781F6DF91D1
:1027A000CF911F910F91FF90EF90DF90CF90BF904E
:1027B000AF909F908F907F906F9008952F923F924F
:1027C0004F925F926F927F928F929F92AF92BF9241
:1027D000CF92DF92EF92FF920F931F93CF93DF93ED
:1027E000CDB7DEB72A970FB6F894DEBF0FBECDBFC8
:1027F000E62EF12CFA86E98604E0609FF0011124B0
:10280000E80FF91F80819181A281B38189839A8326
:10281000AB83BC834488558866887788BC01CD012A
:102820009B01AC010E94401E49014D835E831B0148
:102830008F839887C301B201A30192010E94401EB9
:1028400059016A017B018C0194014D815E81B101C6
:102850008F8198850E94CE1E922E832E342E252E97
:102860006D837E838F839887A985BA85AA0FBB1F46
:10287000AF56BF4F6D917C91072E000C880B990BC2
:1028800029813A814B815C810E94401E8301720143
:10289000110FEE08FE2C8701E982FA820B831C835C
:1028A00052016301E980FE2C0E2D1E2D0E94E81DB1
:1028B0000EE00E94B11E59016A017B018C01292D95
:1028C000382D432D522D6D817E818F8198850E94F8
:1028D000D71E2983B32FF42FE52FA0E00E94E01E1E
:1028E00024F41982B0E0F0E0E0E069817B2F8F2FC3
:1028F0009E2F2A960FB6F894DEBF0FBECDBFDF9194
:10290000CF911F910F91FF90EF90DF90CF90BF90EC
:10291000AF909F908F907F906F905F904F903F907F
:102920002F9008952F923F924F925F926F927F92D5
:102930008F929F92AF92BF92CF92DF92EF92FF92CF
:102940000F931F93CF93DF93CDB7DEB766970FB684
:10295000F894DEBF0FBECDBF8C839D836E837F83D3
:1029600048875987390148EF50E06FEF70E085E202
:1029700093E00E94CF1F00E010E041E04D8B1982F0
:102980000E8B802F053008F485E02BEF280F9E89F1
:102990009A3108F099E155E0590F5A87622F70E09B
:1029A0007C8B6B8B211599F0FB0131977FE14D8971
:1029B000749FE00DF11D1124EE0FFF1FEE0FFF1F9E
:1029C000EB5DFC4F5FEF50835183528353834A8505
:1029D0004E3199F09A5F5FE14D89549FF0011124C7
:1029E000E90FF11DEE0FFF1FEE0FFF1FEB5DFC4F18
:1029F0005FEF50835183528353834981242F30E00A
:102A00003195219531092F7133274B895C89240F2A
:102A1000351F220F331F220F331FB9016B5D7C4F0F
:102A20002B01865E1301280E311C4D89842F90E006
:102A30009195819591098F7199274B895C89840FB4
:102A4000951F880F991F880F991FAC014B5D5C4F34
:102A50005B834A836C817D81600F711F788B6F87E8
:102A60008E819F81800F911F9A8B898B8B884A85DD
:102A7000481570F50F5F1F4F0F31110521F54D8976
:102A80005CE7459FF0011124E356FC4F60817181A2
:102A90008281938166960FB6F894DEBF0FBECDBFDC
:102AA000DF91CF911F910F91FF90EF90DF90CF902A
:102AB000BF90AF909F908F907F906F905F904F905E
:102AC0003F902F90089589815D8959838D8B58CFD0
:102AD000EB89FC89E60DF71D8491EF85F889A081CB
:102AE000A81BBB0B9D010E94B71D6B017C01F1016E
:102AF0008491E989FA89A081A81BBB0B9D010E94E2
:102B0000B71DC60ED71EE81EF91EA884B984A00EF4
:102B1000B11E8B89825CF301E80FF11D85E0982ED0
:102B20008491D5019C91292F281B330BD9010E9438
:102B3000B71DC60ED71EE81EF91E9A943FE1A30EDC
:102B4000B11C7F969110ECCF8E8988298115E9F10F
:102B5000F20180819181A281B3818114D9F0EA814F
:102B6000FB81B290A29092908290F2015291429198
:102B7000329122912B873C874D875E872817390732
:102B80004A075B0710F4DA01C90188169906AA06FC
:102B9000BB0618F18F3F3FEF9307A307B307C1F4BC
:102BA000EA81FB8181939193A193B193FB83EA83A3
:102BB0004B895C894F5F5F4F5C8B4B8B54E0450EBC
:102BC000511C6FEF261A360A51CF80E090E0DC01ED
:102BD0008C0D9D1DAE1DBF1DE3CFD501C401F8CFE7
:102BE000CDB7DEB7C254D1400FB6F894DEBF0FBEEA
:102BF000CDBF60E875E280E090E00E94F1120E9493
:102C000012131FBC8AE08EBD8CEA90E09BBD8ABD8A
:102C100099BD88BD83E087B98EEE86B980B78F7184
:102C200080BF80B7806A80BF78940E94F91160E00D
:102C300080E00E945B1278949E012A5E3E4FC65D42
:102C4000DE4F39832883CA52D14084E1D9011D92D5
:102C50008A95E9F7FE01ED51FF4FC45DDE4FF98320
:102C6000E883CC52D1408FE1482E11924A94E9F783
:102C700022553109C25DDE4F39832883CE52D140BF
:102C8000D9011D928A95E9F7FE013196C05DDE4FAC
:102C9000F983E883C053D1408BE911928A95E9F713
:102CA000CA5CDE4F1882C653D14022242394312CB3
:102CB000CC5CDE4F1882C453D140C55CDE4F188215
:102CC00019821A821B82CB53D14010E0412C4CE078
:102CD000542E612C712CC95CDE4F488259826A8265
:102CE0007B82C753D140C25DDE4F5880CE52D14067
:102CF000CF5BDE4F5882C154D140C15DDE4F68804A
:102D0000CF52D140CE5BDE4F6882C254D1402852B0
:102D10003109CE5CDE4F39832883C253D140AE01E6
:102D20004C535F4F415E5F4FC15CDE4F5983488318
:102D3000CF53D140809122018115E1F3809122018E
:102D4000109222018150990B982F8827DC01AD5DEC
:102D5000BE4F7D018091200190912101892B09F0C6
:102D6000B4C0A3E0B0E0C95CDE4F288139814A815C
:102D70005B81C753D1400E94D51D2AE09695879567
:102D8000779567952A95D1F7F701A701539500E04C
:102D9000812C912C5401CC24DD24C61AD70A208121
:102DA0003181C90137FF04C088279927821B930B03
:102DB000092E000CAA0BBB0B880E991EAA1EBB1E67
:102DC000C95CDE4F488059806A807B80C753D14000
:102DD000480E591E6A1E7B1EC95CDE4F488259820E
:102DE0006A827B82C753D1408AE076946794579475
:102DF00047948A95D1F7C95CDE4F88819981AA8171
:102E0000BB81C753D14084199509A609B709C95C8C
:102E1000DE4F88839983AA83BB83C753D14062174F
:102E200073070CF013C2111111C20F5F11E032963B
:102E3000E417F50709F0B3CFB7E0B694A7949794D9
:102E40008794BA95D1F797E4891610F40031E8F128
:102E5000A1E0B0E0B0932101A09320018FE1C45D17
:102E6000DE4FE881F981CC52D140482E11924A942C
:102E7000E9F7C25DDE4FA881B981CE52D1401D92E3
:102E80008A95E9F784E1C65DDE4FE881F981CA528F
:102E9000D14011928A95E9F78BE9C05DDE4FA88198
:102EA000B981C053D1401D928A95E9F74BE950E0B2
:102EB00060E080E00E942212CA5CDE4F1882C65396
:102EC000D14022242394312C10E080912001909154
:102ED0002101019709F078C0F70180819181772461
:102EE0007394181619060CF0712CCE0184569F4F5E
:102EF0000E947F1397013395690100E0812C912C8A
:102F00005401D7016D917C91CB0177FF04C08827D4
:102F10009927861B970B092E000CAA0BBB0B880E5A
:102F2000991EAA1EBB1E872D7724739416161706AA
:102F30000CF0712C78120F5FCE0184569F4F0E94C7
:102F40008513B2E0EB0EF11CEC14FD04D1F67E010A
:102F5000EEEFEE1AFE0A6701712C5E2C6F2C672DC6
:102F6000CE0184569F4F0E94DE13D6016D937D9350
:102F70008D939D936D017394B5E07B12F0CF211476
:102F800009F46EC184E1E52DF62DDE01AA5EBE4F87
:102F900001900D928A95E1F7CA5CDE4F2880C653F6
:102FA000D140CA5CDE4F2882C653D140CC5CDE4F94
:102FB0000883C453D140C55CDE4F88829982AA82BF
:102FC000BB82CB53D140212C8091200190912101D3
:102FD000029709F0AFCEFE01ED51FF4F7F012FE1C7
:102FE000E20EF11CDF0120E08D91281708F4282F54
:102FF000EA16FB06C9F7211589F04FEF30E0819101
:103000008F0101501109489FC0011124B9010E948C
:10301000811DD8016C93EE16FF0689F7FE013196EB
:103020003F01CF0120E0FC013FE14191241708F46A
:10303000242F3A95D1F74F96CE5CDE4F48805980C9
:10304000C253D1404816590671F7211509F1F30111
:10305000BB24BA9430E08F014FE1D8018D918D01EE
:103060006D01B1E0CB1AD108B89EC0011124B9019D
:103070000E94811DD6016C934A9579F77F96CE5CAC
:10308000DE4F48805980C253D1404E165F0619F773
:103090004CEA50E060E080E00E942212AE014F5FF7
:1030A0005F4FCF5BDE4F6881C154D140CE5BDE4FB6
:1030B0007881C254D140CE018D519F4F0E941B1385
:1030C000182F4DEB50E060E080E00E9422124EECA1
:1030D00050E060E081E00E942212812F0E94711373
:1030E000AC0160E081E00E9422128FED90E00E942E
:1030F00027208E010D511F4FD8018D918D011F92F8
:103100008F93E5EEF0E0FF93EF930E9411200F9074
:103110000F900F900F9064EEC62E60E0D62ED8016F
:103120008D918D011F928F93DF92CF920E9411207B
:103130000F900F900F900F900E151F0581F78BEEDB
:1031400090E00E94272088EE90E00E9427208E01C8
:103150000C531F4FF80181918F011F928F9345EE01
:10316000442E40E0542E5F924F920E9411200F9007
:103170000F900F900F9054EEE52E50E0F52ED801F1
:103180008D918D011F928F93FF92EF920E941120DB
:103190000F900F900F900F90C15CDE4F48805980C8
:1031A000CF53D1404016510651F78BEE90E00E946C
:1031B000272092E7E92E90E0F92E2DEEA22E20E0B6
:1031C000B22E34EE832E30E0932ED7018C911196DF
:1031D0009C91B2E0EB0EF11C9F938F93BF92AF9244
:1031E0000E941120F30181916F011F928F9385EE50
:1031F000482E80E0582E5F924F920E9411200FB609
:10320000F894DEBF0FBECDBF1EE1D6018D916D01DA
:103210001F928F939F928F920E94112011500F90B6
:103220000F900F900F901111F0CF8BEE90E00E9455
:103230002720BFE16B0E711CECE7EE16E0E0FE0606
:1032400021F6109221011092200174CD2C153D051C
:103250000CF0EDCD113009F0EACD0F5F10E0E7CDB5
:10326000832D90E0FE01ED51FF4FE30DF11DC55C94
:10327000DE4F488059806A807B80CB53D140480C18
:10328000591C6A1C7B1C7727672D562D452D411430
:10329000510421E06206710408F04FEF4083AE0153
:1032A0004C535F4F840F951FCC5CDE4F2881C45375
:1032B000D140200FDC012C93FE01EA5EFE4FCC5C76
:1032C000DE4FF983E883C453D1402CE830E0DE01BF
:1032D0001196A30DB11DC7014496C55CDE4FF9825E
:1032E000E882CB53D140C55CDE4FE881F981CB53F6
:1032F000D1404190519061907190C55CDE4FF9834F
:10330000E883CB53D140CC5CDE4FE881F981C453D4
:10331000D1404191519161917191CC5CDE4FF98323
:10332000E883C453D140F901D1909F01440E551E4A
:10333000661E771E04C07694679457944794DA9477
:10334000D2F74114F1E05F066104710410F04424E7
:103350004A944C925F96C55CDE4F48805980CB53AF
:10336000D1404816590609F0BECFB501A401E7E0E7
:103370007695679557954795EA95D1F7D7014D9082
:103380005D906D907D907D0141145104B0E36B061A
:10339000710470F4E816F90689F7473451056105A0
:1033A000710530F4CA5CDE4F2880C653D1402394A7
:1033B00084E1FE01EE5FFE4FDE01AA5EBE4F01908A
:1033C0000D928A95E1F73394EAE03E1608F4E9CDD0
:1033D000FCE02F1628F47FE1472E341408F4E1CDE9
:1033E00082E090E09093210180932001DACDAFE05C
:1033F000B0E0EDEFF9E10C947A1E7C013B015A013B
:10340000FC0117821682838181FF57C39AE0292E1F
:10341000F7012381F30123FD859123FF81913F0172
:10342000811509F442C0853239F423FD959123FFBB
:1034300091913F01953239F4B70190E00E94E11F6C
:1034400065015601E5CF30E010E0912C812CF0E2CF
:103450008F1608F03CC09B3279F160F4903271F124
:10346000933291F19E3209F046C086FC1EC06894EA
:1034700086F806C09D3229F1903359F5689480F89A
:10348000F30123FD959123FF91913F019111DFCF2E
:10349000082D097F903709F486C208F07CC2983560
:1034A00009F484C29F3609F488C2F70186819781A6
:1034B0002F96E2E10C94961E689481F8689482F845
:1034C000DFCF689483F8DCCF689484F8D9CF87FC89
:1034D0001CC080ED890F8A3028F686FE05C0129D3B
:1034E000800D1124182FCCCF929C800D1124982E82
:1034F000689485F8C5CF9C3619F4689487F8C0CFD6
:103500009C3409F1983609F4BBCF3115F1F0892FBD
:103510008F7D8554833008F098C1650128E0C20E84
:10352000D11C8FE3898301E010E0AE014F5F5F4F54
:103530005A01E89487F883FC04C00915110508F4C2
:10354000F0C1592C03C231E09BCF8BEB890F833044
:1035500098F4689484F8905E86FE16E0582D5F73A8
:10356000852E953689F4689486F8212F183010F04E
:1035700027E017E0412C14C08BE9890F833008F055
:1035800064C1E89484F8E8CF963681F5689487F8AA
:10359000812F1C3308F08BE344244394480E27E02A
:1035A000F50161917191819191916F01042DAE01AD
:1035B0004F5F5F4F0E94EC1E5C01398030FE03C0FC
:1035C0000DE233FE05C082FA002705F981FC0BE20B
:1035D000F32DFC705F2EF11529F1011171C224E069
:1035E000512C921608F483C283E06FC220E01115BB
:1035F00009F4C0CF1150B9CF81108052B70190E0CB
:103600000E94E11F0F5F1F4FF80184918111F4CFD9
:10361000511409F416CFB70180E290E00E94E11F37
:103620005A94F6CF87FE30C0842D8A0D34FE04C034
:103630009A81913309F4815044244394181634F448
:10364000482EF9E08F1710F088E0482EC501B7FE2C
:1036500002C080E090E0019601110196111531F051
:10366000212F30E02F5F3F4F820F931F8915910567
:1036700014F4592C581A882D8970811136C05110B4
:103680002DC00115D9F133C086FC25C0E12FF0E033
:103690001A151B043CF02CEFA2162FEFB20614F003
:1036A000689487F83296AE014F5F5F4FE40FF51FC5
:1036B00001C01150111519F082918033D1F387FEAA
:1036C0000AC044244394410EA116B10414F41A19FB
:1036D000BDCF10E0BBCF85E090E0BECFB70180E268
:1036E00090E00E94E11F5A94CACF011529F0B7015A
:1036F000802F90E00E94E11F83FC02C051103FC068
:1037000087FE57C04501B7FE02C0812C912CCE0127
:1037100001968A0D9B1DFC01E819F909FD87EC87CC
:103720009501241931093F872E87012F10E011954B
:1037300001951109A814B9044CF14E855F8548150F
:10374000590524F5EC85FD858181F1E08F1A9108FA
:103750002C853D852F5F3F4F3D872C878016910636
:10376000BCF0B70190E00E94E11F3FEF8316930683
:1037700009F7B7018EE290E00E94E11FDBCFB701AD
:1037800080E390E00E94E11F5A94B8CF80E3DDCF40
:10379000A814B90439F49A81963348F4953311F496
:1037A00034FE05C0B70190E00E94E11F31CF81E3F4
:1037B000F9CF8A81813311F0E89434F8B70190E0B1
:1037C0000E94E11F111125C085E490E084FC02C035
:1037D00085E690E0B7010E94E11FB7FC05C0A11487
:1037E000B10461F534FE2AC0B194A194B1088DE210
:1037F000B70190E00E94E11F80E35AE0A516B104F2
:10380000FCF4B70190E00E94E11FB701C501C0962A
:10381000CBCFB7018EE290E00E94E11F1E5F02E075
:10382000802F0F5FFE013196E80FF11D8081B701F7
:1038300090E00E94E11F0113F3CFC6CF8BE2D8CFF7
:103840008F5F4AE0A41AB108D8CF9336E1F19337DD
:1038500009F447C0933509F453C0943619F09936EA
:1038600009F080C0F50187FE75C061917191819169
:1038700091916F01082D0F7697FF08C09095809564
:10388000709561957F4F8F4F9F4F00682AE030E021
:10389000AE014F5F5F4F5A010E945320B82EBA18F5
:1038A00006FF95C0802F8E7FB11608F08FC004FFF1
:1038B000E1C002FDD5C00E7E512E802F8678811585
:1038C00009F490C0D2C0650182E0C80ED11CF50198
:1038D0008081898301E010E09E012F5F3F4F5901F5
:1038E00028CEF501A190B1906F01612F70E086FCA8
:1038F00002C06FEF7FEFC5010E94D61F8C0119CE69
:10390000F501A190B1906F01612F70E086FC02C0BB
:103910006FEF7FEFC5010E94C41F8C01689487F888
:103920000ACEB70180E290E00E94E11F9A9405CE92
:10393000F50187FC859187FE81915F01B70190E0D9
:103940000E94E11F51105A940150110901151105EF
:1039500079F75ECE619171916F01072E000C880B93
:10396000990B88CF082D0F7E2AE030E0953709F0BB
:103970008FCDF50107FF24C06191719181919191E3
:103980006F01AE014F5F5F4F5A010E945320B82E66
:10399000BA180F7785CF983709F087CD84FC04C01B
:1039A00020E130E0E6CF00610460FACF84FE02C07F
:1039B000082D066020E132E0DCCF28E030E0D9CFEE
:1039C000619171916F0180E090E0DBCF082F5B2C5B
:1039D00004FF73CFFE01EB0DF11D8081803309F0F0
:1039E00042C0097E03FD0EC000FF50C01B2D5914BC
:1039F00018F4190D1519592C892D8519951408F4E9
:103A000080E0580E591408F043C09518592C04FF53
:103A100041C0B70180E390E00E94E11F02FF09C0AE
:103A200088E590E001FD02C088E790E0B7010E94C0
:103A3000E11FB116D8F1BA940B2D10E00F5F1F4FA4
:103A4000CE0101965C01080F191FF80182918F01C8
:103A5000B70190E00E94E11FA016B106B1F7D8CDE2
:103A6000512E082FB7CF02FD02C05394BBCF539401
:103A70005394B8CF512E082F20CFB70180E290E0A9
:103A80000E94E11FA394A914C0F3B6CFA52CFBCFCD
:103A9000512CBDCF802F8678811559F280E201FD2F
:103AA0008BE207FD8DE2B70190E0C1CFB70180E363
:103AB00090E00E94E11F1150BCCF8FEF9FEFF8CC38
:103AC000F5E0512C9F1670F084E0592C581A83FCB5
:103AD00007C0B70180E290E00E94E11F5A94C9F745
:103AE000011529F0B701802F90E00E94E11F04E545
:103AF00010E033FC02C008E510E0282D2071822E72
:103B000083CDAA1BBB1B51E107C0AA1FBB1FA61771
:103B1000B70710F0A61BB70B881F991F5A95A9F776
:103B200080959095BC01CD010895A1E21A2EAA1BA3
:103B3000BB1BFD010DC0AA1FBB1FEE1FFF1FA2175D
:103B4000B307E407F50720F0A21BB30BE40BF50B5A
:103B5000661F771F881F991F1A9469F760957095E3
:103B6000809590959B01AC01BD01CF0108950E9405
:103B7000BF1D332312F48A1B9B0B0C94D01DA29FF4
:103B8000B001B39FC001A39F700D811D1124911D31
:103B9000B29F700D811D1124911D08950E94BF1DBB
:103BA000B7FF0895821B930B08950E94BF1DA59F28
:103BB000900DB49F900DA49F800D911D1124089528
:103BC000B7FF0C94D51D0E94D51D821B930B089541
:103BD000DF93CF931F930F939A9DF02D219FF00DAC
:103BE0008B9DF00D8A9DE02DF10D039FF00D029F3E
:103BF000E00DF11D4E9DE00DF11D5E9DF00D4F9D00
:103C0000F00D7F936F93BF92AF925F934F93D50167
:103C10000E94BF1D8B01AC01D7010E94BF1DEB01AB
:103C2000E80FF91FD6010E94371E2F913F91D60150
:103C30000E94BF1DC60FD71FE81FF91FAF91BF918C
:103C40000E94371E2F913F910E94BF1DC60FD71FA4
:103C5000E81FF91FD6010E94BF1DE60FF71F98014C
:103C6000BE01CF010F911F91CF91DF9108950E9466
:103C7000BF1D460F571FC81FD91F08F4319608955E
:103C800097FB57FF0C94501E9F938F930E94501EDA
:103C90006E1B7F0BAF91BF918A0B9B0B0895E8942D
:103CA000DF93CF93FC01DB010E94BF1D7F936F93D5
:103CB000E9019A01AC01BF93AF933F932F93DF01CA
:103CC0000E94BF1D26F46C1B7D0B820B930B9E0183
:103CD000EB01FC010E94371EAF91BF912F913F91E4
:103CE0000E94371EBE01CF01F9012F913F91CF9164
:103CF000DF9108952F923F924F925F926F927F9241
:103D00008F929F92AF92BF92CF92DF92EF92FF92EB
:103D10000F931F93CF93DF93CDB7DEB7CA1BDB0B97
:103D20000FB6F894DEBF0FBECDBF09942A8839883C
:103D300048885F846E847D848C849B84AA84B98443
:103D4000C884DF80EE80FD800C811B81AA81B9814F
:103D5000CE0FD11D0FB6F894DEBF0FBECDBFED0163
:103D6000089597FD1094002E083098F00850232FE6
:103D7000342F452F562F672F782F892F912DF4CF71
:103D800015949795879577956795579547953795A6
:103D900027950A95AAF71124002D08952A0D3B1D99
:103DA0004C1D5D1D6E1D7F1D801F911F08952A19DA
:103DB0003B094C095D096E097F09800B910B089541
:103DC0000024A7FD00942A17300540055005600522
:103DD0007005800590050895283008F027E0332706
:103DE000DA01990F311D87FD91600096610571051B
:103DF00039F432602E5F3D9330E32A95E1F7089560
:103E00009F3F30F080387105610509F03C5F3C5FF1
:103E10003D93913008F08068911DDF93CF931F93FD
:103E20000F93FF92EF92192F987F9695E92F969511
:103E30009695E90FFF27E054FE4B99273327EE2490
:103E4000FF24A701E70105900894079428F4360F92
:103E5000E71EF81E491F511D660F771F881F991F07
:103E60000694A1F70590079428F4E70EF81E491F61
:103E7000561FC11D770F881F991F661F0694A1F753
:103E80000590079428F4F80E491F561FC71FD11D2F
:103E9000880F991F661F771F0694A1F70590079456
:103EA00020F4490F561FC71FD81F990F661F771F91
:103EB000881F0694A9F784911095177041F0D69544
:103EC000C79557954795F794E7941A95C1F7E6E695
:103ED000F1E468941590159135916591959105904F
:103EE0007FE27395E118F10A430B560BC90BD00919
:103EF000C0F7E10CF11E431F561FC91FD01D7EF4F1
:103F0000703311F48A95E6CFE894015030F0080F31
:103F10000AF40027021708F4202F2395022F7A3382
:103F200028F079E37D932A95E9F710C07D932A95CF
:103F300089F6069497956795379517951794E11824
:103F4000F10A430B560BC90BD00998F023957E91CB
:103F500073957A3308F070E37C932013B8F77E9161
:103F600070617D9330F0839571E37D9370E32A95C2
:103F7000E1F71124EF90FF900F911F91CF91DF9106
:103F8000992787FD90950895FC0105906150704038
:103F90000110D8F7809590958E0F9F1F0895DC0132
:103FA00001C06D9341505040E0F70895FC0161500D
:103FB000704001900110D8F7809590958E0F9F1F4B
:103FC00008950F931F93CF93DF93182F092FEB01C1
:103FD0008B8181FD09C01FEF0FEF812F902FDF91A3
:103FE000CF911F910F91089582FF14C02E813F81C0
:103FF0008C819D81281739073CF4E881F981CF0134
:1040000001969983888310838E819F8101969F8377
:104010008E83E3CFE885F985812F0995892BA1F35C
:10402000DACFA0E0B0E0E7E1F0E20C948A1EAE0146
:104030004B5F5F4FFA0161917191AF0180911F0455
:10404000909120040E94F719E2E00C94A61E0F93B1
:104050001F93CF93DF93E0911F04F09120042381FD
:1040600000E010E021FD0EC00FEF1FEFC801DF914F
:10407000CF911F910F9108950995892B11F00FEFA2
:104080001FEFCE01EC01899160911F047091200413
:10409000DB011896ED91FC918111EECF8AE0099534
:1040A000892B21F3E1CFFA01AA27283051F12031E1
:1040B00081F1E8946F936E7F6E5F7F4F8F4F9F4FBC
:1040C000AF4FB1E03ED0B4E03CD0670F781F891FFE
:1040D0009A1FA11D680F791F8A1F911DA11D6A0FCC
:1040E000711D811D911DA11D20D009F468943F917F
:1040F0002AE0269F11243019305D3193DEF6CF017E
:104100000895462F4770405D4193B3E00FD0C9F743
:10411000F6CF462F4F70405D4A3318F0495D31FDB0
:104120004052419302D0A9F7EACFB4E0A695979503
:10413000879577956795BA95C9F7009761057105D9
:1041400008959B01AC010A2E069457954795379523
:104150002795BA95C9F7620F731F841F951FA01D7D
:104160000895F894FFCF00407A10F35A00A0724EE1
:1041700018090010A5D4E80000E87648170000E40C
:104180000B54020000CA9A3B000000E1F505000054
:1041900080969800000040420F000000A0860100B9
:1041A0000000102700000000E80300000000640089
:1041B000000000000A0000000000010000000000F4
:1041C0002C76D888DC674F0823DFC1DFAE59E1B118
:1041D000B796E5E3E453C63AE651997696E8E6C227
:1041E0008426EB898C9B62ED407C6FFCEFBC9C9F2E
:1041F00040F2BAA56FA5F490055A2AF75C936B6C50
:10420000F9676DC11BFCE0E40D47FEF520E6B50043
:10421000D0ED902E0300943577050080841E0800B1
:1042200000204E0A000000C80C333333330F986E61
:1042300012831141EF8D2114893BE65516CFFEE61E
:10424000DB18D1844B381BF77C1D901DA4BBE424E4
:10425000203284725E228100C9F124ECA1E53D2761
:10426000000004000000000300000000EB12E61252
:1042700000005E018403A4068C0AAC0DF300F60076
:10428000FA000001050108010D01120114100E0CC5
:104290000A337B0562AC1E2ABEBE895265636F720B
:1042A00064696E672E2E2E2020202000436C6173DF
:1042B00073696679696E672E2E2E2020004465741E
:1042C00065637465643A202020202020200020208F
:1042D00020202020202020202020202020200053CB
:1042E00054450D002C2575005A43450D0047257592
:1042F0000D0A004F4E004F464600535441525400A1
:1043000053544F5000555000444F574E004C4546B3
:104310005400524947485400554E4B4E4F574E009B
:00000001FF
