:100000000C942E000C944B000C944B000C944B0061
:100010000C944B000C944B000C944B000C944B0034
:100020000C944B000C944B000C944B000C944B0024
:100030000C944B000C944B000C944B000C944B0014
:100040000C944D000C944B000C944B000C944B0002
:100050000C944B006E616E00696E660011241FBE29
:10006000CFE5D8E0DEBFCDBF10E0A0E6B0E0E6EB24
:10007000FCE102C005900D92A23BB107D9F720E048
:10008000A2EBB0E001C01D92AE3CB207E1F70E94C6
:10009000CF010C94DC0D0C9400001F920F920FB650
:1000A0000F9211248F939F9384B195B19093C500C3
:1000B0008093C40088B7886088BF81E08093C300C4
:1000C0009F918F910F900FBE0F901F90189595B331
:1000D0009F70282F207F922B95BBAA98A89A94E016
:1000E0009A95F1F7A898E8E2F2E03197F1F700C0AD
:1000F000000095B38295807F9F70892B85BBA89A5D
:10010000F4E0FA95F1F7A89889E995E10197F1F7FC
:1001100000C0089595B39F70282F207F922B95BB28
:10012000AA9AA89A94E09A95F1F7A898E8E2F2E0E2
:100130003197F1F700C0000095B38295807F9F70E2
:10014000892B85BBA89AF4E0FA95F1F7A89889E97C
:1001500095E10197F1F700C008958FEF84BB8FEF11
:1001600097ED0197F1F700C0000082E00E94670060
:1001700088E20E9467008CE00E94670086E00E948F
:10018000670081E00E94670089E995E10197F1F736
:1001900000C00895CF93DF93EC018991811103C0D2
:1001A000DF91CF9108950E948A00F7CFCF93DF931C
:1001B000D42FC52F81110BC0862F8F7080686031BE
:1001C0006CF08D2F9C2FDF91CF910C94CA00813061
:1001D000C1F76031B4F7862F8F70806C0E94670082
:1001E000F0CF81E00E94670089E995E10197F1F77E
:1001F00000C080E80C946700CF93DF93D62FC72F01
:1002000090EC980F913440F40E9467008D2F9C2F42
:10021000DF91CF910C94CA00DF91CF9108958111A5
:1002200006C0862F8F708068603144F00895813059
:10023000E9F76031DCF7862F8F70806C0C946700D3
:100240000E9467008FE084BBAA9AA99AA89A8AE4C0
:100250008A95F1F793B3907FA898E8E2F2E031979E
:10026000F1F700C00000A89AFAE4FA95F1F783B319
:10027000A8982FEF24BBA99882958F70892B089599
:100280008A98833059F4929885B7836085BF8AB77E
:1002900080648ABF8BB780648BBF0895929A813047
:1002A00051F0823071F08111F2CF85B78D7F85BF1B
:1002B00085B78E7FEBCF85B78D7F85BF85B7816092
:1002C000E5CF85B78260F3CF8B98833059F493984C
:1002D00085B78C6085BF8AB780688ABF8BB7806816
:1002E0008BBF0895939A813051F0823071F0811163
:1002F000F2CF85B7877F85BF85B78B7FEBCF85B77B
:10030000877F85BF85B78460E5CF85B78860F3CFE9
:10031000BA98833059F4C29884B7806484BF8AB78E
:1003200080628ABF8BB780628BBF0895C29A84B700
:100330008F7BF4CF5F9BFECF8CB190E008955D9BE7
:10034000FECF8CB980E090E008959B01AC0184E081
:10035000220F331F441F551F8A95D1F760E070ECC0
:1003600088EA90E00E94CE0B2150310929B930BDB6
:10037000549A539A80B5866880BD08955F9B03C0E8
:100380008CB190E008958FEF9FEF0895E8ECF0E0D6
:1003900080E690E093838283918380830895CDB734
:1003A000DEB7CF51D2400FB6F894DEBF0FBECDBF3F
:1003B00060E875E280E090E00E94A5010E94C6011D
:1003C0001FBC8AE08EBD8CEA90E09BBD8ABD99BDC2
:1003D00088BD83E087B98EEE86B980B78F7180BF04
:1003E00080B7806A80BF78940E94AD0060E080E0B2
:1003F0000E940F0178949E012F5F3E4FCF5FDD4F2B
:1004000039832883C150D24080E091E0F9019C01FA
:10041000119221503040E1F7FE013196CD5FDD4F62
:10042000F983E883C350D2409C011192215030409F
:10043000E1F731E0C45EDD4F3883CC51D240CE5E6F
:10044000DD4F1882C251D24081E0C65EDD4F888305
:10045000CA51D240CB5EDD4F19821882C551D240BD
:10046000212C312C412C512C612CB12CC75FDD4F3C
:100470001882C950D240C65FDD4F1882CA50D240A0
:10048000C55FDD4F1882CB50D240C45FDD4F18826C
:10049000CC50D240C95FDD4F19821882C750D2407C
:1004A0004DE7842E912CE0E4FFE1C85EDD4FF98337
:1004B000E883C851D240F1E0CC5EDD4FF883C451EF
:1004C000D240E12CC25FDD4F1882CE50D240C15FD6
:1004D000DD4F1882CF50D240C05FDD4F1882C0512F
:1004E000D240CF5EDD4F1882C151D240C35FDD4F95
:1004F0001882CD50D240712CC12CD12C2DE730E088
:10050000CB5FDD4F39832883C550D2408091C30033
:100510008115E1F31092C3006091C4007091C50091
:10052000072E000C880B990B0E94AC0A20E030E0EB
:1005300040E85AE30E943D0B20E030E040EA50E4FE
:100540000E943D0B20E030E040EA5FE30E94CB09CF
:10055000A62EF72E8C018091C6009091C700892BA2
:1005600009F04EC22A2D3F2DA8016A2D7F2DC8010A
:100570000E943D0B9B01AC01C35FDD4F6881CD50F4
:10058000D240772DC6010E94CC09C35FDD4F68833E
:10059000CD50D240772E6C0131E0C95EDD4F3883FB
:1005A000C751D24020E030E0A9016A2D7F2DC8015B
:1005B0000E94380B18162CF0C95EDD4F1882C75107
:1005C000D240CC5EDD4F8881C451D240811135C00C
:1005D000C95EDD4F9881C751D2409E1571F120E070
:1005E00030E040E85FE3C25FDD4F6881CE50D2402B
:1005F000C15FDD4F7881CF50D240C05FDD4F888131
:10060000C051D240CF5EDD4F9881C151D2400E948F
:10061000CC09C25FDD4F6883CE50D240C15FDD4F51
:100620007883CF50D240C05FDD4F8883C051D24025
:10063000CF5EDD4F9883C151D240CB5FDD4FE88163
:10064000F981C550D2403197CB5FDD4FF983E88304
:10065000C550D240EF2B09F0D9C120E030E04AEF7D
:1006600052E4C35FDD4F6881CD50D240772DC60183
:100670000E94380A2AE939E949E95EE30E94380B09
:1006800018161CF120E030E04AEF52E4C25FDD4F63
:100690006881CE50D240C15FDD4F7881CF50D240CB
:1006A000C05FDD4F8881C051D240CF5EDD4F988161
:1006B000C151D2400E94380A2DEC3CEC4CEC5EE378
:1006C0000E94380B18160CF0A7C121E030E03093DF
:1006D000C7002093C6004EE650E060E080E00E9434
:1006E000D600CB5EDD4F19821882C551D240212C35
:1006F000312CC95FDD4F19821882C750D24031E0DA
:10070000C45EDD4F3883CC51D240CE5EDD4F1882BF
:10071000C251D24081E0C65EDD4F8883CA51D240CB
:10072000412C512C612CB12CC75FDD4F1882C95070
:10073000D240C65FDD4F1882CA50D240C55FDD4F40
:100740001882CB50D240C45FDD4F1882CC50D240CB
:100750003DE7832E912CE0E4FFE1C85EDD4FF98395
:10076000E883C851D240F1E0CC5EDD4FF883C4513C
:10077000D240C25FDD4F1882CE50D240C15FDD4F04
:100780001882CF50D240C05FDD4F1882C051D24096
:10079000CF5EDD4F1882C151D240C35FDD4F18825A
:1007A000CD50D240712CC12CD12C2DE730E0CB5F45
:1007B000DD4F39832883C550D2408091C600909187
:1007C000C700019709F0A6C091E0891A91082A2D67
:1007D0003F2DA8016A2D7F2DC8010E943D0BC35EED
:1007E000DD4F6883CD51D240C25EDD4F7883CE515C
:1007F000D240C15EDD4F8883CF51D240E92EE1E087
:10080000C55EDD4FE883CB51D24020E030E0A90146
:100810006A2D7F2DC8010E94380B18162CF0C55E7A
:10082000DD4F1882CB51D2408114910409F41FC1CD
:10083000C35EDD4F2881CD51D240C25EDD4F38818D
:10084000CE51D240C15EDD4F4881CF51D2405E2DA6
:10085000C75FDD4FB881C950D240C65FDD4FA88168
:10086000CA50D240C55FDD4FF881CB50D240C45F43
:10087000DD4FE881CC50D2406B2F7A2F8F2F9E2FE7
:100880000E94CC09162F072FF82EE92EC45EDD4FEB
:10089000F881CC51D240F111E7C1CE5EDD4F288105
:1008A000C251D240C55EDD4F3881CB51D2402317B3
:1008B00019F08FEF281A380AC85EDD4F88819981B8
:1008C000C851D2400197C85EDD4F99838883C851D3
:1008D000D240892B09F4CEC1C55EDD4F9881CB5142
:1008E000D240CE5EDD4F9883C251D240C75FDD4F0C
:1008F0001883C950D240C65FDD4F0883CA50D2402A
:10090000C55FDD4FF882CB50D240C45FDD4FE88237
:10091000CC50D2408091C6009091C700029709F058
:1009200069C047E850E060E080E00E94D60028E916
:1009300030E03F932F930E94450D8E010F5F1F4FB4
:100940006E0191E0C90ED91E76010F900F90F8014B
:1009500040815181628173810C5F1F4FF60180815C
:10096000918122813381F4E0CF0ED11C7F936F936C
:100970005F934F933F932F939F938F9323EA30E09E
:100980003F932F930E94450D0FB6F894DEBF0FBE24
:10099000CDBF0E151F05D9F61092C7001092C600E4
:1009A000F1E0CC5EDD4FF883C451D240C25FDD4F31
:1009B0001882CE50D240C15FDD4F1882CF50D24056
:1009C000C05FDD4F1882C051D240CF5EDD4F18822C
:1009D000C151D240C35FDD4F1882CD50D240712C3F
:1009E000C12CD12C2DE730E0CB5FDD4F398328833C
:1009F000C550D240C95EDD4FE880C751D24086CD98
:100A0000C95EDD4FE882C751D240D7CECC5EDD4F04
:100A10001882C451D240D1CE31E0CC5EDD4F388354
:100A2000C451D240C25FDD4F1882CE50D240C15F68
:100A3000DD4F1882CF50D240C05FDD4F1882C051C9
:100A4000D240CF5EDD4F1882C151D240C35FDD4F2F
:100A50001882CD50D240712CC12CD12C8DE790E062
:100A6000CB5FDD4F99838883C550D240A6CECE5E42
:100A7000DD4FA880C251D240C55EDD4F9881CB5179
:100A8000D240A926C65EDD4FE881CA51D24020E09F
:100A900030E0A901C35EDD4F6881CD51D240C25E16
:100AA000DD4F7881CE51D240C15EDD4F8881CF517C
:100AB000D2409E2DE11509F459C00E94CC09162F91
:100AC000072FF82EE92EB12CC95FDD4F288139811F
:100AD000C750D2402115310541F1F9013197EE0F90
:100AE000FF1FEE0FFF1FCE018F5F9E4FE80FF91F14
:100AF00083818F9382818F9381818F9380818F9364
:100B0000EFE7F0E0FF93EF9382EB90E09F938F93FA
:100B10000E945B0D42EB50E060E080E00E94D60056
:100B20000FB6F894DEBF0FBECDBFCB5EDD4F39826E
:100B30002882C551D2401501C75FDD4F4880C9509A
:100B4000D240C65FDD4F5880CA50D240C55FDD4FEE
:100B50006880CB50D240C45FDD4FB880CC50D240CB
:100B6000C65EDD4F1882CA51D2407AC00E94CC09BD
:100B7000162F072FF82EE92EC95FDD4F8880998048
:100B8000C750D240880C991C880C991CCE018F5FED
:100B90009E4F880D991DCE5EDD4F99838883C2518B
:100BA000D240242D352D462D5B2DC75FDD4F48806B
:100BB000C950D240C65FDD4F5880CA50D240C55F91
:100BC000DD4F6880CB50D240C45FDD4FB880CC5041
:100BD000D240B201862D9B2D0E94CC0920E030E04E
:100BE0004AE753E40E94380ACE5EDD4FE881F9817E
:100BF000C251D24060837183828393839E012F5FB1
:100C00003F4F820E931ECB5EDD4F68817981C551C7
:100C1000D240620D731D80E090E00E94AA0A20E09D
:100C200030E04AE753E40E94380AF401608371839C
:100C300082839383C95FDD4F28813981C750D240B9
:100C40002F5F3F4FC95FDD4F39832883C750D240A4
:100C5000CB5EDD4F39822882C551D2402A2C312CFF
:100C60008DE7882E912C28CEC45EDD4F1882CC51A2
:100C7000D24022CEE2E0F0E0F093C700E093C6005D
:100C80002BCEAFE0B0E0E7E4F6E00C94F00B7C0193
:100C90003B015A01FC0117821682838181FF57C3F1
:100CA0009AE0292EF7012381F30123FD859123FF8B
:100CB00081913F01811509F442C0853239F423FD49
:100CC000959123FF91913F01953239F4B70190E05E
:100CD0000E94150D65015601E5CF30E010E0912C22
:100CE000812CF0E28F1608F03CC09B3279F160F461
:100CF000903271F1933291F19E3209F046C086FC38
:100D00001EC0689486F806C09D3229F1903359F5CB
:100D1000689480F8F30123FD959123FF91913F01A1
:100D20009111DFCF082D097F903709F486C208F0B2
:100D30007CC2983509F484C29F3609F488C2F70151
:100D4000868197812F96E2E10C940C0C689481F8CF
:100D5000689482F8DFCF689483F8DCCF689484F8D5
:100D6000D9CF87FC1CC080ED890F8A3028F686FE1B
:100D700005C0129D800D1124182FCCCF929C800DA0
:100D80001124982E689485F8C5CF9C3619F4689480
:100D900087F8C0CF9C3409F1983609F4BBCF3115E0
:100DA000F1F0892F8F7D8554833008F098C165015B
:100DB00028E0C20ED11C8FE3898301E010E0AE0170
:100DC0004F5F5F4F5A01E89487F883FC04C0091510
:100DD000110508F4F0C1592C03C231E09BCF8BEB15
:100DE000890F833098F4689484F8905E86FE16E04C
:100DF000582D5F73852E953689F4689486F8212FD7
:100E0000183010F027E017E0412C14C08BE9890F4F
:100E1000833008F064C1E89484F8E8CF963681F511
:100E2000689487F8812F1C3308F08BE344244394A3
:100E3000480E27E0F50161917191819191916F01C7
:100E4000042DAE014F5F5F4F0E94270C5C0139807B
:100E500030FE03C00DE233FE05C082FA002705F91B
:100E600081FC0BE2F32DFC705F2EF11529F10111CD
:100E700071C224E0512C921608F483C283E06FC241
:100E800020E0111509F4C0CF1150B9CF8110805264
:100E9000B70190E00E94150D0F5F1F4FF80184917C
:100EA0008111F4CF511409F416CFB70180E290E01C
:100EB0000E94150D5A94F6CF87FE30C0842D8A0DFE
:100EC00034FE04C09A81913309F481504424439440
:100ED000181634F4482EF9E08F1710F088E0482EE9
:100EE000C501B7FE02C080E090E0019601110196B5
:100EF000111531F0212F30E02F5F3F4F820F931FEC
:100F00008915910514F4592C581A882D897081116E
:100F100036C051102DC00115D9F133C086FC25C053
:100F2000E12FF0E01A151B043CF02CEFA2162FEF76
:100F3000B20614F0689487F83296AE014F5F5F4FA7
:100F4000E40FF51F01C01150111519F08291803383
:100F5000D1F387FE0AC044244394410EA116B10484
:100F600014F41A19BDCF10E0BBCF85E090E0BECFDE
:100F7000B70180E290E00E94150D5A94CACF011586
:100F800029F0B701802F90E00E94150D83FC02C06C
:100F900051103FC087FE57C04501B7FE02C0812CEB
:100FA000912CCE0101968A0D9B1DFC01E819F909CF
:100FB000FD87EC879501241931093F872E87012F82
:100FC00010E0119501951109A814B9044CF14E8552
:100FD0005F854815590524F5EC85FD858181F1E093
:100FE0008F1A91082C853D852F5F3F4F3D872C87B9
:100FF00080169106BCF0B70190E00E94150D3FEFFE
:101000008316930609F7B7018EE290E00E94150D52
:10101000DBCFB70180E390E00E94150D5A94B8CF62
:1010200080E3DDCFA814B90439F49A81963348F4EB
:10103000953311F434FE05C0B70190E00E94150D00
:1010400031CF81E3F9CF8A81813311F0E89434F80C
:10105000B70190E00E94150D111125C085E490E0C4
:1010600084FC02C085E690E0B7010E94150DB7FC34
:1010700005C0A114B10461F534FE2AC0B194A19455
:10108000B1088DE2B70190E00E94150D80E35AE0AF
:10109000A516B104FCF4B70190E00E94150DB7014C
:1010A000C501C096CBCFB7018EE290E00E94150D2E
:1010B0001E5F02E0802F0F5FFE013196E80FF11DE9
:1010C0008081B70190E00E94150D0113F3CFC6CFC8
:1010D0008BE2D8CF8F5F4AE0A41AB108D8CF9336FD
:1010E000E1F1933709F447C0933509F453C09436BE
:1010F00019F0993609F080C0F50187FE75C061913D
:101100007191819191916F01082D0F7697FF08C021
:1011100090958095709561957F4F8F4F9F4F006898
:101120002AE030E0AE014F5F5F4F5A010E947E0D12
:10113000B82EBA1806FF95C0802F8E7FB11608F022
:101140008FC004FFE1C002FDD5C00E7E512E802F5E
:101150008678811509F490C0D2C0650182E0C80E7E
:10116000D11CF5018081898301E010E09E012F5F91
:101170003F4F590128CEF501A190B1906F01612F29
:1011800070E086FC02C06FEF7FEFC5010E940A0D80
:101190008C0119CEF501A190B1906F01612F70E023
:1011A00086FC02C06FEF7FEFC5010E94FF0C8C012F
:1011B000689487F80ACEB70180E290E00E94150D8E
:1011C0009A9405CEF50187FC859187FE81915F0198
:1011D000B70190E00E94150D51105A940150110969
:1011E0000115110579F75ECE619171916F01072E9E
:1011F000000C880B990B88CF082D0F7E2AE030E079
:10120000953709F08FCDF50107FF24C061917191E9
:10121000819191916F01AE014F5F5F4F5A010E9422
:101220007E0DB82EBA180F7785CF983709F087CD85
:1012300084FC04C020E130E0E6CF00610460FACF16
:1012400084FE02C0082D066020E132E0DCCF28E0F9
:1012500030E0D9CF619171916F0180E090E0DBCFF8
:10126000082F5B2C04FF73CFFE01EB0DF11D808175
:10127000803309F042C0097E03FD0EC000FF50C05C
:101280001B2D591418F4190D1519592C892D851970
:10129000951408F480E0580E591408F043C09518CE
:1012A000592C04FF41C0B70180E390E00E94150D66
:1012B00002FF09C088E590E001FD02C088E790E0E8
:1012C000B7010E94150DB116D8F1BA940B2D10E09C
:1012D0000F5F1F4FCE0101965C01080F191FF80127
:1012E00082918F01B70190E00E94150DA016B10602
:1012F000B1F7D8CD512E082FB7CF02FD02C05394BD
:10130000BBCF53945394B8CF512E082F20CFB701A1
:1013100080E290E00E94150DA394A914C0F3B6CF0B
:10132000A52CFBCF512CBDCF802F8678811559F28B
:1013300080E201FD8BE207FD8DE2B70190E0C1CFB5
:10134000B70180E390E00E94150D1150BCCF8FEFE4
:101350009FEFF8CCF5E0512C9F1670F084E0592CEB
:10136000581A83FC07C0B70180E290E00E94150D77
:101370005A94C9F7011529F0B701802F90E00E9417
:10138000150D04E510E033FC02C008E510E0282D3F
:101390002071822E83CD5058BB27AA270E94E309D3
:1013A0000C94FE0A0E94F00A38F00E94F70A20F01E
:1013B00039F49F3F19F426F40C94ED0A0EF4E095ED
:1013C000E7FB0C94E70AE92F0E940F0B58F3BA17BA
:1013D000620773078407950720F079F4A6F50C944B
:1013E000310B0EF4E0950B2EBA2FA02D0B01B90195
:1013F00090010C01CA01A0011124FF27591B99F08B
:10140000593F50F4503E68F11A16F040A22F232F96
:10141000342F4427585FF3CF469537952795A795E6
:10142000F0405395C9F77EF41F16BA0B620B730B8D
:10143000840BBAF09150A1F0FF0FBB1F661F771FFE
:10144000881FC2F70EC0BA0F621F731F841F48F4B3
:10145000879577956795B795F7959E3F08F0B0CF3C
:101460009395880F08F09927EE0F97958795089523
:101470000E944C0A0C94FE0A0E94F70A58F00E943F
:10148000F00A40F029F45F3F29F00C94E70A51116B
:101490000C94320B0C94ED0A0E940F0B68F3992305
:1014A000B1F3552391F3951B550BBB27AA27621760
:1014B0007307840738F09F5F5F4F220F331F441F6D
:1014C000AA1FA9F335D00E2E3AF0E0E832D09150A1
:1014D0005040E695001CCAF72BD0FE2F29D0660F8E
:1014E000771F881FBB1F261737074807AB07B0E8D1
:1014F00009F0BB0B802DBF01FF2793585F4F3AF0D7
:101500009E3F510578F00C94E70A0C94320B5F3F34
:10151000E4F3983ED4F3869577956795B795F7955C
:101520009F5FC9F7880F911D9695879597F9089544
:10153000E1E0660F771F881FBB1F621773078407E0
:10154000BA0720F0621B730B840BBA0BEE1F88F7EF
:10155000E0950895E89409C097FB3EF49095809536
:10156000709561957F4F8F4F9F4F9923A9F0F92F69
:1015700096E9BB279395F695879577956795B795E7
:10158000F111F8CFFAF4BB0F11F460FF1BC06F5FCD
:101590007F4F8F4F9F4F16C0882311F096E911C0DF
:1015A000772321F09EE8872F762F05C0662371F000
:1015B00096E8862F70E060E02AF09A95660F771F14
:1015C000881FDAF7880F9695879597F9089597F908
:1015D0009F6780E870E060E008959FEF80EC0895D9
:1015E00000240A9416161706180609060895002402
:1015F0000A9412161306140605060895092E03947C
:10160000000C11F4882352F0BB0F40F4BF2B11F4EF
:1016100060FF04C06F5F7F4F8F4F9F4F089557FD4E
:101620009058440F551F59F05F3F71F04795880F50
:1016300097FB991F61F09F3F79F0879508951216E7
:1016400013061406551FF2CF4695F1DF08C0161693
:1016500017061806991FF1CF869571056105089444
:101660000895E894BB2766277727CB0197F908955B
:101670000E94AA0B08F48FEF08950E94500B0C945F
:10168000FE0A0E94F00A38F00E94F70A20F0952323
:1016900011F00C94E70A0C94ED0A11240C94320B0F
:1016A0000E940F0B70F3959FC1F3950F50E0551FEB
:1016B000629FF001729FBB27F00DB11D639FAA27A7
:1016C000F00DB11DAA1F649F6627B00DA11D661FF6
:1016D000829F2227B00DA11D621F739FB00DA11D17
:1016E000621F839FA00D611D221F749F3327A00DD1
:1016F000611D231F849F600D211D822F762F6A2F6D
:1017000011249F5750409AF0F1F088234AF0EE0FD1
:10171000FF1FBB1F661F771F881F91505040A9F7FE
:101720009E3F510580F00C94E70A0C94320B5F3F0A
:10173000E4F3983ED4F3869577956795B795F7953A
:10174000E7959F5FC1F7FE2B880F911D96958795B2
:1017500097F90895990F0008550FAA0BE0E8FEEFDE
:1017600016161706E807F907C0F012161306E40765
:10177000F50798F0621B730B840B950B39F40A265E
:1017800061F0232B242B252B21F408950A2609F43C
:10179000A140A6958FEF811D811D0895A1E21A2E0B
:1017A000AA1BBB1BFD010DC0AA1FBB1FEE1FFF1F05
:1017B000A217B307E407F50720F0A21BB30BE40B55
:1017C000F50B661F771F881F991F1A9469F760959C
:1017D0007095809590959B01AC01BD01CF01089556
:1017E0002F923F924F925F926F927F928F929F9231
:1017F000AF92BF92CF92DF92EF92FF920F931F931F
:10180000CF93DF93CDB7DEB7CA1BDB0B0FB6F894CF
:10181000DEBF0FBECDBF09942A88398848885F840F
:101820006E847D848C849B84AA84B984C884DF8080
:10183000EE80FD800C811B81AA81B981CE0FD11D64
:101840000FB6F894DEBF0FBECDBFED01089528306E
:1018500008F027E03327DA01990F311D87FD9160E9
:1018600000966105710539F432602E5F3D9330E3D7
:101870002A95E1F708959F3F30F0803871056105A2
:1018800009F03C5F3C5F3D93913008F08068911D0A
:10189000DF93CF931F930F93FF92EF92192F987FAF
:1018A0009695E92F96959695E90FFF27EA5EF34EF8
:1018B00099273327EE24FF24A701E7010590089418
:1018C000079428F4360FE71EF81E491F511D660FB6
:1018D000771F881F991F0694A1F70590079428F495
:1018E000E70EF81E491F561FC11D770F881F991F4D
:1018F000661F0694A1F70590079428F4F80E491F77
:10190000561FC71FD11D880F991F661F771F06948A
:10191000A1F70590079420F4490F561FC71FD81F41
:10192000990F661F771F881F0694A9F78491109559
:10193000177041F0D695C79557954795F794E7945A
:101940001A95C1F7ECEBFBE1689415901591359170
:101950006591959105907FE27395E118F10A430B2B
:10196000560BC90BD009C0F7E10CF11E431F561FDF
:10197000C91FD01D7EF4703311F48A95E6CFE89428
:10198000015030F0080F0AF40027021708F4202F46
:101990002395022F7A3328F079E37D932A95E9F78E
:1019A00010C07D932A9589F606949795679537958B
:1019B00017951794E118F10A430B560BC90BD00980
:1019C00098F023957E9173957A3308F070E37C93B9
:1019D0002013B8F77E9170617D9330F0839571E3A9
:1019E0007D9370E32A95E1F71124EF90FF900F911A
:1019F0001F91CF91DF91992787FD90950895FC0164
:101A00000590615070400110D8F7809590958E0F29
:101A10009F1F0895FC016150704001900110D8F79C
:101A2000809590958E0F9F1F08950F931F93CF93CE
:101A3000DF93182F092FEB018B8181FD09C01FEF68
:101A40000FEF812F902FDF91CF911F910F9108956C
:101A500082FF14C02E813F818C819D812817390718
:101A60003CF4E881F981CF01019699838883108342
:101A70008E819F8101969F838E83E3CFE885F985D0
:101A8000812F0995892BA1F3DACFA0E0B0E0EBE438
:101A9000FDE00C94000CAE014B5F5F4FFA016191C9
:101AA0007191AF018091CA009091CB000E944106D4
:101AB000E2E00C941C0CAEE0B0E0E1E6FDE00C943A
:101AC000FE0B0D891E8986E08C831A8309838FEFB4
:101AD0009FE79E838D83AE01475E5F4F6F89788D50
:101AE000CE0101960E9441062F813885020F131FF7
:101AF000F80110822E96E4E00C941A0CFA01AA2741
:101B0000283051F1203181F1E8946F936E7F6E5F40
:101B10007F4F8F4F9F4FAF4FB1E03ED0B4E03CD0EE
:101B2000670F781F891F9A1FA11D680F791F8A1FD1
:101B3000911DA11D6A0F711D811D911DA11D20D038
:101B400009F468943F912AE0269F11243019305DF2
:101B50003193DEF6CF010895462F4770405D4193E3
:101B6000B3E00FD0C9F7F6CF462F4F70405D4A3330
:101B700018F0495D31FD4052419302D0A9F7EACFF8
:101B8000B4E0A6959795879577956795BA95C9F727
:101B900000976105710508959B01AC010A2E06941A
:101BA0005795479537952795BA95C9F7620F731FD3
:101BB000841F951FA01D0895F894FFCF00407A1050
:101BC000F35A00A0724E18090010A5D4E80000E8EE
:101BD0007648170000E40B54020000CA9A3B00004C
:101BE00000E1F505000080969800000040420F00DB
:101BF0000000A08601000000102700000000E8039C
:101C0000000000006400000000000A000000000066
:101C10000100000000002C76D888DC674F0823DF25
:101C2000C1DFAE59E1B1B796E5E3E453C63AE651F8
:101C3000997696E8E6C28426EB898C9B62ED407C1F
:101C40006FFCEFBC9C9F40F2BAA56FA5F490055ABB
:101C50002AF75C936B6CF9676DC11BFCE0E40D47E0
:101C6000FEF520E6B500D0ED902E03009435770503
:101C70000080841E080000204E0A000000C80C33BB
:101C80003333330F986E12831141EF8D2114893B4A
:101C9000E65516CFFEE6DB18D1844B381BF77C1DCA
:101CA000901DA4BBE424203284725E228100C9F11D
:061CB00024ECA1E53D2734
:101CB60000000003000000009F019A010000526529
:101CC600636F7264696E672E2E2E202020200045D9
:101CD6003A25312E336600436C6173736966796900
:101CE6006E672E2E2E2020004E45572073616D7094
:101CF6006C650025312E36662C25312E36660D0A8A
:021D06000000DB
:00000001FF
