:100000000C943E1D0C945B1D0C945B1D0C945B1DAD
:100010000C945B1D0C945B1D0C945B1D0C945B1D80
:100020000C945B1D0C945B1D0C945B1D0C945B1D70
:100030000C945B1D0C945B1D0C945B1D0C945B1D60
:100040000C945D1D0C945B1D0C945B1D0C945B1D4E
:100050000C945B1D6E616E00696E660092DEFBFFA4
:10006000EBC0987D6B5F5D51311E170D0D0D0907BB
:10007000040404030400000000000000000000006D
:100080000000000000000000000000000000000070
:1000900000242223232324231D1816120E0C0F17CD
:1000A0001B1410131F2824221E1C00000000000037
:1000B0000000000000000000000000000000000040
:1000C000000000000000130E0E131C09336661418E
:1000D0005D6B3C1C130E09090505000505050500AF
:1000E0000000000000000000000000000000000010
:1000F00000000000000000000000002E3C41664AA5
:100100002525200E0509090500000000000000005B
:1001100000000000000000000000000000000000DF
:1001200000000000000000000000000000000000CF
:10013000255D4A1C20383817050505050500000017
:1001400000000000000000000000000000000000AF
:10015000000000000000000000000000000000009F
:10016000000000000020172A665D332A20131317B1
:100170000E0900000505000000000000000000005E
:10018000000000000000000000000000000000006F
:10019000000000000000000000003C66E8FF9994A9
:1001A0009461201C1C0E0E1309090905000509099C
:1001B00009090E000000000000000000000000001F
:1001C00000000000000000000000000000000049E6
:1001D000503D20232A221B21221C1E2627221B2AB7
:1001E0003C4A99F5FFFFFFFFF5D3A17A69614C32D4
:1001F0002E2C1913110C0A09080807000000000032
:100200000000000010060B1719151E241D192125CA
:100210001A19273128272925252424232222211FA2
:10022000191A181418120C1013131417171A1F1B6D
:1002300000000000000000000007080F13070A116B
:100240000A0A0E0E191D130808110A13180F1418A4
:100250000F07113847494544310C070807020205CA
:100260000300000203000000000000000000070778
:100270000202020303030707030303070A080E0C25
:10028000070A080A0C14201B0E0F0C0A0A020002AF
:100290000202020000000000000000000000000058
:1002A0000000000303030305030202030503020524
:1002B00007080702020240A0B3A26725160E080A2B
:1002C0000805030202020202000000000000000014
:1002D0000000000000000000050505070502080AEF
:1002E00003050705020203070807050A1D271B0C63
:1002F000131E1408030E110502020202020200007E
:1003000000000000000000000000000000191613AB
:100310000E11140E080F0E080A0C0F0C05141619F6
:100320005867BDFFA74F42422540452C190A0508D2
:10033000070302020305050503000000000000009A
:1003400000009DC7DDE5ECFFFCE8E2EEEED3A48003
:1003500064595D4E392C271D151108060603030349
:10036000000000000000000000000000000000008D
:10037000000000000000001B1D1D1E1F1F22221A6E
:100380001413121518201E111215120D0E100E1135
:1003900018151B23230000000000000000000000CF
:1003A0000000000000000000000000000E17234FB6
:1003B0005B345BB4A48159173C66463E5146211D0F
:1003C00021080604020202000000000000000000F4
:1003D000000000000000000000000000000000001D
:1003E00000252E211119271D132C4B3E150A0A0436
:1003F00002060602000000000000000000000000ED
:1004000000000000000000000000000000000000EC
:10041000000000000000080E17131111060F1B1733
:100420000C08060204040608060200000000000092
:1004300000000000000000000000000000000000BC
:10044000000000000000000000000008061D2A1542
:100450001B212A230E232515232723190604020412
:100460000602000000000000000000000000000084
:10047000000000000000000000000000000000007C
:10048000667E40E8FF7E76A4831F13231F08060ABA
:100490000E0E0A0602040402020406040202000010
:1004A000000000000000000000000000000000004C
:1004B0000000000000D3E3E2E9FDFFF5F1EFECEE10
:1004C000F1F0E6D1AF9F9D9272473B3A2A1C161479
:1004D0000C040303030303000000000000000000FD
:1004E000000000000000000000002F383C2C2024F9
:1004F0002E342A1A141312131A1D1610100F0D0E73
:100500000C0C110F080F171E271B111600000000FE
:1005100000000000000000000000000000000029B2
:100520001810223A343A4B44565D280E2D47260BBC
:100530000C17120809040303030100000000000067
:1005400000000000000000000000000000000000AB
:1005500000000000181C150A101313101113262B8D
:10056000120C0E0907090803010101010201000034
:10057000000000000000000000000000000000007B
:100580000000000000000000000C1625363B2D2660
:10059000171314100A0D0B0A0E0B0B0906040301A6
:1005A0000101000000000000000000000000000049
:1005B0000000000000000000000000000000221AFF
:1005C0001D3F5A4116171215171511161A1C1B1A22
:1005D0001B060204060402010100000000000000E6
:1005E000000000000000000000000000000000000B
:1005F0000000005F5B53C9C62F76FFEF78322128D9
:10060000212F2615131009080906030B0A01000003
:1006100000000000010000000000000000000000D9
:1006200000000000000000003C2E3232372F22284C
:100630002C314D523C363024181413121314130E5F
:100640000F1515131211111113324F79BEF1FFFF5F
:10065000FFF4DDBD94837A674B372C2719101621E0
:10066000272422241E28321D0B0607070B12181AF6
:100670001A1A1A1A20201B1C1F20252E2E322A225D
:100680002423232323222222211E1C1D1813120F90
:100690000D0D100C25221C1906092F706025090666
:1006A000030306091310060C0903060903060C0CC4
:1006B00009090C131310221F100C0C131022768939
:1006C000513B3222100C0309090C0C090C100C0CC4
:1006D000160C0303030000030300000303000303DD
:1006E00003030309090303030C161F2C353848388C
:1006F0001619382C0910160C00000000090C09030B
:10070000090C060C0C06060603030303000303038F
:10071000060300000306030003030303060C0C108A
:1007200010445A22162C2F1003090C060300030351
:10073000000C0C13130C101019190C0906000303FC
:100740000303030000000303030606030303060676
:100750000610161010133283A26D351F1C090609EE
:100760000606060603032C1025221C1C224B5132C0
:100770002F280C00060906101F1606030616191F5F
:100780002C1F131C282516131F222F6D8C86E3FFA8
:100790009F48161619100906090609BFDCE7F3FF82
:1007A000C9724D412C1F1A120D0A080504030000DE
:1007B0000000000000000000000000000000000039
:1007C0000000000000000000000000000000000029
:1007D000201E201F1D1E1D1A1C2B32333D3F424B75
:1007E0004F50520000000000000000000000000018
:1007F00000000000000000000000000000000000F9
:10080000000000000059B8CA9AD5F359121E180CFE
:1008100006060C06000000000000000000000000BA
:1008200000000000000000000000000000000000C8
:10083000000000000000000000002F4D472F1E2484
:10084000243B351E241E0C0006060000000000009C
:100850000000000000000000000000000000000098
:100860000000000000000000000000000000002464
:100870004147477153240C0C0C00060C0C0606066D
:100880000000000000000000000000000000000068
:100890000000000000000000000000000000000058
:1008A00000000000183B4718182F240C060C0C0CF5
:1008B00018120606060600000000000000000000F6
:1008C0000000000000000000000000000000000028
:1008D000000000000000000000AC88F3FF6B5F9A8E
:1008E0007753594D5F351E122A24000C000000007A
:1008F00000000000000000000000000000000000F8
:100900000000000000000000000000000000C6DD44
:10091000EDF2F7FFF9D4DCE1CEBB95969E612E2770
:100920001C322D130F0A0B0F110F090703000000D3
:1009300000000000000000000000000000000000B7
:100940000000002B2E34352E1C13110A1318100B27
:10095000090D181A1B190B0D0F07070704040408CB
:10096000050E000000000000000000000000000074
:10097000000000000000000018060B183122050AD4
:100980000D1E2C19090409090201000102010000D1
:100990000000000000000000000000000000000057
:1009A00000000000000000000000000000272422DA
:1009B0003458441B0C070306080C0C0807050301F8
:1009C0000000000000000000000000000000000027
:1009D0000000000000000000000000000000000017
:1009E000000010111A1A1A1B0F0802050A0A09053D
:1009F00004040201010201000000000000000000E8
:100A000000000000000000000000000000000000E6
:100A10000000000000000013191716131B1E0F0B17
:100A20000D0A040706030305060301010000000088
:100A300000000000000000000000000000000000B6
:100A400000000000000000000000000051F6FFE779
:100A5000BE6535232B141A151A210E0A120B050533
:100A6000010101020201010101000000000000007B
:100A70000000000000000000000000000000000076
:100A800000A0D8FFFAFAFBF2E9B76F524732231AF7
:100A9000110D0D0A06050400000000000000000012
:100AA0000000000000000000000000000000000046
:100AB0000000000000001C1E20211F1D1F202122FD
:100AC0001D1E2D33364436293B3F435B000000009A
:100AD0000000000000000000000000000000000016
:100AE0000000000000000000000000273C2F473FEE
:100AF0003F744A15151D201A100803000303000057
:100B000000000000000000000000000000000000E5
:100B100000000000000000000000000000000000D5
:100B200015273F5437274C4412222F12080505057C
:100B300003000300000000000000000000000000AF
:100B400000000000000000000000000000000000A5
:100B500000000000000B0B1227251818120B0B08C1
:100B60000808080505030303030300000000000054
:100B70000000000000000000000000000000000075
:100B800000000000000000000000081D4469573507
:100B90004C4F22080B100D00030505030000000058
:100BA0000000000000000000000000000000000045
:100BB0000000000000000000000000000000008BAA
:100BC00096514C61FFDD9BD8743A3A3518120D10DE
:100BD000100D0805050000000000000000000000E6
:100BE0000000000000000000000000000000000005
:100BF00000000000A9C6E1F7FFE8A9664431211C06
:100C0000140E0A0908060404000000000000000099
:100C100000000000000000000000000000000000D4
:100C20000000000000000000001F1C2125252426D4
:100C300027262A2F374750443E403F413A000000C4
:100C400000000000000000000000000000000000A4
:100C5000000000000000000000000000000049CC7F
:100C6000B63A92E266334216160F00000007000003
:100C70000000000000000000000000000000000074
:100C80000000000000000000000000000000000064
:100C9000000000496D6D7583D3FFA842241D1D0F10
:100CA0000F0F07000000000000000000000000001F
:100CB0000000000000000000000000000000000034
:100CC0000000000000000000162424495F42331D8C
:100CD00016161D1D1D160F07000000000000000065
:100CE0000000000000000000000000000000000004
:100CF00000000000000000000000000000332C078E
:100D000024332C2C160F160F1D1D07070707000094
:100D100000000000000000000000000000000000D3
:100D200000000000000000000000000000000000C3
:100D300000008A8A50AFE2DBA03A33496D6D3A3A3F
:100D400042241D241D0F00000000000000000000D0
:100D50000000000000000000000000000000000093
:100D600000000000000000B5D0E4F4FFFBD088577D
:100D70004233261B130E0B09070502020000000078
:100D80000000000000000000000000000000000063
:100D90000000000000000000000000001F1F1F1DD9
:100DA0001E1D20272324281E223239312E353C4F88
:100DB00055000000000000000000000000000000DE
:100DC0000000000000000000000000000000000023
:100DD000002A48697C896234382E2A210A000003DF
:100DE00003030000000000000000000000000000FD
:100DF00000000000000000000000000000000000F3
:100E00000000000000001D313431312A242A311045
:100E10000A070303030000000000000000000000B8
:100E200000000000000000000000000000000000C2
:100E30000000000000000000000000171A24314EDE
:100E400045240D070A0A07030303030303030000F5
:100E50000000000000000000000000000000000092
:100E60000000000000000000000000000000000082
:100E70001010171A1A2A2407070D0D0D0A07070765
:100E8000030300000000000000000000000000005C
:100E90000000000000000000000000000000000052
:100EA0000000000000525880CBFFBA4148381D2195
:100EB00021312A1D1010100703030000000000005C
:100EC0000000000000000000000000000000000022
:100ED00000000000000000000000CEC2D3E1F2FFDD
:100EE000F6DEC58755462C1B13100C0704040302BD
:100EF00002000000000000000000000000000000F0
:100F00000000000000000000000000000000001CC5
:100F1000202423232221211F22211D201F1A1614E1
:100F20002D5B5630212F0000000000000000000063
:100F300000000000000000000000000000000000B1
:100F40000000000055824A1C4F775B33449993445C
:100F50001C0B06060000000000000000000000005E
:100F60000000000000000000000000000000000081
:100F70000000000000000000002D6C605B5B2D4F46
:100F8000776C3E17060B0606060000000000000006
:100F90000000000000000000000000000000000051
:100FA0000000000000000000000000000000174FDB
:100FB000603E334A3E221C1111110B060000000056
:100FC0000000000000000000000000000000000021
:100FD0000000000000000000000000000000000011
:100FE000000000283E4F2D2D445544392D11110B82
:100FF00006000000000006000000000000000000E5
:1010000000000000000000000000000000000000E0
:1010100000000000000000009F887177BBFFD777B9
:101020005522283E391C06060B172D2D11060600E9
:1010300000000000000000000000000000000000B0
:101040000000000000000000000000000029282C23
:1010500021120E194895C4C8D0E7F8FAFFE7C9C4B1
:101060009158452C19130F0D0906050503020000C0
:101070000000000000000000000000000000000070
:1010800000009E9CAE9F8477764B1E1E212222225A
:1010900022222120202620111C221410111E322968
:1010A0001D1A1D00000000000000000000000000EC
:1010B00000000000000000020405040102051521E3
:1010C0001A0F070C0B021215090F16140901020260
:1010D000010100000000000000000000000000000E
:1010E00000000000000000000000000000020202FA
:1010F000020001070702010D12151C1A1511150F28
:1011000005040102010100000000000000000000D1
:1011100000000000000000000000000000000000CF
:1011200000050505010101050B090C15140E080643
:101130000B09050401020401000100000000000089
:10114000000000000000000000000000000000009F
:10115000000000000000221A0D0D07020709040517
:1011600007111B1208060C0F0807050201010000F9
:10117000000100010000000000000000000000006D
:101180000000000000000000000000FFB0CAB17BBA
:1011900035565A26534628422A203C39150C070B4F
:1011A0000D0805020102040505020102000000000D
:1011B000000000000000000000000000000000002F
:1011C000353B3B28140603061B75D8F0ECEEF8F906
:1011D000FAFFF0DDC794674F2F1B15110D0A090A9E
:1011E00009050300000000000000000000000000EE
:1011F0000000000000B6B7AE8C8D90657082421B77
:101200002935352E323229272E3022150F12171785
:1012100017183D655239433E0000000000000000F1
:1012200000000000000000000000030001030301B3
:1012300000010A273D301D13140E09131B3E322BEB
:101240002E0A090A0A040101010101000000000040
:101250000000000000000000000000000000000985
:101260000907040100000107171713202120141695
:101270001E0E2D370E0304030101000001000101C1
:10128000010000000000000000000000000000005D
:1012900000000000070E0D0706010000010A1A23D6
:1012A00025302E2A1A06131E271A010000000000FE
:1012B000000001010101000000000000000000002A
:1012C0000000000000000000001A4447251304033A
:1012D00007252416213041545B3B1A1E1D0A0A10B3
:1012E00009030101010101000303000000000000E7
:1012F00000000000000000000000000000007C2A48
:10130000415F3106070E20232542FFF96B4F253040
:101310002D7DC4620907030106060C14100E0C068D
:1013200006000000000000000000000000000000B7
:101330000000003A37362A190F0D174AA5CDC5D43B
:10134000E7F1FCFFECCD804441301B14110C070584
:10135000050404030000000000000000000000007D
:101360000000000000000000798E968B87826F627B
:101370003E1D1E22242423222221201E171618146B
:10138000151413151A1F191D2C0000000000000071
:101390000000000000000000000000000018150C14
:1013A0000E0C02001829264A622D1318070E0C0590
:1013B0000E0A050502050200000000000000000002
:1013C000000000000000000000000000000000001D
:1013D0000000181A1A150A0000070C0C2426131511
:1013E0001D1A0E2432291A07020200000000000014
:1013F00000000000000000000000000000000000ED
:10140000000000000000002124150C0C0A05070C48
:101410000A0515455126131D150E0C0A070200007A
:1014200000000000000000000000000000000000BC
:10143000000000000000000000000000373C2B21ED
:10144000150C070C151D2B34210A15211813181122
:101450000C0A020200000000000000000000000072
:10146000000000000000000000000000000000007C
:1014700000C8F8FFE57E2D243C511F304081AE832B
:10148000667C723C1F1D30180507050005070C0A15
:101490000502000000000000000000000000000045
:1014A0000000000000002619090404125BC0EBE4F0
:1014B000E9FBFFFEF4F2FDF7E9C17D57452B1B1553
:1014C000130E0B0C0B0705060000000000000000C7
:1014D0000000000000000000000000929AA86E6367
:1014E000925B1E232F322F2E29272524292C3031C1
:1014F0002114141515100A3F8B854F281300000086
:1015000000000000000000000000000000000000DB
:101510000403000000032E371717170B040F0E0BE0
:1015200016192529271C0B060608040301000000D4
:1015300000000000000000000000000000000000AB
:1015400000000000000401000000030613190E0A49
:10155000181B0F1014120E10140E050604000101C2
:101560000001010001010000000000000000000077
:10157000000000000000000000000A060100000357
:10158000080D2A452B12120E050E1B1814140B04FD
:101590000301010000000001030100000000000041
:1015A000000000000000000000000000000000102B
:1015B000120601010609061B291B1D30212B452C93
:1015C0003933100E09050300000000040501010075
:1015D000000000000000000000000000000000000B
:1015E00000000000927C3D12103D64D8F18F6445EC
:1015F000EFFF7688602E59592C2416120A03030136
:10160000172412060404000000000000000000007F
:101610000000000000000000004B3C372D21190F96
:10162000080B1A4FB4E7E7DEE6FFF3EDE28D47441F
:10163000443B2319130E0B080704040400000000A8
:1016400000000000000000000000000000003D76E7
:1016500088747D8A806C646747212525262A242585
:10166000241F1D1E19141415140F0E1314242A1FE1
:101670001E0000000000000000000000000000004C
:101680000000000E0502050500000000001A859408
:10169000341311110C2B32241F150C1111070502E4
:1016A0000000020000000000000000000000000038
:1016B000000000000000000007070C150E050200E6
:1016C00002050A1526262D3C29181A241F1113136A
:1016D0000A020502000000000000000000000000F7
:1016E000000000000000000000000000001D1813B2
:1016F0000E0A07050005151D131F1F182432372673
:10170000150C0202020202000000000000000000AE
:1017100000000000000000000000000000000000C9
:101720000000243C393C21131507051324241F3CD9
:101730004C2B2B2D15110A0A070202000000000095
:101740000000000000000000000000000000000099
:101750000000000000000072C8BC537E6E4A515861
:10176000515BCFCFD2A2D4FFE7BF1F11302D0E0C9B
:101770000200020202050502020000000000000053
:10178000000000000000000000000000DAEAECF0B9
:10179000F1F8FFCE7A55513A1D120E0B0A070404D8
:1017A0000404000000000000000000000000000031
:1017B0000000000000000000000000000000000029
:1017C000001E232528282421221E151118201C164E
:1017D000131A242016121B00000000000000000055
:1017E00000000000000000000000000000000000F9
:1017F0000000000000001F332309232A3B6539162F
:101800001F1207090204040200000000000000008B
:1018100000000000000000000000000000000000C8
:1018200000000000000000000000001F231623300D
:101830001D090D0F0B0B0904020000000000000041
:101840000000000000000000000000000000000098
:101850000000000000000000000000000000000088
:1018600009252814140B0F140902020000000000BF
:101870000000000000000000000000000000000068
:101880000000000000000000000000000000000058
:10189000000000000035392130371D2518040202F0
:1018A0000000000000020000000000000000000036
:1018B0000000000000000000000000000000000028
:1018C0000000000000000000000088FFCA79724F8D
:1018D000353E3E18140F0402000404020200020206
:1018E00000000000000000000000000000000000F8
:1018F00000000000000000000000000000000039AF
:101900002E2D1F110B0E2475CBDFE2F0FFFFD692B8
:10191000645C472418130F0C07050505020200003C
:1019200000000000000000000000000000000000B7
:10193000000000009E9C8D8E84666C6A381B2227F6
:10194000282423221E1B19171A1B140C0D14111501
:10195000272D200000000000000000000000000013
:101960000000000000000000000D05020002050557
:10197000104851170E29262F635F341D120D0B04DA
:101980000202000000000000000000000000000053
:1019900000000000000000000000000000000E0930
:1019A00009040202000407070E141B261B12171F4E
:1019B0001402040202020000000000000000000007
:1019C0000000000000000000000000000000000017
:1019D0000000000710120702020409090D16171B68
:1019E00024190D070405020000000000000000009B
:1019F00000000000000000000000000000000000E7
:101A0000000000000000000028282B200B07051D07
:101A10001F091420170D160D020405040200000012
:101A200000000000020000000000000000000000B4
:101A300000000000000000000000000000FFCD9149
:101A40006F1D29343D6EA58C837E3B173F3D1719D2
:101A50000D040400000505040D0B00020000000049
:101A60000000000000000000000000000000000076
:101A70000000DFD5DAEFFFEFBB733D3A3E342112B1
:101A80000D0A080604040403000000000000000022
:101A90000000000000000000000000000000000046
:101AA000000000000000001C1E262B2823212620F9
:101AB000151310121010141C1D16232629000000E7
:101AC0000000000000000000000000000000000016
:101AD0000000000000000000000000005F50667C75
:101AE00057249299160F0F1D1D07070707000000C6
:101AF00000000000000000000000000000000000E6
:101B000000000000000000000000000000000000D5
:101B1000002C575F2C3A3A666D3324070700000704
:101B200007000000000000000000000000000000AE
:101B300000000000000000000000000000000000A5
:101B4000000000000000165F8A8AA0662C1D160F98
:101B5000070000000000000000000000000000007E
:101B60000000000000000000000000000000000075
:101B70000000000000000000000000838ABDDBA020
:101B80005F160F0F0F0000000000000000000000B3
:101B90000000000000000000000000000000000045
:101BA0000000000000000000000000000000000035
:101BB000FF49AFDB99662C3A330F161D0F161D0730
:101BC000161D0F07000F00000000000000000000BD
:101BD0000000000000000000000000000000000005
:101BE00000000000002F302A1F19120E152157B8CF
:101BF000E5ECF8FFECE0EBC06D46514C2E1C130FEA
:101C00000D0C08050505050000000000000000009F
:101C1000000000000000000000009398908B958C5D
:101C20008E877E52191B212322272823201D17125D
:101C3000181B1817130C162824221C0C0000000077
:101C40000000000000000000000000000000000C88
:101C500004050704020202023547221E1B12090274
:101C600007323010170C05050200000000000000CC
:101C70000000000000000000000000000000000064
:101C8000000000000C070504040400050704070514
:101C90000B1B2D1D073B643B1E14050402040200B0
:101CA0000000000000000000000000000000000034
:101CB000000000000000000000090C0C05020202F8
:101CC000070C0B1012172B29120B0C0B0905050220
:101CD0000000000000000000000000000000000004
:101CE00000000000000000000000000000001412CE
:101CF0000C12100B070C251E10170B0509050C1DE7
:101D00001B0B04040200000000000202000000009F
:101D100000000000000000000000000000000000C3
:101D2000000000B6864040202E29324B3B64E1FF84
:101D3000FBD1895B4740141B140404050704020C03
:101D40000E04020504000000000000000000000076
:101D500000000000000000006F9DC5D7E4FFF0B94F
:101D60006E3F3A2E221B130F0C07070500000000E0
:101D70000000000000000000000000000000000063
:101D800000000000000000000000000000242F35CB
:101D90003C3E382D282F281D19192121201F2934B8
:101DA0002B00000000000000000000000000000008
:101DB0000000000000000000000000000000000023
:101DC00000001F0F1A0D17244D4B1A0F03030303B6
:101DD00003030000000000000000000000000000FD
:101DE00000000000000000000000000000000000F3
:101DF000000000000000001C172129150D0A2929E8
:101E00000F050303030303000000000000000000AF
:101E100000000000000000000000000000000000C2
:101E20000000000000000000000000000D15171A5F
:101E30001731340F03050303000000000303000003
:101E40000000000000000000000000000000000092
:101E50000000000000000000000000000000000082
:101E6000000D1517395A5027030305030303030018
:101E70000303030300000000000000000000000056
:101E80000000000000000000000000000000000052
:101E900000000000000031345279A7FFA01C1A1A7C
:101EA0000F0F080A0D0508080303000000000000DA
:101EB0000000000000000000000000000000000022
:101EC0000000000000000000000000A6DAF0F6FFAD
:101ED000FDC97E473B3E2F1E140E0C0E0B0605045B
:101EE00004000000000000000000000000000000EE
:101EF00000000000000000000000000000000000E2
:101F0000393F3F3E3B2F261E171310101214141298
:101F10001416162325180000000000000000000021
:101F200000000000000000000000000000000000B1
:101F3000000000000010101C152C351A2020130979
:101F40000E0902050500000200000000000000006C
:101F50000000000000000000000000000000000081
:101F600000000000000000000000383C3131231E5A
:101F7000271E1005050505000000020000000000F6
:101F80000000000000000000000000000000000051
:101F90000000000000000000000000000000000938
:101FA0000C232E20150E0502020200000000000086
:101FB0000000000000000000000000000000000021
:101FC0000000000000000000000000000000000011
:101FD000000000001E251E150C0705050502020263
:101FE00000020002050000000000000000000000E8
:101FF00000000000000000000000000000000000E1
:102000000000000000000000005D80A790FFDF4698
:10201000101317100907070513170902000205001E
:1020200000000000000000000000000000000000B0
:10203000000000000000000000000000000074A28A
:10204000C6D0D8D4CEE1F5FFF8C98346251B1410BD
:102050000B08080605040405040000000000000049
:102060000000000000000000000000000000000070
:102070000000002826222225282726252424221D88
:102080001C21211F201F191521292F2B2426000078
:102090000000000000000000000000000000000040
:1020A0000000000000000000160906062629131C87
:1020B000526E3209231F06060306060303030000BF
:1020C000030300000000000000000000000000000A
:1020D0000000000000000000000000000016233C8B
:1020E0005E6B654248786B39130D0D0606000000E3
:1020F00000000000000000000000000000000000E0
:1021000000000000000000000000000000000000CF
:102110000000161929455E3F3652718E651F0D0964
:1021200000000000000000000000000000000000AF
:10213000000000000000000000000000000000009F
:10214000000000000000001C13191C191F191616AE
:102150000913130906000000000000000000000041
:10216000000000000000000000000000000000006F
:10217000000000000000000000000000231958715A
:10218000FFFCA1846B782F2C1910130D030303039C
:102190000000000606060900000000000000000024
:1021A000000000000000000000000000000000002F
:1021B00000B5E3F2EDE3C89C704027251E181F2DE3
:1021C0008AF3FFD39B8C85623E28120D0B08040313
:1021D00005040201000000000000000000000000F3
:1021E0000000000000003E40403C2F221A171B1840
:1021F0000E0E0D1319120C0807080705040404033A
:102200000403011413081420210000000000000042
:10221000000000000000000000000005060C0A0994
:102220001F210E0702010303060A1013130C0D0FE2
:102230000B0C07040100000000000000000000007B
:10224000000000000000000000000000000000008E
:10225000292F140A191406060604040101050706AD
:10226000050304060706030101000000000000004A
:10227000000000000000000000000000000000005E
:1022800000000000000D1A2024210B0705010000AA
:10229000000202030B100E080202020100000000FF
:1022A000000000000000000000000000000000002E
:1022B000000000000000000000000C121B1C0F0BAF
:1022C000060300000000010203080A0907040402D3
:1022D00000000000000000000000000000000000FE
:1022E0000000000000000000000000000000009559
:1022F000FFDB5562312211050301010203070F10B4
:102300000E0E080707030101010100000001020190
:1023100001010000000000000000000000000000BB
:10232000000000005A433335333137342F2E36370F
:102330002B2E31302E2B33517393C8F1FAFEFFF55B
:10234000F1E2934C372216120E0C0B0A080A0B0B03
:102350000000000000000000000F1516131B2122D2
:1023600028231D1A1A2425202125201C2424242852
:10237000282627282421221B131822181214111092
:102380000C0E1416180000000000000000001414C9
:1023900025281407070D252C171B17111714140DCA
:1023A00011252C140A0D070339572C172228140A5B
:1023B0000A030300030300030703000000000000FA
:1023C000000000070707070A0D0D0D14170A000388
:1023D00000070D0D0A1117111B2C2F221B221E2581
:1023E0003C2C140A00000000000000000000000067
:1023F00000000000000000000707070A0A030A0A9D
:102400000303070D0A0303030A0A07070A07112F2C
:102410006590945E28251B0D03000000000000005D
:1024200000000000000000000000000000070D1187
:10243000141103030D14110A070A14140D111107C6
:102440000A07071417172F25252C2214070300004D
:10245000000000000000000000000000000000007C
:102460000000280D1E1E32362F39363C5E6B2F0AB7
:1024700025362C2F3222171E22324DE4FFDDAB2CE5
:102480001E110D07030707030303000300030000E9
:102490000000000000000061554E3F4675AEE0FFB1
:1024A000F6D7C4BEC0C4D1C2AFA68C7D6B593A2D3D
:1024B000271714100C0C0B0805000000000000008A
:1024C00000000000000000000000000011111211C7
:1024D00018232F362B232B2E29292F2F2B2D292064
:1024E0001C1914181814120D0B111007080E0000F7
:1024F00000000000000000000000000000000000DC
:10250000002F271815323218180B1A201010181D1A
:102510002A3A3A5181513559350D0B03030803000E
:1025200000000000000000000000000000000000AB
:1025300000000000000008030303030B101515251D
:102540002008121A27353227201D150D0803000315
:10255000000000000000000000000000000000007B
:102560000000000000000000000000050000000561
:10257000122D2D1A151D2A181220221010120505D1
:102580000503030000000000000000000000000040
:10259000000000000000000000000000000000003B
:1025A000050305030810121A22252022222A1D10D5
:1025B0002020120B0D08000303030300000000009D
:1025C000000000000000000000000000000000000B
:1025D00000000000001D100D0B0D3A2FAEC31D6E44
:1025E000FFD58E7E5959373535272A0D0808030344
:1025F00000030303030303000000000000000000C9
:1026000000000000000000000000776A6A80A8D087
:10261000E3F7FBF1FFFCE5DBD6C19371635741247F
:102620001D1D0F0B0C0C0A07060000000000000027
:102630000000000000000000000000000000001288
:102640001212121923292A2E3D443A33312B252305
:10265000221A111113120F0B090E100C0910000091
:10266000000000000000000000000000000000006A
:10267000000000000F0F0A19252319201911141B3F
:10268000253463524A5436200A070C0C0502000018
:102690000000020000000000000000000000000038
:1026A0000000000000000000000C07020202071BEF
:1026B0002A1605050C1E202A2511110A0502000004
:1026C000000000000000000000000000000000000A
:1026D00000000000000000000000000000000A07E9
:1026E00005050C252D322A110707070F11110C07BC
:1026F00005020000000000000000000000000000D3
:1027000000000000000000000000000000000000C9
:102710000000000705070A1114192F34281B234055
:102720005C3E160F050505020000000000000000D9
:102730000000000000000000000000000000000099
:1027400000000000000000001911141B23D7DA88D4
:102750009963C9C4D7FF6D2A1E0F1B140707070210
:10276000020205050000000000000000000000005B
:1027700000000000000000000000000000715B5C31
:1027800099CEEDFFF5E3DBE2EADCCBB8A0978F81D1
:1027900062473E3026221614120D0804040400007D
:1027A0000000000000000000000000000000000029
:1027B0000000110D1D2C25292B2C3A403C3B393DA6
:1027C0003D35261B1C1A181513140D080A0C0C0E87
:1027D0000D142A00000000000000000000000000AE
:1027E00000000000000000190E0A131B190C102530
:1027F000250E0417273A331F3A4242461F0E151082
:1028000006020000000000000000000000000000C0
:1028100000000000000000000000000002020202B0
:1028200004061015130E080E2B4C3A2B250E0E0A1B
:102830000A06040202000000000000000000000080
:102840000000000000000000000000000000000088
:10285000000202040E272B1310151B152D3C1D150D
:1028600017170A0202040402020000000000000020
:102870000000000000000000000000000000000058
:10288000000000000000020202020E252729292D67
:10289000271F190C13151006000002020200000089
:1028A0000000000000000000000000000000000028
:1028B00000000000000000000000000A0C101F29AA
:1028C0003180BDFFF38A90AD6B1F2F2B100A0A0ECB
:1028D000100A0404040000000002020200000000CC
:1028E00000000000000000000000000000000000E8
:1028F0007986725F85C0ECFFF5EEF9E8D3C9B9BB04
:10290000A990835D44372623170D0C0C0C0D0A008B
:1029100000000000000000000000000000000000B7
:1029200000000000001211101B2529352F282F351B
:10293000403F3930201C19191A1313110C0F1110B4
:10294000100C080B00000000000000000000000058
:1029500000000000000000000000285F694B3C23DD
:102960001E4B55232328231E5F82506482697341C6
:102970001E231405000000050000000000000000F8
:102980000000000000000000000000000000000F38
:102990000F0A14142D5537193732195087AF6E1995
:1029A000140F0A0F050500000000000000000000E1
:1029B0000000000000000000000000000000000017
:1029C000000000000A0500144B50506E5A508782D8
:1029D00041232D37232314050505000000000000C6
:1029E00000000000000000000000000000000000E7
:1029F0000000000000000000000A0A052D3C4164B0
:102A00004B5564505F50464B321E140F0A050505A6
:102A100005000000000000000000000000000000B1
:102A20000000000000000000000000000000232360
:102A30002D329BBE7DA587695FAFCDAAFFD7551EFE
:102A40003223231E0A0505050A0500000A000000BE
:102A50000000000000000000000000000000000076
:102A600000000076878581A4E1F6F2EDF4FBFBFB24
:102A7000FFFEFCFBE7C39F8C745B5C4C3B3629215B
:102A80001D16110C090505040200000000000000DD
:102A900000000000000000000E111111141D23247D
:102AA000272620232C2C2B241C18161D1A110F0F3F
:102AB0000F0E0D0B0C0B0707080E11171D1300004E
:102AC0000000000000000000000000000020181EB0
:102AD000160405101510090C0E0F161A25362D2D8B
:102AE00024080B0B0403030608050302010202007D
:102AF00001010000000000000000000000000000D4
:102B00000000030605080D0B0E1106060A09051044
:102B1000232329210A0908050703020202020100F2
:102B200000000000000000000000000000000000A5
:102B30000000000000000003050507121C1C0F1612
:102B400016080F0C0C1511080506070404040504EB
:102B5000040302010000000000000000000000006B
:102B6000000000000000000000000000010303045A
:102B70000F1A202B3630251C322F1A17191C130F51
:102B80000705050304040001010000000000000027
:102B90000000000000000000000000000000000035
:102BA000000F0D0D131B5C613E93FFEAABFFFFFFAF
:102BB000C38B773E1C16140C0503060604020201A3
:102BC0000100000001020100000000000000000000
:102BD000000000000000565F83A1C4DDE3E8E2DFEF
:102BE000DDE2F2EEF2FFE1854B4940352B1C0C0A89
:102BF00009090D0D09060400000000000000000096
:102C0000000000000000000000000014131111116A
:102C10001419202930342F2A2E2A1F171D2A2E403E
:102C2000586A5D4330294E7983786F59000000005F
:102C30000000000000000000000000000000000094
:102C4000201F231F302D1F1D04061624273A34246D
:102C50001A192317130C03030100000301000000DD
:102C60000000000000000000000000000000000064
:102C7000000000000001030406060D100604101CED
:102C80002022305373561A0907060603010100007B
:102C90000101000000000000000000000000000032
:102CA0000000000000000000000001030606060C02
:102CB000131F23110C090C1413110F0A0907040622
:102CC00004030000000406010301000000000000EE
:102CD00000000000000000000000000000000003F1
:102CE0000103070A040D130C0A07111A27302423C5
:102CF000140A13130F0F0A04030103070903030443
:102D000000000000000000000000000000000000C3
:102D100000000000130F1D3D332D55668C80C3A2AB
:102D20005FFFD349322460A96D5CCB8C1009061774
:102D30002F2719130700000000000000000000000A
:102D40000000000000000000007D8F9ECBEBECF344
:102D5000FFFFFFF8A6554C4531281E17110A09063A
:102D60000407000000000000000000000000000058
:102D70000000000000000000000000000000171329
:102D8000141B1F2431342F26212B2B171D36302CDA
:102D90004A4A302422395700000000000000000099
:102DA0000000000000000000000000000000000023
:102DB00000000035071019181C2C2F2F1E091015A4
:102DC0000F070303010103010100000000000000E0
:102DD00000000000000000000000000000000000F3
:102DE0000000000000000000040309090A0A0707A8
:102DF0000F100A0603040301010103010000000093
:102E000000000000000000000000000000000000C2
:102E100000000000000000000000000000010106AA
:102E20000D1231594C2F1C162415070A07030103F4
:102E3000030000000001000000000000000000008E
:102E40000000000000000000000000000000000082
:102E500000000301070D1B2215070A090003040ADD
:102E60000D09040307060301000001000000000033
:102E70000000000000000000000000000000000052
:102E800000000000000000150D1544381F7E7DC4B1
:102E9000FF8D46151B25181F5347282510090419B7
:102EA0000000000000000000000000000000000022
:102EB00000000000000000000000000072969BAEC1
:102EC000D7F7FFFEFDF8FAE296594E3F2D2219136F
:102ED0000D080604040500000000000000000000CA
:102EE00000000000000000000000000000000000E2
:102EF00000121413151D1F1F24292D2820222722FC
:102F00002435343E5C5E483031466C0000000000E1
:102F100000000000000000000000000000000000B1
:102F2000000000000000384B18202F183C56494F75
:102F30004051542F241A0902020200000000000030
:102F40000000000000000000000000000000000081
:102F500000000000000000000000000B0B0D0F0D32
:102F6000090F202B2F2B2D1E090B02020402020237
:102F70000000000000000000000000000000000051
:102F80000000000000000000000000000000000041
:102F900004090B0B202F3A3A363E2B201E0D0F0F43
:102FA0000604020200000000000000000000000013
:102FB0000000000000000000000000000000000011
:102FC00000000000000404060B151313333A1C33F1
:102FD0003609040B0F0B0B0B060404000000020063
:102FE00000000000000000000000000000000000E1
:102FF0000000000000000000000013242B7CABA5A3
:10300000FFB83136969A8992514B9A964D7C581555
:10301000111A181A00000000000000000000000053
:10302000000000000000000000000000000000732D
:103030008BB1C8E7FEF9FEFFF5CD8055503B2C2340
:1030400018100D0A09070C00000000000000000025
:103050000000000000000000000000000000000070
:103060000000000011121212171D21242A2C292FF2
:103070002727374E5038281B194879860000000052
:103080000000000000000000000000000000000040
:10309000000000000000000000251E110F0D1E1D85
:1030A00019160D17120807030302020000000000A2
:1030B0000000000000000000000000000000000010
:1030C00000000000000000000000000000000207F7
:1030D0000C0A0A14170C11110D0D08080502020044
:1030E00000000000000200000000000000000000DE
:1030F00000000000000000000000000000000000D0
:1031000000000003070F120C12203B413439270C3A
:103110000805030503000000000202000000000093
:10312000000000000000000000000000000000009F
:1031300000000000000000000002070803050D1257
:10314000170F0A08020A120D05030000000003050C
:10315000000000000000000000000000000000006F
:1031600000000000000000000000000000142841E2
:10317000568F7936FFED1B2F48345B603146433163
:10318000170C111B250000000000000000000000CB
:10319000000000000000000000000000000000002F
:1031A0000000C6D6DFDEE6F0ECE5E3E5ECF8FFF480
:1031B000BC7A6497BE854F322D3F311F1C19120C0B
:1031C00007060604030200000000000000000000E3
:1031D000000000000000001010141B1B18223132E8
:1031E0002F25191716192723181314131A18060553
:1031F000022446514D3A1B1018292A0000000000F5
:1032000000000000000000000000000028413825F8
:103210002A1A0B13130904070D10140E04040403D7
:10322000050705060500000101000100000000007F
:10323000000000000000000000000000000000008E
:103240000005070C1014100C0C0B08061A3E351163
:10325000080804020403010102010000000000004C
:10326000000000000000000000000000000000005E
:10327000000000000000090F10110E12262F262159
:1032800011060E171C140E090605020100000001AC
:103290000101010101000000000000000000000029
:1032A00000000000000000000000000205080F13ED
:1032B000130F1326463D13070B140D080B050B10B7
:1032C0000803010100020B0B0401000000000000D4
:1032D00000000000000000000000000000000000EE
:1032E0004F4D5B773EA9C06C596FF1FFF6807A8A2B
:1032F000512C3A5033190B08020408101008060626
:1033000003010101000000000000000000000000B7
:103310000000000000617A99BBEBFFE8E4EEF0E802
:10332000E9EEF0DCC5AD6C32211B120D0807080870
:10333000070700000000000000000000000000007F
:10334000000000000000000000001E26383D2D296E
:1033500033373A3C392F262326211E1E1B181614FC
:1033600018191A51776A5A00000000000000000086
:103370000000000000000000000000000000002528
:103380003E423A5A4E4A4E29426377525694B5B954
:1033900073291D150808000000000004000000004B
:1033A000000000000000000000000000000000001D
:1033B0000000000004000815150C255A6F46354E14
:1033C0003E2D251510080804000000000000000034
:1033D00000000000000000000000000000000000ED
:1033E0000000000000000000001D212D3E3A525256
:1033F0003E565F4235353135251925150404040044
:1034000000000408040400000000000000000000A8
:1034100000000000000000000000000000000400A8
:10342000153E311D19191D1519252D31351D0404A1
:103430000404000000000000040404000000000078
:10344000000000000000000000000000000000007C
:10345000000000080C21353A63E6C14A46CEFF63FE
:10346000527BA5A042292D1008080C154246424265
:10347000000000000000000000000000000000004C
:1034800000000000000000005C5F6981A6CBE2DF65
:10349000E3EFF0EFFAFFE6C19D88784E24150D09A1
:1034A0000909090D0C0706040506060505050606AB
:1034B00005060706060000000000000000111218B3
:1034C0001C1D202222232426272626221C1A1B17F5
:1034D0001617181B191B1C4A90986C3A28261B1BA0
:1034E0001E25291D1F201A182020000000000000A2
:1034F00000000D0D2E413B2C2426110D11222A43D4
:1035000072483D63351513060402020202020202EC
:10351000020200000000020202020200000000009D
:10352000000000000000000F0B0B060D110F0D3501
:1035300039192217112A281111110B02000200005B
:103540000000020000020200000002000000000073
:10355000000000000000000000000000020204045F
:10356000061B2C2E24110617262A281B0D0D110DC3
:103570000400000000000002020200000000000041
:10358000000000000000000000000000000000003B
:10359000000808080F17222217283F260F130F0BC9
:1035A00004020002040200000202020204060200F9
:1035B0000000020000000000000000000000000009
:1035C0000000000000000B0B0F264E545B69ECFF5F
:1035D000D7A4767217201B0B0D0D171504040206D5
:1035E00024504A240F04080B0202040404060404B5
:1035F00002000200000000000000003059656D76F6
:1036000091C8F0FFF6E8E8DDCDC3C0CDBC997544A4
:10361000241A140F09070507080707000000000017
:10362000000000000000000000000000000000009A
:10363000111D262735332926292F2F2F33353127E2
:10364000222724181C211A161613151961A39F95F9
:10365000000000000000000000000000000000006A
:1036600000000000002C654A223239280D110A1E84
:103670003C4A40321E289EFF9A222525110D070341
:10368000000000000000000000000000000000003A
:1036900000000000000000000000030D0D141414D1
:1036A000224346464622111E1E1B1717140303030E
:1036B000000000000000000000000000000000000A
:1036C00000000000000000000000000000000007F3
:1036D0000D0A0A0D1714142C32251E3968727280D7
:1036E0005B321E0A00000303000000000003030019
:1036F00000000000000000000000000000000000CA
:103700000000000007141E1B2F3C22282F1B171E31
:10371000222C28221711110D0703030300000000BB
:10372000070A07030000000000000000000000007E
:103730000000000000000000000D22251E1B1722C3
:103740003686B5D39E32BCC64054AB903C402C1458
:1037500007070300032236281700000000000000BE
:103760000000000000000000000000000000595FA1
:103770007AAED0E3EBECF8FFFCE2CC994D312D258D
:10378000150C0A08060604060706040303040303CF
:103790000404040600000000000000000000000017
:1037A0000000001D1C1E232727262627262323234F
:1037B0001F1A191D1F1E2324181D254951302A2E9A
:1037C000352B2325221D22231D00000000000000B0
:1037D00000000000000000002C2C41353835322854
:1037E000253B1F3235191F1009060000000000009C
:1037F00000000000000000000000000306030000BD
:103800000000000000000000000000000010132273
:103810001F2F4B3B253535252F1F0C0903030000B7
:103820000000000000000000000000000000000098
:103830000000000000000000000000000000000088
:103840000000090306133B4867706054514B19068A
:103850000306030303000000000000000000000056
:103860000000000000000000000000000000000058
:1038700000000000000000160C0C0C0C101010359D
:10388000381009130C0306030303000000000000B6
:103890000000000000000000000000000000000028
:1038A00000000000000000000000000016090C7C71
:1038B000AB646D8FFFBB324B351F190C060C100625
:1038C000060906030610160603030006030000039C
:1038D00006030000000000000000000000000000DF
:1038E0000066728CAAD0E7E4DDEBFEFDFEFFE6C0C9
:1038F000987D67552F0F0C0B08090C0E0E09060654
:10390000080705050506070505060000000000007C
:103910000000000000001212131B2427292A292767
:103920002626231C21231D1E1722291B1C1F24674A
:10393000AC88442D271D191C26221416212820008E
:1039400000000000000000000000000D112E4429BE
:10395000211A295857392A46553310141C110901C8
:10396000010000010101000000000101010101004E
:103970000001010000000000000000000000000045
:10398000070A091120272B312427260E14170A06AF
:103990000906010101000000000000000000000015
:1039A0000000000000000000000000000000000017
:1039B00000000000000906040E1317201A100A0E5A
:1039C00021332110140E0703010100000000010142
:1039D00001030000000000000000000000000000E3
:1039E000000000000000000000000407060A0C09A7
:1039F0000E1619130A0A11110C0706040000000024
:103A000000000104030101000000000000000000AC
:103A10000000000000000000000000000000001A8C
:103A20000A0E0E6AFFD94E345DC99E4E552461645C
:103A300014041C19010001274B2A1721100103034C
:103A40000000010100000003000000000000000071
:103A500000000000192C1E2235131F161415172103
:103A600023212223161F162214161B232C221F216A
:103A70001F2621191A18241D2D20262911241FBEA6
:103A8000CFE5D8E0DEBFCDBF11E0A0E6B0E0ECE5C9
:103A9000FAE502C005900D92A032B107D9F724E0F3
:103AA000A0E2B1E001C01D92A33DB207E1F70E9480
:103AB00028220C94AF2C0C9400001F920F920FB68A
:103AC0000F9211240F931F932F933F934F935F9364
:103AD0008F939F93AF93BF93EF93FF9344B155B1EF
:103AE00088B7886088BF8091600090916100A09144
:103AF0006200B0916300840F951FA11DB11D8C0160
:103B00009D01EAE03695279517950795EA95D1F737
:103B1000801B910BA20BB30B80936000909361000C
:103B2000A0936200B093630020912403309123039B
:103B3000FAE0B695A79597958795FA95D1F7481B22
:103B4000590B80E8289FF0011124E30FF11DEE0FBF
:103B5000FF1FED5DFE4F5183408381E0830F3F37B0
:103B600099F080932303FF91EF91BF91AF919F91C3
:103B70008F915F914F913F912F911F910F910F90D6
:103B80000FBE0F901F9018951092230381E0820FB3
:103B90008093220181E0282720932403E4CF95B36A
:103BA0009F70282F207F922B95BBAA98A89A94E00B
:103BB0009A95F1F7A898E8E2F2E03197F1F700C0A2
:103BC000000095B38295807F9F70892B85BBA89A52
:103BD000F4E0FA95F1F7A89889E995E10197F1F7F2
:103BE00000C0089595B39F70282F207F922B95BB1E
:103BF000AA9AA89A94E09A95F1F7A898E8E2F2E0D8
:103C00003197F1F700C0000095B38295807F9F70D7
:103C1000892B85BBA89AF4E0FA95F1F7A89889E971
:103C200095E10197F1F700C008958FEF84BB8FEF06
:103C300097ED0197F1F700C0000082E00E94CF1DD0
:103C400088E20E94CF1D8CE00E94CF1D86E00E947A
:103C5000CF1D81E00E94CF1D89E995E10197F1F721
:103C600000C00895CF93DF93EC018991811103C0C7
:103C7000DF91CF9108950E94F21DF7CFCF93DF938C
:103C8000D42FC52F81110BC0862F8F7080686031B3
:103C90006CF08D2F9C2FDF91CF910C94321E8130D0
:103CA000C1F76031B4F7862F8F70806C0E94CF1DF2
:103CB000F0CF81E00E94CF1D89E995E10197F1F7EE
:103CC00000C080E80C94CF1DCF93DF93D62FC72F71
:103CD00090EC980F913440F40E94CF1D8D2F9C2FB3
:103CE000DF91CF910C94321EDF91CF910895811115
:103CF00006C0862F8F708068603144F0089581304F
:103D0000E9F76031DCF7862F8F70806C0C94CF1D43
:103D10000E94CF1D8FE084BBAA9AA99AA89A8AE430
:103D20008A95F1F793B3907FA898E8E2F2E0319793
:103D3000F1F700C00000A89AFAE4FA95F1F783B30E
:103D4000A8982FEF24BBA99882958F70892B08958E
:103D50008A98833059F4929885B7836085BF8AB773
:103D600080648ABF8BB780648BBF0895929A81303C
:103D700051F0823071F08111F2CF85B78D7F85BF10
:103D800085B78E7FEBCF85B78D7F85BF85B7816087
:103D9000E5CF85B78260F3CF8B98833059F4939841
:103DA00085B78C6085BF8AB780688ABF8BB780680B
:103DB0008BBF0895939A813051F0823071F0811158
:103DC000F2CF85B7877F85BF85B78B7FEBCF85B770
:103DD000877F85BF85B78460E5CF85B78860F3CFDF
:103DE000BA98833059F4C29884B7806484BF8AB784
:103DF00080628ABF8BB780628BBF0895C29A84B7F6
:103E00008F7BF4CF5F9BFECF8CB190E008955D9BDC
:103E1000FECF8CB980E090E008959B01AC0184E076
:103E2000220F331F441F551F8A95D1F760E070ECB5
:103E300088EA90E00E94592A2150310929B930BD01
:103E4000549A539A80B5866880BD08955F9B03C0DD
:103E50008CB190E008958FEF9FEF0895EDECF4E0C2
:103E600084E690E0938382839183808308952F92E8
:103E70003F924F925F926F927F928F929F92AF92FA
:103E8000BF92CF92DF92EF92FF920F931F93CF9347
:103E9000DF93CDB7DEB729970FB6F894DEBF0FBE1C
:103EA000CDBF8A839B836C837D834E835F8329830D
:103EB000C12CD12CA12CB12C1886F12C22242A94AF
:103EC000322C210188858250823068F1C5018C5ADC
:103ED000954C3C01F601E45AFF4F4F01F5E0F9879C
:103EE000F301E490840129814E815F816C817D81A1
:103EF0008A819B810E946C20462F572FBC0142155E
:103F000053056405750518F4F8841A012B01F98529
:103F1000F150F9878FEF681A780A9DE8891A9EEFA9
:103F2000990AF111DDCFE885EF5FE887F5E0AF0E84
:103F3000B11C81ECC81A88EFD80AE83019F68F2D29
:103F400029960FB6F894DEBF0FBECDBFDF91CF919B
:103F50001F910F91FF90EF90DF90CF90BF90AF90A7
:103F60009F908F907F906F905F904F903F902F9099
:103F70000895883048F4E82FF0E0EE0FFF1FE45872
:103F8000FF4F80819181089588E191E0089528E2B2
:103F9000FC0111922A95E9F708956F927F928F9212
:103FA0009F92AF92BF92CF92DF92EF92FF920F93C8
:103FB0001F93CF93DF9331E9632E30E0732EFC0122
:103FC0008C010C5E1F4F6B01770FEE08FF08E301B9
:103FD000A991B9913E0181909190A190B190A501D4
:103FE00094010E94A42ADC01CB012EE0B595A7958F
:103FF000979587952A95D1F78C0D9D1DAE1DBF1DF8
:104000004089518962897389841B950BA60BB70B74
:10401000808A918AA28AB38A9F0124503109E901DA
:1040200088839983AA83BB83E017F10781F6DF9128
:10403000CF911F910F91FF90EF90DF90CF90BF90A5
:10404000AF909F908F907F906F9008950F931F93E4
:1040500024E0629FF0011124E80FF91F0081118113
:104060002281338137FF07C0309520951095019547
:104070001F4F2F4F3F4F448955896689778977FFB6
:1040800007C070956095509541955F4F6F4F7F4F7A
:10409000DB01CA01041715072607370710F4D901F9
:1040A000C801B695A7959795879540175107620760
:1040B000730710F4B901A801840F951FA61FB71F3D
:1040C000009721E0A207B10520F08FEF9FEFA0E05D
:1040D000B0E01F910F9108952F923F924F925F92FF
:1040E0006F927F928F929F92AF92BF92CF92DF9208
:1040F000EF92FF920F931F93CF93DF93CDB7DEB76D
:10410000A0970FB6F894DEBF0FBECDBF8F83988700
:1041100069877A874B875C872D8F0D871E872115CE
:1041200009F492C1E11409F48FC1822F90E00E2DA1
:1041300010E09801220F331F4D8D2417310508F42C
:1041400083C1880F991F8017910708F47DC1E41679
:1041500008F0E2C04E194983A981AB5FAE8F8D8D07
:104160008E1508F48E2DBE8DB81710F081508E8FED
:1041700044244A944E0C000F111F000F111FA80178
:104180006FEF70E085E293E00E94C62BA8016FEF0D
:1041900070E089EF93E00E94C62B0E8D602E712C8B
:1041A000212C312C11E01F8F512C0E2D10E0188B7B
:1041B0000F87015011091A8B098B2B8A1E8D822DB6
:1041C000811B121508F080E00F85188960167106B2
:1041D0000CF0ABC068A2482F50E0811599F0FA01AD
:1041E000319715E30F8D109FE00DF11D1124EE0F97
:1041F000FF1FEE0FFF1FEB5DFC4F1FEF10831183BE
:104200001283138308A1E02FF0E009891A89E017CF
:10421000110694F4319635E30F8D309FE00DF11DBA
:104220001124EE0FFF1FEE0FFF1FEB5DFC4F1FEF82
:1042300010831183128313830F8D802F90E091954B
:104240008195910985739927840F951F880F991F70
:10425000880F991F8C010B5D1C4F1E830D83852DCC
:1042600090E091958195910985739927840F951F09
:10427000880F991F880F991F8C010B5D1C4F1C83A1
:104280000B830D851E85040F151F1A8309832F814B
:104290003885220D331D3A8F298F89859A85820DA5
:1042A000931D9C8F8B8FE42E18A1141708F03FC02C
:1042B0002FEF221A320A3FEF631A730A4D8D24162C
:1042C00080F1E989FA890F8D85E3089FE00DF11DE2
:1042D0001124EE0FFF1FEE0FFF1FEB5DFC4F6081FF
:1042E000718182819381A0960FB6F894DEBF0FBED4
:1042F000CDBFDF91CF911F910F91FF90EF90DF9095
:10430000CF90BF90AF909F908F907F906F905F9075
:104310004F903F902F9008958E2D9D8D891B8983FE
:104320001BCF852D5F8C8F8F48CF48A254CFE9815A
:10433000FA818491E98DFA8DA081A81BBB0B9D01A8
:104340000E947B2A4B015C01E981FA81F5968491F8
:10435000EB8DFC8DA081A81BBB0B9D010E947B2ACD
:10436000860E971EA81EB91ECB84DC84C20CD31CFB
:10437000E981FA81E659FF4F95E0F92E8491D60143
:104380009C91092F081B110BD80198010E947B2AD0
:10439000860E971EA81EB91EFA9415E3C10ED11CF5
:1043A000F596F110EBCF8B898E29811509F441C068
:1043B000EB81FC8180819181A281B381E114E1F0E4
:1043C000ED81FE81F290E290D290C290EB81FC816F
:1043D00032912291129102910C8B1D8B2E8B3F8B6F
:1043E000081719072A073B0710F4D901C801C81696
:1043F000D906EA06FB0628F18F3F1FEF9107A107B8
:10440000B107D1F4ED81FE8181939193A193B19392
:10441000FE83ED830B811C810C5F1F4F1C830B837C
:1044200009811A810F5F1F4F1A8309834F5F5F4F06
:104430003ACF80E090E0DC01880D991DAA1DBB1DDC
:10444000E1CFD701C601F8CF6FEF7FEFCB014BCFA4
:10445000CDB7DEB7CB5CD1400FB6F894DEBF0FBE50
:10446000CDBF60E875E280E090E00E940D1F0E94E1
:104470002E1F1FBC1AE01EBD8CEA90E09BBD8ABDBA
:1044800099BD88BD83E087B98EEE86B980B78F71FC
:1044900080BF80B7806A80BF78940E94151E60E05C
:1044A00080E00E94771E78949E012A553E4FC055A9
:1044B000DE4F39832883C05BD140D9011D921A9504
:1044C000E9F7FE01E15CFE4FCE54DE4FF983E8834D
:1044D000C25BD14085E3682E11926A94E9F72C59AA
:1044E0003109CC54DE4F39832883C45BD140D901D4
:1044F0001D928A95E9F789E091E0FE013196DF018E
:104500009C011D9221503040E1F7C754DE4F1882C4
:10451000C95BD140C054DE4F1882C05CD14031E04D
:10452000C854DE4F3883C85BD14010E0C254DE4F20
:104530001882CE5BD140212C312C2101CB53DE4F90
:104540001882C55CD140612C4CE0742E812C912CDA
:10455000C654DE4F688279828A829B82CA5BD140D0
:10456000CC54DE4F7880C45BD140CF53DE4F78828D
:10457000C15CD140CB54DE4F8880C55BD140CE5367
:10458000DE4F8882C25CD1409E01265F3E4FCA54F6
:10459000DE4F39832883C65BD1408091220181158B
:1045A000E1F380912201109222018150990B982F02
:1045B0008827AC014D5D5E4F5A018091200190919A
:1045C0002101892B09F0E5C0A3E0B0E0C654DE4F1D
:1045D000288139814A815B81CA5BD1400E94992A36
:1045E0002AE096958795779567952A95D1F7CA53CE
:1045F000DE4F79836883C65CD140F501B5017395C0
:10460000C853DE4F79836883C85CD14000E0C12C79
:10461000D12C7601CA53DE4F88819981C65CD14086
:10462000919581959109C653DE4F99838883CA5C21
:10463000D14020813181C90137FF04C088279927E3
:10464000821B930B092E000CAA0BBB0BC80ED91EA4
:10465000EA1EFB1EC654DE4F688079808A809B80EC
:10466000CA5BD140860D971DA81DB91DAC01BD01C7
:10467000032E3AE076956795579547953A95D1F789
:10468000302D3C014D01641A750A860A970AC654FA
:10469000DE4F688279828A829B82CA5BD140CA538C
:1046A000DE4F88809980C65CD140821693060CF05C
:1046B00037C1CB53DE4F9880C55CD140911030C1DB
:1046C0000F5F21E0CB53DE4F2883C55CD14032968B
:1046D000C853DE4F68817981C85CD140E617F7077F
:1046E00009F0A7CFB7E0F694E794D794C794BA95AA
:1046F000D1F777E4C71618F4003108F44AC081E016
:1047000090E0909321018093200185E3CE54DE4F09
:10471000A881B981C25BD140E82F1D92EA95E9F7E3
:10472000CC54DE4FA881B981C45BD1401D928A95DB
:10473000E9F78AE0C055DE4FE881F981C05BD140DE
:1047400011928A95E9F789E091E0FE013196DF0147
:104750009C011D9221503040E1F74BE950E060E0B0
:1047600080E00E943E1EC754DE4F1882C95BD140D4
:10477000C054DE4F1882C05CD14031E0C854DE4FD7
:104780003883C85BD14010E0CB53DE4F1882C55C44
:10479000D1408091200190912101019709F09FC0A3
:1047A000D5018D919C9166246394181619060CF01E
:1047B000612CCE018C589E4F0E94C71FF501F395C6
:1047C0004F0100E0C12CD12C7601D5016D917C9177
:1047D000CB0177FF04C088279927861B970B092EEA
:1047E000000CAA0BBB0BC80ED91EEA1EFB1E862DA1
:1047F00066246394161617060CF0612C68120F5F7E
:10480000CE018C589E4F0E94CD1FB2E0AB0EB11C62
:10481000A814B904D1F65E01E4E6AE1AEEEFBE0AC2
:104820004501612C7A2CCC53DE4FB882C45CD14058
:10483000662DCE018C589E4F0E942620D4018D9368
:104840009D934D016394B5E06B12F2CFC854DE4FD7
:104850006880C85BD140611409F47BC08AE0E72D11
:10486000CC53DE4FF881C45CD140DE01AA55BE4F67
:1048700001900D928A95E1F7C054DE4F7880C05CBC
:10488000D140C854DE4F7882C85BD140C754DE4F58
:10489000F881C95BD140FF5FC754DE4FF883C95B25
:1048A000D140F63330F082E090E090932101809384
:1048B0002001C854DE4F6880C85BD140C054DE4F31
:1048C0006882C05CD140C254DE4F0883CE5BD140C9
:1048D00016012701C854DE4F1882C85BD140809171
:1048E000200190912101029709F057CEFE01E15C71
:1048F000FE4FDF0120E04E2F8A2F8E1B811708F418
:10490000F0C00FEF30E02111FFC09E012F5F3F4F3D
:104910007901C90120E09E2C0F2DFC0130E0FEC082
:10492000C653DE4F48815981CA5CD14024173507F0
:104930000CF0CDCECB53DE4F5881C55CD140513009
:1049400009F0C5CE0F5FCB53DE4F1882C55CD14056
:10495000BECE812F90E0FE01E15CFE4FE10FF11D24
:104960002C0C3D1C4E1C5F1C7727652D542D432DB0
:104970002114310421E04206510408F04FEF408336
:10498000AE01465F5E4F840F951FC254DE4F2881F3
:10499000CE5BD140200FDC012C93FE01EA55FE4F87
:1049A0004F012CE830E0C254DE4F39832883CE5BC0
:1049B000D140FE013196E10FF11D9501265F3F4F79
:1049C0004CE850E0CA53DE4FB982A882C65CD140A1
:1049D000CA53DE4FA881B981C65CD1406D917D91EB
:1049E000CA53DE4FB983A883C65CD140D4012D9051
:1049F0003D904D01DA016D90AD01412C512C260EF8
:104A0000371E411C511C04C0569447943794279478
:104A10006A94D2F72114B1E03B064104510410F02E
:104A200022242A942082F596CA53DE4F688079802A
:104A3000C65CD1406216730659F6B701A601E7E0DD
:104A40007695679557954795EA95D1F7D5018D915C
:104A50009D915D01C254DE4FA881B981CE5BD140EA
:104A6000ED91C254DE4FB983A883CE5BD14002C022
:104A700096958795EA95E2F7039798F4A216B30600
:104A800029F7473451056105710558F4C054DE4FCC
:104A9000B881C05CD140BF5FC854DE4FB883C85BEB
:104AA000D1408AE0FE01E456FE4FDE01AA55BE4F1A
:104AB00001900D928A95E1F71F5F1A3008F4E6CE57
:104AC000C854DE4FE881C85BD140EC3018F4153390
:104AD00008F4DCCE82E090E09093210180932001E5
:104AE000D5CE8D91281708F007CF282F05CF8191BB
:104AF0007F0151E0E51AF108089FC0011124B901B6
:104B00000E94452AD7016C938E2F841B811778F35E
:104B1000FCCE4191241708F4242F3F5F1313F9CFE3
:104B2000C596CA54DE4F68807980C65BD14068164E
:104B3000790609F0F2CE211519F1F70188248A943B
:104B400030E06F0140E010C0D6018D916D015D0134
:104B5000B1E0AB1AB108889EC0011124B9010E94CE
:104B6000452AD5016C934F5F1413EECFF596CA54C6
:104B7000DE4F68807980C65BD1406E167F0609F7EC
:104B80004CEA50E060E080E00E943E1E212F492D5B
:104B9000502FCF53DE4F6881C15CD140CE53DE4FE2
:104BA0007881C25CD140CE01815C9E4F0E94371F4C
:104BB000082F4DEB50E060E080E00E943E1E4EEC7E
:104BC00050E060E081E00E943E1E802F0E94B91FED
:104BD000AC0160E081E00E943E1E8FED90E00E94FB
:104BE000252C111509F496C09E01215C3E4FD90178
:104BF0008D916D011F928F93E5EEF0E0FF93EF939F
:104C00000E94082C0F900F900F900F9001E010134E
:104C100070C08BEE90E00E94252C88EE90E00E9400
:104C2000252C111509F48CC09E01265F3E4FD90139
:104C30008D916D011F928F93E5EEF0E0FF93EF935E
:104C40000E94082C0F900F900F900F9001E010130E
:104C500066C08BEE90E00E94252C92E7C92E90E072
:104C6000D92E2DEE822E20E0922ED6018C91119617
:104C70009C91B2E0CB0ED11C9F938F939F928F9209
:104C80000E94082C0F900F900F900F90111509F4AF
:104C90006DC0F70181915F011F928F9385EE682EA1
:104CA00080E0782E7F926F920E94082C0F900F90D8
:104CB0000F900F9001E0101348C08BEE90E00E941F
:104CC000252C25E3E20EF11C3CE7C31630E0D306A9
:104CD00061F61092210110922001C754DE4F188214
:104CE000C95BD14010E0CB53DE4F1882C55CD14088
:104CF00054CCD6018D916D011F928F93E4EEF0E0BC
:104D0000FF93EF930E94082C0F5F0F900F900F906E
:104D10000F907DCF80E390E00E941E2C7ACFD601C9
:104D20008D916D011F928F93E4EEF0E0FF93EF936E
:104D30000E94082C0F5F0F900F900F900F9087CF5D
:104D400080E390E00E941E2C84CFD5018D915D01FF
:104D50001F928F93E4EEF0E0FF93EF930E94082CF4
:104D60000F5F0F900F900F900F90A5CF80E390E012
:104D70000E941E2CA2CFAFE0B0E0E1ECF6E20C9472
:104D8000AC2A7C013B015A01FC0117821682838107
:104D900081FF57C39AE0292EF7012381F30123FDF8
:104DA000859123FF81913F01811509F442C085322D
:104DB00039F423FD959123FF91913F01953239F408
:104DC000B70190E00E94D82B65015601E5CF30E095
:104DD00010E0912C812CF0E28F1608F03CC09B3241
:104DE00079F160F4903271F1933291F19E3209F0D1
:104DF00046C086FC1EC0689486F806C09D3229F124
:104E0000903359F5689480F8F30123FD959123FFC1
:104E100091913F019111DFCF082D097F903709F45F
:104E200086C208F07CC2983509F484C29F3609F422
:104E300088C2F701868197812F96E2E10C94C82AF7
:104E4000689481F8689482F8DFCF689483F8DCCFA7
:104E5000689484F8D9CF87FC1CC080ED890F8A3014
:104E600028F686FE05C0129D800D1124182FCCCF88
:104E7000929C800D1124982E689485F8C5CF9C369D
:104E800019F4689487F8C0CF9C3409F1983609F476
:104E9000BBCF3115F1F0892F8F7D8554833008F019
:104EA00098C1650128E0C20ED11C8FE3898301E01F
:104EB00010E0AE014F5F5F4F5A01E89487F883FC22
:104EC00004C00915110508F4F0C1592C03C231E0E2
:104ED0009BCF8BEB890F833098F4689484F8905EB5
:104EE00086FE16E0582D5F73852E953689F46894FA
:104EF00086F8212F183010F027E017E0412C14C05D
:104F00008BE9890F833008F064C1E89484F8E8CF16
:104F1000963681F5689487F8812F1C3308F08BE36F
:104F200044244394480E27E0F501619171918191E9
:104F300091916F01042DAE014F5F5F4F0E94E32AF4
:104F40005C01398030FE03C00DE233FE05C082FAF9
:104F5000002705F981FC0BE2F32DFC705F2EF115A3
:104F600029F1011171C224E0512C921608F483C278
:104F700083E06FC220E0111509F4C0CF1150B9CF02
:104F800081108052B70190E00E94D82B0F5F1F4F15
:104F9000F80184918111F4CF511409F416CFB701AF
:104FA00080E290E00E94D82B5A94F6CF87FE30C062
:104FB000842D8A0D34FE04C09A81913309F4815006
:104FC00044244394181634F4482EF9E08F1710F057
:104FD00088E0482EC501B7FE02C080E090E001964F
:104FE00001110196111531F0212F30E02F5F3F4F55
:104FF000820F931F8915910514F4592C581A882D86
:105000008970811136C051102DC00115D9F133C0FE
:1050100086FC25C0E12FF0E01A151B043CF02CEFB4
:10502000A2162FEFB20614F0689487F83296AE01FC
:105030004F5F5F4FE40FF51F01C01150111519F0BC
:1050400082918033D1F387FE0AC044244394410EF9
:10505000A116B10414F41A19BDCF10E0BBCF85E03E
:1050600090E0BECFB70180E290E00E94D82B5A9426
:10507000CACF011529F0B701802F90E00E94D82BEC
:1050800083FC02C051103FC087FE57C04501B7FEE8
:1050900002C0812C912CCE0101968A0D9B1DFC0132
:1050A000E819F909FD87EC879501241931093F8733
:1050B0002E87012F10E0119501951109A814B9044C
:1050C0004CF14E855F854815590524F5EC85FD8525
:1050D0008181F1E08F1A91082C853D852F5F3F4F2C
:1050E0003D872C8780169106BCF0B70190E00E94A6
:1050F000D82B3FEF8316930609F7B7018EE290E0B5
:105100000E94D82BDBCFB70180E390E00E94D82B20
:105110005A94B8CF80E3DDCFA814B90439F49A814A
:10512000963348F4953311F434FE05C0B70190E08E
:105130000E94D82B31CF81E3F9CF8A81813311F0DE
:10514000E89434F8B70190E00E94D82B111125C0E3
:1051500085E490E084FC02C085E690E0B7010E94FF
:10516000D82BB7FC05C0A114B10461F534FE2AC0E8
:10517000B194A194B1088DE2B70190E00E94D82BC0
:1051800080E35AE0A516B104FCF4B70190E00E9458
:10519000D82BB701C501C096CBCFB7018EE290E006
:1051A0000E94D82B1E5F02E0802F0F5FFE01319618
:1051B000E80FF11D8081B70190E00E94D82B011308
:1051C000F3CFC6CF8BE2D8CF8F5F4AE0A41AB108E5
:1051D000D8CF9336E1F1933709F447C0933509F4FA
:1051E00053C0943619F0993609F080C0F50187FE56
:1051F00075C061917191819191916F01082D0F7628
:1052000097FF08C090958095709561957F4F8F4F5F
:105210009F4F00682AE030E0AE014F5F5F4F5A01B8
:105220000E94512CB82EBA1806FF95C0802F8E7F91
:10523000B11608F08FC004FFE1C002FDD5C00E7E9C
:10524000512E802F8678811509F490C0D2C0650157
:1052500082E0C80ED11CF5018081898301E010E055
:105260009E012F5F3F4F590128CEF501A190B190CB
:105270006F01612F70E086FC02C06FEF7FEFC50108
:105280000E94CD2B8C0119CEF501A190B1906F0138
:10529000612F70E086FC02C06FEF7FEFC5010E94B6
:1052A000BB2B8C01689487F80ACEB70180E290E0AE
:1052B0000E94D82B9A9405CEF50187FC859187FE34
:1052C00081915F01B70190E00E94D82B51105A9450
:1052D000015011090115110579F75ECE61917191A7
:1052E0006F01072E000C880B990B88CF082D0F7EBD
:1052F0002AE030E0953709F08FCDF50107FF24C093
:1053000061917191819191916F01AE014F5F5F4FFA
:105310005A010E94512CB82EBA180F7785CF9837B2
:1053200009F087CD84FC04C020E130E0E6CF0061C5
:105330000460FACF84FE02C0082D066020E132E04E
:10534000DCCF28E030E0D9CF619171916F0180E02E
:1053500090E0DBCF082F5B2C04FF73CFFE01EB0D39
:10536000F11D8081803309F042C0097E03FD0EC02B
:1053700000FF50C01B2D591418F4190D1519592C84
:10538000892D8519951408F480E0580E591408F0F9
:1053900043C09518592C04FF41C0B70180E390E049
:1053A0000E94D82B02FF09C088E590E001FD02C0F1
:1053B00088E790E0B7010E94D82BB116D8F1BA94D3
:1053C0000B2D10E00F5F1F4FCE0101965C01080FFF
:1053D000191FF80182918F01B70190E00E94D82B2C
:1053E000A016B106B1F7D8CD512E082FB7CF02FDC8
:1053F00002C05394BBCF53945394B8CF512E082F6F
:1054000020CFB70180E290E00E94D82BA394A9148A
:10541000C0F3B6CFA52CFBCF512CBDCF802F867803
:10542000811559F280E201FD8BE207FD8DE2B701A3
:1054300090E0C1CFB70180E390E00E94D82B1150DB
:10544000BCCF8FEF9FEFF8CCF5E0512C9F1670F09A
:1054500084E0592C581A83FC07C0B70180E290E021
:105460000E94D82B5A94C9F7011529F0B701802F53
:1054700090E00E94D82B04E510E033FC02C008E560
:1054800010E0282D2071822E83CDAA1BBB1B51E179
:1054900007C0AA1FBB1FA617B70710F0A61BB70BA4
:1054A000881F991F5A95A9F780959095BC01CD0149
:1054B0000895A1E21A2EAA1BBB1BFD010DC0AA1F55
:1054C000BB1FEE1FFF1FA217B307E407F50720F06D
:1054D000A21BB30BE40BF50B661F771F881F991FE8
:1054E0001A9469F760957095809590959B01AC0131
:1054F000BD01CF0108950E94832A332312F48A1B31
:105500009B0B0C94942AA29FB001B39FC001A39F50
:10551000700D811D1124911DB29F700D811D1124EC
:10552000911D08950E94832AB7FF0895821B930B53
:1055300008950E94832AA59F900DB49F900DA49F6B
:10554000800D911D11240895B7FF0C94992A0E9493
:10555000992A821B930B08952F923F924F925F924C
:105560006F927F928F929F92AF92BF92CF92DF9273
:10557000EF92FF920F931F93CF93DF93CDB7DEB7D8
:10558000CA1BDB0B0FB6F894DEBF0FBECDBF09946C
:105590002A88398848885F846E847D848C849B84C3
:1055A000AA84B984C884DF80EE80FD800C811B81D1
:1055B000AA81B981CE0FD11D0FB6F894DEBF0FBE00
:1055C000CDBFED010895283008F027E03327DA0138
:1055D000990F311D87FD916000966105710539F4C1
:1055E00032602E5F3D9330E32A95E1F708959F3FA7
:1055F00030F080387105610509F03C5F3C5F3D93F8
:10560000913008F08068911DDF93CF931F930F9323
:10561000FF92EF92192F987F9695E92F9695969580
:10562000E90FFF27E454F64A99273327EE24FF2495
:10563000A701E70105900894079428F4360FE71EA8
:10564000F81E491F511D660F771F881F991F06946A
:10565000A1F70590079428F4E70EF81E491F561F7E
:10566000C11D770F881F991F661F0694A1F705902B
:10567000079428F4F80E491F561FC71FD11D880F25
:10568000991F661F771F0694A1F70590079420F4D1
:10569000490F561FC71FD81F990F661F771F881FF6
:1056A0000694A9F784911095177041F0D695C79587
:1056B00057954795F794E7941A95C1F7E2E6F9E50F
:1056C00068941590159135916591959105907FE2BB
:1056D0007395E118F10A430B560BC90BD009C0F7BB
:1056E000E10CF11E431F561FC91FD01D7EF47033FD
:1056F00011F48A95E6CFE894015030F0080F0AF4CF
:105700000027021708F4202F2395022F7A3328F060
:1057100079E37D932A95E9F710C07D932A9589F660
:10572000069497956795379517951794E118F10AA0
:10573000430B560BC90BD00998F023957E917395B6
:105740007A3308F070E37C932013B8F77E91706190
:105750007D9330F0839571E37D9370E32A95E1F7B3
:105760001124EF90FF900F911F91CF91DF91992716
:1057700087FD90950895FC010590615070400110DF
:10578000D8F7809590958E0F9F1F0895DC0101C07A
:105790006D9341505040E0F70895FC016150704016
:1057A00001900110D8F7809590958E0F9F1F089556
:1057B0000F931F93CF93DF93182F092FEB018B814A
:1057C00081FD09C01FEF0FEF812F902FDF91CF9147
:1057D0001F910F91089582FF14C02E813F818C810B
:1057E0009D81281739073CF4E881F981CF010196A2
:1057F0009983888310838E819F8101969F838E83F6
:10580000E3CFE885F985812F0995892BA1F3DACFBC
:10581000A0E0B0E0EEE0FCE20C94BC2AAE014B5FED
:105820005F4FFA0161917191AF018091CF04909126
:10583000D0040E94BB26E2E00C94D82A6091CF04E9
:105840007091D0040E94D82B08950F931F93CF938B
:10585000DF93E091CF04F091D004238100E010E0C9
:1058600021FD0EC00FEF1FEFC801DF91CF911F91F7
:105870000F9108950995892B11F00FEF1FEFCE01BD
:10588000EC0189916091CF047091D004DB011896EE
:10589000ED91FC918111EECF8AE00995892B21F3DE
:1058A000E1CFFA01AA27283051F1203181F1E894A3
:1058B0006F936E7F6E5F7F4F8F4F9F4FAF4FB1E003
:1058C0003ED0B4E03CD0670F781F891F9A1FA11DFE
:1058D000680F791F8A1F911DA11D6A0F711D811DFF
:1058E000911DA11D20D009F468943F912AE0269FC4
:1058F00011243019305D3193DEF6CF010895462F23
:105900004770405D4193B3E00FD0C9F7F6CF462F03
:105910004F70405D4A3318F0495D31FD405241936C
:1059200002D0A9F7EACFB4E0A69597958795779529
:105930006795BA95C9F700976105710508959B01B0
:10594000AC010A2E06945795479537952795BA9539
:10595000C9F7620F731F841F951FA01D0895F89447
:10596000FFCF00407A10F35A00A0724E18090010C1
:10597000A5D4E80000E87648170000E40B540200C4
:1059800000CA9A3B000000E1F505000080969800EF
:10599000000040420F000000A08601000000102718
:1059A00000000000E80300000000640000000000A8
:1059B0000A00000000000100000000002C76D888DA
:1059C000DC674F0823DFC1DFAE59E1B1B796E5E3ED
:1059D000E453C63AE651997696E8E6C28426EB8906
:1059E0008C9B62ED407C6FFCEFBC9C9F40F2BAA5A3
:1059F0006FA5F490055A2AF75C936B6CF9676DC13B
:105A00001BFCE0E40D47FEF520E6B500D0ED902E3E
:105A10000300943577050080841E080000204E0A9C
:105A2000000000C80C333333330F986E12831141DA
:105A3000EF8D2114893BE65516CFFEE6DB18D184A5
:105A40004B381BF77C1D901DA4BBE42420328472CC
:0C5A50005E228100C9F124ECA1E53D2795
:105A5C00000004000000000300000000071F021FEC
:105A6C0000005E018403A4068C0AAC0DF300F60062
:105A7C00FA000001050108010D0112010A080706D0
:105A8C0005337B0562AC1E2ABEBE895265636F72FC
:105A9C0064696E672E2E2E2020202000436C6173CB
:105AAC0073696679696E672E2E2E2020004465740A
:105ABC0065637465643A202020202020200020207B
:105ACC0020202020202020202020202020200053B7
