:100000000C942E000C944B000C944B000C944B0061
:100010000C944B000C944B000C944B000C944B0034
:100020000C944B000C944B000C944B000C944B0024
:100030000C944B000C944B000C944B000C944B0014
:100040000C944D000C944B000C944B000C944B0002
:100050000C944B006E616E00696E660011241FBE29
:10006000CFE5D8E0DEBFCDBF14E0A0E6B0E0E6E12A
:10007000F5E102C005900D92A03DB107D9F724E04B
:10008000A0EDB4E001C01D92AB3DB207E1F70E94C4
:1000900006030C940C0A0C9400001F920F920FB6EA
:1000A0000F9211248F939F9384B195B19093D204B2
:1000B0008093D10488B7886088BF81E08093D004A2
:1000C0009F918F910F900FBE0F901F90189595B331
:1000D0009F70282F207F922B95BBAA98A89A94E016
:1000E0009A95F1F7A898E8E2F2E03197F1F700C0AD
:1000F000000095B38295807F9F70892B85BBA89A5D
:10010000F4E0FA95F1F7A89889E995E10197F1F7FC
:1001100000C0089595B39F70282F207F922B95BB28
:10012000AA9AA89A94E09A95F1F7A898E8E2F2E0E2
:100130003197F1F700C0000095B38295807F9F70E2
:10014000892B85BBA89AF4E0FA95F1F7A89889E97C
:1001500095E10197F1F700C008958FEF84BB8FEF11
:1001600097ED0197F1F700C0000082E00E94670060
:1001700088E20E9467008CE00E94670086E00E948F
:10018000670081E00E94670089E995E10197F1F736
:1001900000C00895CF93DF93EC018991811103C0D2
:1001A000DF91CF9108950E948A00F7CFCF93DF931C
:1001B000D42FC52F81110BC0862F8F7080686031BE
:1001C0006CF08D2F9C2FDF91CF910C94CA00813061
:1001D000C1F76031B4F7862F8F70806C0E94670082
:1001E000F0CF81E00E94670089E995E10197F1F77E
:1001F00000C080E80C946700CF93DF93D62FC72F01
:1002000090EC980F913440F40E9467008D2F9C2F42
:10021000DF91CF910C94CA00DF91CF9108958111A5
:1002200006C0862F8F708068603144F00895813059
:10023000E9F76031DCF7862F8F70806C0C946700D3
:100240000E9467008FE084BBAA9AA99AA89A8AE4C0
:100250008A95F1F793B3907FA898E8E2F2E031979E
:10026000F1F700C00000A89AFAE4FA95F1F783B319
:10027000A8982FEF24BBA99882958F70892B089599
:100280008A98833059F4929885B7836085BF8AB77E
:1002900080648ABF8BB780648BBF0895929A813047
:1002A00051F0823071F08111F2CF85B78D7F85BF1B
:1002B00085B78E7FEBCF85B78D7F85BF85B7816092
:1002C000E5CF85B78260F3CF8B98833059F493984C
:1002D00085B78C6085BF8AB780688ABF8BB7806816
:1002E0008BBF0895939A813051F0823071F0811163
:1002F000F2CF85B7877F85BF85B78B7FEBCF85B77B
:10030000877F85BF85B78460E5CF85B78860F3CFE9
:10031000BA98833059F4C29884B7806484BF8AB78E
:1003200080628ABF8BB780628BBF0895C29A84B700
:100330008F7BF4CF5F9BFECF8CB190E008955D9BE7
:10034000FECF8CB980E090E008959B01AC0184E081
:10035000220F331F441F551F8A95D1F760E070ECC0
:1003600088EA90E00E9428082150310929B930BD5F
:10037000549A539A80B5866880BD08955F9B03C0E8
:100380008CB190E008958FEF9FEF0895E5EDF4E0D4
:1003900080E690E0938382839183808308953F92E7
:1003A0004F925F926F927F928F929F92AF92BF9285
:1003B000CF92DF92EF92FF920F931F93CF93DF9331
:1003C00000D00F92CDB7DEB7982E892E00E010E056
:1003D00040E0312C44244A94542C3201C801825903
:1003E0009F4F9B838A8392E0998330C0D5019D9172
:1003F0005D018191891B990B889F9001899F300D28
:10040000300D1124B901032E000C880B990B5F31BC
:1004100020F0A3E0B0E00E944A08C60ED71EE81EF6
:10042000F91E5F5F5E3311F7C414D504E604F704C8
:1004300018F4342E260137018A819B81CE969B8346
:100440008A839981913059F0A1E0A983E92DF82D93
:10045000AA80BB8050E0C12CD12C7601C7CF4F5F62
:1004600004581F4F483009F0B9CF832D0F900F90DB
:100470000F90DF91CF911F910F91FF90EF90DF9040
:10048000CF90BF90AF909F908F907F906F905F9034
:100490004F903F9008952F923F924F925F926F92AC
:1004A0007F928F929F92AF92BF92CF92DF92EF9204
:1004B000FF920F931F93CF93DF9300D000D00F9242
:1004C000CDB7DEB7682E9A83762E7B83842F822B5E
:1004D000811509F487C0D42E30E2431710F04FE1A4
:1004E000D42EC22E40E2241710F03FE1C32E1D820D
:1004F0001C8290E080E088248A94982C54012C81FE
:100500003D8122593F4F02E02FC0D7011D917D014F
:10051000A191A11BBB0BAA9F1001AB9F300C300C0B
:100520001124032C000C44085508420D531D641D72
:10053000751DAE2FA619AD1540F37901BFE1EB0E85
:10054000F11CE72DFB81AE2FA719AC15A0F04815C3
:1005500059056A057B0518F4892F4A015B01225C65
:100560003F4F0130E9F001E0E62DFA81790140E0EA
:1005700050E0BA01DECFD7011D917D01A191A11BF1
:10058000BB0BAA9F1001AB9F300C300C1124032C25
:10059000000C44085508420D531D641D751DD3CF32
:1005A0009F5F2C813D8124583F4F3D832C839830A1
:1005B00009F0A5CF0F900F900F900F900F90DF9143
:1005C000CF911F910F91FF90EF90DF90CF90BF9050
:1005D000AF909F908F907F906F905F904F903F90E3
:1005E0002F90089588E0E6CF2FE14FE10C944B0265
:1005F000883048F4E82FF0E0EE0FFF1FE25BFB4F7E
:1006000080819181089587EC94E00895CDB7DEB79D
:10061000C854D1090FB6F894DEBF0FBECDBF60E855
:1006200075E280E090E00E94A5010E94C6011FBC17
:100630008AE08EBD8CEA90E09BBD8ABD99BD88BDE5
:1006400083E087B98EEE86B980B78F7180BF80B79F
:10065000806A80BF78940E94AD0060E080E00E94D4
:100660000F0178948FE19E01205E3F4F21963FAFAE
:100670002EAF2197D901E82F1D92EA95E9F72F5166
:10068000310923963FAF2EAF2397D9011D928A954A
:10069000E9F7B1E02996BFAF2997E12CE1E0289670
:1006A000EFAF2897B12CF12C612C712CC12CD12CDF
:1006B000212C312C6DE7462E512C20E43FE127966A
:1006C0003FAF2EAF279771E040E060E0812C912C86
:1006D0008DE790E0DE01DF962596BFAFAEAF2597A0
:1006E0002091D0042115E1F31092D0040091D1049F
:1006F0001091D2041A952091D3043091D404A42EE1
:10070000232B09F049C0980117FF04C02227332783
:10071000201B310B280D391DAA24A3941016110695
:100720000CF0A12C711102C0A4126F5F01974C0153
:10073000009781F52038324310F4603130F121E028
:1007400030E03093D4042093D3044EE554E060E0CD
:1007500080E00E94D600612C712CC12CD12C212C60
:10076000312C31E029963FAF2997E12C41E02896C2
:100770004FAF2897B12CF12C5DE7452E512C80EA24
:100780009FE027969FAF8EAF279771E060E08DE7DF
:1007900090E002C0490170E02091D3043091D4046C
:1007A0002130310569F5A1E04A1A5108A80117FF67
:1007B00004C044275527401B510B9A01A1E0101695
:1007C00011060CF0A0E04114510409F45FC09A0135
:1007D0002C0D3D1D2996BFAD2997B1117BC0EA12A2
:1007E000F39427964EAD5FAD279741505109279658
:1007F0005FAF4EAF2797452B09F470C0EA2E690111
:100800002091D3043091D40422303105E9F5FE0162
:10081000B096DF0120E08D91281708F4282F259647
:100820004EAD5FAD25974A175B07A9F730E0211160
:100830005CC04FE654E060E080E00E94D600BE015C
:100840006F5F7F4FCE0180960E94F4020E94F802F3
:100850008C0140E854E060E080E00E94D60041E96D
:1008600054E060E081E00E94D600A80160E081E0F1
:100870000E94D6001092D4041092D30471E060E07C
:10088000812C912C8DE790E04A2D2ACFEA262896DC
:10089000EFAD2897E11551F0BF2CFE2C36012896BC
:1008A0001FAE28974DE7442E512C9BCFFE01B096EA
:1008B000E20DF31D6C0C7D1C7082FE013196E20D81
:1008C000F31DBF0CB082FFEF2F1A3F0ABF2CFE2C86
:1008D0003601E8CF29961FAE299783CFE2E0F0E0FA
:1008E000F093D404E093D30489CF81918F01015018
:1008F00011095FEF589FC0011124B9010E9414082B
:10090000D8016C9325964EAD5FAD25974E175F07C6
:1009100061F78FCFAFE0B0E0E0E9F4E00C94590864
:100920007C013B015A01FC0117821682838181FF01
:1009300057C39AE0292EF7012381F30123FD859106
:1009400023FF81913F01811509F442C0853239F4BA
:1009500023FD959123FF91913F01953239F4B70121
:1009600090E00E947E0965015601E5CF30E010E07D
:10097000912C812CF0E28F1608F03CC09B3279F16B
:1009800060F4903271F1933291F19E3209F046C0D9
:1009900086FC1EC0689486F806C09D3229F190330B
:1009A00059F5689480F8F30123FD959123FF919107
:1009B0003F019111DFCF082D097F903709F486C2DE
:1009C00008F07CC2983509F484C29F3609F488C2C5
:1009D000F701868197812F96E2E10C94750868945F
:1009E00081F8689482F8DFCF689483F8DCCF68944C
:1009F00084F8D9CF87FC1CC080ED890F8A3028F697
:100A000086FE05C0129D800D1124182FCCCF929C1C
:100A1000800D1124982E689485F8C5CF9C3619F462
:100A2000689487F8C0CF9C3409F1983609F4BBCF9D
:100A30003115F1F0892F8F7D8554833008F098C1EE
:100A4000650128E0C20ED11C8FE3898301E010E02C
:100A5000AE014F5F5F4F5A01E89487F883FC04C0F2
:100A60000915110508F4F0C1592C03C231E09BCFE0
:100A70008BEB890F833098F4689484F8905E86FE3F
:100A800016E0582D5F73852E953689F4689486F8A4
:100A9000212F183010F027E017E0412C14C08BE90B
:100AA000890F833008F064C1E89484F8E8CF963663
:100AB00081F5689487F8812F1C3308F08BE3442478
:100AC0004394480E27E0F5016191719181919191D4
:100AD0006F01042DAE014F5F5F4F0E9490085C01D3
:100AE000398030FE03C00DE233FE05C082FA0027D4
:100AF00005F981FC0BE2F32DFC705F2EF11529F155
:100B0000011171C224E0512C921608F483C283E0D3
:100B10006FC220E0111509F4C0CF1150B9CF811078
:100B20008052B70190E00E947E090F5F1F4FF801CD
:100B300084918111F4CF511409F416CFB70180E2EA
:100B400090E00E947E095A94F6CF87FE30C0842D33
:100B50008A0D34FE04C09A81913309F481504424F3
:100B60004394181634F4482EF9E08F1710F088E0FB
:100B7000482EC501B7FE02C080E090E00196011149
:100B80000196111531F0212F30E02F5F3F4F820F7A
:100B9000931F8915910514F4592C581A882D8970C2
:100BA000811136C051102DC00115D9F133C086FC1A
:100BB00025C0E12FF0E01A151B043CF02CEFA21623
:100BC0002FEFB20614F0689487F83296AE014F5FAB
:100BD0005F4FE40FF51F01C01150111519F08291FC
:100BE0008033D1F387FE0AC044244394410EA116FA
:100BF000B10414F41A19BDCF10E0BBCF85E090E02A
:100C0000BECFB70180E290E00E947E095A94CACF1D
:100C1000011529F0B701802F90E00E947E0983FC26
:100C200002C051103FC087FE57C04501B7FE02C049
:100C3000812C912CCE0101968A0D9B1DFC01E81997
:100C4000F909FD87EC879501241931093F872E8723
:100C5000012F10E0119501951109A814B9044CF168
:100C60004E855F854815590524F5EC85FD85818104
:100C7000F1E08F1A91082C853D852F5F3F4F3D870E
:100C80002C8780169106BCF0B70190E00E947E0987
:100C90003FEF8316930609F7B7018EE290E00E94BA
:100CA0007E09DBCFB70180E390E00E947E095A9471
:100CB000B8CF80E3DDCFA814B90439F49A81963314
:100CC00048F4953311F434FE05C0B70190E00E945A
:100CD0007E0931CF81E3F9CF8A81813311F0E89425
:100CE00034F8B70190E00E947E09111125C085E417
:100CF00090E084FC02C085E690E0B7010E947E0986
:100D0000B7FC05C0A114B10461F534FE2AC0B1944A
:100D1000A194B1088DE2B70190E00E947E0980E3C2
:100D20005AE0A516B104FCF4B70190E00E947E09D8
:100D3000B701C501C096CBCFB7018EE290E00E940B
:100D40007E091E5F02E0802F0F5FFE013196E80FE3
:100D5000F11D8081B70190E00E947E090113F3CF5D
:100D6000C6CF8BE2D8CF8F5F4AE0A41AB108D8CFA4
:100D70009336E1F1933709F447C0933509F453C032
:100D8000943619F0993609F080C0F50187FE75C0D8
:100D900061917191819191916F01082D0F7697FF6B
:100DA00008C090958095709561957F4F8F4F9F4FAC
:100DB00000682AE030E0AE014F5F5F4F5A010E94A9
:100DC000AE09B82EBA1806FF95C0802F8E7FB116D7
:100DD00008F08FC004FFE1C002FDD5C00E7E512E89
:100DE000802F8678811509F490C0D2C0650182E019
:100DF000C80ED11CF5018081898301E010E09E01BD
:100E00002F5F3F4F590128CEF501A190B1906F019E
:100E1000612F70E086FC02C06FEF7FEFC5010E947A
:100E200073098C0119CEF501A190B1906F01612F6A
:100E300070E086FC02C06FEF7FEFC5010E94680979
:100E40008C01689487F80ACEB70180E290E00E9496
:100E50007E099A9405CEF50187FC859187FE8191E4
:100E60005F01B70190E00E947E0951105A94015031
:100E700011090115110579F75ECE619171916F012C
:100E8000072E000C880B990B88CF082D0F7E2AE0C7
:100E900030E0953709F08FCDF50107FF24C061914F
:100EA0007191819191916F01AE014F5F5F4F5A0136
:100EB0000E94AE09B82EBA180F7785CF983709F07F
:100EC00087CD84FC04C020E130E0E6CF00610460FF
:100ED000FACF84FE02C0082D066020E132E0DCCFAC
:100EE00028E030E0D9CF619171916F0180E090E00E
:100EF000DBCF082F5B2C04FF73CFFE01EB0DF11D40
:100F00008081803309F042C0097E03FD0EC000FFDE
:100F100050C01B2D591418F4190D1519592C892D71
:100F20008519951408F480E0580E591408F043C050
:100F30009518592C04FF41C0B70180E390E00E944E
:100F40007E0902FF09C088E590E001FD02C088E744
:100F500090E0B7010E947E09B116D8F1BA940B2D2A
:100F600010E00F5F1F4FCE0101965C01080F191FA3
:100F7000F80182918F01B70190E00E947E09A016CE
:100F8000B106B1F7D8CD512E082FB7CF02FD02C060
:100F90005394BBCF53945394B8CF512E082F20CFE6
:100FA000B70180E290E00E947E09A394A914C0F3E7
:100FB000B6CFA52CFBCF512CBDCF802F86788115C5
:100FC00059F280E201FD8BE207FD8DE2B70190E06E
:100FD000C1CFB70180E390E00E947E091150BCCFE1
:100FE0008FEF9FEFF8CCF5E0512C9F1670F084E066
:100FF000592C581A83FC07C0B70180E290E00E9488
:101000007E095A94C9F7011529F0B701802F90E0A5
:101010000E947E0904E510E033FC02C008E510E000
:10102000282D2071822E83CDAA1BBB1B51E107C046
:10103000AA1FBB1FA617B70710F0A61BB70B881F68
:10104000991F5A95A9F780959095BC01CD010895F7
:10105000A1E21A2EAA1BBB1BFD010DC0AA1FBB1FBC
:10106000EE1FFF1FA217B307E407F50720F0A21B2E
:10107000B30BE40BF50B661F771F881F991F1A949B
:1010800069F760957095809590959B01AC01BD01C5
:10109000CF010895A29FB001B39FC001A39F700D1F
:1010A000811D1124911DB29F700D811D1124911D70
:1010B00008952F923F924F925F926F927F928F92FC
:1010C0009F92AF92BF92CF92DF92EF92FF920F93D7
:1010D0001F93CF93DF93CDB7DEB7CA1BDB0B0FB6E1
:1010E000F894DEBF0FBECDBF09942A88398848889E
:1010F0005F846E847D848C849B84AA84B984C88434
:10110000DF80EE80FD800C811B81AA81B981CE0F2A
:10111000D11D0FB6F894DEBF0FBECDBFED0108950F
:10112000283008F027E03327DA01990F311D87FDB9
:10113000916000966105710539F432602E5F3D9330
:1011400030E32A95E1F708959F3F30F0803871052C
:10115000610509F03C5F3C5F3D93913008F0806889
:10116000911DDF93CF931F930F93FF92EF92192F4F
:10117000987F9695E92F96959695E90FFF27EA585F
:10118000FB4E99273327EE24FF24A701E7010590A2
:101190000894079428F4360FE71EF81E491F511DC6
:1011A000660F771F881F991F0694A1F70590079473
:1011B00028F4E70EF81E491F561FC11D770F881F20
:1011C000991F661F0694A1F70590079428F4F80E5E
:1011D000491F561FC71FD11D880F991F661F771FF4
:1011E0000694A1F70590079420F4490F561FC71FD6
:1011F000D81F990F661F771F881F0694A9F784913F
:101200001095177041F0D695C79557954795F79467
:10121000E7941A95C1F7ECE1F4E168941590159103
:1012200035916591959105907FE27395E118F10AEA
:10123000430B560BC90BD009C0F7E10CF11E431F3D
:10124000561FC91FD01D7EF4703311F48A95E6CF66
:10125000E894015030F0080F0AF40027021708F450
:10126000202F2395022F7A3328F079E37D932A9556
:10127000E9F710C07D932A9589F6069497956795AE
:10128000379517951794E118F10A430B560BC90BC4
:10129000D00998F023957E9173957A3308F070E326
:1012A0007C932013B8F77E9170617D9330F0839525
:1012B00071E37D9370E32A95E1F71124EF90FF909D
:1012C0000F911F91CF91DF91992787FD90950895F8
:1012D000FC010590615070400110D8F78095909501
:1012E0008E0F9F1F0895FC01615070400190011006
:1012F000D8F7809590958E0F9F1F08950F931F9399
:10130000CF93DF93182F092FEB018B8181FD09C04B
:101310001FEF0FEF812F902FDF91CF911F910F9132
:10132000089582FF14C02E813F818C819D812817F2
:1013300039073CF4E881F981CF01019699838883CC
:1013400010838E819F8101969F838E83E3CFE885F2
:10135000F985812F0995892BA1F3DACFFA01AA2704
:10136000283051F1203181F1E8946F936E7F6E5FE8
:101370007F4F8F4F9F4FAF4FB1E03ED0B4E03CD096
:10138000670F781F891F9A1FA11D680F791F8A1F79
:10139000911DA11D6A0F711D811D911DA11D20D0E0
:1013A00009F468943F912AE0269F11243019305D9A
:1013B0003193DEF6CF010895462F4770405D41938B
:1013C000B3E00FD0C9F7F6CF462F4F70405D4A33D8
:1013D00018F0495D31FD4052419302D0A9F7EACFA0
:1013E000B4E0A6959795879577956795BA95C9F7CF
:1013F00000976105710508959B01AC010A2E0694C2
:101400005795479537952795BA95C9F7620F731F7A
:10141000841F951FA01D0895F894FFCF00407A10F7
:10142000F35A00A0724E18090010A5D4E80000E895
:101430007648170000E40B54020000CA9A3B0000F3
:1014400000E1F505000080969800000040420F0082
:101450000000A08601000000102700000000E80343
:10146000000000006400000000000A00000000000E
:101470000100000000002C76D888DC674F0823DFCD
:10148000C1DFAE59E1B1B796E5E3E453C63AE651A0
:10149000997696E8E6C28426EB898C9B62ED407CC7
:1014A0006FFCEFBC9C9F40F2BAA56FA5F490055A63
:1014B0002AF75C936B6CF9676DC11BFCE0E40D4788
:1014C000FEF520E6B500D0ED902E030094357705AB
:1014D0000080841E080000204E0A000000C80C3363
:1014E0003333330F986E12831141EF8D2114893BF2
:1014F000E65516CFFEE6DB18D1844B381BF77C1D72
:10150000901DA4BBE424203284725E228100C9F1C4
:0615100024ECA1E53D27DB
:1015160000000003000000009F019A010000EFF8A0
:10152600F9F3E8D9BB9C868390969794816B605DAE
:101536005D5C5B5C5C5B5B5B5B5C5C5B5B2121229B
:10154600221E1917161414110D0A080706040200A4
:1015560000000000000000000000000029272626E9
:1015660028292826282927262627292624272F67BB
:10157600B7DBEEFCFE030DFFF6F6EC180E080602CE
:101586000402000000000000000000000001132219
:10159600232424272521241B10122C2D2C2C4168B2
:1015A60087AED6E9787EF4DC3EA7825A45383330DA
:1015B6002D2D2C2A2B2A2C2B2A0C07080A0C0E124E
:1015C60020262426221A1616120F16171615120D85
:1015D6000500000000000000BFCDCCB071888797E1
:1015E6006F50403934312F2E2C2C2C2C2C2D2D2D98
:1015F6002D2D2D2E2E2E2E21232423211C1B1A1891
:101606001A1C18120C060200000000000000000060
:101616000000000000003B38332E2B2B3751599029
:10162600B19BCDD1F3F3CBA0DC7A7D7C5B46392E22
:101636002927272625424445382016191E211C2015
:101646002324292C2B2927231F1D1C18130D0B09B6
:10165600050200009CA7978A9BA3A14CA6967B6DCA
:10166600625C56627E9697969F4A9A9B9C99AAA818
:101676008C837D0D0F1719181D27302D1E130E098B
:101686000B100F0D0E0F13151313130F0D1526291F
:101696002424252726252627262428262428262FDF
:1016A6003A3E423D35322A2726293A6EB6E3FF08EE
:1016B6000C090605030000010404040403011338A1
:1016C6005B706A66633E13020D1F29282624201FBD
:1016D600474F4E4B4E546373849E9E997C52526F75
:1016E6005E888860463D3B39332E2D2D2D2C2C4CA3
:1016F600483E322014161D262B251E1D1D1C1918AA
:1017060016130D0C0D090807040201010000B9DDCE
:10171600F4FFE69B655F5F52403A3A3A3939393908
:10172600383839383939393839393838392F313143
:101736002D241E19100B0D0B0602000000000000E0
:10174600000000000000000000000000BEE2F5F707
:10175600DFA68C8E7C63514E4F4F4E4E4F504F4EF0
:101766004F4F4F4E4F4F4E4E4E4E4F363A3A2E1F1C
:10177600150E0A0B08050401000000000000000019
:1017860000000000000000000000C5E1F3F6F4F6DA
:10179600EBDDD1C2B4A79C907D695A4E4A463F3ACA
:1017A6003837373636373736363D3F434548494171
:1017B60039322A26231C130F0C0A090706050402D0
:1017C60001000000000000003D3937393A40423C34
:1017D6004D6A60637A7E808496B1D2EBF4F8FAFFA4
:1017E600FDEBE4CDB3A99B220E0400000404000324
:1017F6000A0B0707080E16293535332C30373E43BA
:10180600464232302E26F0F3F8F8F7E2AD795A4B1D
:10181600433E3B3A3A39383737383838383838382B
:101826003838383838292D2C2D2C2924201F2324EC
:101836001D150C0300000000000000000000000061
:10184600000000007F848682ABEDFFF4F9FEFAD932
:101856009C715D4D3F3B3C3C3B3939393838393911
:10186600393838161312141B2531312F36333431DB
:101876001D1C29302A120200000000000000000092
:1018860000007182A2C9DED3CBCED0D6DCE5DED491
:10189600E5DDB8957A68564644423F40403E3E3FB5
:1018A600401C1F2224252A2C2C2E313636312C287A
:1018B60028201B160D0B0702000000000000000088
:1018C600AEC6CED5DEE9F3F8F0E3DCDDD4B18E7634
:1018D6005D4C433F3E3E3E3D3D3E3E3E3D3D3E2809
:1018E600292B313334353838332A2523211C150F5B
:1018F6000C07030100000000000000000000A20425
:10190600A504A904AF04B404B704BC04C104526519
:10191600636F7264696E672E2E2E2020202000438E
:101926006C617373696679696E672E2E2E202000AE
:1019360044657465637465643A2020202020202065
:1019460000202020202020202020202020202020B1
:1019560020004F4E004F4646005354415254005308
:10196600544F5000555000444F574E004C45465476
:1019760000524947485400554E4B4E4F574E0000B3
:00000001FF
