:100000000C943E1D0C945B1D0C945B1D0C945B1DAD
:100010000C945B1D0C945B1D0C945B1D0C945B1D80
:100020000C945B1D0C945B1D0C945B1D0C945B1D70
:100030000C945B1D0C945B1D0C945B1D0C945B1D60
:100040000C945D1D0C945B1D0C945B1D0C945B1D4E
:100050000C945B1D9DC7DDE5ECFFFCE8E2EEEED302
:10006000A48064595D4E392C271D1511080606031E
:10007000030300000000000000000000000000007A
:100080000000000000000000001B1D1D1E1F1F229D
:10009000221A1413121518201E111215120D0E100B
:1000A0000E1118151B2323000000000000000000A3
:1000B00000000000000000000000000000000E171B
:1000C000234F5B345BB4A48159173C66463E5146CE
:1000D000211D2108060402020200000000000000A9
:1000E0000000000000000000000000000000000010
:1000F000000000252E211119271D132C4B3E150A37
:100100000A040206060200000000000000000000D1
:1001100000000000000000000000000000000000DF
:100120000000000000000000080E17131111060F58
:100130001B170C0806020404060806020000000053
:1001400000000000000000000000000000000000AF
:100150000000000000000000000000000008061D74
:100160002A151B212A230E232515232723190604CC
:100170000204060200000000000000000000000071
:10018000000000000000000000000000000000006F
:100190000000667E40E8FF7E76A4831F13231F08BD
:1001A000060A0E0E0A0602040402020406040202F3
:1001B000000000000000000000000000000000003F
:1001C00000000000000000ABEDF6FFF9F5F1F1FCD6
:1001D000FAEDD8C9C6D0D7BDA3A7B0A8A5ABA6A134
:1001E000A5A49893A0A294A1AF9B775330170E08B3
:1001F0000403030302020201000000001D1B1B1D7B
:100200001D1B150C08080A0E0F13120909131912E9
:100210000E0F0D0D0E0E0D0E0F0E0D10151A1C1BD0
:100220001E1D1B1C1917231D172B2A1F2E00000033
:1002300000C2FF77255265503D38386C889F85672E
:10024000673A546C59492538461A1E422F3149469F
:100250002C4B7E59422305090705020000000000CF
:1002600000000000000025364B835B3D3D2F2A2116
:100270001C171A0E0E101A281C070709050C13105C
:100280000C100E090913100C15130E0C02020000BD
:10029000000000000000000000000007102A1A09FA
:1002A0002C311C150E09090E101015170E07070921
:1002B00002050E10090505090C070505213A23134F
:1002C0000C0202000000000000000000000000001E
:1002D000212F443F251C0E10282A150E0C0C212816
:1002E0001A171010131C281C1E1E100707090505DD
:1002F000172C1C1009020202000000000000000080
:10030000000000000059774B50989D755E4B3328D4
:100310003369542836362A28312A21171A23171C04
:100320001C3369522F6559382A1C1C07050200022C
:10033000020000020507000000009EE5EAF4FEFF4F
:10034000F6DCD4D5D6D6C0A9A2A7ABABB2AA8E7420
:10035000666C76768096A7A7977D5B3C2310060394
:10036000020202020202020202020200000000294E
:1003700023221C161619171315100C121415120E21
:100380000D0A070A1012121311131C211F1E1C182C
:10039000100913232823212320191419180C0C16D3
:1003A000000000000D6D965F5235122126120C05DB
:1003B000295C523B4A3840562C0F19363617120F1B
:1003C000070A120F050303020000000000000000EE
:1003D000000000000000000000232B240F1E312E1F
:1003E00027241C0F0F0F0C0A0A080A0C0A08050A1A
:1003F00007050C080D1A10050A0A0200000000008B
:100400000000000000000000000000000000211FAC
:100410002731302B261E0F080808070D0D0C0D077D
:10042000030A0805070505070D0C14150803020348
:1004300002000000000000000000000000000000BA
:100440000000003047291F1C35380F120D07081017
:10045000151F24170C0C101A1F1F231A151A1A1512
:100460001A1C150A03030000000000000000000031
:1004700000000000000000001E8CFFA16B632B2C0D
:100480003A33100808151F140F1217191410100F03
:10049000232710121E2140481C08050307070202EB
:1004A00005050200000202000000000000A7E1FFB5
:1004B000F8F0F0F3E9D5BA98838391A0AABFD7E703
:1004C000E9E4DABD9A7F675245403F3D3A3122194F
:1004D000130F0C07060603030300000000000000D2
:1004E0000000282B28261D1413130D0D151A1B1B95
:1004F000161013110A0808070708070B1415110D29
:100500000A1318140E090908121A191D1B1D0000E0
:1005100000000000000000192719061C2A131927E3
:100520002C4050566C774035371143532721211307
:100530000E0E16211C0E110E060300000000000016
:10054000000000000000000000000000562C59BF11
:100550008D2A1C2116191E130E0B08030611160EE8
:100560000B08080E110B11161106060603000000F9
:10057000000000000000000000000000000000007B
:100580000006131C1308191E130B0B0E0306060698
:10059000080B110E06060603030B110B06030303DB
:1005A000000000000000000000000000000000004B
:1005B0000000000000000B110B0E1927190E190E78
:1005C000060E1111110B080B0B0B06060806080B83
:1005D000060603000000000000000000000000000C
:1005E0000000000000000000000000403A6764596D
:1005F00035B7FF7D3D162F453732272F270E191EA1
:10060000272108130E030808060808060608060333
:1006100003080B08030303000000000000000000B3
:10062000D1DEEAF6F8F7F7F8FEFFFFF6E8D2B09F62
:10063000A8A2835A463D2B1F140B04040303020295
:1006400000000000000000000000000000000000AA
:10065000000000000031332F3031322A1B141312F6
:1006600012131617120A090C0A0D100A0707090DB2
:100670000C0F161A17000000000000000000000018
:10068000000000000000000000001D160D3B413B73
:10069000341E3321060C2120131F1E14130E0908CB
:1006A000070302010000000000000000000000003D
:1006B0000000000000000000000000000000000D2D
:1006C000141F19120E0B0C2C2E0E0D0D0A05020311
:1006D0000403030201020201000000000000000008
:1006E000000000000000000000000000000000000A
:1006F0000000000006090D1123190E150C060A0C46
:10070000090F0D06060705020101010000000000A7
:1007100000000000000000000000000000000000D9
:1007200000000000000000000009141A140D0B1155
:1007300017130D13120811161517141009050201CD
:1007400001000000000000000000000000000000A8
:10075000000000000000000000000000000052FF48
:10076000D0FFFF6BB38629392919080708091D1E18
:100770000903040807040201000000000102000050
:100780000000000000000000000000000000000069
:10079000000000777DB7EAF0F0FFFBE5C3A1663506
:1007A0002015110F0F0B08090B11110D172D4C40BF
:1007B000356A979399642D2F3B42312F26191720C4
:1007C0001C00000000000000241C202A2A272320EF
:1007D00020180B0D16181F343A32445444261310B7
:1007E00011130D0406090403060409080E0F010184
:1007F000060B1D1D11150000000000000037071535
:100800001C1C60CFFF8A53531507070E070707000C
:10081000070700070000070E0E0E07070E07071553
:100820001C0E070E0E0E150E070E0700000000002E
:1008300000001C2237679F6745604C1C07070707AD
:100840000E07000000000000070000070000000085
:100850000007000000000000000707000707000075
:10086000000000000000000700070E0E15150E0E18
:100870000E0000000007000007000000000000005C
:10088000000007070000070E0E0700000000000729
:100890000707000000000000000000000E070E1512
:1008A0000E0E0E0707070700000000070E0E0007D8
:1008B00007070000000007000000070E150E0000EB
:1008C000000000000707000000000000000000001A
:1008D000000E1C30837567601C30295AACE3913ED2
:1008E0003E377C673E302222150E0E0E0E0E0E0E87
:1008F0001C221C0E070E070E1C150707070E0E0004
:10090000000000000000B7C4DEE9F0FFDCBBAC690A
:100910002E23211614110F0D0B0D0D0D0B0B0B09B2
:1009200009090B0B0D16160D111A1A1825000000D7
:10093000000000000000000000000023252A2724FA
:100940002117110B0C161E2A3F443D444E61635E75
:100950005F4D3F3B3C3A2D27261A152723140F11D4
:100960001A1000000000000000000000000000005D
:100970003D47ADCC7099850A14140A0A141F1F1440
:100980000A0A0A000000000000000000000A0A1421
:10099000140A0A0A00000000000000000000000025
:1009A00000000000007085668566331F2933140A35
:1009B0000A0A0A0000000000000000000000000019
:1009C000000000000000000000000A0A0000000013
:1009D000000000000000000000001F1F1414140A93
:1009E0002929140A0000000A000A0A00000A0A0065
:1009F0000000000A0A0000000000000000000000E3
:100A000000000000000000000000000000000014D2
:100A1000140A1F33293D331414140A0A141F1F1417
:100A20000A0A1F14000A0000000000000000000075
:100A300000000000000000000000000000000000B6
:100A400000000000FF85D6B85C3D8FAD3333667A79
:100A5000ADA32966853D335C523D333D663D331F72
:100A60000A140A1414142929140A0A0000000000A8
:100A70000000000000000000009BA1CEF3FFF7B6CD
:100A800080603F35271F1816120C0A0A0806060454
:100A9000060A0A0E100E100E0A0C0E0C00000000C2
:100AA00000000000000000000000000000001F1F08
:100AB0002022231F140C0B0A10131318161F33388F
:100AC000383F3D3E513C15150F080F0904080F1122
:100AD0001600000000000000000000000000000000
:100AE000000000B8B8B8CC8F5C6666471F0A1414C3
:100AF00000000000000000000000000000000000F6
:100B000000000000000000000000000000000000E5
:100B100000000000000000006647335C857A473D16
:100B200033140A0A0000000000000000000000006A
:100B300000000000000000000000000000000000B5
:100B4000000000000000000000000000001F140A68
:100B50000A1F291F0A0A0A0A0A0A0A00000A0A0AC0
:100B60000000000000000000000000000000000085
:100B70000000000000000000000000000000000075
:100B800000001F0A000A1F291F0A0A00000A141485
:100B90000A000A0A0A0A0A00000000000A0A000005
:100BA0000000000000000000000000000000000045
:100BB00000000000000000FF855C5266523D473394
:100BC0003D5229000014291F1F140A0A0A291F0078
:100BD000000A140A0A1F291F0A0A00000000000068
:100BE0000000000000000000000000007B799DCCA8
:100BF000F4FFBE7E60342119120D0A0705070705B0
:100C000005030303030305030305030200000000BB
:100C100000000000000000000000000000000000D4
:100C200000292A2726262319131820180F1A1D26F3
:100C3000424F48453E2F343D2F231C141E26161EBE
:100C40004000000000000000000000000000000064
:100C50000000000000002126433F646421150D15AB
:100C6000150000040000000000000000000000006B
:100C70000000000000000000000000000000000074
:100C800000000000000000000000001D212E584759
:100C900019080D19110808040000000000000000E8
:100CA0000000000000000000000000000000000044
:100CB0000000000000000000000000000000000034
:100CC0000804080811110D080000000004000000CD
:100CD0000000000000000000000000000000000014
:100CE0000000000000000000000000000000000004
:100CF00000000000000811111521261D080404043D
:100D000004040400040404000004000000000000C7
:100D100000000000000000000000000000000000D3
:100D2000000000000000000000004F4F968296FF78
:100D3000A72E0D11150D0D081511080D1519110807
:100D40000404040000000404040400000000000087
:100D50000000000000000000000000000000006D26
:100D60006C73A1DBFFE1AE94663B231A140E0C0AF0
:100D70000909090707070706060607060607070702
:100D800007090A0000000000000000000000000049
:100D9000000000002F2D24232727211B170F1112DD
:100DA0001420353F3C38302D2D2D292B3032281E74
:100DB000201B282E26231612000000000000000031
:100DC0000000000000000000004A2F36654A6BAEAC
:100DD000A1804A2F1B0D000700000000000000004A
:100DE00007000000000000000707070007000000E0
:100DF00000000000000000000000000000003C3C7B
:100E00005E868D8643141B140D0707070000000043
:100E100000000000000707000000000000000000C4
:100E200000070000000000000000000000000000BB
:100E300000000014070D141B1B2214000700000003
:100E400000000000000000000000000000000000A2
:100E50000000000000000000000000000000000092
:100E60000000000000000000280D0D1422222214B2
:100E700000070707070D070000000700000000003B
:100E80000000000000000000000000000000000062
:100E90000000000000000000000000000072805E02
:100EA0004357C3FFAE3C2F3628221B223636285725
:100EB000652F1B1428361B0D070D1B0D070D0D0D7F
:100EC000070000000000000000000000000000001B
:100ED0000000506C78685C5EA4E9F5FFFFF9EDDE78
:100EE000DFF1F2EACFB9995B464E3E36311E161A53
:100EF000130B0A080808060606060606060606007C
:100F0000000000000000003C20252E2A222125227E
:100F10002020201C20241E1610141216241E161C1D
:100F20001712171D29384A3B20130E16140E1617D8
:100F30000D0F191E0000000000000000362F1D24B8
:100F4000282441689AE29768BEC6656FD0F4FFB066
:100F50003D2B41280B0B0707070400000000000091
:100F60000000000000000000000000000000000081
:100F700000190B121212121D2F414188B490815A90
:100F8000363624120E0704040B0B0000000000008C
:100F90000000000000000000000000000000000051
:100FA0000000000000000B1D240E07040B242B2062
:100FB0001D160B0B120E0E0B0B0704040407040482
:100FC000040407040000000000000000000000000E
:100FD0000000000000000000000000652832281911
:100FE0000B0B19201916120B070B07070707040034
:100FF00004070E0B040404070404000000000000B2
:1010000000000000000000000000000000000000E0
:10101000B0243965977356734F0ECDF49ECDA25D03
:10102000484128205A5A0E2F3219190E1919201D1D
:101030001612040704000004040404000400000065
:10104000000000000098B7DAF1F9FFFBF9EFDCE6E9
:10105000EDE2CC9263543A27231B151312100C0EA9
:101060000E0E0E0A0A0C0E0E0C0E10121013151393
:10107000121012000000000000001F212124211A7C
:101080001C2020201C1715161918121315182122C0
:1010900033464A453D4B4023231E101418161313A4
:1010A0001E1A0C0E120C0A0F000000000000003780
:1010B0003112163153686C7B533D68977E47371267
:1010C00006030609060303000003000003030303ED
:1010D00003030603000306090603030303000000DD
:1010E00000000000161F2847532B2E4D3D1C0931D0
:1010F0002E09161203030300000000000000000088
:1011000003000000000000000000000000000000DC
:10111000000000000000000000252831372B1609D0
:10112000090F161912090606030300000000030048
:1011300000000000000000000000000000000000AF
:101140000000000000000000000000000000282552
:101150001F22190C12191C0F090C030006060000AF
:101160000306090603030303000003030303030349
:10117000030603000000000003000003000000005D
:101180000000001612B5FFD1A0474D5C9065161601
:101190000F2E3119191616253728191C19161C1F60
:1011A0000F0303030C0C03090C030303060C0603D3
:1011B00003000000000000008872727DBCF6F8F2A7
:1011C000FAFFFBFBE6E0CCA188604E5341211B21D6
:1011D00018120D090B090705050505050705050585
:1011E000050500000000000000000000001D2D3873
:1011F0003F3828242623201E23241A130F0F1010F3
:10120000111929251E2528446366583A2D2F2826B2
:101210001C0E1F271D2528000000000000000000F4
:1012200000004C231A1A1D4053596359433D468010
:10123000694660302330130A0300030300000000F6
:10124000000000000000000000000000000000009E
:10125000000000000000000A0303101A16263046A2
:1012600076865C302026200A03030303000000007A
:10127000030000000000000000000000000000006B
:10128000000000000000000000000000030A13132B
:101290000D101A1D16100A030306060303000306A9
:1012A0000300030303000000000000000000000032
:1012B000000000000000000000000000000000002E
:1012C000001013101616161A161313100D0A0A0A18
:1012D0000A060303060603030306060303060300C8
:1012E00000000000000000000000000000000000FE
:1012F0000000000000001A2029493346899693FF18
:10130000C6494029533D131A291D16130A232616D0
:10131000131A1A1D16060606060603060A03030319
:101320000000000000000000000000716F88B0E3C2
:10133000FFFAF2F2F3E5DCD6AB71534C443C2B21BF
:101340001E171717110D0D0C0A0A0A08080A0A08B9
:101350000A080A0A00000000000000000000000067
:10136000181A1B191C1F1A16161110110F1115141B
:10137000100B071C35556185BEA8848C78412E273B
:10138000211F191F252224201F000000000000003B
:1013900000000000002D5A52697862969687FFE897
:1013A0005ABCDA782D1E261E0F0008080F0F080001
:1013B00008000808080800000000080000000000FD
:1013C000000000000000000000000F0F0F1E263C70
:1013D0004B4434263434160F08000008080000007F
:1013E00000000000000000000000000000000000FD
:1013F00000000800000000000000000000000000E5
:101400000816160F262D2D2D26160F080808080879
:1014100008000000000000000000000000000000C4
:1014200000000000000000000000000000000000BC
:10143000000000000F2D3C26160F0F16161E160F6B
:101440000808080F0800000000080F0808080F1619
:101450000F0800000000000000080000000000006D
:101460000000000000000000004B2D2678873C5251
:10147000628E8E441E4444080F2D4B807880803C41
:101480004B80CABC5234261E0F0800000F08080FFC
:101490000F0F000000000000000000000000927E1E
:1014A0007093C2DAEDF3E5DCEDFFFFF0D48C51610F
:1014B0004D2528291D110E0E0F0C0B0B090B0B08C7
:1014C00008090908060B0C090000000000000000D4
:1014D000000000151E292C242123212021201C1668
:1014E000141716130F122121172F4C4E706B6269BF
:1014F0003E281610191A110E1A231F191F0000007A
:101500000000000000000000222D241F1D3C4C386C
:101510003C3F48384C8879380D090B040204070415
:1015200002000000000000000000000000000000B9
:101530000000000000000000000000000004071090
:10154000121F316BA69A966726241209070202021F
:101550000204020200000000000000000000000081
:10156000000000000000000000000000000000007B
:1015700000000907121F22140B0B040009100704B6
:101580000B0702040200020200000000000000003D
:10159000000000000000000000000000000000004B
:1015A000000000000000001619221F1209161D0974
:1015B000040D14120D120B040402020202020002B6
:1015C000020402020202000000000000000000000D
:1015D00000000000000000000000000004121914C8
:1015E00069FDFFAC7257825C2F311014221B12224E
:1015F00019071B3122192A2A12090D0702020204B7
:1016000004020202040B00000000000000000000C1
:10161000004F4C4448434028110D0C2A77D4FCFF5E
:10162000F8DDCBC5A072533318100D08080C171A3B
:1016300013100B0708080907040900000000000048
:10164000000000000000939A8A8876664A264B7351
:1016500062351C1D202226251B141010101011139A
:10166000150F1B180207070404030F12112018009E
:101670000000000000000000000000050303030557
:101680000501000000010B1D160A243630210F0C45
:101690000600000103030101010101000000000038
:1016A000000000000000000000000000000000003A
:1016B0000B0803050E0D01000000000406060809D2
:1016C0000F141108020201010000000000000000D8
:1016D000000000000000000000000000000000000A
:1016E0000000000000160E06040A0C0501010006A9
:1016F00007020508070705010101010100000000BC
:1017000000020200000000000000000000000000D5
:1017100000000000000000000000100F0E140F0D6C
:101720000B03020607080A090E0F0A05020201014F
:1017300001000000000001010000000000000000A6
:101740000000000000000000000000000000007C1D
:101750003040675C4741351B0D27284B4F5BFFFF2F
:101760004A0A090F0F0904010000011112010101C9
:101770000202020000000101000000000000000061
:1017800000000000525443403D26160D111C589194
:10179000BCFFF5D4CD94674B261D1A0F070606062D
:1017A0000706060000000000000000000000000026
:1017B000000000000000000000A89690A6B1996506
:1017C0003C4C5F3C1C2121221D1A150E171A181AB9
:1017D0001C211A151C191311000000000000000044
:1017E00000000000000000000000000000000404F1
:1017F00005050200000004051414040D1D241B142B
:101800001B1205040204000000000000000000009C
:1018100000000000000000000000000000000000C8
:101820000000000905101205040402000205090762
:1018300005192B190907050400000000000000002D
:101840000000000000000000000000000000000098
:1018500000000000000000000E0E07050505020252
:101860000405090D05040D0D05040200000000002B
:101870000000000000000000000000000000000068
:101880000000000000000000000000000012191914
:101890001B1B1F1404040D0E07070D0E0B0504027D
:1018A0000000000000000000000000000000000038
:1018B0000000000000000000000000000000000028
:1018C0000000FFD4C65F585814051739412D5668DB
:1018D0002F2F2D0D090B0502050500000000020049
:1018E00000000000000000000000000000000000F8
:1018F000000000000000008F9C713C212C444C4FE4
:101900004D45341B0E3799CED4FCFFCDC5D38B3A51
:101910002C211B13100D0805050505060505000003
:101920000000000000000000000000002616151551
:101930002D6C8C8694978988817E78431D28302B66
:1019400028271A12140F0C11130E090D2530271811
:101950000C1816000000000000000000000000004D
:10196000001B110E0E0704060907050502010104FC
:1019700009141A110A15383F271507060601000039
:101980000000000000000000000000000000000057
:10199000000000000000050101000001040504042E
:1019A00007050201050602060E0B040A100A0401CF
:1019B0000000000000000000000000000000000027
:1019C00000000000000000000000000C0100010504
:1019D000060606090E0901010105060605040504AF
:1019E00005040202010000000000000000000000E9
:1019F00000000000000000000000000000000000E7
:101A000006010100000A100E2229150C0601060726
:101A100004040505050402010101000000000000A6
:101A200000000000000000000000000000000000B6
:101A300000000000003829090419A5A72D474923F3
:101A40001D161BA2FAFFA9979EE4E02D1D110607A3
:101A5000090602000001010101000101000000006F
:101A6000000000000000000000003938363330204C
:101A70000D0C2A76CDF3F1F9FFF2F7E2884C524BC8
:101A8000301A110D0B0A06040202020000000000C9
:101A90000000000000000000000000000000008EB8
:101AA000938F919EA39B835A2E18212825272924A2
:101AB0001F1B181212191B1819191D22201E1C2079
:101AC0000000000000000000000000000000000016
:101AD000000000000502000003030003053D53253C
:101AE0001F1D0E020625280B0B0B0808050202021B
:101AF00002000000000000000000000000000000E4
:101B000000000000000000000003060603020200BF
:101B1000020306171A202D190E364D230B08050354
:101B200002020202000000000000000000000000AD
:101B30000000000000000000000000000000140F82
:101B4000110F0E0B030308050614252E2514171973
:101B50000903030202020000000000000000000070
:101B60000000000000000000000000000000000075
:101B70000000001D22261F170903080E1117333716
:101B80001C141F1C0E0905030202020200000000C3
:101B90000000000000000000000000000000000045
:101BA00000000000000000006DFFE2C3B1503A20C9
:101BB0002D8168518C848953221D12140E09090647
:101BC00008050506030302020200000000000000F1
:101BD0000000000000000000000000000034383366
:101BE000231A1208040D369AF0FFF6E9EEFAF1C452
:101BF00084534A482D1B100D0B0B090505040406E0
:101C000000000000000000000000000000000000D4
:101C1000000068706F6F85977E6175622F1B1B24B3
:101C20003033261E1A181A1212160F11100D0F1229
:101C3000171D21180B00000000000000000000002C
:101C4000000000000000000404090C040000010171
:101C50000852591B120910112F4A2B13171108068D
:101C6000030100010100000000000000000000006E
:101C7000000000000000000000000000111310042C
:101C80000501000001050E242017160C16464C1BFA
:101C9000080301040401000001010000000000002D
:101CA0000000000000000000000000000000000034
:101CB00000040508090503000001040E1023472F46
:101CC000171E2416000101010000000000000100A1
:101CD0000000000000000000000000000000000004
:101CE00000000000000013190904040101010C1296
:101CF0001E1E203134413E1C05010101010100007E
:101D000000000001000000000000000000000000D2
:101D100000000000000000000000003A545E303275
:101D2000291103416E3ADDFF504388B988582605D2
:101D30000605040101010301010404010001000082
:101D40000000000000000000000000000000000093
:101D500081CBF8FFE0995444361A13100D0806059C
:101D6000040404050500000000000000000000005D
:101D70000000000000000000000000000000000063
:101D80000000000000292C2B2827261F191D2222C5
:101D90001C161D201F1F1819191500000000000037
:101DA0000000000000000000000000000000000033
:101DB000000000000000000000002727271D272743
:101DC00022272C1405050000000005000005000076
:101DD0000000000000000000000000000000000003
:101DE000000000000000000000000000000000589B
:101DF0004E766C4A360505050A050505000000000B
:101E000000000000000000000000000000000000D2
:101E100000000000000000000000000000000000C2
:101E20000000000022363B5D7B31050A0A050005F3
:101E300000000000000000000000000000000000A2
:101E40000000000000000000000000000000000092
:101E50000000000000000000001414277B6C0F0538
:101E60000A0A050000000000000000000000000059
:101E70000000000000000000000000000000000062
:101E800000000000000000000000000000006C8E58
:101E9000F0FFBA532219190F0A0A0A0500000A0AAC
:101EA000000005000000000000000000000000002D
:101EB0000000000000000000000000000000000022
:101EC00000000080B3D7D7EBFFA653403C392B204E
:101ED00017110E0B070400000000000000000000B6
:101EE00000000000000000000000000000000000F2
:101EF0000000000000000000313941423324252752
:101F00001F181A1B1B1917181D212800000000009C
:101F100000000000000000000000000000000000C1
:101F200000000000000000000000000000050C0C94
:101F3000101E3123090505090500020202000000F8
:101F40000000000000000000000000000000000091
:101F50000000000000000000000000000000000081
:101F600000001E130E1515171C0E07090C070202A0
:101F7000020000000000000000000000000000005F
:101F80000000000000000000000000000000000051
:101F9000000000000000001017131017150E0905AF
:101FA000020202000000000000000000000000002B
:101FB0000000000000000000000000000000000021
:101FC0000000000000000000000000000E23271E9B
:101FD00027230E0907020202000000000000000093
:101FE00000000000000000000000000000000000F1
:101FF00000000000000000000000000000000000E1
:10200000001E3A43A7FF944835130C0C0905020043
:1020100000020200000000000000000000000000BC
:1020200000000000000000000000000000000000B0
:1020300000000000000074B1DBF4FFFFFFECA96FAB
:102040004D291E18140F08080A0806060605000088
:102050000000000000000000000000000000000080
:10206000000000000000000000000027292A2A2AA2
:102070002A2A25201C1D2627271F13171B18161474
:102080001418200000000000000000000000000004
:102090000000000000000000000000000000000040
:1020A000182F3B1B141B2B4B2F101414080408086B
:1020B0000404040404040400000000000000000004
:1020C0000000000000000000000000000000000010
:1020D00000000000002F567272472B5247140C0864
:1020E0000C080400000000000000000000000000D8
:1020F00000000000000000000000000000000000E0
:1021000000000000000000000000182B372F1F37D0
:10211000525A4B10040804000000000000000000A8
:1021200000000000000000000000000000000000AF
:102130000000000000000000000000000000001F80
:10214000232F43432F37331B0C08040000000000EB
:10215000000000000400000000000000000000007B
:10216000000000000000000000000000000000006F
:1021700000000000564E99ADA991D8FFA9471F272E
:10218000140C0C0C04080C080404040400000000E7
:10219000000000000000000000000000000000003F
:1021A000000000000000000000626DA6D9F7FFC724
:1021B0008C55221812110E080507050707000000AC
:1021C000000000000000000000000000000000000F
:1021D00000000000000000000000000000002526B4
:1021E000272622221F16151816110D141D2120183E
:1021F0001C2600000000000000000000000000009D
:1022000000000000000000000000000000000000CE
:10221000000000794961927955DBDB3D1818000018
:102220000C0C000000000000000000000000000096
:10223000000000000000000000000000000000009E
:102240000000000000000000243D49559ECE9E6124
:10225000311818180C0000000000000000000000F9
:10226000000000000000000000000000000000006E
:10227000000000000000000000000000000C181822
:10228000186D9231180C0C000000000000000000D6
:10229000000000000000000000000000000000003E
:1022A000000000000000000000000000000000002E
:1022B0000000180C0C18496D55182424000000006B
:1022C000000000000000000000000000000000000E
:1022D00000000000000000000000000000000000FE
:1022E0000000000000000055493D55FFF36D3DAA78
:1022F000AA24180C180C18240C0000000000000080
:1023000000000000000000000000000000000000CD
:102310000000000000000000000000006F9DC5D715
:10232000E4FFF0B96E3F3A2E221B130F0C0707058E
:10233000000000000000000000000000000000009D
:10234000000000000000000000000000000000008D
:1023500000242F353C3E382D282F281D1919212106
:10236000201F29342B0000000000000000000000A6
:10237000000000000000000000000000000000005D
:102380000000000000001F0F1A0D17244D4B1A0FFC
:10239000030303030303000000000000000000002B
:1023A000000000000000000000000000000000002D
:1023B00000000000000000000000001C172129158B
:1023C0000D0A29290F050303030303000000000081
:1023D00000000000000000000000000000000000FD
:1023E00000000000000000000000000000000000ED
:1023F0000D15171A1731340F0305030300000000F1
:1024000003030000000000000000000000000000C6
:1024100000000000000000000000000000000000BC
:1024200000000000000D1517395A5027030305035B
:102430000303030003030303000000000000000087
:10244000000000000000000000000000000000008C
:102450000000000000000000000031345279A7FFA6
:10246000A01C1A1A0F0F080A0D0508080303000024
:10247000000000000000000000000000000000005C
:1024800000000000000000000000000000000061EB
:10249000554E3F4675AEE0FFF6D7C4BEC0C4D1C2AC
:1024A000AFA68C7D6B593A2D271714100C0C0B0816
:1024B0000500000000000000000000000000000017
:1024C000000000001111121118232F362B232B2E80
:1024D00029292F2F2B2D29201C1914181814120DFF
:1024E0000B111007080E00000000000000000000A3
:1024F0000000000000000000002F271815323218DD
:10250000180B1A201010181D2A3A3A5181513559CA
:10251000350D0B030308030000000000000000005D
:1025200000000000000000000000000000000803A0
:102530000303030B101515252008121A273532271F
:10254000201D150D0803000300000000000000001E
:10255000000000000000000000000000000000007B
:102560000000000500000005122D2D1A151D2A1867
:1025700012202210101205050503030000000000C0
:10258000000000000000000000000000000000004B
:102590000000000000000000050305030810121AE7
:1025A00022252022222A1D102020120B0D080003B4
:1025B0000303030000000000000000000000000012
:1025C000000000000000000000000000001D100DD1
:1025D0000B0D3A2FAEC31D6EFFD58E7E5959373580
:1025E00035272A0D08080303000303030303030030
:1025F00000000000000000000000000000000000DB
:102600000000776A6A80A8D0E3F7FBF1FFFCE5DB06
:10261000D6C19371635741241D1D0F0B0C0C0A0783
:1026200006000000000000000000000000000000A4
:1026300000000000000000121212121923292A2E95
:102640003D443A33312B2523221A111113120F0B5B
:10265000090E100C0910000000000000000000002E
:102660000000000000000000000000000F0F0A1929
:10267000252319201911141B253463524A5436207E
:102680000A070C0C05020000000002000000000018
:10269000000000000000000000000000000000003A
:1026A000000C07020202071B2A1605050C1E202A31
:1026B0002511110A050200000000000000000000C2
:1026C000000000000000000000000000000000000A
:1026D0000000000000000A0705050C252D322A1114
:1026E0000707070F11110C0705020000000000008A
:1026F00000000000000000000000000000000000DA
:1027000000000000000000000000000705070A119B
:1027100014192F34281B23405C3E160F05050502B3
:1027200000000000000000000000000000000000A9
:102730000000000000000000000000000000000099
:102740001911141B23D7DA889963C9C4D7FF6D2ADE
:102750001E0F1B14070707020202050500000000F8
:102760000000000000000000000000000000000069
:102770000000000000715B5C99CEEDFFF5E3DBE249
:10278000EADCCBB8A0978F8162473E302622161430
:10279000120D080404040000000000000000000006
:1027A00000000000000000000000110D1D2C252974
:1027B0002B2C3A403C3B393D3D35261B1C1A181545
:1027C00013140D080A0C0C0E0D142A000000000052
:1027D00000000000000000000000000000000019E0
:1027E0000E0A131B190C1025250E0417273A331F48
:1027F0003A4242461F0E151006020000000000007B
:1028000000000000000000000000000000000000C8
:10281000000000000202020204061015130E080E4A
:102820002B4C3A2B250E0E0A0A0604020200000069
:102830000000000000000000000000000000000098
:102840000000000000000000000202040E272B130D
:1028500010151B152D3C1D1517170A020204040242
:102860000200000000000000000000000000000066
:102870000000000000000000000000000000020254
:1028800002020E252729292D271F190C13151006C2
:102890000000020202000000000000000000000032
:1028A0000000000000000000000000000000000028
:1028B0000000000A0C101F293180BDFFF38A90AD83
:1028C0006B1F2F2B100A0A0E100A040404000000CC
:1028D00000020202000000000000000000000000F2
:1028E00000000000000000007986725F85C0ECFFE8
:1028F000F5EEF9E8D3C9B9BBA990835D4437262327
:10290000170D0C0C0C0D0A00000000000000000068
:102910000000000000000000000000000012111084
:102920001B2529352F282F35403F3930201C1919F8
:102930001A1313110C0F1110100C080B00000000DB
:102940000000000000000000000000000000000087
:102950000000285F694B3C231E4B55232328231E70
:102960005F825064826973411E23140500000005D4
:102970000000000000000000000000000000000057
:10298000000000000000000F0F0A14142D55371925
:102990003732195087AF6E19140F0A0F0505000062
:1029A0000000000000000000000000000000000027
:1029B0000000000000000000000000000A050014F4
:1029C0004B50506E5A50878241232D3723231405D4
:1029D00005050000000000000000000000000000ED
:1029E00000000000000000000000000000000000E7
:1029F000000A0A052D3C41644B5564505F50464B1C
:102A0000321E140F0A050505050000000000000035
:102A100000000000000000000000000000000000B6
:102A200000000000000023232D329BBE7DA5876996
:102A30005FAFCDAAFFD7551E3223231E0A05050519
:102A40000A0500000A00000000000000000000006D
:102A5000000000000000000000000076878581A4CF
:102A6000E1F6F2EDF4FBFBFBFFFEFCFBE7C39F8C02
:102A7000745B5C4C3B3629211D16110C09050504BD
:102A80000200000000000000000000000000000044
:102A90000E111111141D2324272620232C2C2B2446
:102AA0001C18161D1A110F0F0F0E0D0B0C0B07071C
:102AB000080E11171D1300000000000000000000A8
:102AC000000000000020181E160405101510090C47
:102AD0000E0F161A25362D2D24080B0B04030306A2
:102AE00008050302010202000101000000000000CD
:102AF00000000000000000000000030605080D0BA8
:102B00000E1106060A090510232329210A090805C2
:102B100007030202020201000000000000000000A2
:102B200000000000000000000000000000000003A2
:102B3000050507121C1C0F1616080F0C0C151108A2
:102B40000506070404040504040302010000000054
:102B50000000000000000000000000000000000075
:102B600000000000010303040F1A202B3630251C3F
:102B7000322F1A17191C130F07050503040400014F
:102B80000100000000000000000000000000000044
:102B90000000000000000000000F0D0D131B5C6121
:102BA0003E93FFEAABFFFFFFC38B773E1C16140C6E
:102BB00005030606040202010100000001020100F3
:102BC00000000000000000000000000000007296FD
:102BD0009BAED7F7FFFEFDF8FAE296594E3F2D2245
:102BE00019130D0806040405000000000000000091
:102BF00000000000000000000000000000000000D5
:102C0000000000121413151D1F1F24292D28202237
:102C100027222435343E5C5E483031466C0000008B
:102C200000000000000000000000000000000000A4
:102C30000000000000000000384B18202F183C5600
:102C4000494F4051542F241A09020202000000008B
:102C50000000000000000000000000000000000074
:102C6000000000000000000000000000000B0B0D41
:102C70000F0D090F202B2F2B2D1E090B0202040212
:102C80000202000000000000000000000000000040
:102C90000000000000000000000000000000000034
:102CA000000004090B0B202F3A3A363E2B201E0D54
:102CB0000F0F0604020200000000000000000000E8
:102CC0000000000000000000000000000000000004
:102CD000000000000000000404060B151313333A33
:102CE0001C333609040B0F0B0B0B06040400000009
:102CF00002000000000000000000000000000000D2
:102D000000000000000000000000000013242B7CE5
:102D1000ABA5FFB83136969A8992514B9A964D7C65
:102D20005815111A181A00000000000000000000D9
:102D30000000000000000000000000000000000093
:102D4000009696818B9AB1C3C7C9E2FDFFFFD67486
:102D50003836332217100D0A080A0B0B0807050531
:102D60000000000000000000000000000000000063
:102D70000000000000000A0E1012131414100F12AD
:102D8000202B22110E1E1C0F0F0D090E10081734D8
:102D90003A311D141C00000000000000000000007B
:102DA00000000000000000000000000D4B8365964D
:102DB000FF9D8DBE86582114211D0D0D0A000000B7
:102DC00000030003030703000000000000000000F0
:102DD00000000000000000000000000000000000F3
:102DE00007070A10100A0D0D141417211703000706
:102DF00007070300000000000000000000000000C2
:102E000000000000000000000000000000000000C2
:102E10000000000000070303070A0A070A07215FF2
:102E200048413803070D0A030000000000000303B7
:102E30000000000000000000000000000000000092
:102E4000000000000000000000000300000307076E
:102E50000A0D0D273E3B240D0A070A0A070300004E
:102E60000000030703000000000000000000000055
:102E7000000000000000000000000000000000074B
:102E8000070A1017100D142789CE93380A0D07036F
:102E900017241407030300070700070703030000B4
:102EA0000000000000000000000000000000000022
:102EB000000000008A83AAD1E4F4FFF6C2875B3DDC
:102EC000382F2015120C08080505080E110C0000FB
:102ED00000000000000000000000000000000000F2
:102EE0000000000000000000000B101010121F2B4B
:102EF0002E22101A25282B24160A0A0C0F17141A32
:102F000044554800000000000000000000000000E0
:102F10000000000000000000000000000000575EFC
:102F2000A1F8B052452F190F05070A0A0A07050232
:102F30000000000002070700000000000000000081
:102F40000000000000000000000000000000000081
:102F50000000000A0A0505071425190F11050507C9
:102F60000702000000000000000002020000000054
:102F70000000000000000000000000000000000051
:102F80000000000000000000050A111914192D327C
:102F90002F1602020A0A05050000000000000000CA
:102FA000020000000000000000000000000000001F
:102FB00000000000000000000000000000070705FE
:102FC000070F457C4F160F140F141907000000005F
:102FD00000000002070A05000000000000000000D9
:102FE00000000000000000000000000000000000E1
:102FF0000000050714140F347CFFC11B0F232D1E86
:103000001105050502000202020A0C07000000007B
:1030100000000000000000000000000000000000B0
:1030200000000000000000B59799B3D4EBECF0FD70
:10303000FFD28254413232291E140F0909070709B1
:103040000906040400000000000000000000000069
:103050000000000000000000000000000C0F13182A
:103060001818171B20242C2B16151E1A160C0A0CC8
:103070000E0E132039403B353B00000000000000DD
:103080000000000000000000000000000000000040
:103090000036858585FFFC773D52524E330E070A78
:1030A0000A0A030300000000000003000000000003
:1030B0000000000000000000000000000000000010
:1030C0000000000000000307111B1B1814222C1B1A
:1030D0002922030307070300000000000000030388
:1030E00000000000000000000000000000000000E0
:1030F000000000000000000000000003070A0E0AA4
:10310000071B4152413D2C18140707030000000023
:1031100000000003030000000000000000000000A9
:10312000000000000000000000000000000000009F
:103130000303070307030A22303325140E0E110A76
:10314000000000000000000003070303000000006F
:10315000000000000000000000000000000000006F
:1031600000000000001B1411110A18362C41747A5B
:1031700044140E0E3036180707030307070707002D
:103180000307000000000000000000000000000035
:103190000000000000000000000093AAC9EEFFF547
:1031A000F5FBF1E5BC73504734291F18130E0705D2
:1031B0000202050000000000000000000000000006
:1031C00000000000000000000000000000000014EB
:1031D0001817161F2E3636372D2C30252933393B3C
:1031E00054583224222946780000000000000000D4
:1031F00000000000000000000000000000000000CF
:10320000000000000F0F17291F233E292E3A151D1D
:10321000290E06080402020200000000000000005F
:10322000000000000000000000000000000000009E
:10323000000000000000000000110613342E170FDC
:10324000061B290F04060806040202000000000005
:10325000000000000000000000000000000000006E
:103260000000000000000000000000000000080A4C
:103270000F0F1F38614D211B15130C08060606069B
:103280000602000000000200000000000000000034
:10329000000000000000000000000000000000002E
:1032A000000000060E0C1127251D323429150C0ACA
:1032B0000F130C110F0804000000000400000000B0
:1032C00000000000000000000000000000000000FE
:1032D000000000000000000019212115647C68C76F
:1032E000FFBD8B49135B532A40231B1D0E0F0E0A93
:1032F00013000000000000000000000000000000BB
:1033000000000000000000000000000000305965CF
:103310006D7691C8F0FFF6E8E8DDCDC3C0CDBC996D
:103320007544241A140F0907050708070700000051
:10333000000000000000000000000000000000008D
:103340000000111D262735332926292F2F2F33352D
:103350003127222724181C211A161613151961A3C8
:103360009F95000000000000000000000000000029
:10337000000000000000002C654A223239280D119F
:103380000A1E3C4A40321E289EFF9A222525110D16
:103390000703000000000000000000000000000023
:1033A000000000000000000000000000030D0D14EC
:1033B0001414224346464622111E1E1B17171403DF
:1033C00003030000000000000000000000000000F7
:1033D00000000000000000000000000000000000ED
:1033E00000070D0A0A0D1714142C32251E396872B5
:1033F00072805B321E0A000003030000000000031D
:1034000003000000000000000000000000000000B9
:1034100000000000000007141E1B2F3C22282F1B59
:10342000171E222C28221711110D07030303000079
:103430000000070A07030000000000000000000071
:1034400000000000000000000000000D22251E1BEF
:1034500017223686B5D39E32BCC64054AB903C4052
:103460002C14070703000322362817000000000071
:10347000000000000000000000000000000000004C
:1034800068A3E9FCF9FFFFF0D4DBE2CAA88155325A
:10349000241F150E0D0B0A08070400000000000091
:1034A000000000000000000000000000000000001C
:1034B0000000000000292A282B333738322A242024
:1034C0001E1B1A150C0C0C0E123D6A7077705400FE
:1034D00000000000000000000000000000000000EC
:1034E000000000000000000000002D3D2A2D271DD7
:1034F0002A201327244A846B3D1D171A0D03000050
:1035000003030000000000000000000000000000B5
:103510000000000000000000000000000000000AA1
:103520001D2A37271730201A2A1D0A03060303060F
:103530000300000000030300000000000000000082
:10354000000000000000000000000000000000007B
:10355000000000000D241D101A243A5A6E47374A05
:103560003010060300030000000303030300000003
:10357000000000000000000000000000000000004B
:103580000000000000000000000610131330442A61
:103590001A201717241A0A06030303000000000369
:1035A000060603000000000000000000000000000C
:1035B00000000000000000000000000000001320D8
:1035C0008471B5FF7E4A2A27345A44100D030D0D2D
:1035D000030020200D131A1D000000000000000051
:1035E00000000000000000000000000000000000DB
:1035F0000000005C5F6981A6CBE2DFE3EFF0EFFA49
:10360000FFE6C19D88784E24150D090909090D0CA6
:10361000070604050606050505060605060706064F
:1036200000000000000000001112181C1D202222C2
:10363000232426272626221C1A1B171617181B19A7
:103640001B1C4A90986C3A28261B1B1E25291D1FFF
:10365000201A18202000000000000000000D0D2E90
:10366000413B2C2426110D11222A4372483D63351B
:103670001513060402020202020202020200000006
:103680000002020202020000000000000000000030
:1036900000000F0B0B060D110F0D353919221711F4
:1036A0002A281111110B0200020000000002000084
:1036B0000202000000020000000000000000000004
:1036C0000000000000000002020404061B2C2E244F
:1036D000110617262A281B0D0D110D0400000000ED
:1036E00000000202020000000000000000000000D4
:1036F0000000000000000000000000000808080FA3
:1037000017222217283F260F130F0B040200020472
:103710000200000202020204060200000002000091
:103720000000000000000000000000000000000099
:10373000000B0B0F264E545B69ECFFD7A476721773
:10374000201B0B0D0D17150404020624504A240FEC
:1037500004080B0202040404060404020002000030
:1037600000000000000067738AB6DBECDAC2BCA67A
:10377000A2C9F2FFE9BC865943372113130F0C0984
:1037800008080809090806050609080505080908C2
:103790000600000000000000000000191E2020208C
:1037A000212325232024282827241F1A1819171C11
:1037B000241A100F1116183051564D38211E1B2097
:1037C0002D26191C26250000000000000000000026
:1037D000336E99A6AEAE661E37482F22262F484874
:1037E000332F261508080D080404040400000404FF
:1037F00004040008080000040804000000000000A1
:1038000000000000001A221A080D1E3C48598CE6E0
:10381000FFAA733C1A1E1104080D080400000000E2
:103820000000000000000000000000000000000098
:103830000000000000000000000008040808081153
:103840001A2F2A1515153C4C44332A220808040463
:10385000000000000000000404040000000000005C
:103860000000000000000000000000000000001543
:103870000D08081533332222261A0D0822220804C7
:10388000040808040000000000000004040404040C
:103890000000000000000000000400000000000024
:1038A000000000001515221E487384884877FFDD4C
:1038B0005151A266222A221E1511110D000000008E
:1038C0002F48220D080D0804040404040004080015
:1038D000000000000000000000625E647A9BAEDA27
:1038E000FFEFDBCFC9CBBE9A8B6D42251413130FAC
:1038F0000908080707080708080507080807050753
:1039000008080808000000000000000000001B1D5F
:103910001D1F1E1F202124262527262525211D2089
:10392000252326251E1A1819204269775E40301F6C
:10393000211C18302E1F201D19000000000000005F
:103940000000004D2E1B12293B577264444D3B4D25
:103950006D493B2E292012090909050905050905AC
:103960000505050505050505050509050000000017
:103970000000000000000000171B0E09092040375E
:103980002017292429321B1212090005000000000B
:103990000000000000000000000000000000000027
:1039A000000000000000000000000000000E0909F7
:1039B0000E120E1B2E1B0E0E1B203B442E240E053A
:1039C00005050000000000000000050505000000DE
:1039D00000000000000000000000000000000000E7
:1039E00000000E0909050909091720202E2E170EBF
:1039F000120905090500000000000000000005058F
:103A000005050000000000000000000000000000AC
:103A10000000000000000040240E091217A8FFCD8E
:103A200076378D6D324D4D4D442009050E12090536
:103A3000090E3B4417241B0000000009120E0E0E55
:103A40001212000000000000000000001E31312CA6
:103A5000202E272320242D2E2A292A291F272123FF
:103A60001513181414221F211F261A1F1A1D19209E
:103A70001A2D2B2B6E616E00696E660011241FBE1D
:103A8000CFE5D8E0DEBFCDBF11E0A0E6B0E0E4EDC9
:103A9000F7E502C005900D92A830B107D9F724E0F0
:103AA000A8E0B1E001C01D92AB3BB207E1F70E9474
:103AB00023220C946B2B0C9400000F920FB60F92E4
:103AC0001F9211240F931F932F933F934F935F9354
:103AD0008F939F93AF93BF93EF93FF9344B155B1EF
:103AE00088B7886088BF8091600090916100A09144
:103AF0006200B0916300840F951FA11DB11D8C0160
:103B00009D01EAE03695279517950795EA95D1F737
:103B1000801B910BA20BB30B80936000909361000C
:103B2000A0936200B093630020910C0330910B03CB
:103B3000FAE0B695A79597958795FA95D1F7481B22
:103B4000590B80E8289FF0011124E30FF11DEE0FBF
:103B5000FF1FE55FFE4F5183408381E0830F3F37B6
:103B600099F080930B03FF91EF91BF91AF919F91DB
:103B70008F915F914F913F912F911F910F911F90C6
:103B80000F900FBE0F90189510920B0381E0820FDB
:103B900080930A0181E0282720930C03E4CF95B39A
:103BA0009F70282F207F922B95BBAA98A89A94E00B
:103BB0009A95F1F7A898E8E2F2E03197F1F700C0A2
:103BC000000095B38295807F9F70892B85BBA89A52
:103BD000F4E0FA95F1F7A89889E995E10197F1F7F2
:103BE00000C0089595B39F70282F207F922B95BB1E
:103BF000AA9AA89A94E09A95F1F7A898E8E2F2E0D8
:103C00003197F1F700C0000095B38295807F9F70D7
:103C1000892B85BBA89AF4E0FA95F1F7A89889E971
:103C200095E10197F1F700C008958FEF84BB8FEF06
:103C300097ED0197F1F700C0000082E00E94CF1DD0
:103C400088E20E94CF1D8CE00E94CF1D86E00E947A
:103C5000CF1D81E00E94CF1D89E995E10197F1F721
:103C600000C00895CF93DF93EC018991811103C0C7
:103C7000DF91CF9108950E94F21DF7CFCF93DF938C
:103C8000D42FC52F81110BC0862F8F7080686031B3
:103C90006CF08D2F9C2FDF91CF910C94321E8130D0
:103CA000C1F76031B4F7862F8F70806C0E94CF1DF2
:103CB000F0CF81E00E94CF1D89E995E10197F1F7EE
:103CC00000C080E80C94CF1DCF93DF93D62FC72F71
:103CD00090EC980F913440F40E94CF1D8D2F9C2FB3
:103CE000DF91CF910C94321EDF91CF910895811115
:103CF00006C0862F8F708068603144F0089581304F
:103D0000E9F76031DCF7862F8F70806C0C94CF1D43
:103D10000E94CF1D8FE084BBAA9AA99AA89A8AE430
:103D20008A95F1F793B3907FA898E8E2F2E0319793
:103D3000F1F700C00000A89AFAE4FA95F1F783B30E
:103D4000A8982FEF24BBA99882958F70892B08958E
:103D50008A98833059F4929885B7836085BF8AB773
:103D600080648ABF8BB780648BBF0895929A81303C
:103D700051F0823071F08111F2CF85B78D7F85BF10
:103D800085B78E7FEBCF85B78D7F85BF85B7816087
:103D9000E5CF85B78260F3CF8B98833059F4939841
:103DA00085B78C6085BF8AB780688ABF8BB780680B
:103DB0008BBF0895939A813051F0823071F0811158
:103DC000F2CF85B7877F85BF85B78B7FEBCF85B770
:103DD000877F85BF85B78460E5CF85B78860F3CFDF
:103DE000BA98833059F4C29884B7806484BF8AB784
:103DF00080628ABF8BB780628BBF0895C29A84B7F6
:103E00008F7BF4CF5F9BFECF8CB190E008955D9BDC
:103E1000FECF8CB980E090E008959B01AC0184E076
:103E2000220F331F441F551F8A95D1F760E070ECB5
:103E300088EA90E00E945E292150310929B930BDFD
:103E4000549A539A80B5866880BD08955F9B03C0DD
:103E50008CB190E008958FEF9FEF0895E5EBF4E0CB
:103E600084E690E0938382839183808308952F92E8
:103E70003F924F925F926F927F928F929F92AF92FA
:103E8000BF92CF92DF92EF92FF920F931F93CF9347
:103E9000DF93CDB7DEB729970FB6F894DEBF0FBE1C
:103EA000CDBF8A839B836C837D834E835F8329830D
:103EB000A12CB12C612C712C1886F12C22242A946F
:103EC000322C2101F301E45BF54C4F01C5018C5A02
:103ED0009F4F6C0195E09987F401E4908601298158
:103EE0004E815F816C817D818A819B810E946820E7
:103EF000462F572FBC01421553056405750518F46C
:103F0000F8841A012B01F985F150F9878FEF881A8F
:103F1000980A9DE8C91A9EEFD90AF111DDCFE8850C
:103F2000EF5FE887F5E06F0E711C81ECA81A88EF4F
:103F3000B80AE83039F68F2D29960FB6F894DEBF0F
:103F40000FBECDBFDF91CF911F910F91FF90EF90EA
:103F5000DF90CF90BF90AF909F908F907F906F90A9
:103F60005F904F903F902F900895883048F4E82F4D
:103F7000F0E0EE0FFF1FEE58FF4F80819181089512
:103F80008FEF90E0089528E2FC0111922A95E9F75D
:103F900008956F927F928F929F92AF92BF92CF922D
:103FA000DF92EF92FF920F931F93CF93DF9337E847
:103FB000632E30E0732EFC018C010C5E1F4F6B01F1
:103FC000770FEE08FF08E301A991B9913E018190B6
:103FD0009190A190B190A50194010E94A929DC01C2
:103FE000CB012EE0B595A795979587952A95D1F7A2
:103FF0008C0D9D1DAE1DBF1D40895189628973893D
:10400000841B950BA60BB70B808A918AA28AB38A70
:104010009F0124503109E90188839983AA83BB83D6
:10402000E017F10781F6DF91CF911F910F91FF907B
:10403000EF90DF90CF90BF90AF909F908F907F9048
:104040006F9008950F931F9324E0629FF001112455
:10405000E80FF91F008111812281338137FF07C0EA
:1040600030952095109501951F4F2F4F3F4F448954
:1040700055896689778977FF07C070956095509557
:1040800041955F4F6F4F7F4FDB01CA010417150742
:104090002607370710F4D901C801B695A79597955B
:1040A0008795401751076207730710F4B901A801FB
:1040B000840F951FA61FB71F009721E0A207B10527
:1040C00020F08FEF9FEFA0E0B0E01F910F910895D7
:1040D0002F923F924F925F926F927F928F929F9218
:1040E000AF92BF92CF92DF92EF92FF920F931F9306
:1040F000CF93DF93CDB7DEB76B970FB6F894DEBFE3
:104100000FBECDBF888799876A877B874C875D877D
:104110002A8F0E871F87211509F491C1E11409F434
:104120008EC1822F90E00E2D10E09801220F331FD8
:104130004A8D2417310508F482C1880F991F801712
:10414000910708F47CC1E41608F0DFC04E194983DA
:1041500099819B5F9B8F8A8D8E1508F48E2DAB8D78
:10416000A81710F081508B8FBFEFBE0DBD8B000FD5
:10417000111F000F111FA8016FEF70E08DE093E099
:104180000E94CB2AA8016FEF70E081EE93E00E94BD
:10419000CB2AFB8DEF2FF0E0FC83EB83412C512CDD
:1041A00011E01D822E2D30E0398B288B21503109F2
:1041B0003B8B2A8B4C8A3B8D242D231B341508F016
:1041C00020E08B819C81A889B9890B818A179B0784
:1041D0000CF00D89222E312C211591F0F10131972F
:1041E000B5E3B19FE00DF11D1124EE0FFF1FEE0F9F
:1041F000FF1FE35FFC4F2FEF208321832283238364
:10420000E02FF0E04A895B89041715068CF431969B
:1042100055E3519FE00DF11D1124EE0FFF1FEE0F2E
:10422000FF1FE35FFC4F8FEF808381838283838353
:10423000812F90E091958195910985739927820D41
:10424000931D880F991F880F991FDC01A35FBC4F36
:10425000BF83AE83BD818B2F90E0919581959109AD
:1042600085739927820D931D880F991F880F991FB9
:10427000FC01E35FFC4FFA83E9836E847F84620C68
:10428000731C28853985240D351D3F8B2E8B4A855F
:104290005B85440D551D598F488F822C0215F0F512
:1042A0005FEF451A550A8B819C8101969C838B8315
:1042B0009A8D491678F1EA89FB89A5E31A9FE00DEA
:1042C000F11D1124EE0FFF1FEE0FFF1FE35FFC4FE8
:1042D00060817181828193816B960FB6F894DEBF05
:1042E0000FBECDBFDF91CF911F910F91FF90EF9047
:1042F000DF90CF90BF90AF909F908F907F906F9006
:104300005F904F903F902F9008955E2D8A8D581B9F
:1043100059831ECF8D811D83182F4CCFF3018491BB
:10432000EE89FF89A081A81BBB0B9D010E948029FB
:104330006B017C01F301F5968491E88DF98DA081E4
:10434000A81BBB0B9D010E9480299B01AC01A6E02C
:10435000B0E00E949E29C60ED71EE81EF91EAC844E
:10436000BD84A40CB51CF301E659FF4F41E950E0B0
:104370008491D5019C91292F281B330BDA019D9044
:10438000AD01D9010E9480299B01A92DB0E00E94B6
:104390008829C60ED71EE81EF91EB5E3AB0EB11C68
:1043A000F59620E04639520719F78C89882981153E
:1043B000D9F1E981FA8180819181A281B38181144F
:1043C000C1F0EE81FF817291629152914291E98137
:1043D000FA81B290A2909290829088169906AA06CD
:1043E000BB0610F4D501C401481759076A077B07BB
:1043F00018F18F3FFFEF9F07AF07BF07C1F4EE81B2
:10440000FF8181939193A193B193FF83EE832981DF
:104410003A812C5F3F4F3A8329833FEF631A730A37
:104420004FEF241A340A39CF80E090E0DC018C0D84
:104430009D1DAE1DBF1DE3CFDB01CA01F8CF6FEF9D
:104440007FEFCB0149CFCDB7DEB7C85CD1400FB607
:10445000F894DEBF0FBECDBF60E875E280E090E06B
:104460000E940D1F0E942E1F1FBC1AE01EBD8CEA69
:1044700090E09BBD8ABD99BD88BD83E087B98EEE73
:1044800086B980B78F7180BF80B7806A80BF78940B
:104490000E94151E60E080E00E94771E78949E01C5
:1044A0002A553E4FC055DE4F39832883C05BD1402B
:1044B000D9011D921A95E9F7FE01E15CFE4FCE5439
:1044C000DE4FF983E883C25BD14085E3482E119229
:1044D0004A94E9F72C593109CC54DE4F39832883AB
:1044E000C45BD140D9011D928A95E9F7FE0131964E
:1044F000CA54DE4FF983E883C65BD14089E091E07E
:104500009C01119221503040E1F7C554DE4F1882D2
:10451000CB5BD140C054DE4F1882C05CD14031E04B
:10452000C654DE4F3883CA5BD14010E0312CC454EE
:10453000DE4F188219821A821B82CC5BD140212C5B
:10454000412C8CE0582E612C712CCF53DE4F4882C9
:1045500059826A827B82C15CD140CC54DE4F588044
:10456000C45BD140CB53DE4F5882C55CD140CB54A5
:10457000DE4F6880C55BD140CA53DE4F6882C65C9F
:10458000D1409E01265F3E4FC854DE4F39832883B9
:10459000C85BD14080910A018115E1F380910A0145
:1045A00010920A018150990B982F8827AC01455F22
:1045B0005E4F5A018091080190910901892B09F001
:1045C000C0C0A3E0B0E0CF53DE4F288139814A81DB
:1045D0005B81C15CD1400E949E29BAE09695879587
:1045E00077956795BA95D1F7F5014501939400E069
:1045F000C12CD12C760144275527461B570B20810F
:104600003181C90137FF04C088279927821B930B8A
:10461000092E000CAA0BBB0BC80ED91EEA1EFB1EEE
:10462000CF53DE4F488059806A807B80C15CD14087
:10463000480E591E6A1E7B1ECF53DE4F4882598298
:104640006A827B82C15CD140AAE0769467945794D9
:104650004794AA95D1F7CF53DE4F88819981AA81DB
:10466000BB81C15CD14084199509A609B709CF5314
:10467000DE4F88839983AA83BB83C15CD1406217D4
:1046800073070CF01DC121101BC10F5F222423945E
:104690003296E815F90509F0B2CF37E0F694E794C1
:1046A000D794C7943A95D1F7A7E4CA1618F4003105
:1046B00008F447C0E1E0F0E0F0930901E09308015D
:1046C00085E3CE54DE4FA881B981C25BD140E82F8B
:1046D0001D92EA95E9F7CC54DE4FA881B981C45BFD
:1046E000D1401D928A95E9F78AE0C055DE4FE881F6
:1046F000F981C05BD14011928A95E9F7CA54DE4F27
:10470000A881B981C65BD140E9E0F1E01D92319703
:10471000E9F746E950E060E080E00E943E1EC554A3
:10472000DE4F1882CB5BD140C054DE4F1882C05C94
:10473000D140F1E0C654DE4FF883CA5BD14010E0AF
:10474000212C8091080190910901019709F099C0ED
:10475000D5018D919C9177247394181619060CF04D
:10476000712CCE018C589E4F0E94C31FF501F3950A
:104770004F0100E0C12CD12C7601D5016D917C91C7
:10478000CB0177FF04C088279927861B970B092E3A
:10479000000CAA0BBB0BC80ED91EEA1EFB1E872DF0
:1047A00077247394161617060CF0712C78120F5F8D
:1047B000CE018C589E4F0E94C91FB2E0AB0EB11CB7
:1047C000A814B904D1F65E01E4E6AE1AEEEFBE0A13
:1047D0004501712C5A2C6B2C672DCE018C589E4FA5
:1047E0000E942220D4018D939D934D017394B5E0D6
:1047F0007B12F2CFC654DE4F4880CA5BD1404114D1
:1048000009F468C08AE0E52DF62DDE01AA55BE4FF9
:1048100001900D928A95E1F7C054DE4F5880C05C3C
:10482000D140C654DE4F5882CA5BD140C554DE4FDA
:10483000F881CB5BD140FF5FC554DE4FF883CB5B83
:10484000D140F63330F082E090E0909309018093FC
:104850000801C654DE4F4880CA5BD140C054DE4FC9
:104860004882C05CD140302EC454DE4FC882D98209
:10487000EA82FB82CC5BD140C654DE4F1882CA5B11
:10488000D1408091080190910901029709F082CEF0
:10489000FE01E15CFE4FDF0120E04E2F8A2F8E1BD0
:1048A000811708F4E3C030E02111F4C09E012F5FAE
:1048B0003F4FC901E0E0B22E032FDC0140E0F4C01D
:1048C000241735070CF0E4CE91E02912E1CE0F5FFA
:1048D000212CDECE812F90E0FE01E15CFE4FE10F46
:1048E000F11DC454DE4F488059806A807B80CC5BC8
:1048F000D1404C0C5D1C6E1C7F1C7727672D562DFC
:10490000452D4114510421E06206710408F04FEF77
:104910004083AE01465F5E4F840F951F232D200F0D
:10492000DC012C93FE01EA55FE4F4F0122E830E0F6
:10493000C454DE4F39832883CC5BD140DE0111960D
:10494000A10FB11D9501265F3F4F42E850E0C953CA
:10495000DE4FB982A882C75CD140C953DE4FE881DF
:10496000F981C75CD14061917191C953DE4FF983E0
:10497000E883C75CD140F401419051904F01FA01A6
:104980003190AF01612C712C460E571E611C711CB9
:1049900004C076946794579447943A94D2F741149C
:1049A000F1E05F066104710410F044244A944C92D3
:1049B000D596C953DE4F48805980C75CD140421616
:1049C000530659F6B701A60187E076956795579586
:1049D00047958A95D1F7D5018D919D915D01C4547C
:1049E000DE4FA881B981CC5BD140ED91C454DE4F3C
:1049F000B983A883CC5BD14002C096958795EA9590
:104A0000E2F7039798F4A216B30629F74734510545
:104A10006105710558F4C054DE4FB881C05CD140C7
:104A2000BF5FC654DE4FB883CA5BD1408AE0FE0147
:104A3000E456FE4FDE01AA55BE4F01900D928A95B5
:104A4000E1F71F5F1A3008F4F1CEC654DE4FE8815B
:104A5000CA5BD140EC3018F4153308F4E7CE82E09D
:104A600090E09093090180930801E0CE8D91281782
:104A700008F014CF282F12CF81917F0151E0E51A61
:104A8000F108AFEFA89FC0011124B9010E944A2983
:104A9000D7016C938E2F841B811770F307CF5D9124
:104AA000E51708F4E52F4F5F1413F9CFC596C854E6
:104AB000DE4F48805980C85BD1404816590609F03E
:104AC000FCCEF0E0E11159C047EA50E060E080E040
:104AD0000E943E1E212F4B2D502FCB53DE4F68815D
:104AE000C55CD140CA53DE4F7881C65CD140CE014F
:104AF000815C9E4F0E94371F182F48EB50E060E00A
:104B000080E00E943E1E49EC50E060E081E00E949F
:104B10003E1E812F0E94B51FAC0160E081E00E9423
:104B20003E1E1092090110920801C554DE4F1882F2
:104B3000CB5BD14010E0212C2DCDD7018D917D0193
:104B40006D01B1E0CB1AD10844244A94489EC001BB
:104B50001124BF010E944A29D6016C934F5F1413A0
:104B6000ECCF2B5C3F4FC854DE4F48805980C85B68
:104B7000D1404216530609F4A7CF790140E0EFCFA8
:104B8000AFE0B0E0E6ECF5E20C94B1297C013B012A
:104B90005A01FC0117821682838181FF57C39AE074
:104BA000292EF7012381F30123FD859123FF8191B4
:104BB0003F01811509F442C0853239F423FD9591F6
:104BC00023FF91913F01953239F4B70190E00E94A3
:104BD000DD2A65015601E5CF30E010E0912C812CF3
:104BE000F0E28F1608F03CC09B3279F160F490320D
:104BF00071F1933291F19E3209F046C086FC1EC0DD
:104C0000689486F806C09D3229F1903359F568946E
:104C100080F8F30123FD959123FF91913F019111BC
:104C2000DFCF082D097F903709F486C208F07CC2D7
:104C3000983509F484C29F3609F488C2F701868149
:104C400097812F96E2E10C94CD29689481F86894BD
:104C500082F8DFCF689483F8DCCF689484F8D9CFEA
:104C600087FC1CC080ED890F8A3028F686FE05C0BF
:104C7000129D800D1124182FCCCF929C800D1124F1
:104C8000982E689485F8C5CF9C3619F4689487F8F7
:104C9000C0CF9C3409F1983609F4BBCF3115F1F03F
:104CA000892F8F7D8554833008F098C1650128E0F5
:104CB000C20ED11C8FE3898301E010E0AE014F5F8B
:104CC0005F4F5A01E89487F883FC04C00915110569
:104CD00008F4F0C1592C03C231E09BCF8BEB890F54
:104CE000833098F4689484F8905E86FE16E0582D20
:104CF0005F73852E953689F4689486F8212F1830D5
:104D000010F027E017E0412C14C08BE9890F8330A5
:104D100008F064C1E89484F8E8CF963681F5689489
:104D200087F8812F1C3308F08BE344244394480E0A
:104D300027E0F50161917191819191916F01042DAD
:104D4000AE014F5F5F4F0E94E8295C01398030FE61
:104D500003C00DE233FE05C082FA002705F981FC8D
:104D60000BE2F32DFC705F2EF11529F1011171C2D8
:104D700024E0512C921608F483C283E06FC220E035
:104D8000111509F4C0CF1150B9CF81108052B7016D
:104D900090E00E94DD2A0F5F1F4FF801849181117E
:104DA000F4CF511409F416CFB70180E290E00E94CD
:104DB000DD2A5A94F6CF87FE30C0842D8A0D34FE4A
:104DC00004C09A81913309F4815044244394181605
:104DD00034F4482EF9E08F1710F088E0482EC50112
:104DE000B7FE02C080E090E0019601110196111516
:104DF00031F0212F30E02F5F3F4F820F931F891535
:104E0000910514F4592C581A882D8970811136C0D7
:104E100051102DC00115D9F133C086FC25C0E12FFA
:104E2000F0E01A151B043CF02CEFA2162FEFB2068F
:104E300014F0689487F83296AE014F5F5F4FE40F2D
:104E4000F51F01C01150111519F082918033D1F373
:104E500087FE0AC044244394410EA116B10414F401
:104E60001A19BDCF10E0BBCF85E090E0BECFB701EF
:104E700080E290E00E94DD2A5A94CACF011529F001
:104E8000B701802F90E00E94DD2A83FC02C0511000
:104E90003FC087FE57C04501B7FE02C0812C912C50
:104EA000CE0101968A0D9B1DFC01E819F909FD87C9
:104EB000EC879501241931093F872E87012F10E0D7
:104EC000119501951109A814B9044CF14E855F851F
:104ED0004815590524F5EC85FD858181F1E08F1A8F
:104EE00091082C853D852F5F3F4F3D872C8780168D
:104EF0009106BCF0B70190E00E94DD2A3FEF8316D7
:104F0000930609F7B7018EE290E00E94DD2ADBCF1D
:104F1000B70180E390E00E94DD2A5A94B8CF80E385
:104F2000DDCFA814B90439F49A81963348F4953347
:104F300011F434FE05C0B70190E00E94DD2A31CFA4
:104F400081E3F9CF8A81813311F0E89434F8B70115
:104F500090E00E94DD2A111125C085E490E084FCD8
:104F600002C085E690E0B7010E94DD2AB7FC05C0CB
:104F7000A114B10461F534FE2AC0B194A194B10822
:104F80008DE2B70190E00E94DD2A80E35AE0A51689
:104F9000B104FCF4B70190E00E94DD2AB701C5011D
:104FA000C096CBCFB7018EE290E00E94DD2A1E5F53
:104FB00002E0802F0F5FFE013196E80FF11D808126
:104FC000B70190E00E94DD2A0113F3CFC6CF8BE238
:104FD000D8CF8F5F4AE0A41AB108D8CF9336E1F159
:104FE000933709F447C0933509F453C0943619F048
:104FF000993609F080C0F50187FE75C06191719105
:10500000819191916F01082D0F7697FF08C09095BF
:105010008095709561957F4F8F4F9F4F00682AE074
:1050200030E0AE014F5F5F4F5A010E940D2BB82E4A
:10503000BA1806FF95C0802F8E7FB11608F08FC07A
:1050400004FFE1C002FDD5C00E7E512E802F867870
:10505000811509F490C0D2C0650182E0C80ED11C50
:10506000F5018081898301E010E09E012F5F3F4FB1
:10507000590128CEF501A190B1906F01612F70E028
:1050800086FC02C06FEF7FEFC5010E94D22A8C011F
:1050900019CEF501A190B1906F01612F70E086FCEF
:1050A00002C06FEF7FEFC5010E94C02A8C01689497
:1050B00087F80ACEB70180E290E00E94DD2A9A9438
:1050C00005CEF50187FC859187FE81915F01B701CF
:1050D00090E00E94DD2A51105A94015011090115E7
:1050E000110579F75ECE619171916F01072E000C69
:1050F000880B990B88CF082D0F7E2AE030E095377A
:1051000009F08FCDF50107FF24C061917191819164
:1051100091916F01AE014F5F5F4F5A010E940D2BBD
:10512000B82EBA180F7785CF983709F087CD84FC51
:1051300004C020E130E0E6CF00610460FACF84FED5
:1051400002C0082D066020E132E0DCCF28E030E02C
:10515000D9CF619171916F0180E090E0DBCF082F92
:105160005B2C04FF73CFFE01EB0DF11D80818033BA
:1051700009F042C0097E03FD0EC000FF50C01B2D88
:10518000591418F4190D1519592C892D85199514D0
:1051900008F480E0580E591408F043C09518592CB3
:1051A00004FF41C0B70180E390E00E94DD2A02FFC6
:1051B00009C088E590E001FD02C088E790E0B701F2
:1051C0000E94DD2AB116D8F1BA940B2D10E00F5FC2
:1051D0001F4FCE0101965C01080F191FF801829143
:1051E0008F01B70190E00E94DD2AA016B106B1F749
:1051F000D8CD512E082FB7CF02FD02C05394BBCF9C
:1052000053945394B8CF512E082F20CFB70180E28A
:1052100090E00E94DD2AA394A914C0F3B6CFA52C78
:10522000FBCF512CBDCF802F8678811559F280E2BB
:1052300001FD8BE207FD8DE2B70190E0C1CFB70120
:1052400080E390E00E94DD2A1150BCCF8FEF9FEFEA
:10525000F8CCF5E0512C9F1670F084E0592C581AC8
:1052600083FC07C0B70180E290E00E94DD2A5A94D7
:10527000C9F7011529F0B701802F90E00E94DD2ABF
:1052800004E71AE333FC02C008E71AE3282D207173
:10529000822E83CDAA1BBB1B51E107C0AA1FBB1FD7
:1052A000A617B70710F0A61BB70B881F991F5A95B2
:1052B000A9F780959095BC01CD010895A1E21A2E21
:1052C000AA1BBB1BFD010DC0AA1FBB1FEE1FFF1FAA
:1052D000A217B307E407F50720F0A21BB30BE40BFA
:1052E000F50B661F771F881F991F1A9469F7609541
:1052F0007095809590959B01AC01BD01CF010895FB
:105300000E948829332312F48A1B9B0B0C94992941
:10531000A29FB001B39FC001A39F700D811D1124F6
:10532000911DB29F700D811D1124911D08950E9441
:105330008829B7FF0895821B930B08950E9488293E
:10534000A59F900DB49F900DA49F800D911D1124D9
:105350000895B7FF0C949E290E949E29821B930BEF
:1053600008952F923F924F925F926F927F928F9209
:105370009F92AF92BF92CF92DF92EF92FF920F93E4
:105380001F93CF93DF93CDB7DEB7CA1BDB0B0FB6EE
:10539000F894DEBF0FBECDBF09942A8839884888AB
:1053A0005F846E847D848C849B84AA84B984C88441
:1053B000DF80EE80FD800C811B81AA81B981CE0F38
:1053C000D11D0FB6F894DEBF0FBECDBFED0108951D
:1053D000283008F027E03327DA01990F311D87FDC7
:1053E000916000966105710539F432602E5F3D933E
:1053F00030E32A95E1F708959F3F30F0803871053A
:10540000610509F03C5F3C5F3D93913008F0806896
:10541000911DDF93CF931F930F93FF92EF92192F5C
:10542000987F9695E92F96959695E90FFF27EC5C66
:10543000F84A99273327EE24FF24A701E7010590B6
:105440000894079428F4360FE71EF81E491F511DD3
:10545000660F771F881F991F0694A1F70590079480
:1054600028F4E70EF81E491F561FC11D770F881F2D
:10547000991F661F0694A1F70590079428F4F80E6B
:10548000491F561FC71FD11D880F991F661F771F01
:105490000694A1F70590079420F4490F561FC71FE3
:1054A000D81F990F661F771F881F0694A9F784914C
:1054B0001095177041F0D695C79557954795F79475
:1054C000E7941A95C1F7EAEDF6E568941590159101
:1054D00035916591959105907FE27395E118F10AF8
:1054E000430B560BC90BD009C0F7E10CF11E431F4B
:1054F000561FC91FD01D7EF4703311F48A95E6CF74
:10550000E894015030F0080F0AF40027021708F45D
:10551000202F2395022F7A3328F079E37D932A9563
:10552000E9F710C07D932A9589F6069497956795BB
:10553000379517951794E118F10A430B560BC90BD1
:10554000D00998F023957E9173957A3308F070E333
:105550007C932013B8F77E9170617D9330F0839532
:1055600071E37D9370E32A95E1F71124EF90FF90AA
:105570000F911F91CF91DF91992787FD9095089505
:10558000FC010590615070400110D8F7809590950E
:105590008E0F9F1F0895DC0101C06D934150504054
:1055A000E0F70895FC016150704001900110D8F7B8
:1055B000809590958E0F9F1F08950F931F93CF9303
:1055C000DF93182F092FEB018B8181FD09C01FEF9D
:1055D0000FEF812F902FDF91CF911F910F910895A1
:1055E00082FF14C02E813F818C819D81281739074D
:1055F0003CF4E881F981CF01019699838883108377
:105600008E819F8101969F838E83E3CFE885F98504
:10561000812F0995892BA1F3DACFFA01AA27283027
:1056200051F1203181F1E8946F936E7F6E5F7F4F6F
:105630008F4F9F4FAF4FB1E03ED0B4E03CD0670FEB
:10564000781F891F9A1FA11D680F791F8A1F911D3E
:10565000A11D6A0F711D811D911DA11D20D009F48E
:1056600068943F912AE0269F11243019305D3193D0
:10567000DEF6CF010895462F4770405D4193B3E0B9
:105680000FD0C9F7F6CF462F4F70405D4A3318F060
:10569000495D31FD4052419302D0A9F7EACFB4E011
:1056A000A6959795879577956795BA95C9F70097C9
:1056B0006105710508959B01AC010A2E069457956A
:1056C000479537952795BA95C9F7620F731F841FC1
:1056D000951FA01D0895F894FFCF00407A10F35A4B
:1056E00000A0724E18090010A5D4E80000E8764822
:1056F000170000E40B54020000CA9A3B000000E1CE
:10570000F505000080969800000040420F00000060
:10571000A08601000000102700000000E803000040
:1057200000006400000000000A000000000001000A
:10573000000000002C76D888DC674F0823DFC1DF2B
:10574000AE59E1B1B796E5E3E453C63AE65199762E
:1057500096E8E6C28426EB898C9B62ED407C6FFC68
:10576000EFBC9C9F40F2BAA56FA5F490055A2AF7AA
:105770005C936B6CF9676DC11BFCE0E40D47FEF5B3
:1057800020E6B500D0ED902E03009435770500801B
:10579000841E080000204E0A000000C80C3333337A
:1057A000330F986E12831141EF8D2114893BE6551A
:1057B00016CFFEE6DB18D1844B381BF77C1D901DFD
:1057C000A4BBE424203284725E228100C9F124EC5F
:0457D000A1E53D27EB
:1057D400000004000000000300000000071F021F77
:1057E4000000DA00DD00E100E700EC00EF00F40067
:1057F400F9000A08070605337B0562AC1E2ABEBE03
:105804008901010201015265636F7264696E672E3A
:105814002E2E2020202000436C6173736966796901
:105824006E672E2E2E2020004465746563746564B3
:105834003A2020202020202000202020202020206A
:10584400202020202020202020004F4E004F4646BC
:1058540000434C4F53450053544F5000555000449F
:105864004F574E004C454654005249474854005542
:085874004E4B4E4F574E000051
:00000001FF
