:100000000C943E1D0C945B1D0C945B1D0C945B1DAD
:100010000C945B1D0C945B1D0C945B1D0C945B1D80
:100020000C945B1D0C945B1D0C945B1D0C945B1D70
:100030000C945B1D0C945B1D0C945B1D0C945B1D60
:100040000C945D1D0C945B1D0C945B1D0C945B1D4E
:100050000C945B1D7AD3FFFFFFFFE9C79A71666AB4
:10006000756F533A2C271A0F0C0E0C090A0A080058
:100070000000000000000000000000000000000080
:100080000000000000000000002323232423232677
:10009000292726201C18111111100D0C0D0F0E12FE
:1000A000130C090B0000000000000000000000001D
:1000B00000000000000000000000000000003718F1
:1000C000141F27102F473B436E8D5E43562F080C9D
:1000D00008080804040004040400000000000000F4
:1000E0000000000000000000000000000000000010
:1000F00000000014235E5A3B4B3B33331F140808A7
:1001000008080400000404040000000000000000CF
:1001100000000000000000000000000000000000DF
:10012000000000000000000027A1FFF7B15E3723A8
:100130001B08040C0C0C0C04040000000000000060
:1001400000000000000000000000000000000000AF
:100150000000000000000000000000000014272F35
:1001600033271F1F272310101410272B140C0800EF
:100170000000000404000000000000000000000077
:10018000000000000000000000000000000000006F
:1001900000002F3F2F767A5AB8CC763314181B1FE5
:1001A0001B0C0808040408080C0C0C0404000000D4
:1001B000000000000000000000000000000000003F
:1001C000000000000000009FCCE6FFFEFBF3D0B66D
:1001D000B2B49B665361502C1E160C05020202023B
:1001E0000402000000000000000000000000000009
:1001F000000000000000000000000000231F1C1889
:100200001917121214130B070A0D09070706071016
:10021000181E1C1A170E0900000000000000000044
:1002200000000000000000000000000000000000CE
:1002300000B4C04F0D36437586EAFF6936322E0D85
:100240000D04040404000000000000000000000091
:10025000000000000000000000000000000000009E
:100260000000000000002E15262A151D1D110D117D
:1002700011110D0808040400000000000000000037
:10028000000000000000000000000000000000006E
:100290000000000000000000000000111108213BD8
:1002A00036211108040000080804040000000000C2
:1002B000000000000000000000000000000000003E
:1002C000000000000000000000000000000000002E
:1002D0000D0D0D11262A152A2A32473B260D04043E
:1002E000000000000000000000000000000000000E
:1002F00000000000000000000000000000000000FE
:100300000000000000212160796086643B543F11A9
:10031000111D1111150D0400000408080404040443
:1003200000000000000000000000000000000000CD
:100330000000000000000000000052341C1D214796
:10034000A7ECFFFFFFFFEEC7A3897B7776684134F8
:100350002E1C1613100D0908090A0B0C00000000D2
:100360000000000000000000000000000000000885
:10037000161C18181B1F222222222120201E1B17A8
:1003800014110F16140D0E0C0D0E0B0F14110E0D73
:100390000F0000000000000000000000000000004E
:1003A000000000001E0C1E37374943315B61377374
:1003B000671E5BC8FF8C6DA4796D490C00000606B2
:1003C000000606060000000000000000000000001B
:1003D0000000000000000000001E0C060C0C37732B
:1003E000672A183D4F5B491E1E2A1E2A2A18060638
:1003F00000060000000000000000000000000000F7
:1004000000000000000000000000000000001206D4
:100410000C0C0C1E43495BC2C26DA4A43D180C1801
:100420001E120C0606000000000000000000000084
:1004300000000000000000000000000000000000BC
:100440000000003124121200123767BCF9FF8C3112
:100450003D241E0C121E1206060C0C060000060699
:100460000006000000000000000000000000000086
:10047000000000000000000037556D3D2A3D554F3B
:10048000376D73797967495561373D372A1E120CEC
:100490000606060C0606060C0C0C00000000000008
:1004A0000000000000000000000000000092DEFBE1
:1004B000FFEBC0987D6B5F5D51311E170D0D0D096F
:1004C0000704040403040000000000000000000012
:1004D000000000000000000000000000000000001C
:1004E0000000242223232324231D1816120E0C0F90
:1004F000171B1410131F2824221E1C0000000000CC
:1005000000000000000000000000000000000000EB
:1005100000000000000000130E0E131C093366617A
:10052000415D6B3C1C130E09090505000505050519
:1005300000000000000000000000000000000000BB
:100540000000000000000000000000002E3C41669A
:100550004A2525200E0509090500000000000000BD
:10056000000000000000000000000000000000008B
:10057000000000000000000000000000000000007B
:1005800000255D4A1C2038381705050505050000C3
:10059000000000000000000000000000000000005B
:1005A000000000000000000000000000000000004B
:1005B00000000000000020172A665D332A20131374
:1005C000170E0900000505000000000000000000F3
:1005D000000000000000000000000000000000001B
:1005E00000000000000000000000003C66E8FF99E9
:1005F000949461201C1C0E0E1309090905000509BD
:100600000909090E000000000000000000000000C1
:1006100000000000000000000000000000000000DA
:100620008BD3FFF5F3D9896E7E817C6F71562921BA
:100630001B0D0C0A06060504040505050000000054
:1006400000000000000000000000000000000000AA
:100650000000000000262726262524272219171A25
:100660001A121015120D1419232B2730352A221FA8
:100670002600000000000000000000000000000054
:10068000000000000000000000004F3E60331155E4
:1006900060173E8EC1BB664A39170B06110B00006E
:1006A0000606000606000000000000000000000032
:1006B0000000000000000000000000000000001129
:1006C000396CFFF98E60221706171C0B000600001C
:1006D000000000000000000000000000000000001A
:1006E000000000000000000000000000000000000A
:1006F0000000000011336C6C441C0B17221C1122EB
:1007000022060000000000000000000000000000C1
:1007100000000000000000000000000000000000D9
:100720000000000000000000001144664A3E2D2237
:100730002D33170611221C0B0600000000000000DC
:1007400000000006000000000000000000000000A3
:1007500000000000000000000000000000000B4F3F
:10076000998E5577828E7D2D39391C0B1117110604
:100770000B06000606060B0B0B0B0000000000002A
:100780000000000000000000000000000000000069
:10079000000000B4FAFFD0884D2921251E17100E45
:1007A0000C0C0C0C0E120E050300000000000000E3
:1007B0000000000000000000000000000000000039
:1007C0000000000000000000211D1B130B19364221
:1007D0004443373D48372D292618050A0D1A0000D5
:1007E0000000000000000000000000000000000009
:1007F00000000000000000000000000000F355555C
:10080000B6791E1812121E0C000606000000000029
:1008100000000000000000000000000000000000D8
:1008200000000000000000000000000000000000C8
:100830000000616D8061241812181E120600060661
:10084000000606000000000000000000000000009C
:100850000000000000000000000000000000000098
:10086000000000000000000C37492A18060C1E1E6C
:100870001812121206000000000000000000000024
:100880000000000000000000000000000000000068
:100890000000000000000000000000002A242A31AF
:1008A0000C0C121E180C061212120C06060606007C
:1008B0000000000000000000000000000000000038
:1008C0000000000000000000000000000000000028
:1008D0000067B6FFB01E1E555B49492A12121E1250
:1008E0000606060600060C000000000000000000DE
:1008F00000000000000000000000000000000000F8
:10090000000000000000AAE9FFFCF0E9E4A95E3B5A
:100910002D33291715130F0A0502020202040402DF
:1009200002010000000000000000000000000000C4
:100930000000000000000000000000252324262CF9
:100940002B19112135442A28473F474525192223D1
:100950002E2E120A0F151F000000000000000000DC
:100960000000000000000000000000000000000087
:10097000171C29280A113C3E12080504060502012D
:100980000000000000000000000000000000000067
:100990000000000000000000000000000000000057
:1009A000000000000021382F1D34451D04080604F6
:1009B000040205060502010000000000000000001E
:1009C0000000000000000000000000000000000027
:1009D000000000000000000000001D212527181164
:1009E0000C050706050606040205020100000000CA
:1009F00000000000000000000000000000000000F7
:100A00000000000000000000000000000000000ADC
:100A1000111B32412F170F0F0D0A060202060804A0
:100A200000000000000000000000000000000000C6
:100A300000000000000000000000000000000000B6
:100A400000000000AFDE5B8CFFE17E39120A162148
:100A50001D1C1B170B020505050201010101000009
:100A60000000000000000000000000000000000086
:100A7000000000000000000000B1EFFFFBD7A066FF
:100A800039231A14110D0C09060404030202010192
:100A90000202000000000000000000000000000052
:100AA00000000000000000000000000000002827F7
:100AB000262521191820241E1612161E283C423AFB
:100AC000302B2F372B121400000000000000000014
:100AD0000000000000000000000000000000000016
:100AE000000000414430221F2244300A030A070755
:100AF00003000000000000000000000000000000F3
:100B000000000000000000000000000000000000E5
:100B100000000000000000002C74AD9CA074290AA5
:100B20001118110303000003030303000000000079
:100B300000000000000000000000000000000000B5
:100B4000000000000000000000000000001122254D
:100B50003A3A1403030303030000000000000000FE
:100B60000000000000000000000000000000000085
:100B70000000000000000000000000000000000075
:100B8000000033524433291403070A070A03000301
:100B90000300000000000000000000000000000052
:100BA0000000000000000000000000000000000045
:100BB0000000000000000044A0B4FFE43D1F142228
:100BC00025180E141107070707030300030703077F
:100BD0000000000000000000000000000000000015
:100BE00000000000000000000000000028140E2497
:100BF00072BEE2F0FFE9AB7F4F352D201C19120EBB
:100C000008060603010303010101000000000000C3
:100C100000000000000000000000000000000000D4
:100C2000006A464C523C2B2221201D16151B1C1C11
:100C30001614161E21242325343D3E383230300050
:100C400000000000000000000000000000000000A4
:100C50000000000000000804040B222E91942E1BBB
:100C60005B5F170F0B0B080404040000000000007A
:100C70000000000000000000000000000000000074
:100C800000000000000000000000000F0B042667B9
:100C90007E76856B4531261E080B0804000404008F
:100CA0000000000000000000000000000000000044
:100CB0000000000000000000000000000000000034
:100CC000170800040B132E2E222A1304080B080801
:100CD0000B080400000000000000000000000000FD
:100CE0000000000000000000000000000000000004
:100CF00000000000005F1B08081B1B0F1E261308C6
:100D00000B080B0B0404080804000000000000009E
:100D100000000000000000000000000000000000D3
:100D2000000000000000000000004C451E586E4C02
:100D30006394FFD5411B13222A170817170F0808C1
:100D40000800000404080B0400000000000000007C
:100D50000000000000000000000000000000009DF6
:100D6000DFEBFFE6A06B3C27261D140D08090804E5
:100D7000040404030101010300000000000000005E
:100D80000000000000000000000000000000000063
:100D900000000000221E1C1B221B1734382E27289F
:100DA0003C38211E3446473A302D271F29000000C9
:100DB0000000000000000000000000000000000033
:100DC000000000000000000000E7FF5B5BBC8C1D22
:100DD0000A1322130A0A0A05050000000000000099
:100DE0000000000000000000000000000000000003
:100DF00000000000000000000000000000000E13D2
:100E000043432B433530220A0A0500000500000049
:100E100000000000000000000000000000000000D2
:100E200000000000000000000000000000000000C2
:100E30000000000E1D262B260E0A180E05050000C8
:100E400000000000000000000000000000000000A2
:100E50000000000000000000000000000000000092
:100E600000000000000000000A0E131D22130E0EE9
:100E70000A0A0E0E05050A05000000000000000029
:100E80000000000000000000000000000000000062
:100E90000000000000000000000000000057737D0B
:100EA0007D5B4D57606578523F261D0E130E05057C
:100EB0000500000000050000000000000000000028
:100EC0000000000000000000000000000000000022
:100ED0000000CEC2D3E1F2FFF6DEC58755462C1BDB
:100EE00013100C07040403020200000000000000BD
:100EF00000000000000000000000000000000000F2
:100F0000000000000000001C202423232221211FB8
:100F100022211D201F1A16142D5B5630212F000090
:100F200000000000000000000000000000000000C1
:100F300000000000000000000000000055824A1C74
:100F40004F775B33449993441C0B06060000000066
:100F50000000000000000000000000000000000091
:100F60000000000000000000000000000000000081
:100F7000002D6C605B5B2D4F776C3E17060B0606F1
:100F8000060000000000000000000000000000005B
:100F90000000000000000000000000000000000051
:100FA000000000000000174F603E334A3E221C1133
:100FB00011110B06000000000000000000000000FE
:100FC0000000000000000000000000000000000021
:100FD0000000000000000000000000283E4F2D2D02
:100FE000445544392D11110B060000000000060085
:100FF00000000000000000000000000000000000F1
:1010000000000000000000000000000000000000E0
:101010009F887177BBFFD7775522283E391C06067B
:101020000B172D2D11060600000000000000000027
:1010300000000000000000000000000000000000B0
:10104000000000000029282C21120E194895C4C860
:10105000D0E7F8FAFFE7C9C49158452C19130F0DD2
:101060000906050503020000000000000000000062
:10107000000000000000000000009E9CAE9F8477EE
:10108000764B1E1E212222222222212020262011E0
:101090001C221410111E32291D1A1D000000000010
:1010A000000000000000000000000000000000023E
:1010B00004050401020515211A0F070C0B02121575
:1010C000090F1614090102020101000000000000CE
:1010D0000000000000000000000000000000000010
:1010E0000000000000020202020001070702010DD9
:1010F00012151C1A1511150F05040102010100003B
:1011000000000000000000000000000000000000DF
:1011100000000000000000000005050501010105B8
:101120000B090C15140E08060B0905040102040135
:1011300000010000000000000000000000000000AE
:101140000000000000000000000000000000221A63
:101150000D0D07020709040507111B1208060C0FE5
:101160000807050201010000000100010000000065
:10117000000000000000000000000000000000006F
:10118000000000FFB0CAB17B35565A2653462842AC
:101190002A203C39150C070B0D0805020102040535
:1011A0000502010200000000000000000000000035
:1011B0000000000000000000353B3B281406030639
:1011C0001B75D8F0ECEEF8F9FAFFF0DDC794674F25
:1011D0002F1B15110D0A090A090503000000000064
:1011E00000000000000000000000000000B6B7AEE4
:1011F0008C8D90657082421B2935352E323229271D
:101200002E3022150F12171717183D655239433E1D
:1012100000000000000000000000000000000000CE
:10122000000003000103030100010A273D301D13E4
:10123000140E09131B3E322B2E0A090A0A0401015F
:10124000010101000000000000000000000000009B
:101250000000000000000009090704010000010768
:1012600017171320212014161E0E2D370E0304030A
:101270000101000001000101010000000000000068
:10128000000000000000000000000000070E0D0735
:1012900006010000010A1A2325302E2A1A06131E01
:1012A000271A0100000000000000010101010000F8
:1012B000000000000000000000000000000000002E
:1012C000001A4447251304030725241621304154EE
:1012D0005B3B1A1E1D0A0A100903010101010100EE
:1012E00003030000000000000000000000000000F8
:1012F0000000000000007C2A415F3106070E202319
:101300002542FFF96B4F25302D7DC462090703018B
:1013100006060C14100E0C0606000000000000006B
:1013200000000000000000000000003A37362A19D3
:101330000F0D174AA5CDC5D4E7F1FCFFECCD8044D5
:1013400041301B14110C07050504040300000000C4
:10135000000000000000000000000000000000008D
:10136000798E968B87826F623E1D1E222424232253
:101370002221201E17161814151413151A1F191DD3
:101380002C00000000000000000000000000000031
:10139000000000000018150C0E0C02001829264A47
:1013A000622D1318070E0C050E0A05050205020032
:1013B000000000000000000000000000000000002D
:1013C00000000000000000000000181A1A150A00B2
:1013D00000070C0C242613151D1A0E2432291A0797
:1013E00002020000000000000000000000000000F9
:1013F00000000000000000000000000000000021CC
:1014000024150C0C0A05070C0A0515455126131D59
:10141000150E0C0A0702000000000000000000008A
:1014200000000000000000000000000000000000BC
:1014300000000000373C2B21150C070C151D2B3428
:10144000210A1521181318110C0A020200000000CD
:10145000000000000000000000000000000000008C
:10146000000000000000000000C8F8FFE57E2D2409
:101470003C511F304081AE83667C723C1F1D30188A
:101480000507050005070C0A050200000000000022
:10149000000000000000000000000000000026190D
:1014A000090404125BC0EBE4E9FBFFFEF4F2FDF774
:1014B000E9C17D57452B1B15130E0B0C0B070506B9
:1014C000000000000000000000000000000000001C
:1014D000000000929AA86E63925B1E232F322F2E7B
:1014E00029272524292C30312114141515100A3FE1
:1014F0008B854F2813000000000000000000000052
:1015000000000000000000000403000000032E376C
:101510001717170B040F0E0B16192529271C0B067E
:1015200006080403010000000000000000000000A5
:1015300000000000000000000000000000040100A6
:101540000000030613190E0A181B0F1014120E10B8
:10155000140E050604000101000101000101000054
:10156000000000000000000000000000000000007B
:1015700000000A0601000003080D2A452B12120E76
:10158000050E1B1814140B040301010000000001D8
:101590000301000000000000000000000000000047
:1015A0000000000000000010120601010609061BE1
:1015B000291B1D30212B452C3933100E0905030042
:1015C0000000000405010100000000000000000010
:1015D000000000000000000000000000927C3D12AE
:1015E000103D64D8F18F6445EFFF7688602E59591D
:1015F0002C2416120A030301172412060404000007
:1016000000000000000000000000000000000000DA
:10161000004F4C4448434028110D0C2A77D4FCFF5E
:10162000F8DDCBC5A072533318100D08080C171A3B
:1016300013100B0708080907040900000000000048
:10164000000000000000939A8A8876664A264B7351
:1016500062351C1D202226251B141010101011139A
:10166000150F1B180207070404030F12112018009E
:101670000000000000000000000000050303030557
:101680000501000000010B1D160A243630210F0C45
:101690000600000103030101010101000000000038
:1016A000000000000000000000000000000000003A
:1016B0000B0803050E0D01000000000406060809D2
:1016C0000F141108020201010000000000000000D8
:1016D000000000000000000000000000000000000A
:1016E0000000000000160E06040A0C0501010006A9
:1016F00007020508070705010101010100000000BC
:1017000000020200000000000000000000000000D5
:1017100000000000000000000000100F0E140F0D6C
:101720000B03020607080A090E0F0A05020201014F
:1017300001000000000001010000000000000000A6
:101740000000000000000000000000000000007C1D
:101750003040675C4741351B0D27284B4F5BFFFF2F
:101760004A0A090F0F0904010000011112010101C9
:101770000202020000000101000000000000000061
:1017800000000000525443403D26160D111C589194
:10179000BCFFF5D4CD94674B261D1A0F070606062D
:1017A0000706060000000000000000000000000026
:1017B000000000000000000000A89690A6B1996506
:1017C0003C4C5F3C1C2121221D1A150E171A181AB9
:1017D0001C211A151C191311000000000000000044
:1017E00000000000000000000000000000000404F1
:1017F00005050200000004051414040D1D241B142B
:101800001B1205040204000000000000000000009C
:1018100000000000000000000000000000000000C8
:101820000000000905101205040402000205090762
:1018300005192B190907050400000000000000002D
:101840000000000000000000000000000000000098
:1018500000000000000000000E0E07050505020252
:101860000405090D05040D0D05040200000000002B
:101870000000000000000000000000000000000068
:101880000000000000000000000000000012191914
:101890001B1B1F1404040D0E07070D0E0B0504027D
:1018A0000000000000000000000000000000000038
:1018B0000000000000000000000000000000000028
:1018C0000000FFD4C65F585814051739412D5668DB
:1018D0002F2F2D0D090B0502050500000000020049
:1018E00000000000000000000000000000000000F8
:1018F000000000000000008F9C713C212C444C4FE4
:101900004D45341B0E3799CED4FCFFCDC5D38B3A51
:101910002C211B13100D0805050505060505000003
:101920000000000000000000000000002616151551
:101930002D6C8C8694978988817E78431D28302B66
:1019400028271A12140F0C11130E090D2530271811
:101950000C1816000000000000000000000000004D
:10196000001B110E0E0704060907050502010104FC
:1019700009141A110A15383F271507060601000039
:101980000000000000000000000000000000000057
:10199000000000000000050101000001040504042E
:1019A00007050201050602060E0B040A100A0401CF
:1019B0000000000000000000000000000000000027
:1019C00000000000000000000000000C0100010504
:1019D000060606090E0901010105060605040504AF
:1019E00005040202010000000000000000000000E9
:1019F00000000000000000000000000000000000E7
:101A000006010100000A100E2229150C0601060726
:101A100004040505050402010101000000000000A6
:101A200000000000000000000000000000000000B6
:101A300000000000003829090419A5A72D474923F3
:101A40001D161BA2FAFFA9979EE4E02D1D110607A3
:101A5000090602000001010101000101000000006F
:101A6000000000000000000000003938363330204C
:101A70000D0C2A76CDF3F1F9FFF2F7E2884C524BC8
:101A8000301A110D0B0A06040202020000000000C9
:101A90000000000000000000000000000000008EB8
:101AA000938F919EA39B835A2E18212825272924A2
:101AB0001F1B181212191B1819191D22201E1C2079
:101AC0000000000000000000000000000000000016
:101AD000000000000502000003030003053D53253C
:101AE0001F1D0E020625280B0B0B0808050202021B
:101AF00002000000000000000000000000000000E4
:101B000000000000000000000003060603020200BF
:101B1000020306171A202D190E364D230B08050354
:101B200002020202000000000000000000000000AD
:101B30000000000000000000000000000000140F82
:101B4000110F0E0B030308050614252E2514171973
:101B50000903030202020000000000000000000070
:101B60000000000000000000000000000000000075
:101B70000000001D22261F170903080E1117333716
:101B80001C141F1C0E0905030202020200000000C3
:101B90000000000000000000000000000000000045
:101BA00000000000000000006DFFE2C3B1503A20C9
:101BB0002D8168518C848953221D12140E09090647
:101BC00008050506030302020200000000000000F1
:101BD0000000000000000000000000000034383366
:101BE000231A1208040D369AF0FFF6E9EEFAF1C452
:101BF00084534A482D1B100D0B0B090505040406E0
:101C000000000000000000000000000000000000D4
:101C1000000068706F6F85977E6175622F1B1B24B3
:101C20003033261E1A181A1212160F11100D0F1229
:101C3000171D21180B00000000000000000000002C
:101C4000000000000000000404090C040000010171
:101C50000852591B120910112F4A2B13171108068D
:101C6000030100010100000000000000000000006E
:101C7000000000000000000000000000111310042C
:101C80000501000001050E242017160C16464C1BFA
:101C9000080301040401000001010000000000002D
:101CA0000000000000000000000000000000000034
:101CB00000040508090503000001040E1023472F46
:101CC000171E2416000101010000000000000100A1
:101CD0000000000000000000000000000000000004
:101CE00000000000000013190904040101010C1296
:101CF0001E1E203134413E1C05010101010100007E
:101D000000000001000000000000000000000000D2
:101D100000000000000000000000003A545E303275
:101D2000291103416E3ADDFF504388B988582605D2
:101D30000605040101010301010404010001000082
:101D40000000000000000000000000000000000093
:101D500081CBF8FFE0995444361A13100D0806059C
:101D6000040404050500000000000000000000005D
:101D70000000000000000000000000000000000063
:101D80000000000000292C2B2827261F191D2222C5
:101D90001C161D201F1F1819191500000000000037
:101DA0000000000000000000000000000000000033
:101DB000000000000000000000002727271D272743
:101DC00022272C1405050000000005000005000076
:101DD0000000000000000000000000000000000003
:101DE000000000000000000000000000000000589B
:101DF0004E766C4A360505050A050505000000000B
:101E000000000000000000000000000000000000D2
:101E100000000000000000000000000000000000C2
:101E20000000000022363B5D7B31050A0A050005F3
:101E300000000000000000000000000000000000A2
:101E40000000000000000000000000000000000092
:101E50000000000000000000001414277B6C0F0538
:101E60000A0A050000000000000000000000000059
:101E70000000000000000000000000000000000062
:101E800000000000000000000000000000006C8E58
:101E9000F0FFBA532219190F0A0A0A0500000A0AAC
:101EA000000005000000000000000000000000002D
:101EB0000000000000000000000000000000000022
:101EC00000000080B3D7D7EBFFA653403C392B204E
:101ED00017110E0B070400000000000000000000B6
:101EE00000000000000000000000000000000000F2
:101EF0000000000000000000313941423324252752
:101F00001F181A1B1B1917181D212800000000009C
:101F100000000000000000000000000000000000C1
:101F200000000000000000000000000000050C0C94
:101F3000101E3123090505090500020202000000F8
:101F40000000000000000000000000000000000091
:101F50000000000000000000000000000000000081
:101F600000001E130E1515171C0E07090C070202A0
:101F7000020000000000000000000000000000005F
:101F80000000000000000000000000000000000051
:101F9000000000000000001017131017150E0905AF
:101FA000020202000000000000000000000000002B
:101FB0000000000000000000000000000000000021
:101FC0000000000000000000000000000E23271E9B
:101FD00027230E0907020202000000000000000093
:101FE00000000000000000000000000000000000F1
:101FF00000000000000000000000000000000000E1
:10200000001E3A43A7FF944835130C0C0905020043
:1020100000020200000000000000000000000000BC
:1020200000000000000000000000000000000000B0
:1020300000000000000074B1DBF4FFFFFFECA96FAB
:102040004D291E18140F08080A0806060605000088
:102050000000000000000000000000000000000080
:10206000000000000000000000000027292A2A2AA2
:102070002A2A25201C1D2627271F13171B18161474
:102080001418200000000000000000000000000004
:102090000000000000000000000000000000000040
:1020A000182F3B1B141B2B4B2F101414080408086B
:1020B0000404040404040400000000000000000004
:1020C0000000000000000000000000000000000010
:1020D00000000000002F567272472B5247140C0864
:1020E0000C080400000000000000000000000000D8
:1020F00000000000000000000000000000000000E0
:1021000000000000000000000000182B372F1F37D0
:10211000525A4B10040804000000000000000000A8
:1021200000000000000000000000000000000000AF
:102130000000000000000000000000000000001F80
:10214000232F43432F37331B0C08040000000000EB
:10215000000000000400000000000000000000007B
:10216000000000000000000000000000000000006F
:1021700000000000564E99ADA991D8FFA9471F272E
:10218000140C0C0C04080C080404040400000000E7
:10219000000000000000000000000000000000003F
:1021A000000000000000000000626DA6D9F7FFC724
:1021B0008C55221812110E080507050707000000AC
:1021C000000000000000000000000000000000000F
:1021D00000000000000000000000000000002526B4
:1021E000272622221F16151816110D141D2120183E
:1021F0001C2600000000000000000000000000009D
:1022000000000000000000000000000000000000CE
:10221000000000794961927955DBDB3D1818000018
:102220000C0C000000000000000000000000000096
:10223000000000000000000000000000000000009E
:102240000000000000000000243D49559ECE9E6124
:10225000311818180C0000000000000000000000F9
:10226000000000000000000000000000000000006E
:10227000000000000000000000000000000C181822
:10228000186D9231180C0C000000000000000000D6
:10229000000000000000000000000000000000003E
:1022A000000000000000000000000000000000002E
:1022B0000000180C0C18496D55182424000000006B
:1022C000000000000000000000000000000000000E
:1022D00000000000000000000000000000000000FE
:1022E0000000000000000055493D55FFF36D3DAA78
:1022F000AA24180C180C18240C0000000000000080
:1023000000000000000000000000000000000000CD
:102310000000000000000000000000006F9DC5D715
:10232000E4FFF0B96E3F3A2E221B130F0C0707058E
:10233000000000000000000000000000000000009D
:10234000000000000000000000000000000000008D
:1023500000242F353C3E382D282F281D1919212106
:10236000201F29342B0000000000000000000000A6
:10237000000000000000000000000000000000005D
:102380000000000000001F0F1A0D17244D4B1A0FFC
:10239000030303030303000000000000000000002B
:1023A000000000000000000000000000000000002D
:1023B00000000000000000000000001C172129158B
:1023C0000D0A29290F050303030303000000000081
:1023D00000000000000000000000000000000000FD
:1023E00000000000000000000000000000000000ED
:1023F0000D15171A1731340F0305030300000000F1
:1024000003030000000000000000000000000000C6
:1024100000000000000000000000000000000000BC
:1024200000000000000D1517395A5027030305035B
:102430000303030003030303000000000000000087
:10244000000000000000000000000000000000008C
:102450000000000000000000000031345279A7FFA6
:10246000A01C1A1A0F0F080A0D0508080303000024
:10247000000000000000000000000000000000005C
:1024800000000000000000000000000000000061EB
:10249000554E3F4675AEE0FFF6D7C4BEC0C4D1C2AC
:1024A000AFA68C7D6B593A2D271714100C0C0B0816
:1024B0000500000000000000000000000000000017
:1024C000000000001111121118232F362B232B2E80
:1024D00029292F2F2B2D29201C1914181814120DFF
:1024E0000B111007080E00000000000000000000A3
:1024F0000000000000000000002F271815323218DD
:10250000180B1A201010181D2A3A3A5181513559CA
:10251000350D0B030308030000000000000000005D
:1025200000000000000000000000000000000803A0
:102530000303030B101515252008121A273532271F
:10254000201D150D0803000300000000000000001E
:10255000000000000000000000000000000000007B
:102560000000000500000005122D2D1A151D2A1867
:1025700012202210101205050503030000000000C0
:10258000000000000000000000000000000000004B
:102590000000000000000000050305030810121AE7
:1025A00022252022222A1D102020120B0D080003B4
:1025B0000303030000000000000000000000000012
:1025C000000000000000000000000000001D100DD1
:1025D0000B0D3A2FAEC31D6EFFD58E7E5959373580
:1025E00035272A0D08080303000303030303030030
:1025F00000000000000000000000000000000000DB
:102600000000776A6A80A8D0E3F7FBF1FFFCE5DB06
:10261000D6C19371635741241D1D0F0B0C0C0A0783
:1026200006000000000000000000000000000000A4
:1026300000000000000000121212121923292A2E95
:102640003D443A33312B2523221A111113120F0B5B
:10265000090E100C0910000000000000000000002E
:102660000000000000000000000000000F0F0A1929
:10267000252319201911141B253463524A5436207E
:102680000A070C0C05020000000002000000000018
:10269000000000000000000000000000000000003A
:1026A000000C07020202071B2A1605050C1E202A31
:1026B0002511110A050200000000000000000000C2
:1026C000000000000000000000000000000000000A
:1026D0000000000000000A0705050C252D322A1114
:1026E0000707070F11110C0705020000000000008A
:1026F00000000000000000000000000000000000DA
:1027000000000000000000000000000705070A119B
:1027100014192F34281B23405C3E160F05050502B3
:1027200000000000000000000000000000000000A9
:102730000000000000000000000000000000000099
:102740001911141B23D7DA889963C9C4D7FF6D2ADE
:102750001E0F1B14070707020202050500000000F8
:102760000000000000000000000000000000000069
:102770000000000000715B5C99CEEDFFF5E3DBE249
:10278000EADCCBB8A0978F8162473E302622161430
:10279000120D080404040000000000000000000006
:1027A00000000000000000000000110D1D2C252974
:1027B0002B2C3A403C3B393D3D35261B1C1A181545
:1027C00013140D080A0C0C0E0D142A000000000052
:1027D00000000000000000000000000000000019E0
:1027E0000E0A131B190C1025250E0417273A331F48
:1027F0003A4242461F0E151006020000000000007B
:1028000000000000000000000000000000000000C8
:10281000000000000202020204061015130E080E4A
:102820002B4C3A2B250E0E0A0A0604020200000069
:102830000000000000000000000000000000000098
:102840000000000000000000000202040E272B130D
:1028500010151B152D3C1D1517170A020204040242
:102860000200000000000000000000000000000066
:102870000000000000000000000000000000020254
:1028800002020E252729292D271F190C13151006C2
:102890000000020202000000000000000000000032
:1028A0000000000000000000000000000000000028
:1028B0000000000A0C101F293180BDFFF38A90AD83
:1028C0006B1F2F2B100A0A0E100A040404000000CC
:1028D00000020202000000000000000000000000F2
:1028E00000000000000000007986725F85C0ECFFE8
:1028F000F5EEF9E8D3C9B9BBA990835D4437262327
:10290000170D0C0C0C0D0A00000000000000000068
:102910000000000000000000000000000012111084
:102920001B2529352F282F35403F3930201C1919F8
:102930001A1313110C0F1110100C080B00000000DB
:102940000000000000000000000000000000000087
:102950000000285F694B3C231E4B55232328231E70
:102960005F825064826973411E23140500000005D4
:102970000000000000000000000000000000000057
:10298000000000000000000F0F0A14142D55371925
:102990003732195087AF6E19140F0A0F0505000062
:1029A0000000000000000000000000000000000027
:1029B0000000000000000000000000000A050014F4
:1029C0004B50506E5A50878241232D3723231405D4
:1029D00005050000000000000000000000000000ED
:1029E00000000000000000000000000000000000E7
:1029F000000A0A052D3C41644B5564505F50464B1C
:102A0000321E140F0A050505050000000000000035
:102A100000000000000000000000000000000000B6
:102A200000000000000023232D329BBE7DA5876996
:102A30005FAFCDAAFFD7551E3223231E0A05050519
:102A40000A0500000A00000000000000000000006D
:102A5000000000000000000000000076878581A4CF
:102A6000E1F6F2EDF4FBFBFBFFFEFCFBE7C39F8C02
:102A7000745B5C4C3B3629211D16110C09050504BD
:102A80000200000000000000000000000000000044
:102A90000E111111141D2324272620232C2C2B2446
:102AA0001C18161D1A110F0F0F0E0D0B0C0B07071C
:102AB000080E11171D1300000000000000000000A8
:102AC000000000000020181E160405101510090C47
:102AD0000E0F161A25362D2D24080B0B04030306A2
:102AE00008050302010202000101000000000000CD
:102AF00000000000000000000000030605080D0BA8
:102B00000E1106060A090510232329210A090805C2
:102B100007030202020201000000000000000000A2
:102B200000000000000000000000000000000003A2
:102B3000050507121C1C0F1616080F0C0C151108A2
:102B40000506070404040504040302010000000054
:102B50000000000000000000000000000000000075
:102B600000000000010303040F1A202B3630251C3F
:102B7000322F1A17191C130F07050503040400014F
:102B80000100000000000000000000000000000044
:102B90000000000000000000000F0D0D131B5C6121
:102BA0003E93FFEAABFFFFFFC38B773E1C16140C6E
:102BB00005030606040202010100000001020100F3
:102BC000000000000000000000000000000093AAC8
:102BD000C9EEFFF5F5FBF1E5BC73504734291F182A
:102BE000130E0705020205000000000000000000AF
:102BF00000000000000000000000000000000000D5
:102C0000000000141817161F2E3636372D2C3025CD
:102C10002933393B545832242229467800000000D9
:102C200000000000000000000000000000000000A4
:102C300000000000000000000F0F17291F233E298D
:102C40002E3A151D290E060804020202000000009B
:102C50000000000000000000000000000000000074
:102C6000000000000000000000000000001106133A
:102C7000342E170F061B290F040608060402020053
:102C80000000000000000000000000000000000044
:102C90000000000000000000000000000000000034
:102CA0000000080A0F0F1F38614D211B15130C0877
:102CB00006060606060200000000020000000000F2
:102CC0000000000000000000000000000000000004
:102CD00000000000000000060E0C1127251D3234F4
:102CE00029150C0A0F130C110F0804000000000432
:102CF00000000000000000000000000000000000D4
:102D00000000000000000000000000001921211553
:102D1000647C68C7FFBD8B49135B532A40231B1D8E
:102D20000E0F0E0A1300000000000000000000005B
:102D30000000000000000000000000000000000093
:102D4000009696818B9AB1C3C7C9E2FDFFFFD67486
:102D50003836332217100D0A080A0B0B0807050531
:102D60000000000000000000000000000000000063
:102D70000000000000000A0E1012131414100F12AD
:102D8000202B22110E1E1C0F0F0D090E10081734D8
:102D90003A311D141C00000000000000000000007B
:102DA00000000000000000000000000D4B8365964D
:102DB000FF9D8DBE86582114211D0D0D0A000000B7
:102DC00000030003030703000000000000000000F0
:102DD00000000000000000000000000000000000F3
:102DE00007070A10100A0D0D141417211703000706
:102DF00007070300000000000000000000000000C2
:102E000000000000000000000000000000000000C2
:102E10000000000000070303070A0A070A07215FF2
:102E200048413803070D0A030000000000000303B7
:102E30000000000000000000000000000000000092
:102E4000000000000000000000000300000307076E
:102E50000A0D0D273E3B240D0A070A0A070300004E
:102E60000000030703000000000000000000000055
:102E7000000000000000000000000000000000074B
:102E8000070A1017100D142789CE93380A0D07036F
:102E900017241407030300070700070703030000B4
:102EA0000000000000000000000000000000000022
:102EB00000000000B59799B3D4EBECF0FDFFD2828F
:102EC00054413232291E140F090907070909060463
:102ED00004000000000000000000000000000000EE
:102EE0000000000000000000000C0F131818181755
:102EF0001B20242C2B16151E1A160C0A0C0E0E1352
:102F00002039403B353B000000000000000000007D
:102F100000000000000000000000000000003685F6
:102F20008585FFFC773D52524E330E070A0A0A038D
:102F3000030000000000000300000000000000008B
:102F40000000000000000000000000000000000081
:102F50000000000307111B1B1814222C1B2922033D
:102F60000307070300000000000000030300000047
:102F70000000000000000000000000000000000051
:102F8000000000000000000003070A0E0A071B41B2
:102F900052413D2C181407070300000000000000F8
:102FA000030300000000000000000000000000001B
:102FB0000000000000000000000000000003030704
:102FC0000307030A22303325140E0E110A000000F5
:102FD00000000000000307030300000000000000E1
:102FE00000000000000000000000000000000000E1
:102FF00000001B1411110A18362C41747A44140E67
:103000000E303618070703030707070700030700FA
:1030100000000000000000000000000000000000B0
:1030200000000000000000C6D6DFDEE6F0ECE5E3BD
:10303000E5ECF8FFF4BC7A6497BE854F322D3F3142
:103040001F1C19120C0706060403020000000000F2
:103050000000000000000000000000001010141B21
:103060001B182231322F251917161927231813146C
:10307000131A180605022446514D3A1B1018292A26
:103080000000000000000000000000000000000040
:1030900000284138252A1A0B13130904070D1014B0
:1030A0000E040404030507050605000001010001E4
:1030B0000000000000000000000000000000000010
:1030C00000000000000005070C1014100C0C0B0889
:1030D000061A3E351108080402040301010201002A
:1030E00000000000000000000000000000000000E0
:1030F0000000000000000000000000090F10110E89
:1031000012262F262111060E171C140E0906050281
:1031100001000000010101010101000000000000A8
:10312000000000000000000000000000000000009F
:103130000205080F13130F1326463D13070B140D3A
:10314000080B050B100803010100020B0B04010022
:10315000000000000000000000000000000000006F
:1031600000000000004F4D5B773EA9C06C596FF125
:10317000FFF6807A8A512C3A5033190B0802040862
:103180001010080606030101010000000000000005
:10319000000000000000000000007F7F808498A9EC
:1031A000C0DAE5F2FFFCF1DEAF7756524936271B55
:1031B000110D0A08070807050000000000000000C4
:1031C00000000000000000000000000000000012ED
:1031D00012141818181F273538303436312D2E2484
:1031E00016182A3C342012142D5777725A0000000A
:1031F00000000000000000000000000000000000CF
:103200000000000002101A0E1017171E171E382596
:10321000211E1A1A0C090507020202000000000014
:10322000000000000000000000000000000000009E
:103230000000000000000000000E0702070709134D
:10324000130E171E1E25211A130505020202000087
:10325000000000000000000000000000000000006E
:1032600000000000000000000000000000000E0C44
:10327000050502090C1A31333625252C170E100EC0
:103280000C0C0E0702000000020202000000000009
:10329000000000000000000000000000000000002E
:1032A0000000000705070C151509101C23252C2FFD
:1032B0001C13100709101009070200020205070776
:1032C00007000000000000000000000000000000F7
:1032D00000000000000000003315252A25333D5E64
:1032E0009D83337AFFB4422A1C1A09599A8A6023B3
:1032F000050C15173125000000000000000000003B
:1033000000000000000000000000000000617A9949
:10331000BBEBFFE8E4EEF0E8E9EEF0DCC5AD6C32C3
:10332000211B120D08070808070700000000000015
:10333000000000000000000000000000000000008D
:1033400000001E26383D2D2933373A3C392F2623DD
:1033500026211E1E1B18161418191A51776A5A00B6
:10336000000000000000000000000000000000005D
:1033700000000000000000253E423A5A4E4A4E2905
:10338000426377525694B5B973291D150808000099
:103390000000000400000000000000000000000029
:1033A00000000000000000000000000004000815FC
:1033B000150C255A6F46354E3E2D2515100808046C
:1033C00000000000000000000000000000000000FD
:1033D00000000000000000000000000000000000ED
:1033E000001D212D3E3A52523E565F423535313551
:1033F0002519251504040400000004080404000035
:1034000000000000000000000000000000000000BC
:103410000000000000000400153E311D19191D15A3
:1034200019252D31351D040404040000000000009E
:103430000404040000000000000000000000000080
:103440000000000000000000000000080C21353AD8
:1034500063E6C14A46CEFF63527BA5A042292D10E8
:1034600008080C154246424200000000000000001F
:10347000000000000000000000000000000000004C
:103480005C5F6981A6CBE2DFE3EFF0EFFAFFE6C114
:103490009D88784E24150D090909090D0C070604AD
:1034A00005060605050506060506070606000000D2
:1034B00000000000001112181C1D202222232426C7
:1034C000272626221C1A1B171617181B191B1C4A05
:1034D00090986C3A28261B1B1E25291D1F201A18A0
:1034E000202000000000000000000D0D2E413B2CAC
:1034F0002426110D11222A4372483D633515130607
:1035000004020202020202020202000000000202A1
:103510000202020000000000000000000000000F96
:103520000B0B060D110F0D3539192217112A281111
:1035300011110B0200020000000002000002020054
:103540000000020000000000000000000000000079
:103550000000000002020404061B2C2E2411061792
:10356000262A281B0D0D110D04000000000000028A
:103570000202000000000000000000000000000047
:103580000000000000000000000808080F172222B9
:1035900017283F260F130F0B04020002040200003D
:1035A0000202020204060200000002000000000005
:1035B00000000000000000000000000000000B0BF5
:1035C0000F264E545B69ECFFD7A4767217201B0BB5
:1035D0000D0D17150404020624504A240F04080B8D
:1035E00002020404040604040200020000000000B9
:1035F0000000003059656D7691C8F0FFF6E8E8DD0F
:10360000CDC3C0CDBC997544241A140F0907050712
:103610000807070000000000000000000000000094
:103620000000000000000000111D26273533292668
:10363000292F2F2F33353127222724181C211A1622
:103640001613151961A39F950000000000000000EB
:10365000000000000000000000000000002C654A8F
:10366000223239280D110A1E3C4A40321E289EFF84
:103670009A222525110D070300000000000000001C
:10368000000000000000000000000000000000003A
:103690000000030D0D141414224346464622111E49
:1036A0001E1B171714030303000000000000000096
:1036B000000000000000000000000000000000000A
:1036C00000000000000000070D0A0A0D1714142C5A
:1036D00032251E39687272805B321E0A00000303B5
:1036E00000000000000303000000000000000000D4
:1036F00000000000000000000000000007141E1B76
:103700002F3C22282F1B171E222C28221711110DA7
:103710000703030300000000070A0703000000007E
:103720000000000000000000000000000000000099
:10373000000D22251E1B17223686B5D39E32BCC62D
:103740004054AB903C402C1407070300032236285A
:103750001700000000000000000000000000000052
:10376000000000000000595F7AAED0E3EBECF8FFF8
:10377000FCE2CC994D312D25150C0A0806060406ED
:103780000706040303040303040404060000000006
:1037900000000000000000000000001D1C1E232788
:1037A00027262627262323231F1A191D1F1E2324FD
:1037B000181D254951302A2E352B2325221D222361
:1037C0001D000000000000000000000000000000DC
:1037D0002C2C413538353228253B1F3235191F1026
:1037E00009060000000000000000000000000000CA
:1037F00000000003060300000000000000000000BD
:1038000000000000001013221F2F4B3B25353525EB
:103810002F1F0C090303000000000000000000003F
:103820000000000000000000000000000000000098
:1038300000000000000000000000090306133B48E0
:1038400067706054514B1906030603030300000020
:103850000000000000000000000000000000000068
:103860000000000000000000000000000000001642
:103870000C0C0C0C10101035381009130C03060337
:103880000303000000000000000000000000000032
:103890000000000000000000000000000000000028
:1038A0000000000016090C7CAB646D8FFFBB324B2F
:1038B000351F190C060C100606090603061016061D
:1038C00003030006030000030603000000000000DD
:1038D00000000000000000000066728CAAD0E7E43F
:1038E000DDEBFEFDFEFFE6C0987D67552F0F0C0B4C
:1038F00008090C0E0E09060608070505050607054A
:103900000506000000000000000000000000121288
:10391000131B2427292A29272626231C21231D1E81
:103920001722291B1C1F2467AC88442D271D191C36
:1039300026221416212820000000000000000000AC
:103940000000000D112E4429211A295857392A4602
:10395000553310141C110901010000010101000080
:103960000000010101010100000101000000000050
:103970000000000000000000070A091120272B3179
:103980002427260E14170A0609060101010000006B
:103990000000000000000000000000000000000027
:1039A0000000000000000000000000000009060404
:1039B0000E1317201A100A0E21332110140E0703BC
:1039C00001010000000001010103000000000000EF
:1039D00000000000000000000000000000000000E7
:1039E00000000407060A0C090E1619130A0A111121
:1039F0000C070604000000000000010403010100A0
:103A000000000000000000000000000000000000B6
:103A1000000000000000001A0A0E0E6AFFD94E34A2
:103A20005DC99E4E5524616414041C1901000127D0
:103A30004B2A1721100103030000010100000003BD
:103A40000000000000000000000000001B1B221905
:103A50001C161C191E191721232122291F27212377
:103A60001513181414221F211F26191F1D241E1D93
:103A70002D2026296E616E00696E660011241FBE1E
:103A8000CFE5D8E0DEBFCDBF11E0A0E6B0E0E8E5CD
:103A9000FAE502C005900D92A032B107D9F724E0F3
:103AA000A0E2B1E001C01D92A33DB207E1F70E9480
:103AB00026220C94AD2C0C9400000F920FB60F929E
:103AC0001F9211240F931F932F933F934F935F9354
:103AD0008F939F93AF93BF93EF93FF9344B155B1EF
:103AE00088B7886088BF8091600090916100A09144
:103AF0006200B0916300840F951FA11DB11D8C0160
:103B00009D01EAE03695279517950795EA95D1F737
:103B1000801B910BA20BB30B80936000909361000C
:103B2000A0936200B093630020912403309123039B
:103B3000FAE0B695A79597958795FA95D1F7481B22
:103B4000590B80E8289FF0011124E30FF11DEE0FBF
:103B5000FF1FED5DFE4F5183408381E0830F3F37B0
:103B600099F080932303FF91EF91BF91AF919F91C3
:103B70008F915F914F913F912F911F910F911F90C6
:103B80000F900FBE0F9018951092230381E0820FC3
:103B90008093220181E0282720932403E4CF95B36A
:103BA0009F70282F207F922B95BBAA98A89A94E00B
:103BB0009A95F1F7A898E8E2F2E03197F1F700C0A2
:103BC000000095B38295807F9F70892B85BBA89A52
:103BD000F4E0FA95F1F7A89889E995E10197F1F7F2
:103BE00000C0089595B39F70282F207F922B95BB1E
:103BF000AA9AA89A94E09A95F1F7A898E8E2F2E0D8
:103C00003197F1F700C0000095B38295807F9F70D7
:103C1000892B85BBA89AF4E0FA95F1F7A89889E971
:103C200095E10197F1F700C008958FEF84BB8FEF06
:103C300097ED0197F1F700C0000082E00E94CF1DD0
:103C400088E20E94CF1D8CE00E94CF1D86E00E947A
:103C5000CF1D81E00E94CF1D89E995E10197F1F721
:103C600000C00895CF93DF93EC018991811103C0C7
:103C7000DF91CF9108950E94F21DF7CFCF93DF938C
:103C8000D42FC52F81110BC0862F8F7080686031B3
:103C90006CF08D2F9C2FDF91CF910C94321E8130D0
:103CA000C1F76031B4F7862F8F70806C0E94CF1DF2
:103CB000F0CF81E00E94CF1D89E995E10197F1F7EE
:103CC00000C080E80C94CF1DCF93DF93D62FC72F71
:103CD00090EC980F913440F40E94CF1D8D2F9C2FB3
:103CE000DF91CF910C94321EDF91CF910895811115
:103CF00006C0862F8F708068603144F0089581304F
:103D0000E9F76031DCF7862F8F70806C0C94CF1D43
:103D10000E94CF1D8FE084BBAA9AA99AA89A8AE430
:103D20008A95F1F793B3907FA898E8E2F2E0319793
:103D3000F1F700C00000A89AFAE4FA95F1F783B30E
:103D4000A8982FEF24BBA99882958F70892B08958E
:103D50008A98833059F4929885B7836085BF8AB773
:103D600080648ABF8BB780648BBF0895929A81303C
:103D700051F0823071F08111F2CF85B78D7F85BF10
:103D800085B78E7FEBCF85B78D7F85BF85B7816087
:103D9000E5CF85B78260F3CF8B98833059F4939841
:103DA00085B78C6085BF8AB780688ABF8BB780680B
:103DB0008BBF0895939A813051F0823071F0811158
:103DC000F2CF85B7877F85BF85B78B7FEBCF85B770
:103DD000877F85BF85B78460E5CF85B78860F3CFDF
:103DE000BA98833059F4C29884B7806484BF8AB784
:103DF00080628ABF8BB780628BBF0895C29A84B7F6
:103E00008F7BF4CF5F9BFECF8CB190E008955D9BDC
:103E1000FECF8CB980E090E008959B01AC0184E076
:103E2000220F331F441F551F8A95D1F760E070ECB5
:103E300088EA90E00E94572A2150310929B930BD03
:103E4000549A539A80B5866880BD08955F9B03C0DD
:103E50008CB190E008958FEF9FEF0895EDECF4E0C2
:103E600084E690E0938382839183808308952F92E8
:103E70003F924F925F926F927F928F929F92AF92FA
:103E8000BF92CF92DF92EF92FF920F931F93CF9347
:103E9000DF93CDB7DEB729970FB6F894DEBF0FBE1C
:103EA000CDBF8A839B836C837D834E835F8329830D
:103EB000C12CD12CA12CB12C1886F12C22242A94AF
:103EC000322C21018885823069F1F501E45BF54CE3
:103ED0003F01C6018C5A9F4F4C0195E09987F30131
:103EE000E490840129814E815F816C817D818A818A
:103EF0009B810E946B20462F572FBC014215530512
:103F00006405750518F4F8841A012B01F985F15040
:103F1000F9878FEF681A780A9DE8891A9EEF990A47
:103F2000F111DDCFE885EF5FE887F5E0AF0EB11C5A
:103F300081ECC81A88EFD80AE83021F68F2D29962F
:103F40000FB6F894DEBF0FBECDBFDF91CF911F91AA
:103F50000F91FF90EF90DF90CF90BF90AF909F9028
:103F60008F907F906F905F904F903F902F9008952B
:103F7000883048F4E82FF0E0EE0FFF1FE458FF4FC1
:103F800080819181089588E191E0089528E2FC0103
:103F900011922A95E9F708956F927F928F929F92DE
:103FA000AF92BF92CF92DF92EF92FF920F931F9347
:103FB000CF93DF9331E9632E30E0732EFC018C0147
:103FC0000C5E1F4F6B01770FEE08FF08E301A9910C
:103FD000B9913E0181909190A190B190A501940179
:103FE0000E94A22ADC01CB012EE0B595A7959795FA
:103FF00087952A95D1F78C0D9D1DAE1DBF1D40895B
:10400000518962897389841B950BA60BB70B808A33
:10401000918AA28AB38A9F0124503109E9018883D9
:104020009983AA83BB83E017F10781F6DF91CF91D3
:104030001F910F91FF90EF90DF90CF90BF90AF90C6
:104040009F908F907F906F9008950F931F9324E01F
:10405000629FF0011124E80FF91F00811181228174
:10406000338137FF07C030952095109501951F4F7C
:104070002F4F3F4F448955896689778977FF07C05D
:1040800070956095509541955F4F6F4F7F4FDB0165
:10409000CA01041715072607370710F4D901C8010C
:1040A000B695A795979587954017510762077307AF
:1040B00010F4B901A801840F951FA61FB71F009720
:1040C00021E0A207B10520F08FEF9FEFA0E0B0E064
:1040D0001F910F9108952F923F924F925F926F928E
:1040E0007F928F929F92AF92BF92CF92DF92EF9288
:1040F000FF920F931F93CF93DF93CDB7DEB7A097B7
:104100000FB6F894DEBF0FBECDBF8F839887698747
:104110007A874B875C872D8F0D871E87211509F4C1
:1041200091C1E11409F48EC1822F90E00E2D10E0B0
:104130009801220F331F4D8D2417310508F482C1D9
:10414000880F991F8017910708F47CC1E41608F0C6
:10415000E0C04E1949834980A5E04A0E8D8D8E1529
:1041600008F48E2D481618F044244A94480EBFEFE8
:10417000BE0DB88F000F111F000F111FA8016FEFA8
:1041800070E085E293E00E94C42BA8016FEF70E01D
:1041900089EF93E00E94C42B642C712C212C312CCC
:1041A00001E008A3512C0E2D10E0188B0F87015051
:1041B00011091A8B098B2B8A822D8419421408F05D
:1041C00080E00F851889601671060CF0ABC06F8E09
:1041D000482F50E0811599F0FA01319725E308A1A5
:1041E000209FE00DF11D1124EE0FFF1FEE0FFF1FAA
:1041F000EB5DFC4F1FEF10831183128313830F8D30
:10420000E02FF0E009891A89E017110694F431963D
:1042100035E308A1309FE00DF11D1124EE0FFF1FC3
:10422000EE0FFF1FEB5DFC4F1FEF10831183128316
:10423000138308A1802F90E0919581959109857352
:104240009927840F951F880F991F880F991F8C013C
:104250000B5D1C4F1E830D83852D90E091958195FC
:10426000910985739927840F951F880F991F880FCF
:10427000991F8C010B5D1C4F1C830B830D851E85C4
:10428000040F151F1A8309832F813885220D331DD2
:104290003A8F298F89859A85820D931D9C8F8B8FEC
:1042A000E42E1F8D141708F040C02FEF221A320A97
:1042B0003FEF631A730A4D8D241680F1E989FA895C
:1042C00008A185E3089FE00DF11D1124EE0FFF1FEB
:1042D000EE0FFF1FEB5DFC4F608171818281938146
:1042E000A0960FB6F894DEBF0FBECDBFDF91CF9181
:1042F0001F910F91FF90EF90DF90CF90BF90AF9004
:104300009F908F907F906F905F904F903F902F90F5
:1043100008958E2D9D8D891B89831DCF852D58A0D5
:1043200088A349CF188D1F8F53CFE981FA818491DB
:10433000E98DFA8DA081A81BBB0B9D010E94792AF3
:104340004B015C01E981FA81F5968491EB8DFC8D3E
:10435000A081A81BBB0B9D010E94792A860E971E87
:10436000A81EB91ECB84DC84C20CD31CE981FA815F
:10437000E659FF4F95E0F92E8491D6019C91092FC3
:10438000081B110BD80198010E94792A860E971EEE
:10439000A81EB91EFA9415E3C10ED11CF596F110B2
:1043A000EBCF8B898E29811509F441C0EB81FC810B
:1043B00080819181A281B381E114E1F0ED81FE81E0
:1043C000F290E290D290C290EB81FC8132912291E6
:1043D000129102910C8B1D8B2E8B3F8B08171907A6
:1043E0002A073B0710F4D901C801C816D906EA0606
:1043F000FB0628F18F3F1FEF9107A107B107D1F40A
:10440000ED81FE8181939193A193B193FE83ED831E
:104410000B811C810C5F1F4F1C830B8309811A8148
:104420000F5F1F4F1A8309834F5F5F4F39CF80E0C3
:1044300090E0DC01880D991DAA1DBB1DE1CFD701BD
:10444000C601F8CF6FEF7FEFCB014ACFCDB7DEB714
:10445000CB5CD1400FB6F894DEBF0FBECDBF60E895
:1044600075E280E090E00E940D1F0E942E1F1FBC8D
:104470001AE01EBD8CEA90E09BBD8ABD99BD88BD47
:1044800083E087B98EEE86B980B78F7180BF80B721
:10449000806A80BF78940E94151E60E080E00E94D0
:1044A000771E78949E012A553E4FC055DE4F3983C2
:1044B0002883C05BD140D9011D921A95E9F7FE010E
:1044C000E15CFE4FCE54DE4FF983E883C25BD140FE
:1044D00085E3682E11926A94E9F72C593109CC547E
:1044E000DE4F39832883C45BD140D9011D928A9560
:1044F000E9F789E091E0FE013196DF019C011D9210
:1045000021503040E1F7C754DE4F1882C95BD140DB
:10451000C054DE4F1882C05CD14031E0C854DE4F39
:104520003883C85BD14010E0C254DE4F1882CE5BA6
:10453000D140212C312C2101CB53DE4F1882C55C98
:10454000D140612C4CE0742E812C912CC654DE4F4E
:10455000688279828A829B82CA5BD140CC54DE4FCA
:104560007880C45BD140CF53DE4F7882C15CD140AC
:10457000CB54DE4F8880C55BD140CE53DE4F88825E
:10458000C25CD1409E01265F3E4FCA54DE4F398344
:104590002883C65BD140809122018115E1F380918F
:1045A0002201109222018150990B982F8827AC018B
:1045B0004D5D5E4F5A018091200190912101892B20
:1045C00009F0E5C0A3E0B0E0C654DE4F2881398190
:1045D0004A815B81CA5BD1400E94972A2AE0969566
:1045E0008795779567952A95D1F7CA53DE4F7983DA
:1045F0006883C65CD140F501B5017395C853DE4FA1
:1046000079836883C85CD14000E0C12CD12C76014D
:10461000CA53DE4F88819981C65CD14091958195BE
:104620009109C653DE4F99838883CA5CD1402081AB
:104630003181C90137FF04C088279927821B930B5A
:10464000092E000CAA0BBB0BC80ED91EEA1EFB1EBE
:10465000C654DE4F688079808A809B80CA5BD140D7
:10466000860D971DA81DB91DAC01BD01032E3AE0B2
:1046700076956795579547953A95D1F7302D3C013A
:104680004D01641A750A860A970AC654DE4F68827D
:1046900079828A829B82CA5BD140CA53DE4F88806E
:1046A0009980C65CD140821693060CF037C1CB537B
:1046B000DE4F9880C55CD140911030C10F5F21E082
:1046C000CB53DE4F2883C55CD1403296C853DE4FB2
:1046D00068817981C85CD140E617F70709F0A7CF58
:1046E000B7E0F694E794D794C794BA95D1F777E4F6
:1046F000C71618F4003108F44AC081E090E09093A6
:1047000021018093200185E3CE54DE4FA881B98139
:10471000C25BD140E82F1D92EA95E9F7CC54DE4FF9
:10472000A881B981C45BD1401D928A95E9F78AE0DE
:10473000C055DE4FE881F981C05BD14011928A9566
:10474000E9F789E091E0FE013196DF019C011D92BD
:1047500021503040E1F74BE950E060E080E00E94FA
:104760003E1EC754DE4F1882C95BD140C054DE4F95
:104770001882C05CD14031E0C854DE4F3883C85B3A
:10478000D14010E0CB53DE4F1882C55CD140809100
:10479000200190912101019709F09FC0D5018D91D1
:1047A0009C9166246394181619060CF0612CCE01B6
:1047B0008C589E4F0E94C61FF501F3954F0100E0F3
:1047C000C12CD12C7601D5016D917C91CB0177FF65
:1047D00004C088279927861B970B092E000CAA0B6B
:1047E000BB0BC80ED91EEA1EFB1E862D66246394E1
:1047F000161617060CF0612C68120F5FCE018C584C
:104800009E4F0E94CC1FB2E0AB0EB11CA814B9049D
:10481000D1F65E01E4E6AE1AEEEFBE0A4501612C68
:104820007A2CCC53DE4FB882C45CD140662DCE01C9
:104830008C589E4F0E942520D4018D939D934D014D
:104840006394B5E06B12F2CFC854DE4F6880C85B4A
:10485000D140611409F47BC08AE0E72DCC53DE4FD0
:10486000F881C45CD140DE01AA55BE4F01900D9283
:104870008A95E1F7C054DE4F7880C05CD140C854BF
:10488000DE4F7882C85BD140C754DE4FF881C95BE8
:10489000D140FF5FC754DE4FF883C95BD140F63388
:1048A00030F082E090E09093210180932001C85481
:1048B000DE4F6880C85BD140C054DE4F6882C05C68
:1048C000D140C254DE4F0883CE5BD1401601270190
:1048D000C854DE4F1882C85BD1408091200190916E
:1048E0002101029709F057CEFE01E15CFE4FDF0186
:1048F00020E04E2F8A2F8E1B811708F4F0C00FEF97
:1049000030E02111FFC09E012F5F3F4F7901C901A7
:1049100020E09E2C0F2DFC0130E0FEC0C653DE4F80
:1049200048815981CA5CD140241735070CF0CDCE9F
:10493000CB53DE4F5881C55CD140513009F0C5CE14
:104940000F5FCB53DE4F1882C55CD140BECE812FA6
:1049500090E0FE01E15CFE4FE10FF11D2C0C3D1CCF
:104960004E1C5F1C7727652D542D432D21143104D7
:1049700021E04206510408F04FEF4083AE01465F4C
:104980005E4F840F951FC254DE4F2881CE5BD1400D
:10499000200FDC012C93FE01EA55FE4F4F012CE85D
:1049A00030E0C254DE4F39832883CE5BD140FE0114
:1049B0003196E10FF11D9501265F3F4F4CE850E025
:1049C000CA53DE4FB982A882C65CD140CA53DE4FBB
:1049D000A881B981C65CD1406D917D91CA53DE4FEB
:1049E000B983A883C65CD140D4012D903D904D0180
:1049F000DA016D90AD01412C512C260E371E411C61
:104A0000511C04C056944794379427946A94D2F763
:104A10002114B1E03B064104510410F022242A94F1
:104A20002082F596CA53DE4F68807980C65CD140FB
:104A30006216730659F6B701A601E7E07695679509
:104A400057954795EA95D1F7D5018D919D915D01D7
:104A5000C254DE4FA881B981CE5BD140ED91C254E2
:104A6000DE4FB983A883CE5BD14002C0969587956F
:104A7000EA95E2F7039798F4A216B30629F74734AC
:104A800051056105710558F4C054DE4FB881C05C12
:104A9000D140BF5FC854DE4FB883C85BD1408AE0C5
:104AA000FE01E456FE4FDE01AA55BE4F01900D9265
:104AB0008A95E1F71F5F1A3008F4E6CEC854DE4F3E
:104AC000E881C85BD140EC3018F4153308F4DCCE33
:104AD00082E090E09093210180932001D5CE8D91CA
:104AE000281708F007CF282F05CF81917F0151E0CB
:104AF000E51AF108089FC0011124B9010E94432A58
:104B0000D7016C938E2F841B811778F3FCCE4191D3
:104B1000241708F4242F3F5F1313F9CFC596CA5406
:104B2000DE4F68807980C65BD1406816790609F04F
:104B3000F2CE211519F1F70188248A9430E06F0133
:104B400040E010C0D6018D916D015D01B1E0AB1A5E
:104B5000B108889EC0011124B9010E94432AD501E1
:104B60006C934F5F1413EECFF596CA54DE4F6880F6
:104B70007980C65BD1406E167F0609F74CEA50E09B
:104B800060E080E00E943E1E212F492D502FCF5320
:104B9000DE4F6881C15CD140CE53DE4F7881C25C6C
:104BA000D140CE01815C9E4F0E94371F082F4DEBF4
:104BB00050E060E080E00E943E1E4EEC50E060E07D
:104BC00081E00E943E1E802F0E94B81FAC0160E071
:104BD00081E00E943E1E8FED90E00E94232C111573
:104BE00009F496C09E01215C3E4FD9018D916D0163
:104BF0001F928F93E5EEF0E0FF93EF930E94062C57
:104C00000F900F900F900F9001E0101370C08BEE7B
:104C100090E00E94232C88EE90E00E94232C111536
:104C200009F48CC09E01265F3E4FD9018D916D0124
:104C30001F928F93E5EEF0E0FF93EF930E94062C16
:104C40000F900F900F900F9001E0101366C08BEE45
:104C500090E00E94232C92E7C92E90E0D92E2DEEF1
:104C6000822E20E0922ED6018C9111969C91B2E07A
:104C7000CB0ED11C9F938F939F928F920E94062CF4
:104C80000F900F900F900F90111509F46DC0F70160
:104C900081915F011F928F9385EE682E80E0782EC0
:104CA0007F926F920E94062C0F900F900F900F90A2
:104CB00001E0101348C08BEE90E00E94232C25E306
:104CC000E20EF11C3CE7C31630E0D30661F6109209
:104CD000210110922001C754DE4F1882C95BD140D8
:104CE00010E0CB53DE4F1882C55CD14054CCD601C6
:104CF0008D916D011F928F93E4EEF0E0FF93EF939F
:104D00000E94062C0F5F0F900F900F900F907DCF99
:104D100080E390E00E941C2C7ACFD6018D916D012A
:104D20001F928F93E4EEF0E0FF93EF930E94062C26
:104D30000F5F0F900F900F900F9087CF80E390E060
:104D40000E941C2C84CFD5018D915D011F928F9301
:104D5000E4EEF0E0FF93EF930E94062C0F5F0F90BC
:104D60000F900F900F90A5CF80E390E00E941C2C35
:104D7000A2CFAFE0B0E0EFEBF6E20C94AA2A7C0100
:104D80003B015A01FC0117821682838181FF57C3C0
:104D90009AE0292EF7012381F30123FD859123FF5A
:104DA00081913F01811509F442C0853239F423FD18
:104DB000959123FF91913F01953239F4B70190E02D
:104DC0000E94D62B65015601E5CF30E010E0912C12
:104DD000812CF0E28F1608F03CC09B3279F160F430
:104DE000903271F1933291F19E3209F046C086FC07
:104DF0001EC0689486F806C09D3229F1903359F59B
:104E0000689480F8F30123FD959123FF91913F0170
:104E10009111DFCF082D097F903709F486C208F081
:104E20007CC2983509F484C29F3609F488C2F70120
:104E3000868197812F96E2E10C94C62A689481F8C6
:104E4000689482F8DFCF689483F8DCCF689484F8A4
:104E5000D9CF87FC1CC080ED890F8A3028F686FEEA
:104E600005C0129D800D1124182FCCCF929C800D6F
:104E70001124982E689485F8C5CF9C3619F468944F
:104E800087F8C0CF9C3409F1983609F4BBCF3115AF
:104E9000F1F0892F8F7D8554833008F098C165012A
:104EA00028E0C20ED11C8FE3898301E010E0AE013F
:104EB0004F5F5F4F5A01E89487F883FC04C00915DF
:104EC000110508F4F0C1592C03C231E09BCF8BEBE4
:104ED000890F833098F4689484F8905E86FE16E01B
:104EE000582D5F73852E953689F4689486F8212FA6
:104EF000183010F027E017E0412C14C08BE9890F1F
:104F0000833008F064C1E89484F8E8CF963681F5E0
:104F1000689487F8812F1C3308F08BE34424439472
:104F2000480E27E0F50161917191819191916F0196
:104F3000042DAE014F5F5F4F0E94E12A5C01398072
:104F400030FE03C00DE233FE05C082FA002705F9EA
:104F500081FC0BE2F32DFC705F2EF11529F101119C
:104F600071C224E0512C921608F483C283E06FC210
:104F700020E0111509F4C0CF1150B9CF8110805233
:104F8000B70190E00E94D62B0F5F1F4FF80184916C
:104F90008111F4CF511409F416CFB70180E290E0EB
:104FA0000E94D62B5A94F6CF87FE30C0842D8A0DEE
:104FB00034FE04C09A81913309F48150442443940F
:104FC000181634F4482EF9E08F1710F088E0482EB8
:104FD000C501B7FE02C080E090E001960111019684
:104FE000111531F0212F30E02F5F3F4F820F931FBB
:104FF0008915910514F4592C581A882D897081113E
:1050000036C051102DC00115D9F133C086FC25C022
:10501000E12FF0E01A151B043CF02CEFA2162FEF45
:10502000B20614F0689487F83296AE014F5F5F4F76
:10503000E40FF51F01C01150111519F08291803352
:10504000D1F387FE0AC044244394410EA116B10453
:1050500014F41A19BDCF10E0BBCF85E090E0BECFAD
:10506000B70180E290E00E94D62B5A94CACF011576
:1050700029F0B701802F90E00E94D62B83FC02C05C
:1050800051103FC087FE57C04501B7FE02C0812CBA
:10509000912CCE0101968A0D9B1DFC01E819F9099E
:1050A000FD87EC879501241931093F872E87012F51
:1050B00010E0119501951109A814B9044CF14E8521
:1050C0005F854815590524F5EC85FD858181F1E062
:1050D0008F1A91082C853D852F5F3F4F3D872C8788
:1050E00080169106BCF0B70190E00E94D62B3FEFEE
:1050F0008316930609F7B7018EE290E00E94D62B43
:10510000DBCFB70180E390E00E94D62B5A94B8CF52
:1051100080E3DDCFA814B90439F49A81963348F4BA
:10512000953311F434FE05C0B70190E00E94D62BF0
:1051300031CF81E3F9CF8A81813311F0E89434F8DB
:10514000B70190E00E94D62B111125C085E490E0B4
:1051500084FC02C085E690E0B7010E94D62BB7FC24
:1051600005C0A114B10461F534FE2AC0B194A19424
:10517000B1088DE2B70190E00E94D62B80E35AE09F
:10518000A516B104FCF4B70190E00E94D62BB7013C
:10519000C501C096CBCFB7018EE290E00E94D62B1E
:1051A0001E5F02E0802F0F5FFE013196E80FF11DB8
:1051B0008081B70190E00E94D62B0113F3CFC6CFB8
:1051C0008BE2D8CF8F5F4AE0A41AB108D8CF9336CC
:1051D000E1F1933709F447C0933509F453C094368D
:1051E00019F0993609F080C0F50187FE75C061910C
:1051F0007191819191916F01082D0F7697FF08C0F1
:1052000090958095709561957F4F8F4F9F4F006867
:105210002AE030E0AE014F5F5F4F5A010E944F2CF1
:10522000B82EBA1806FF95C0802F8E7FB11608F0F1
:105230008FC004FFE1C002FDD5C00E7E512E802F2D
:105240008678811509F490C0D2C0650182E0C80E4D
:10525000D11CF5018081898301E010E09E012F5F60
:105260003F4F590128CEF501A190B1906F01612FF8
:1052700070E086FC02C06FEF7FEFC5010E94CB2B70
:105280008C0119CEF501A190B1906F01612F70E0F2
:1052900086FC02C06FEF7FEFC5010E94B92B8C0125
:1052A000689487F80ACEB70180E290E00E94D62B7E
:1052B0009A9405CEF50187FC859187FE81915F0167
:1052C000B70190E00E94D62B51105A940150110959
:1052D0000115110579F75ECE619171916F01072E6D
:1052E000000C880B990B88CF082D0F7E2AE030E048
:1052F000953709F08FCDF50107FF24C061917191B9
:10530000819191916F01AE014F5F5F4F5A010E94F1
:105310004F2CB82EBA180F7785CF983709F087CD64
:1053200084FC04C020E130E0E6CF00610460FACFE5
:1053300084FE02C0082D066020E132E0DCCF28E0C8
:1053400030E0D9CF619171916F0180E090E0DBCFC7
:10535000082F5B2C04FF73CFFE01EB0DF11D808144
:10536000803309F042C0097E03FD0EC000FF50C02B
:105370001B2D591418F4190D1519592C892D85193F
:10538000951408F480E0580E591408F043C095189D
:10539000592C04FF41C0B70180E390E00E94D62B56
:1053A00002FF09C088E590E001FD02C088E790E0B7
:1053B000B7010E94D62BB116D8F1BA940B2D10E08C
:1053C0000F5F1F4FCE0101965C01080F191FF801F6
:1053D00082918F01B70190E00E94D62BA016B106F2
:1053E000B1F7D8CD512E082FB7CF02FD02C053948C
:1053F000BBCF53945394B8CF512E082F20CFB70171
:1054000080E290E00E94D62BA394A914C0F3B6CFFB
:10541000A52CFBCF512CBDCF802F8678811559F25A
:1054200080E201FD8BE207FD8DE2B70190E0C1CF84
:10543000B70180E390E00E94D62B1150BCCF8FEFD4
:105440009FEFF8CCF5E0512C9F1670F084E0592CBA
:10545000581A83FC07C0B70180E290E00E94D62B67
:105460005A94C9F7011529F0B701802F90E00E94E6
:10547000D62B04E71AE333FC02C008E71AE3282D11
:105480002071822E83CDAA1BBB1B51E107C0AA1F2E
:10549000BB1FA617B70710F0A61BB70B881F991FD5
:1054A0005A95A9F780959095BC01CD010895A1E288
:1054B0001A2EAA1BBB1BFD010DC0AA1FBB1FEE1F8E
:1054C000FF1FA217B307E407F50720F0A21BB30BD9
:1054D000E40BF50B661F771F881F991F1A9469F755
:1054E00060957095809590959B01AC01BD01CF01B1
:1054F00008950E94812A332312F48A1B9B0B0C947B
:10550000922AA29FB001B39FC001A39F700D811D7D
:105510001124911DB29F700D811D1124911D0895BC
:105520000E94812AB7FF0895821B930B08950E9461
:10553000812AA59F900DB49F900DA49F800D911D71
:1055400011240895B7FF0C94972A0E94972A821B72
:10555000930B08952F923F924F925F926F927F929A
:105560008F929F92AF92BF92CF92DF92EF92FF9273
:105570000F931F93CF93DF93CDB7DEB7CA1BDB0B1F
:105580000FB6F894DEBF0FBECDBF09942A883988C4
:1055900048885F846E847D848C849B84AA84B984CB
:1055A000C884DF80EE80FD800C811B81AA81B981D7
:1055B000CE0FD11D0FB6F894DEBF0FBECDBFED01EB
:1055C0000895283008F027E03327DA01990F311DBC
:1055D00087FD916000966105710539F432602E5F98
:1055E0003D9330E32A95E1F708959F3F30F08038EE
:1055F0007105610509F03C5F3C5F3D93913008F017
:105600008068911DDF93CF931F930F93FF92EF92CA
:10561000192F987F9695E92F96959695E90FFF2774
:10562000E854F64A99273327EE24FF24A701E7011F
:1056300005900894079428F4360FE71EF81E491FBA
:10564000511D660F771F881F991F0694A1F70590BB
:10565000079428F4E70EF81E491F561FC11D770F47
:10566000881F991F661F0694A1F70590079428F4D8
:10567000F80E491F561FC71FD11D880F991F661F9F
:10568000771F0694A1F70590079420F4490F561F41
:10569000C71FD81F990F661F771F881F0694A9F789
:1056A00084911095177041F0D695C79557954795F9
:1056B000F794E7941A95C1F7EEE5F9E5689415902B
:1056C000159135916591959105907FE27395E1185B
:1056D000F10A430B560BC90BD009C0F7E10CF11EC0
:1056E000431F561FC91FD01D7EF4703311F48A95D5
:1056F000E6CFE894015030F0080F0AF400270217B3
:1057000008F4202F2395022F7A3328F079E37D9334
:105710002A95E9F710C07D932A9589F60694979506
:105720006795379517951794E118F10A430B560BB7
:10573000C90BD00998F023957E9173957A3308F0C0
:1057400070E37C932013B8F77E9170617D9330F005
:10575000839571E37D9370E32A95E1F71124EF902F
:10576000FF900F911F91CF91DF91992787FD909521
:105770000895FC010590615070400110D8F78095A4
:1057800090958E0F9F1F0895DC0101C06D934150CD
:105790005040E0F70895FC01615070400190011005
:1057A000D8F7809590958E0F9F1F08950F931F93A4
:1057B000CF93DF93182F092FEB018B8181FD09C057
:1057C0001FEF0FEF812F902FDF91CF911F910F913E
:1057D000089582FF14C02E813F818C819D812817FE
:1057E00039073CF4E881F981CF01019699838883D8
:1057F00010838E819F8101969F838E83E3CFE885FE
:10580000F985812F0995892BA1F3DACFA0E0B0E0CB
:10581000ECE0FCE20C94BA2AAE014B5F5F4FFA0158
:1058200061917191AF018091CF049091D0040E9459
:10583000B926E2E00C94D62A6091CF047091D0048E
:105840000E94D62B08950F931F93CF93DF93E0917F
:10585000CF04F091D004238100E010E021FD0EC0C0
:105860000FEF1FEFC801DF91CF911F910F910895A6
:105870000995892B11F00FEF1FEFCE01EC018991F3
:105880006091CF047091D004DB011896ED91FC91EA
:105890008111EECF8AE00995892B21F3E1CFFA013E
:1058A000AA27283051F1203181F1E8946F936E7F5F
:1058B0006E5F7F4F8F4F9F4FAF4FB1E03ED0B4E050
:1058C0003CD0670F781F891F9A1FA11D680F791F91
:1058D0008A1F911DA11D6A0F711D811D911DA11DA2
:1058E00020D009F468943F912AE0269F11243019B2
:1058F000305D3193DEF6CF010895462F4770405D4D
:105900004193B3E00FD0C9F7F6CF462F4F70405DFB
:105910004A3318F0495D31FD4052419302D0A9F756
:10592000EACFB4E0A6959795879577956795BA9550
:10593000C9F700976105710508959B01AC010A2E16
:1059400006945795479537952795BA95C9F7620FED
:10595000731F841F951FA01D0895F894FFCF00406A
:105960007A10F35A00A0724E18090010A5D4E8006E
:1059700000E87648170000E40B54020000CA9A3B86
:10598000000000E1F505000080969800000040420C
:105990000F000000A086010000001027000000009A
:1059A000E803000000006400000000000A0000009E
:1059B00000000100000000002C76D888DC674F084A
:1059C00023DFC1DFAE59E1B1B796E5E3E453C63A50
:1059D000E651997696E8E6C28426EB898C9B62EDC7
:1059E000407C6FFCEFBC9C9F40F2BAA56FA5F49081
:1059F000055A2AF75C936B6CF9676DC11BFCE0E4F8
:105A00000D47FEF520E6B500D0ED902E030094354D
:105A100077050080841E080000204E0A000000C8A0
:105A20000C333333330F986E12831141EF8D2114F1
:105A3000893BE65516CFFEE6DB18D1844B381BF7C1
:105A40007C1D901DA4BBE424203284725E22810060
:085A5000C9F124ECA1E53D279A
:105A5800000004000000000300000000071F021FF0
:105A680000005E018403A4068C0AAC0DF300F60066
:105A7800FA000001050108010D0112010A080706D4
:105A880005337B0562AC1E2ABEBE895265636F7200
:105A980064696E672E2E2E2020202000436C6173CF
:105AA80073696679696E672E2E2E2020004465740E
:105AB80065637465643A202020202020200020207F
:105AC80020202020202020202020202020200053BB
