:100000000C9422110C943F110C943F110C943F114D
:100010000C943F110C943F110C943F110C943F1120
:100020000C943F110C943F110C943F110C943F1110
:100030000C943F110C943F110C943F110C943F1100
:100040000C9441110C943F110C943F110C943F11EE
:100050000C943F116E616E00696E6600B1D8E9E8DC
:10006000E2EDF4F1E8DED1A570636261665C4127E0
:100070001A110E0B070604040402001D1D1D1F218A
:10008000211D1714151416191919170F0E100E0F1C
:100090001110111216151519120011202D465D7937
:1000A000A8C07B403513090A14150804020000009B
:1000B0000000000000000000002A3C4635312213F9
:1000C000151C364D2E050101010101000000000044
:1000D000000000000000000021353238332C3125AB
:1000E000100F1309030403030201010000000000C4
:1000F000000000000000000723424E452E1D33463D
:10010000323E402014222F2610050100000000007E
:10011000000000000000235C93BDAD726B968B79EC
:100120004E271408090B130E020100000000000006
:100130000000000000E0EDF0F3F4F7F8F5F0E3D68E
:10014000C9B190776F685D4C37291F18120D0907E8
:1001500007070502232628272728261F171514120C
:1001600013151616130F10100C0A0E110F0D0D0E8D
:100170000D100D0E1A1C1A31445B83926E383B260B
:10018000161C170C08070502010000000000000003
:1001900000001F2F4C646B7B7E9B81535337250FD0
:1001A0000E0D010200000000000000000000000031
:1001B00000626A8E9F574B4362AB77442811050457
:1001C000060703010001000000000000000000001D
:1001D000ABE5C4C1D1B1C6C97277865B21445C313D
:1001E000110F0A070101010000000000000000D209
:1001F000F1E8CAE2FFFFFFFFB05AC0981F191D15B2
:100200000705030402000000000000000000A7CC66
:10021000E0E8EFF4F6F4EDECE6CEAE8B6C5E5B4F0F
:100220003C2A1F17100C0B0806040302011C1C1D9E
:100230001D1D1D1D1915131313141618141111105B
:1002400010100F10100E0F121715100B151C21385F
:100250004F71979F7C583F2619121217140B0402F6
:10026000010000000000000000000054472E474C31
:1002700034373C69ADB16D290D0602010100000063
:10028000000000000000000000002F4744342C262E
:100290004C5E37221C170F070706040101000000FF
:1002A0000000000000000000000F1930748151614F
:1002B000623E233449514B2C2A270F0603020100CA
:1002C000000000000000000057759DCCE1E5D2E37E
:1002D000BD866A5B32221A110D0705040100000079
:1002E00000000000000000C6D5DEE9F9F7F4F8F0E0
:1002F000ECF6F9F8F0E2C4AAA49A7E5A463A2E2205
:100300001817130A0403282E30282023302F292001
:10031000121212121217170F0E0E0D0D0C0E0E0DDB
:100320000A060C171C201C1E375A74637E986F5ED9
:10033000340C2336412C0B0A080403000000000093
:10034000000000009AD8A56654202E381E4AB4D06A
:10035000841C1A120C0804020202000000000000B3
:1003600000000014D8FFD3B3C8FFEE505CCCA60D3C
:1003700018373C210C0606050200000000000000B2
:100380000000703E8AFFFFAACC964C38425677A2F6
:10039000C292B6AC7C2A281B0901010000000000B3
:1003A00000FFFFFFFFFFFFFFFFFFFFD8D4BEBC9899
:1003B000A33E2A22150E08040407050000000000D1
:1003C000D0E1ECF5F8FAFCFCFBF7FAFAF3E6C8AD7D
:1003D000A49C8A6E514033271C120E080403022984
:1003E0002B2C2B2C2B2A231A151111101216150E3B
:1003F0000C0C0C0B0E0F0A0A0A090B0F171B2120FD
:10040000285155516C6257360D0C1F3F3C2924135F
:10041000070704020100000000000000001C202C5F
:1004200035372B253087FBF1692B291709050B0C74
:1004300005020100000000000000000038193988A2
:10044000C79892807A8331483E2530230D060402F6
:10045000010000000000000000000069C8A99E998A
:10046000B1ABCCC777206C8EB39BA8C69A542A1325
:100470000F040200000000000000FFFFFFFFFFF973
:10048000FFFFEDFCA8688A634C445C4F1E150B050A
:100490000402000100000000009ECFF8FFF8F5F60E
:1004A000EBC47E564934261D140E0D0A08050403BC
:1004B00000000000000000001B1D1E1F1E1B1D2051
:1004C00021221C192830363B322B333B42515D0030
:1004D00000000000000000091C160724210D1F1B4E
:1004E0000701020200000000000000000000000000
:1004F000000000000000041927538195FFFF956B51
:100500005818030203010000000000000000000072
:1005100000000000000506040613100C312B08042F
:100520000E1006050303000000010000000000009B
:10053000000000000F3780FFFF74F6E81A0605017F
:1005400003030101000000000000000000000000A3
:1005500000000099FFC5FFFFC5F3FFFF853F221094
:100560000E0C02010102010000000000000000006A
:100570000000A6CFE6F2F8F4DC9F6852402E231A62
:10058000130E0B0906050402000000000000000025
:10059000001E1E1F1F1F202124231F2124262D364D
:1005A0003A3634383D43310A0500000000000000AF
:1005B0000F151A1C1B1F1C10060302000000000070
:1005C000000000000000000000000000000000200B
:1005D000283B55636F685340200F0702010000005D
:1005E00000000000000000000000000000000F1CE0
:1005F000242D41423321120E0C0C09060301010186
:10060000000000000000000000000000000D1623A4
:100610002C33595725120D07060606050402010062
:10062000000000000000000000000000547A9DACB3
:10063000B2CABB853D2B1F201C0D0803030201011C
:100640000000000000000000000000A8CAE8FAFB5B
:10065000EEC2895E4433251B130E0A080604040209
:10066000020000000000000000001E1E1F1E1E1FD2
:100670002020202224252E393634393A3A3F321EA2
:100680000000000000000000001217161B1D170CD0
:100690000302010000000000000000000000000054
:1006A00000000000000000000D273C352B333E34D5
:1006B0001A0F0B0201000000000000000000000003
:1006C0000000000000000009327FC6B285654C0FB3
:1006D0000002030302000000000000000000000010
:1006E0000000000000001233485B5127100604028E
:1006F00002030302010001000000000000000000EE
:1007000000000000005E96B18E56452D161A191293
:100710000F080705010001010100000000000000B2
:1007200000000000C6D3DEE4EBF0F6FAE9ADACEA77
:10073000D7C6EEFFAD636436182B464D49412917E5
:100740000E080622232324221D1B16101310090B4A
:10075000110C030D100B18241A0A050302020202E1
:100760000C0D0F0F020817150E0F1D191329271650
:100770000C0704020100000000000000000000005F
:1007800000FFFFB8FFFFFFFFFFFFB9902A22331ED3
:10079000121002020000030301010100000000002A
:1007A000181C1E251308103734061A3220132E2366
:1007B0000909010100010102020000000000004ED1
:1007C0003E32FFFFFFFFEA4B3A08060D0B001B1EEF
:1007D0000405050105090403040100000000FFFFF2
:1007E000FFBDCBF2FFFFFF6A6C3F3D42373D411B2F
:1007F000100E070C0E0C06050300000000C8D7EB16
:10080000F3F4F6EBCDC6D9E1D5B497886E43282032
:10081000211B14100A090A110D040303282D353277
:100820002B2115110C0C110F0E0F1417181B1A1277
:100830001416100B0B0F0A0403030017121A1B1BCC
:10084000252518111B1909050505030000000000E6
:1008500000000000000000000000CBBEBDC4C6EDDB
:10086000BE7F4C1A0F292710100704030101010055
:100870000000000000000000006D7FABD4CAB67E0F
:100880005F102F3C200C080D100A0202000101002D
:10089000000000000000000099BADFB89DC8842E57
:1008A000161B1A2F331413170C0403030200000045
:1008B00000000000000000FFFFFFFFFFFFC8B2AF15
:1008C000A0A47A24324B37170D0B06040200000057
:1008D00000000000000041403D33200E0607276F56
:1008E000C1EEEFEBF3FCFCF8F4E5CAAA845D3A2212
:1008F000181512100C9E9186889393715B5D4324AA
:10090000242F33302D2A28292B2D29211D20241E68
:10091000161C2E3D01030301000000001448502462
:100920000D0805050C12182E47362114020201018C
:100930000000000610150D0700000004133A6F7741
:1009400061462E2C4677826E3C0F0A0301000000A0
:100950000000232F4B35110401040A2D81CFFFCB5A
:10096000CFA46DAFA0909890320B0501000000005D
:1009700000888482864D0C04036FB8C0CFE1DDFF90
:10098000FFFFC2EDFC9F4D3C15060403010101026F
:10099000FDE2DEDDB051090CB2DEFFFFFFFFFFFF1D
:1009A000FFEDD0FBF9995F2430332305030B0E3A9A
:1009B000373328180E0C1B57B1DDD2DAF3EEE6ED13
:1009C000E2C1844E3A2C1E14100C0A0604047687E9
:1009D0008C7F7A756C6240232023242222212020E0
:1009E000201E18181C1C1D171220322E1F0001007B
:1009F00000000000011E2A16080609040206121E45
:100A00001C0C000000000000000000001218180D6F
:100A1000020000000212162138230E243226282854
:100A20000F01020000000000000000242C3E300EE8
:100A30000203141E0E083EFFFFFF312E1E1B0C0684
:100A4000020000000000000000009E7D2F2E170A0B
:100A5000040E4971489AA42816322B141E14060756
:100A6000040200000000000000FFFFFFFFED5E1A1F
:100A70003C44CAC04898DAA89E84140A0B1109089D
:100A80000602010000010101D0CDD4DCE7FAFDF23D
:100A9000E5B881583C302217130E0B0806040403F6
:100AA000020200000000001E222322222221201F19
:100AB0001E1D1C1A1A1614151A2C3C362E281D122F
:100AC000140000000000120503020203050C1418B4
:100AD000140C0500000000000000000000000000F1
:100AE0000000000000151712223E3F292A36240B71
:100AF00005020101000000000000000000000000ED
:100B0000000000002872985017192D402C150C0574
:100B100002000000000000000000000000000000D3
:100B20000000003B2C253D8170303021201C090144
:100B300002010000000000000000000000000000B2
:100B4000000098A0727BA79A7D7D504121161B0C56
:100B50000501000102020202010000000000000085
:100B600000352E2A1F120B0D2567AFC9CFE0EEF519
:100B7000F7F2E4D3AC754F38261B140F0B080705AA
:100B8000A39F9E9B9482705F371D202222222121E9
:100B900020201F1F1D19181A19151214273634008A
:100BA0000000000000000410120A05040406090CED
:100BB0001012110C050100000000000000000303EA
:100BC00001010000000204090F1923252B303B35D9
:100BD0001F160B040101000000000000001A140C95
:100BE00007030102090F25384A5D452D2C201B18EB
:100BF0000E08020201000000000000003A39311F17
:100C00000C05091F1F192227333A443A2A241B14C2
:100C10000B06020100000000000000FCE5E9EBBA51
:100C20004F64B8AC68617D87828D8F8B6A53411D9C
:100C30000808060301000103050426190905040F2D
:100C400048AFECE8E3F3FFFDF6F0F7FCF1D99B6267
:100C5000543B1F1814110E0C0C9093A4765E8968F7
:100C6000271E2A33302B27272824232A2F2E271606
:100C7000121614110D13508F0000000000001E27E3
:100C80000D0400030301030A121328533F0D05014D
:100C900000020100000000020000000004041D2505
:100CA000090F1317170F1242E3D94216040101006E
:100CB000000000000000130B00000004084FFFFFBD
:100CC000FF37111B22265A61FFFF6E130702000037
:100CD000000000000039360D00000A130AFFFF2D46
:100CE000E5FFFFFFFFFF51A3833B18020200000056
:100CF00000010607FFBC29090DFFFFFFFFFFFFFFF3
:100D0000FFFFFFFFFFFFFFFFDF281C0E05000100B4
:100D10000A0D0F3636342920160B0D1A4EB6F3EF96
:100D2000F5FEF6F4F9C26C4C50482E1C140E0C0A59
:100D30000805918E8E898A84796E66461E1F23224D
:100D400024262522211C1613131717151412131805
:100D50001E000001010000000000191E0B0A08041B
:100D6000040B18281C05020101000000000000000F
:100D7000090507040100000102021C40402B1D2D43
:100D800074B4BE812C100904000000000000002093
:100D90000F1817130D01080C090A3E818F602434C7
:100DA000482709000000000000000000000076AAAB
:100DB000853C220C05153B46508A9E6E3273A97EF7
:100DC000250B0303010000000000000000E4FFE623
:100DD00080B49D4036453B94BCCCD3DACBCABA86AE
:100DE00035140C060302000001010707DFE5E7F0F8
:100DF000F8F4DFA263504E412B1A120E0B080605C1
:100E000004040300000000000000001F2424252526
:100E100023211F1E1913121316141212151B1A194F
:100E20001E1805000000000000001D0A0708080940
:100E3000131C130702010000000000000000000066
:100E40000000000000000000001821303C374B6D0E
:100E500054201408050100000000000000000000FC
:100E600000000000000000005066584C482E1E1480
:100E70000602010100000000000000000000000068
:100E8000000000000000005787917E5D2914120DBC
:100E90000602010000000000000000000000000049
:100EA000000000000000DED7DDAFA4827D58261FC1
:100EB0000E0602000000000000000000000000001C
:100EC000000000000039322E25170F0F1F52A0D648
:100ED000E9EFF0E9E3C6865E5446372619110D0A9C
:100EE00008050403888D90908A7C7874502D232106
:100EF00024252322201D1C1813161715141213184D
:100F00001917150000000000000002141F10080847
:100F10000608101E180C0A03000000000000000064
:100F200000000B0A0A040000000206132A2A1C1DF6
:100F30001D385C351211080501000000000000009A
:100F4000001528321707030C121010324B706E3A3E
:100F5000190F05030200000000000000000000005F
:100F6000694E423A180E13383D6B88575047303857
:100F7000230806030000000000000000000000E15C
:100F8000EBCCDA9E765472958CAAD5E2BBCCAE47F8
:100F9000180B0906020100000000000101003835AD
:100FA0002D261D0F0603051562C9F5F3EBEDF7F8C5
:100FB000EABB7B564F452C1B130D090B0A6D6C6E5B
:100FC0006D70746F4B374639201D232C2F2A241D3A
:100FD0001614120F11121011100E0F15000101003E
:100FE0000000000000003942120B0606040D434EBB
:100FF000210A020201010000000000220E1A261838
:1010000001000000010669AC57142D47AFFBFC49F5
:101010000606050301000000000058250E140B050C
:10102000000001101A7DDEFFFF355274B268100116
:1010300001020100000000000073A17D4F34040193
:101040000008547F9AFAF2BED6DDFF75270401012D
:101050000301000000000000D5CCE1AD8E390E0286
:10106000088FADFFFFFFFFEFFFFFFFDC650A0A0CF3
:10107000080000000004043E35302C241A0E060936
:101080001A4AA0E4F3EEF1FBFCF1E9B76D47403EEC
:101090002D1A100E0C0A727D7B787F887A605C674F
:1010A000613A252C2D2A2725241F1B1A17100E11F3
:1010B0001212100E100101010100000000000119C0
:1010C0003A3D27100907060E2640270502010000B9
:1010D000000000001413060D0C0500000001080FAD
:1010E0001959785F392463B7BD730D0703030100F5
:1010F000000000211021201D1904000216190C2BDC
:10110000488D9BA26243704704020000000000006B
:101110000000998C8B622C2D12030F304B8A89AD05
:10112000DBFFF5C08E240D0102020100000000016A
:1011300001FFE8FAE7EDC067122A96D5D7FFFFFF57
:10114000E1DAEAC96143271A0D0602010000000036
:101150006B82A6C8DCEBEED28B52453F34271C14C1
:101160000F0C0A0605020201000000000000002921
:101170002B32383932292523201C1814161B1A1932
:101180001F221D1C100B04000000000000000806B8
:10119000040202060B0F090201000000000000001B
:1011A000000000000000000000000000000A13170B
:1011B0001C201817231E0904020100000000000073
:1011C00000000000000000000000000009111310E2
:1011D00014262A1909020000000000000000000087
:1011E00000000000000000000000000A0F22284B51
:1011F00054281C0D01010100000101000000000045
:10120000000000000000000000001B4283A6ECEA82
:10121000AA612F0C0503020201010000000000007A
:1012200000000000000000000099D1F8FFFAF0BBB8
:101230006D41454B30191210100F09091657C89F00
:101240004F4639311C14090D2B343A383A322421D7
:101250001C110C0E0F0F0F141C24251A0902040672
:1012600006030405030202060D0E131A0F181901D6
:101270000102010000000000000000000000010069
:10128000000000000000B5FFFFC5281898970A0A63
:101290000401000000000000000002010000000046
:1012A000000000000017A1FFFFEDF9630904020030
:1012B0000000000000010000000201000101000028
:1012C000000000001E4CFFFFFFC94E11010102018A
:1012D0000000000001000002020000010000000008
:1012E000000000FFFFFFFFFFFF80812203020000DC
:1012F000000004050000040F0B03070501010201B3
:10130000000092BDDFEFF6E3A7684B41382A1E15B7
:10131000100F0C080503020101000000000000008E
:10132000002D363B393127242520181314161716A3
:1013300014181D1C160C0903020202010100000012
:10134000060403030815160802010000000000004F
:101350000000000000000000000000000000002568
:101360002E25313A3A40290A06020000000000000A
:1013700000000000000000000000000000001E301F
:101380003D47564017030101000000000001010025
:1013900000000000000000000000000000274E4F89
:1013A000807A461D060201000000000000000000D7
:1013B0000000000000000000000000004C88AFE3C7
:1013C000CF90531C0E0A0502010002030101000028
:1013D000000000000000000000000098B6E4F6F8ED
:1013E000F2C48256413E38211214172B8AE4C68873
:1013F0008071523C2A1C0E100E08272C3A3B3628CE
:101400001A1214160E0A10160E0E0E070506050403
:101410000202020302040402080A030806042E481A
:10142000280D040200000000000000080C09040060
:1014300000000000000000002C141A22186CE99C27
:101440001002020001000001020208080102040368
:10145000010000000000001E15627D3C4A421000A1
:10146000000200000000000101040607060200005F
:1014700000000000000016233897C8C8861E040428
:1014800001000000000203080E0A02050C0A030016
:101490000000000000A1FFFFFFFFFFB94F18140E6E
:1014A0000A0100080B05141E202822170E06020050
:1014B00000000000B5E0F3EFE8D0A378462A26222A
:1014C000171F2263D1F6FFCD7784814D391E0F0B94
:1014D0000907033D3D3C3A322319191B190E0C1024
:1014E00016170C0B0D07040706040403030204047B
:1014F0000113010205080637461606010000000127
:10150000010307080A0500020100000000000000B6
:1015100000FFFF50C9FFFF46160701020000060644
:101520000446430908020303010000000000000014
:101530002E51FFFFFF7A3402000001010001020278
:101540002D2D070400000000000000000000002313
:1015500091D3FFFFFF4216020200000003030307BE
:101560005659060103050502000000000000FFFFB8
:10157000FFFFFFFFFF7F03050706010E0F0B638AC6
:10158000471704050505020100000000006E6A61AE
:101590006B89B4DEF5F8EFE9E4D8CEC4BAAC98892B
:1015A000755B4436281F18110F0F0B09100F0F130E
:1015B0001D272A27282B3033322D2A26211B1917C5
:1015C000151513110F0D100F0C0E0D050503040654
:1015D0000504020405050507090C10181D17100A5B
:1015E0000402000000000000000002000001040CE2
:1015F000142020191C223F5C604F2D1307040301A7
:101600000000000000000000000102010828515EF7
:101610003F305C717C5D472B1E140F0B08040201E8
:1016200000000000000000000200010A0E183A5AF3
:101630005C514641454A4020120C0502020100005F
:10164000000000000000000C0C090D2C71B1D0F757
:10165000C4E3D6B38B5B493623180D09050301009B
:10166000000000000000757C77708DCDECEDEAEB9A
:10167000F9FEF9F2F1F5F6EED6B79C857066604F8B
:1016800042382E261E0E0F0F0F121D2A31352D2324
:10169000262B30302E261B191B1B16130F0D0E0E7A
:1016A0000C0C0B081011110E090E0C09090403048F
:1016B000060C17202D4639292C251F0E0304030183
:1016C0000000000102010127352B2B1B29403C4261
:1016D0005EA8D0B4A7824A2B1109040201010000C0
:1016E00000000402040438C9F6DAC2D6C98C76A612
:1016F00091875884661E140F0B0403020101010137
:1017000000020201043CA0FFFFFFD4C9F3FFFFE485
:10171000FFFBC55546190A07080809060102020120
:10172000140E13254FC4FFFFE6FFFFFFFFFFFFFF6F
:10173000FFFFFFCE994E201D1B0505030202017C11
:10174000827688B4CFE2ECE9E8E8E0DAD1D5DDD4FE
:10175000B88D7C6F523C32261F1C14100F0D0F0EDB
:1017600012161E2E3432333840403A352D24201FB5
:101770001612151518140E10100C0A07080604048A
:10178000161E0F06080804060604050B181C201E6A
:1017900012110C060100000000000000020100040C
:1017A000151C193A688494A6762E1F2E2619160445
:1017B00004020000000000000000000202062CC825
:1017C000FFE6D88A6C89A4C6B66C221E140A1114CE
:1017D0001106000000000000000002000A1E242C78
:1017E000728E6E4F5056568C6C2217170C070400E1
:1017F0000102020000000000000D110A22A1ACF05D
:10180000FFFFD0663C504C344446866620180404E2
:101810000402000000000000756F5F4E5E8BBADCB2
:10182000F0F2EAEEEADDD5D2CAB9A5937F6B564055
:10183000332A211A14100E0F0F0F0D111D282C27FB
:10184000272B2E2F2F2D2926231E1C1A1614131179
:101850000F0E0D0D0D0B0B050303050708070504FF
:1018600004030406090C0F141C20180F0B050201B9
:1018700000000000000101010101080F13161614F9
:1018800012151E363B323829170B020101000000E9
:1018900000000000010201010A1C657439223D4C60
:1018A0006F725D522F160B0605050503010000003F
:1018B00000000003010102040C24587167444D5FCD
:1018C000675D372A1E0B05040301010000000000BC
:1018D00000000D0B0805193062AEC8DDBCC0D2DEB9
:1018E0006A6D7957311F130C0909060201000000C7
:1018F000007E8085A6D4F0F4EEEEF7FCF9F6F0EA6F
:10190000DECFBDA78C726A5B4E42322F2A221C1694
:1019100010101114181D23282C282726262A2926C2
:1019200024201C1A18140E0C0B0D0C0A0808080AA7
:101930000A10191411100E09060C1417171C262D65
:10194000342A1714100E06000001010000000202E4
:101950000F121040533D25122B5390D2BCAC58248B
:10196000271E0B0404020001000000000004040C08
:1019700082CCFAFFFFAA771B70F1C08DA2A24E0C99
:101980000C0E0704020104040100000003011048CA
:1019900070AEE0FEB4AEB8A2D6F44C383134361690
:1019A0000D090303020D0C000000001D1617C7D619
:1019B000EEFFFFFFFFFFFFFFFFFFFFFFA89A3C0CBA
:1019C0000A0706040404040200005A60819CC2E174
:1019D000E3E8EAE1DDE2F1F5F6FFF6AA604E433D09
:1019E0003324150B09080B0E0B13111010101217CE
:1019F00021262D332B2B302A241A18222934486013
:101A00006B52382E3758747D0F0807111F2A18079C
:101A1000090E0E060C160F0B0B1715010101000025
:101A20000000000000000000010204030407070397
:101A3000010C6AE0D5FFFFFFA110080302020100BC
:101A4000000000000000020101080C08031B99823D
:101A50001435363863735B2806060B06010505004E
:101A60000000040502020103050712D6D9414B42CA
:101A700059A9FFFFFFF51A1B729E763A0C0C000065
:101A800001050C0E150F238EA9B5E06ADBFFFFFFE1
:101A9000FCFFFFFFEABFFFFFFFFFFFFFFF0C0A068F
:101AA000203B2B8096AFCAE3F0F6FAFAF4E5BB7E52
:101AB0005645372B2118110C0907060607040100AB
:101AC00000001314141720272B3032312E2A27231D
:101AD000252C354349413429283B59643C0D0000ED
:101AE000000B07050C171A16191A181E1707030200
:101AF00001000000000000000000000000000000E5
:101B0000020311232C2114121A241F1F160603028C
:101B100002010000000000000000000000000006BC
:101B2000090C2677DCFAECEEE0C1B85C1C0F0B0761
:101B30000603010000000000010000000000050C89
:101B400020253E56354492975D3B1A101316180F08
:101B50000A0701000000010201000000001B345DC3
:101B60009AAFDDF3EBEDE4EFDBA281A69C75A293C7
:101B70004E1B0E0411254435010000007689A3BBDD
:101B8000D3F0F8F7F4E3C795654C3A2E2219120EFC
:101B90000B090806070302000000001112161A1FA5
:101BA000242728282625282925303E3F39362F2767
:101BB000385E4D4D261300000000120E09090B0976
:101BC0000D130A0C140D04020100000000000000B7
:101BD000000000000000000000030505090F1614B6
:101BE000111213180F05030100000000000000008F
:101BF0000000000000000000051216171E253963C2
:101C000097A075751F09050303020000000000007E
:101C10000000000000000002070B151B25363339B9
:101C20002E16120A09131107060302010001010111
:101C30000000000000001A6A7EB2CCCBD6FFFB98F1
:101C400054444C4B7DAA91382B1D0F0C1E151E16AB
:101C500004000000007474757F94B3CFE2EFF8F6CF
:101C6000F4E4C3A488694B382F261D140F0C0B0A0B
:101C700007050303121212141921272D32353837A4
:101C8000322C2A29242A2F30332B241E25394C4567
:101C9000402D291D1913111010080305060606070B
:101CA0000804030302000000000000000000000020
:101CB00000000101010103091112141A2227251E37
:101CC000170E0503010100000000000000000000E5
:101CD000000605071A4E52386CA1CFFCDCBF8C61A0
:101CE00032170F0B0804030202000000000000007E
:101CF0000402010204101B51AECFBC8A47392918D7
:101D00001F12050E0E040201010202010100001261
:101D1000101E2D293890A9DEFFC0DDB8825B758AC0
:101D20004C424861685B290F0A0E0D070710C4E298
:101D3000EBEEEFF0F2F1F2F7F7E8C7B1ABB0B1B00C
:101D4000A89788643E332E2117100E101111121718
:101D50001C21262A2E2B26211B1B20241A171D1D71
:101D600012090F141A2C2A2D4343332426221C1740
:101D7000110E0E0E0D14130F130E0D09060603039C
:101D800002000000000000000000001A1A181C2FBA
:101D90004055503A889675836D1511100506060456
:101DA0000101020200000000000013192365B7D4EE
:101DB000FFECBD9A96856F755E241A17110B04030C
:101DC0000205080601000202021D18929E7AD4D173
:101DD000B3B2BCD9B0A8C6805D7E774F172627075F
:101DE0000D181207070909058CAAE0E3F6FFFFFFAB
:101DF000E5FFFFD7F5E9D7FFFFD48FAC9C41573FF4
:101E0000465B30473E100764667A898EA0B8C6CE1E
:101E1000D6E6F4FDFAF1EFF0E9DECCBA9E765A434D
:101E20002818141010101317161619191C1F202229
:101E3000242825252F2A212C363429242118111451
:101E4000180F1838640C17140E1A1C161C160802EA
:101E5000040608080A1F465E62927C3E3819020397
:101E60000302010005060A080C1612101023282888
:101E7000424D4A5E675F58322A280F060100000073
:101E80000000000408081313141C1E202327243C00
:101E90005486B2DE90B6B4322F2A14040400000037
:101EA00000030A080720281B96D4D5CCCCEFFFFFEF
:101EB000D2FFC2E8FFFAFFFF8C19272600000104B9
:101EC00006071E2432608476AEF4EFBAFFFCFFFFF3
:101ED000FFFFFFFFFFB8ACB09C1C1402010C1C3AC2
:101EE000616F87A3CCECF2EEEBE2DBDCD9D8D4CA8D
:101EF000B0856243291B140E0B0909090805031E4E
:101F0000232C322F28292C2E3133342F2723201F26
:101F10001E1C1916161314213854707A492D0909FC
:101F20000C0D0A08080809090B0C0E172D33252281
:101F30001C0D020101000000000000000003040469
:101F40000B1F2721344747371F1518170D0A09049F
:101F50000100000000000000000000000C0E1B3714
:101F60004B4B4140466887B2B2AE85824D210F038C
:101F700001010000000000000101010D101B416B78
:101F8000654C29101D241A1E221C1712080201017B
:101F90000000000001010101010004081B3C6D9CD0
:101FA000988082777F7553607862452E2B180301E5
:101FB0000000020624270F0A0360605F68758BAF7C
:101FC000D5EEF3F3F1E9DAD2D7DDD4B38F68432A43
:101FD0001E150F0B090809081C1E252A2B2E33324B
:101FE0002F31363834302E2B2825231D1918141381
:101FF000171C24324D6C6F100E0A08090C0A0605D6
:10200000050505080C0F131D263A331206030100BF
:102010000000000000000202020304070E191A1853
:102020002731303C361F1B180A0302010000000054
:1020300000000000000B0D181D1A1C243E504561C5
:1020400092C1A7ACCCADC09E4B2612060101000088
:1020500000000001060304060F34412D25415345BD
:1020600037455F3D2F2E1C110903000000000000C2
:10207000010101080A0A090A1021447385B5CAD969
:10208000C3B46F7275413B2B0A03020101030710B1
:102090000E10A7BDC8D1DAE3EBF4FBFCFBF1E9E8D5
:1020A000E7DCCEBEA6703B2417110C0D10191A11D7
:1020B0000B222023272A27272B2C2D2D28211D1EDC
:1020C0002125241E1F1B181A16234476A6B09377C9
:1020D0002E2D20150A0508100F0B0E0C102B414257
:1020E00071824E2106030202000000000000001170
:1020F000141C3538383C333CABE6F4FFDA98601DED
:1021000010070202000000000101010100004776F3
:102110009BA47898753B5093C6B782656A947E4DB0
:102120002F1704000000000001030713178030750B
:1021300082FFFFFFFFFFC7B0B65382FBFFF2E5BF90
:10214000690C030100010D100E0E0407CCE1787438
:10215000E5FFFFFFFFBBFFFFFFE4FFFFFFFFB68CC4
:102160003F0C0201012C4B8E8B2B306083C5ECECB5
:10217000E7EDF0E7E1E6DCB88F68442C2019120E99
:102180000C0C0A09060401000000252524292D3025
:1021900032322E24201E1D1C160F12100C10244744
:1021A0005C696C603E0F0000000A08040406060427
:1021B000060A0F121C312D10020101000000000060
:1021C000000000000000000003070C2F524A322FCD
:1021D0002C2216110805020000000000000000007B
:1021E00000000000000000030E242A1A183477A211
:1021F000A276847C3D100302000000000000010173
:102200000000000000000A1B29303B442C19434BFE
:102210002E362B0A0202000000000002030200001A
:1022200000000000000919739FD4DEA68E787D8817
:1022300043323C190D060101020D4050280E0605DF
:102240000000000011241FBECFE5D8E0DEBFCDBFE7
:1022500010E0A0E6B0E0EEE2F1E402C005900D92DD
:10226000AE3EB107D9F720E0AEEEB0E001C01D925E
:10227000A93FB207E1F70E94B2140C9418200C9405
:1022800000001F920F920FB60F9211248F939F930D
:1022900084B195B19093F0008093EF0088B7886087
:1022A00088BF81E08093EE009F918F910F900FBEC9
:1022B0000F901F90189595B39F70282F207F922B19
:1022C00095BBAA98A89A94E09A95F1F7A898E8E2A5
:1022D000F2E03197F1F700C0000095B38295807F5E
:1022E0009F70892B85BBA89AF4E0FA95F1F7A8981E
:1022F00089E995E10197F1F700C0089595B39F70C2
:10230000282F207F922B95BBAA9AA89A94E09A95A1
:10231000F1F7A898E8E2F2E03197F1F700C0000089
:1023200095B38295807F9F70892B85BBA89AF4E036
:10233000FA95F1F7A89889E995E10197F1F700C0BE
:1023400008958FEF84BB8FEF97ED0197F1F700C0F1
:10235000000082E00E945B1188E20E945B118CE029
:102360000E945B1186E00E945B1181E00E945B117C
:1023700089E995E10197F1F700C00895CF93DF93C4
:10238000EC018991811103C0DF91CF9108950E94E2
:102390007E11F7CFCF93DF93D42FC52F81110BC0C0
:1023A000862F8F70806860316CF08D2F9C2FDF91AD
:1023B000CF910C94BE118130C1F76031B4F7862FF4
:1023C0008F70806C0E945B11F0CF81E00E945B11E6
:1023D00089E995E10197F1F700C080E80C945B1161
:1023E000CF93DF93D62FC72F90EC980F913440F402
:1023F0000E945B118D2F9C2FDF91CF910C94BE1109
:10240000DF91CF910895811106C0862F8F7080686B
:10241000603144F008958130E9F76031DCF7862FB0
:102420008F70806C0C945B110E945B118FE084BBF9
:10243000AA9AA99AA89A8AE48A95F1F793B3907F09
:10244000A898E8E2F2E03197F1F700C00000A89AFE
:10245000FAE4FA95F1F783B3A8982FEF24BBA99873
:1024600082958F70892B08958A98833059F49298B9
:1024700085B7836085BF8AB780648ABF8BB7806465
:102480008BBF0895929A813051F0823071F08111A2
:10249000F2CF85B78D7F85BF85B78E7FEBCF85B7B0
:1024A0008D7F85BF85B78160E5CF85B78260F3CF2B
:1024B0008B98833059F4939885B78C6085BF8AB721
:1024C00080688ABF8BB780688BBF0895939A8130EC
:1024D00051F0823071F08111F2CF85B7877F85BFCF
:1024E00085B78B7FEBCF85B7877F85BF85B7846046
:1024F000E5CF85B78860F3CFBA98833059F4C29896
:1025000084B7806484BF8AB780628ABF8BB78062D9
:102510008BBF0895C29A84B78F7BF4CF5F9BFECFA9
:102520008CB190E008955D9BFECF8CB980E090E087
:1025300008959B01AC0184E0220F331F441F551FF7
:102540008A95D1F760E070EC88EA90E00E94121D55
:102550002150310929B930BD549A539A80B5866803
:1025600080BD08955F9B03C08CB190E008958FEF0C
:102570009FEF0895E3EFF0E080E690E0938382839D
:102580009183808308952F923F924F925F926F9232
:102590007F928F929F92AF92BF92CF92DF92EF92F3
:1025A000FF920F931F93CF93DF93CDB7DEB72F9793
:1025B0000FB6F894DEBF0FBECDBF89839A836B83BD
:1025C0007C834A875B870CE510E090E01F868824B7
:1025D0008A94982C540129813A81215E3F4F3F8390
:1025E0002E832B813C81215E3F4F3987288738011C
:1025F00085E08D836DC034912D91231B330B229F79
:102600006001239FD00CD00C11240D2C000CEE087F
:10261000FF084C0D5D1D6E1D7F1D3196CE80DF8045
:10262000CA16DB0641F7F3017F96AB81BC8134917A
:102630002D91231B330B229F6001239FD00CD00CC4
:1026400011240D2C000CEE08FF084C0D5D1D6E1DB5
:102650007F1D3196288539852A173B0741F78A85E2
:10266000FB842EE330E0F301E20FF31FA82FBF2D10
:102670007D018FE1E80EF11C44905D90C52CC418DB
:10268000DD08CC9C1001CD9C300C300C1124032CA7
:10269000000C44085508420D531D641D751D3196EC
:1026A000EA16FB0649F7215E3F4F293D3105B9F493
:1026B000481559056A057B0518F49F874A015B0197
:1026C0002D8121502D8339ED630E711C211549F0A8
:1026D000A981BA81F30140E050E0BA018CCF8E2D80
:1026E000C2CF9F5F035C1B4F983009F080CF8F856E
:1026F0002F960FB6F894DEBF0FBECDBFDF91CF91FE
:102700001F910F91FF90EF90DF90CF90BF90AF900F
:102710009F908F907F906F905F904F903F902F9001
:102720000895883048F4E82FF0E0EE0FFF1FE259DB
:10273000FF4F80819181089586EE90E0089528E210
:10274000FC0111922A95E9F708956F927F928F927A
:102750009F92AF92BF92CF92DF92EF92FF920F9330
:102760001F93CF93DF9333E8632E30E0732EFC0189
:102770008C010C5E1F4F6B01770FEE08FF08E30121
:10278000A991B9913E0181909190A190B190A5013C
:1027900094010E943F1DDC01CB012EE0B595A79569
:1027A000979587952A95D1F78C0D9D1DAE1DBF1D60
:1027B0004089518962897389841B950BA60BB70BDD
:1027C000808A918AA28AB38A9F0124503109E90143
:1027D00088839983AA83BB83E017F10781F6DF9191
:1027E000CF911F910F91FF90EF90DF90CF90BF900E
:1027F000AF909F908F907F906F9008952F923F920F
:102800004F925F926F927F928F929F92AF92BF9200
:10281000CF92DF92EF92FF920F931F93CF93DF93AC
:10282000CDB7DEB72A970FB6F894DEBF0FBECDBF87
:10283000E62EF12CFA86E98604E0609FF00111246F
:10284000E80FF91F80819181A281B38189839A83E6
:10285000AB83BC834488558866887788BC01CD01EA
:102860009B01AC010E949F1D49014D835E831B01AA
:102870008F839887C301B201A30192010E949F1D1B
:1028800059016A017B018C0194014D815E81B10186
:102890008F8198850E942D1E922E832E342E252EF8
:1028A0006D837E838F839887A985BA85AA0FBB1F06
:1028B000AD57BF4F6D917C91072E000C880B990B83
:1028C00029813A814B815C810E949F1D83017201A5
:1028D000110FEE08FE2C8701E982FA820B831C831C
:1028E00052016301E980FE2C0E2D1E2D0E94471D12
:1028F0000EE00E94101E59016A017B018C01292DF6
:10290000382D432D522D6D817E818F8198850E94B7
:10291000361E2983B32FF42FE52FA0E00E943F1E1F
:1029200024F41982B0E0F0E0E0E069817B2F8F2F82
:102930009E2F2A960FB6F894DEBF0FBECDBFDF9153
:10294000CF911F910F91FF90EF90DF90CF90BF90AC
:10295000AF909F908F907F906F905F904F903F903F
:102960002F900895CDB7DEB7C753D1400FB6F89476
:10297000DEBF0FBECDBF60E875E280E090E00E9450
:1029800099120E94BA121FBC8AE08EBD8CEA90E0B8
:102990009BBD8ABD99BD88BD83E087B98EEE86B99F
:1029A00080B78F7180BF80B7806A80BF78940E94A3
:1029B000A11160E080E00E94031278948E010D5115
:1029C0001F4FCA5EDE4F19830883C651D1408FE185
:1029D000D801E82F1D92EA95E9F70F511109C85E59
:1029E000DE4F19830883C851D140D8011D928A95C2
:1029F000E9F708521109C65EDE4F19830883CA51F0
:102A0000D140C8010E949F130A591F4FC45EDE4F78
:102A100019830883CC51D14084E1D8011D928A9555
:102A2000E9F701501140C25EDE4F19830883CE5191
:102A3000D1408BE9D8011D928A95E9F7512C01E02C
:102A4000C95CDE4F0883C753D140CE5CDE4F18828D
:102A5000C253D14011E0C35DDE4F1883CD52D14047
:102A6000612C712CC85DDE4F19821882C852D1408A
:102A7000CA5DDE4F19821882C652D140212C312CFA
:102A80000DE710E0CC5DDE4F19830883C452D140BE
:102A900000E41FE1C55DDE4F19830883CB52D140AE
:102AA00000E01CE020E030E0CD5CDE4F08831983BD
:102AB0002A833B83C353D140C65DDE4F1882CA527E
:102AC000D140412CC12CD12C0DE710E0CE5DDE4F62
:102AD00019830883C252D14000E010E024E030E0C6
:102AE000C25DDE4F088319832A833B83CE52D140D7
:102AF0008E0104561F4FC05EDE4F19830883C052FB
:102B0000D1408091EE008115E1F31092EE008091AA
:102B1000F1009091F200892B59F58091EF0090918E
:102B2000F000092E000CAA0BBB0BC25DDE4F088122
:102B300019812A813B81CE52D140800F911FA21F63
:102B4000B31FAC01BD01EAE07695679557954795AF
:102B5000EA95D1F78C019D01041B150B260B370B51
:102B6000C25DDE4F088319832A833B83CE52D14056
:102B7000E090EF00F090F000C25DDE4F8880998019
:102B8000AA80BB80CE52D1403AE0B694A7949794E5
:102B900087943A95D1F78701081919098091F100B6
:102BA0009091F200892B09F00AC1F80117FF03C0C8
:102BB000F401EE19FF09CF010F2E000CAA0BBB0B7D
:102BC000CD5CDE4F288139814A815B81C353D1407E
:102BD000280F391F4A1F5B1FCD5CDE4F28833983C6
:102BE0004A835B83C353D140BA01A901BAE0769509
:102BF000679557954795BA95D1F7CD5CDE4F88819B
:102C00009981AA81BB81C353D140841B950BA60B2C
:102C1000B70BCD5CDE4F88839983AA83BB83C353F4
:102C2000D140A3E0B0E0CD5CDE4F288139814A81FC
:102C30005B81C353D1400E94341D2AE0969587954D
:102C4000779567952A95D1F7601771070CF09AC0B0
:102C5000C65DDE4FA881CA52D140A11193C04394F2
:102C6000B1E0C65DDE4FB883CA52D140EC0DFD1D08
:102C7000CE5DDE4FC880D980C252D14031E0C31A48
:102C8000D10809F095C0E038F94120F450E145162B
:102C900008F4EAC181E090E09093F2008093F100A3
:102CA000CA5EDE4FA881B981C651D140EFE11D92C5
:102CB000EA95E9F7C85EDE4FA881B981C851D140D5
:102CC000EFE11D92EA95E9F7CE0184569F4F0E94ED
:102CD0009F1384E1C45EDE4FA881B981CC51D140FD
:102CE0001D928A95E9F78BE9C25EDE4FE881F98192
:102CF000CE51D14011928A95E9F74DE850E060E05D
:102D000080E00E94CA11C85DDE4F19821882C85245
:102D1000D140CA5DDE4F19821882C652D140212CA3
:102D2000312C512CF1E0C95CDE4FF883C753D14000
:102D3000CE5CDE4F1882C253D14021E0C35DDE4F2E
:102D40002883CD52D140612C712C4DE750E0CC5DF1
:102D5000DE4F59834883C452D14080EA9FE0C55D6D
:102D6000DE4F99838883CB52D140412C9DE7CE5DC5
:102D7000DE4F9883C252D140CD5DDE4F1882C352E0
:102D8000D1401DC0719561957109061717070CF0A8
:102D90006DCFC65DDE4F2881CA52D140213009F087
:102DA00065CF4394C65DDE4F1882CA52D1405ECFD4
:102DB000CE5DDE4FD982C882C252D1406F01809170
:102DC000F1009091F200019709F07CC0CC5DDE4FDC
:102DD000E881F981C452D1403197CC5DDE4FF9834F
:102DE000E883C452D140C80117FF03C0C4018E1943
:102DF0009F095C01CC5DDE4F28813981C452D140EE
:102E0000232B09F439C1CA5DDE4F48815981C6526E
:102E1000D140A40EB51EFF24F394101611060CF039
:102E2000F12CC95CDE4F5881C753D140511107C006
:102E3000CE5CDE4F8881C253D1408F117394B801AC
:102E4000CE0184569F4F0E94A513872D762CC85D16
:102E5000DE4F08811981C852D140CA5DDE4F198307
:102E60000883C652D140C95CDE4F1882C753D14097
:102E7000C55DDE4F08811981CB52D1400150110947
:102E8000C55DDE4F19830883CB52D140012B09F475
:102E900011C2CE5CDE4FF882C253D140672C782E2F
:102EA000CA5DDE4F08811981C652D140C85DDE4F30
:102EB00019830883C852D140CA5DDE4FB982A88207
:102EC000C652D1408091F1009091F200029709F032
:102ED00018CE7E0133EEE30EF11C67014FE1C40E04
:102EE000D11CF70120E08191281708F4282FEC1558
:102EF000FD05C9F72111E5C18E010F5F1F4FC80104
:102F000020E0FC013FE14191241708F4242F3A9579
:102F1000D1F74F96C05EDE4FE881F981C052D140B3
:102F2000E817F90771F7211509F1F80144244A94CB
:102F300030E05F014FE1D5018D915D014D01B1E0C0
:102F40008B1A9108489EC0011124B9010E94FE1CF1
:102F5000D4016C934A9579F77F96C05EDE4F488125
:102F60005981C052D1404E175F0719F74EE950E022
:102F700060E080E00E94CA118FEA90E00E948E1FFC
:102F8000D7018D917D011F928F93EDEBF0E0FF93C0
:102F9000EF930E94781F0F900F900F900F90CE1418
:102FA000DF0471F78BEB90E00E948E1F6E0134EC12
:102FB000C30ED11C76014FE1E40EF11CD6018D91B8
:102FC0006D011F928F93EDEBF0E0FF93EF930E9462
:102FD000781F0F900F900F900F90EC14FD0471F775
:102FE0008BEB90E00E948E1F78018FE1482ED70175
:102FF0008D917D011F928F93EDEBF0E0FF93EF93A6
:103000000E94781F4A940F900F900F900F904110DC
:10301000EECF8BEB90E00E948E1F015E1F4FC05ED3
:10302000DE4F48815981C052D14004171507E1F69F
:103030001092F2001092F100CE0184569F4F0E9430
:103040009F13C65DDE4F1882CA52D140C12CD12CCD
:103050005DE7CE5DDE4F5883C252D140CD5DDE4F7D
:103060001882C352D1404DCD412CADE7CE5DDE4F2D
:10307000A883C252D14080CEC35DDE4F2881CD529D
:10308000D1402115E9F17E013EEFE31AF30A612CEC
:10309000662DCE0184569F4F0E94FE13D7016D937B
:1030A0007D938D939D937D016394C65EDE4F8880F2
:1030B000CA51D140C55EDE4F9880CB51D140B5E0BA
:1030C0006B12E6CFCE0184569F4F0E949F13FF24C0
:1030D000F394101611060CF0F12CB801C4010E94F3
:1030E000A513C35DDE4F1882CD52D14080E00DE7BD
:1030F00010E0CC5DDE4F19830883C452D140B8CEB6
:10310000FE01ED51FF4FE20DF31DC85DDE4F28813A
:103110003981C852D140A90160E070E0CA5DDE4F3C
:1031200088819981C652D140480F591F611D711D78
:10313000BB27A72F962F852F41155105614071059B
:1031400008F08FEF8083FE01EC53FF4FE20DF31D7B
:10315000670C60827E013EEFE31AF30A4EE750E00F
:10316000C85DDE4F59834883C852D1408824839478
:10317000912C8C0E9D1E820C931CCC5DDE4FF9822F
:10318000E882C452D140612C662DCE0184569F4FF7
:103190000E94FE13462F572FBC01CC5DDE4FE88105
:1031A000F981C452D14081919191A191B191CC5DAD
:1031B000DE4FF983E883C452D140C85DDE4FE88119
:1031C000F981C852D1402191C85DDE4FF983E8836F
:1031D000C852D140840F951FA61FB71F04C0B695D3
:1031E000A795979587952A95D2F78115F1E09F07C6
:1031F000A105B10508F08FEFF4018083CC5DDE4FAF
:10320000E881F981C452D140729362935293429300
:103210006394FFE18F0E911C25E06212B5CFCA5D69
:10322000DE4F88819981C652D140880F892F881F2F
:10323000990B919597012C5E3F4FD7014D915D9170
:103240006D917D917D01411551056043710530F40B
:10325000E216F30691F75394C39708F0512CEFEF61
:103260002E1A3E0ACE0184569F4F0E949F13FF24C0
:10327000F394C65EDE4F8881CA51D140C55EDE4FF1
:103280009881CB51D140101611060CF0F12CB801E9
:103290000E94A513FAE02F16310408F427CF0CE0A2
:1032A000501608F423CF22E030E03093F200209350
:1032B000F1001CCF22E030E03093F2002093F100C7
:1032C000E8CDF7014FEF30E081918F0101501109F6
:1032D000489FC0011124B9010E94FE1CD8016C93C3
:1032E000EC15FD0589F708CEAFE0B0E0EAE7F9E1BB
:1032F0000C94D91D7C013B015A01FC0117821682F6
:10330000838181FF57C39AE0292EF7012381F301BE
:1033100023FD859123FF81913F01811509F442C06E
:10332000853239F423FD959123FF91913F01953228
:1033300039F4B70190E00E94481F65015601E5CFBE
:1033400030E010E0912C812CF0E28F1608F03CC0A8
:103350009B3279F160F4903271F1933291F19E32A7
:1033600009F046C086FC1EC0689486F806C09D32EF
:1033700029F1903359F5689480F8F30123FD959174
:1033800023FF91913F019111DFCF082D097F9037E5
:1033900009F486C208F07CC2983509F484C29F36CD
:1033A00009F488C2F701868197812F96E2E10C9497
:1033B000F51D689481F8689482F8DFCF689483F8EB
:1033C000DCCF689484F8D9CF87FC1CC080ED890FCE
:1033D0008A3028F686FE05C0129D800D1124182F14
:1033E000CCCF929C800D1124982E689485F8C5CF7F
:1033F0009C3619F4689487F8C0CF9C3409F198364C
:1034000009F4BBCF3115F1F0892F8F7D85548330BE
:1034100008F098C1650128E0C20ED11C8FE38983B2
:1034200001E010E0AE014F5F5F4F5A01E89487F86A
:1034300083FC04C00915110508F4F0C1592C03C21E
:1034400031E09BCF8BEB890F833098F4689484F83C
:10345000905E86FE16E0582D5F73852E953689F4B2
:10346000689486F8212F183010F027E017E0412CDF
:1034700014C08BE9890F833008F064C1E89484F8A4
:10348000E8CF963681F5689487F8812F1C3308F0D1
:103490008BE344244394480E27E0F5016191719138
:1034A000819191916F01042DAE014F5F5F4F0E949A
:1034B0005A1E5C01398030FE03C00DE233FE05C0A8
:1034C00082FA002705F981FC0BE2F32DFC705F2ED8
:1034D000F11529F1011171C224E0512C921608F462
:1034E00083C283E06FC220E0111509F4C0CF1150F0
:1034F000B9CF81108052B70190E00E94481F0F5F42
:103500001F4FF80184918111F4CF511409F416CFA3
:10351000B70180E290E00E94481F5A94F6CF87FEE0
:1035200030C0842D8A0D34FE04C09A81913309F491
:10353000815044244394181634F4482EF9E08F1730
:1035400010F088E0482EC501B7FE02C080E090E090
:10355000019601110196111531F0212F30E02F5FF6
:103560003F4F820F931F8915910514F4592C581A57
:10357000882D8970811136C051102DC00115D9F1E7
:1035800033C086FC25C0E12FF0E01A151B043CF087
:103590002CEFA2162FEFB20614F0689487F832963B
:1035A000AE014F5F5F4FE40FF51F01C011501115C1
:1035B00019F082918033D1F387FE0AC044244394EA
:1035C000410EA116B10414F41A19BDCF10E0BBCFFF
:1035D00085E090E0BECFB70180E290E00E94481FF6
:1035E0005A94CACF011529F0B701802F90E00E94AC
:1035F000481F83FC02C051103FC087FE57C04501E1
:10360000B7FE02C0812C912CCE0101968A0D9B1D24
:10361000FC01E819F909FD87EC87950124193109A6
:103620003F872E87012F10E0119501951109A814ED
:10363000B9044CF14E855F854815590524F5EC8594
:10364000FD858181F1E08F1A91082C853D852F5FE2
:103650003F4F3D872C8780169106BCF0B70190E064
:103660000E94481F3FEF8316930609F7B7018EE2C9
:1036700090E00E94481FDBCFB70180E390E00E94FA
:10368000481F5A94B8CF80E3DDCFA814B90439F4A9
:103690009A81963348F4953311F434FE05C0B7018E
:1036A00090E00E94481F31CF81E3F9CF8A818133B6
:1036B00011F0E89434F8B70190E00E94481F11110E
:1036C00025C085E490E084FC02C085E690E0B70167
:1036D0000E94481FB7FC05C0A114B10461F534FE77
:1036E0002AC0B194A194B1088DE2B70190E00E9484
:1036F000481F80E35AE0A516B104FCF4B70190E03E
:103700000E94481FB701C501C096CBCFB7018EE21A
:1037100090E00E94481F1E5F02E0802F0F5FFE01B5
:103720003196E80FF11D8081B70190E00E94481F9B
:103730000113F3CFC6CF8BE2D8CF8F5F4AE0A41A34
:10374000B108D8CF9336E1F1933709F447C09335E8
:1037500009F453C0943619F0993609F080C0F50188
:1037600087FE75C061917191819191916F01082DD2
:103770000F7697FF08C090958095709561957F4F63
:103780008F4F9F4F00682AE030E0AE014F5F5F4FE0
:103790005A010E94BA1FB82EBA1806FF95C0802F92
:1037A0008E7FB11608F08FC004FFE1C002FDD5C0C6
:1037B0000E7E512E802F8678811509F490C0D2C0DC
:1037C000650182E0C80ED11CF5018081898301E08A
:1037D00010E09E012F5F3F4F590128CEF501A190C7
:1037E000B1906F01612F70E086FC02C06FEF7FEF38
:1037F000C5010E943D1F8C0119CEF501A190B19029
:103800006F01612F70E086FC02C06FEF7FEFC50192
:103810000E94321F8C01689487F80ACEB70180E2BB
:1038200090E00E94481F9A9405CEF50187FC85918F
:1038300087FE81915F01B70190E00E94481F5110FF
:103840005A94015011090115110579F75ECE619165
:1038500071916F01072E000C880B990B88CF082DF2
:103860000F7E2AE030E0953709F08FCDF50107FF94
:1038700024C061917191819191916F01AE014F5F6F
:103880005F4F5A010E94BA1FB82EBA180F7785CF22
:10389000983709F087CD84FC04C020E130E0E6CF02
:1038A00000610460FACF84FE02C0082D066020E1AA
:1038B00032E0DCCF28E030E0D9CF619171916F0127
:1038C00080E090E0DBCF082F5B2C04FF73CFFE017C
:1038D000EB0DF11D8081803309F042C0097E03FDAC
:1038E0000EC000FF50C01B2D591418F4190D1519E6
:1038F000592C892D8519951408F480E0580E591417
:1039000008F043C09518592C04FF41C0B70180E36B
:1039100090E00E94481F02FF09C088E590E001FD89
:1039200002C088E790E0B7010E94481FB116D8F1A5
:10393000BA940B2D10E00F5F1F4FCE0101965C0172
:10394000080F191FF80182918F01B70190E00E94C2
:10395000481FA016B106B1F7D8CD512E082FB7CF0A
:1039600002FD02C05394BBCF53945394B8CF512E51
:10397000082F20CFB70180E290E00E94481FA39457
:10398000A914C0F3B6CFA52CFBCF512CBDCF802FEF
:103990008678811559F280E201FD8BE207FD8DE208
:1039A000B70190E0C1CFB70180E390E00E94481FCB
:1039B0001150BCCF8FEF9FEFF8CCF5E0512C9F1644
:1039C00070F084E0592C581A83FC07C0B70180E2DC
:1039D00090E00E94481F5A94C9F7011529F0B701D9
:1039E000802F90E00E94481F04E510E033FC02C0E5
:1039F00008E510E0282D2071822E83CDAA1BBB1B69
:103A000051E107C0AA1FBB1FA617B70710F0A61BDE
:103A1000B70B881F991F5A95A9F780959095BC01FF
:103A2000CD010895A1E21A2EAA1BBB1BFD010DC0FA
:103A3000AA1FBB1FEE1FFF1FA217B307E407F5075E
:103A400020F0A21BB30BE40BF50B661F771F881F3A
:103A5000991F1A9469F760957095809590959B01D0
:103A6000AC01BD01CF0108950E944B1EA59F900D92
:103A7000B49F900DA49F800D911D11240895B7FF50
:103A80000C94341D0E94341D821B930B0895DF9308
:103A9000CF931F930F939A9DF02D219FF00D8B9D37
:103AA000F00D8A9DE02DF10D039FF00D029FE00DBA
:103AB000F11D4E9DE00DF11D5E9DF00D4F9DF00D31
:103AC0007F936F93BF92AF925F934F93D5010E9404
:103AD0004B1E8B01AC01D7010E944B1EEB01E80F7E
:103AE000F91FD6010E94961D2F913F91D6010E9489
:103AF0004B1EC60FD71FE81FF91FAF91BF910E9441
:103B0000961D2F913F910E944B1EC60FD71FE81F95
:103B1000F91FD6010E944B1EE60FF71F9801BE0148
:103B2000CF010F911F91CF91DF9108950E944B1EFD
:103B3000460F571FC81FD91F08F43196089597FBE9
:103B400057FF0C94AF1D9F938F930E94AF1D6E1B68
:103B50007F0BAF91BF918A0B9B0B0895E894DF9385
:103B6000CF93FC01DB010E944B1E7F936F93E90111
:103B70009A01AC01BF93AF933F932F93DF010E9453
:103B80004B1E26F46C1B7D0B820B930B9E01EB01ED
:103B9000FC010E94961DAF91BF912F913F910E9411
:103BA000961DBE01CF01F9012F913F91CF91DF9179
:103BB00008952F923F924F925F926F927F928F92D1
:103BC0009F92AF92BF92CF92DF92EF92FF920F93AC
:103BD0001F93CF93DF93CDB7DEB7CA1BDB0B0FB6B6
:103BE000F894DEBF0FBECDBF09942A883988488873
:103BF0005F846E847D848C849B84AA84B984C88409
:103C0000DF80EE80FD800C811B81AA81B981CE0FFF
:103C1000D11D0FB6F894DEBF0FBECDBFED010895E4
:103C200097FD1094002E083098F00850232F342F61
:103C3000452F562F672F782F892F912DF4CF15946C
:103C400097958795779567955795479537952795D4
:103C50000A95AAF71124002D08952A0D3B1D4C1D2D
:103C60005D1D6E1D7F1D801F911F08952A193B0940
:103C70004C095D096E097F09800B910B08950024A2
:103C8000A7FD00942A173005400550056005700512
:103C9000800590050895A29FB001B39FC001A39F26
:103CA000700D811D1124911DB29F700D811D112475
:103CB000911D0895283008F027E03327DA01990F85
:103CC000311D87FD916000966105710539F4326000
:103CD0002E5F3D9330E32A95E1F708959F3F30F042
:103CE00080387105610509F03C5F3C5F3D93913080
:103CF00008F08068911DDF93CF931F930F93FF927D
:103D0000EF92192F987F9695E92F96959695E90F42
:103D1000FF27E257FF4B99273327EE24FF24A70103
:103D2000E70105900894079428F4360FE71EF81E63
:103D3000491F511D660F771F881F991F0694A1F711
:103D40000590079428F4E70EF81E491F561FC11D61
:103D5000770F881F991F661F0694A1F70590079497
:103D600028F4F80E491F561FC71FD11D880F991F31
:103D7000661F771F0694A1F70590079420F4490F5A
:103D8000561FC71FD81F990F661F771F881F0694DD
:103D9000A9F784911095177041F0D695C79557955E
:103DA0004795F794E7941A95C1F7E4E3F0E4689433
:103DB0001590159135916591959105907FE27395D8
:103DC000E118F10A430B560BC90BD009C0F7E10CFF
:103DD000F11E431F561FC91FD01D7EF4703311F40E
:103DE0008A95E6CFE894015030F0080F0AF40027D6
:103DF000021708F4202F2395022F7A3328F079E355
:103E00007D932A95E9F710C07D932A9589F606944B
:103E100097956795379517951794E118F10A430B15
:103E2000560BC90BD00998F023957E9173957A3380
:103E300008F070E37C932013B8F77E9170617D9356
:103E400030F0839571E37D9370E32A95E1F71124B7
:103E5000EF90FF900F911F91CF91DF91992787FDF0
:103E600090950895FC010590615070400110D8F7BD
:103E7000809590958E0F9F1F0895FC0161507040B2
:103E800001900110D8F7809590958E0F9F1F08958F
:103E90000F931F93CF93DF93182F092FEB018B8183
:103EA00081FD09C01FEF0FEF812F902FDF91CF9180
:103EB0001F910F91089582FF14C02E813F818C8144
:103EC0009D81281739073CF4E881F981CF010196DB
:103ED0009983888310838E819F8101969F838E832F
:103EE000E3CFE885F985812F0995892BA1F3DACFF6
:103EF000A0E0B0E0EEE7FFE10C94E91DAE014B5FFE
:103F00005F4FFA0161917191AF018091F50090913D
:103F1000F6000E947419E2E00C94051E0F931F93A3
:103F2000CF93DF93E091F500F091F600238100E05C
:103F300010E021FD0EC00FEF1FEFC801DF91CF9100
:103F40001F910F9108950995892B11F00FEF1FEF25
:103F5000CE01EC0189916091F5007091F600DB01D2
:103F60001896ED91FC918111EECF8AE00995892B8D
:103F700021F3E1CFFA01AA27283051F1203181F154
:103F8000E8946F936E7F6E5F7F4F8F4F9F4FAF4F61
:103F9000B1E03ED0B4E03CD0670F781F891F9A1F74
:103FA000A11D680F791F8A1F911DA11D6A0F711D28
:103FB000811D911DA11D20D009F468943F912AE034
:103FC000269F11243019305D3193DEF6CF0108951C
:103FD000462F4770405D4193B3E00FD0C9F7F6CF4D
:103FE000462F4F70405D4A3318F0495D31FD405215
:103FF000419302D0A9F7EACFB4E0A69597958795AB
:1040000077956795BA95C9F7009761057105089589
:104010009B01AC010A2E0694579547953795279535
:10402000BA95C9F7620F731F841F951FA01D0895CD
:10403000F894FFCF00407A10F35A00A0724E18098E
:104040000010A5D4E80000E87648170000E40B54FF
:10405000020000CA9A3B000000E1F50500008096CE
:104060009800000040420F000000A0860100000000
:10407000102700000000E8030000000064000000BA
:1040800000000A00000000000100000000002C7683
:10409000D888DC674F0823DFC1DFAE59E1B1B7969E
:1040A000E5E3E453C63AE651997696E8E6C28426FB
:1040B000EB898C9B62ED407C6FFCEFBC9C9F40F2D7
:1040C000BAA56FA5F490055A2AF75C936B6CF96753
:1040D0006DC11BFCE0E40D47FEF520E6B500D0ED18
:1040E000902E0300943577050080841E0800002080
:1040F0004E0A000000C80C333333330F986E12831E
:104100001141EF8D2114893BE65516CFFEE6DB18F1
:10411000D1844B381BF77C1D901DA4BBE4242032B6
:0E41200084725E228100C9F124ECA1E53D27E6
:10412E00000000030000000093128E120000C10078
:10413E00C400C800CE00D300D600DB00E00014108F
:10414E000E0C0A337B0562AC1E2ABEBE8952656315
:10415E006F7264696E672E2E2E2020202000436C15
:10416E00617373696679696E672E2E2E2020007337
:10417E00616D706C652068657265200D0025752C6B
:10418E00004F4E004F464600535441525400535474
:10419E004F5000555000444F574E004C454654006A
:0E41AE00524947485400554E4B4E4F574E0055
:00000001FF
