:100000000C942E000C944B000C944B000C944B0061
:100010000C944B000C944B000C944B000C944B0034
:100020000C944B000C944B000C944B000C944B0024
:100030000C944B000C944B000C944B000C944B0014
:100040000C944D000C944B000C944B000C944B0002
:100050000C944B006E616E00696E660011241FBE29
:10006000CFE5D8E0DEBFCDBF14E0A0E6B0E0E8EB1E
:10007000F4E102C005900D92A83BB107D9F724E046
:10008000A8EBB4E001C01D92A43DB207E1F70E94C5
:1000900007030C94DD090C9400001F920F920FB619
:1000A0000F9211248F939F9384B195B19093CB04B9
:1000B0008093CA0488B7886088BF81E08093C904B0
:1000C0009F918F910F900FBE0F901F90189595B331
:1000D0009F70282F207F922B95BBAA98A89A94E016
:1000E0009A95F1F7A898E8E2F2E03197F1F700C0AD
:1000F000000095B38295807F9F70892B85BBA89A5D
:10010000F4E0FA95F1F7A89889E995E10197F1F7FC
:1001100000C0089595B39F70282F207F922B95BB28
:10012000AA9AA89A94E09A95F1F7A898E8E2F2E0E2
:100130003197F1F700C0000095B38295807F9F70E2
:10014000892B85BBA89AF4E0FA95F1F7A89889E97C
:1001500095E10197F1F700C008958FEF84BB8FEF11
:1001600097ED0197F1F700C0000082E00E94670060
:1001700088E20E9467008CE00E94670086E00E948F
:10018000670081E00E94670089E995E10197F1F736
:1001900000C00895CF93DF93EC018991811103C0D2
:1001A000DF91CF9108950E948A00F7CFCF93DF931C
:1001B000D42FC52F81110BC0862F8F7080686031BE
:1001C0006CF08D2F9C2FDF91CF910C94CA00813061
:1001D000C1F76031B4F7862F8F70806C0E94670082
:1001E000F0CF81E00E94670089E995E10197F1F77E
:1001F00000C080E80C946700CF93DF93D62FC72F01
:1002000090EC980F913440F40E9467008D2F9C2F42
:10021000DF91CF910C94CA00DF91CF9108958111A5
:1002200006C0862F8F708068603144F00895813059
:10023000E9F76031DCF7862F8F70806C0C946700D3
:100240000E9467008FE084BBAA9AA99AA89A8AE4C0
:100250008A95F1F793B3907FA898E8E2F2E031979E
:10026000F1F700C00000A89AFAE4FA95F1F783B319
:10027000A8982FEF24BBA99882958F70892B089599
:100280008A98833059F4929885B7836085BF8AB77E
:1002900080648ABF8BB780648BBF0895929A813047
:1002A00051F0823071F08111F2CF85B78D7F85BF1B
:1002B00085B78E7FEBCF85B78D7F85BF85B7816092
:1002C000E5CF85B78260F3CF8B98833059F493984C
:1002D00085B78C6085BF8AB780688ABF8BB7806816
:1002E0008BBF0895939A813051F0823071F0811163
:1002F000F2CF85B7877F85BF85B78B7FEBCF85B77B
:10030000877F85BF85B78460E5CF85B78860F3CFE9
:10031000BA98833059F4C29884B7806484BF8AB78E
:1003200080628ABF8BB780628BBF0895C29A84B700
:100330008F7BF4CF5F9BFECF8CB190E008955D9BE7
:10034000FECF8CB980E090E008959B01AC0184E081
:10035000220F331F441F551F8A95D1F760E070ECC0
:1003600088EA90E00E94E3072150310929B930BDA5
:10037000549A539A80B5866880BD08955F9B03C0E8
:100380008CB190E008958FEF9FEF0895EEECF4E0CC
:1003900080E690E0938382839183808308953F92E7
:1003A0004F925F926F927F928F929F92AF92BF9285
:1003B000CF92DF92EF92FF920F931F93CF93DF9331
:1003C00000D00F92CDB7DEB7982E892E00E010E056
:1003D00040E0312C44244A94542C3201C801825903
:1003E0009F4F9B838A8392E0998330C0D5019D9172
:1003F0005D018191891B990B889F9001899F300D28
:10040000300D1124B901032E000C880B990B5F31BC
:1004100020F0A3E0B0E00E940508C60ED71EE81E3B
:10042000F91E5F5F5E3311F7C414D504E604F704C8
:1004300018F4342E260137018A819B81CE969B8346
:100440008A839981913059F0A1E0A983E92DF82D93
:10045000AA80BB8050E0C12CD12C7601C7CF4F5F62
:1004600004581F4F483009F0B9CF832D0F900F90DB
:100470000F90DF91CF911F910F91FF90EF90DF9040
:10048000CF90BF90AF909F908F907F906F905F9034
:100490004F903F9008952F923F924F925F926F92AC
:1004A0007F928F929F92AF92BF92CF92DF92EF9204
:1004B000FF920F931F93CF93DF9300D000D00F9242
:1004C000CDB7DEB7282E9A83362E7B83842F822BDE
:1004D000811509F487C0542E80E2481710F03FE1DF
:1004E000532E422E90E2291710F02FE1422E1D824A
:1004F0001C82712C612C88248A94982C54014C8184
:100500005D8142595F4F82E02DC09D918191891B91
:10051000990B889F8001899F100D100D1124012EC9
:10052000000C220B330BC00ED11EE21EF31E8E2FC9
:100530008219851550F38A01015E1F4FE32DFB815F
:100540008E2F83198415B0F0C814D904EA04FB0473
:1005500018F4672C46015701425C5F4FB981B130F6
:10056000F1F081E08983E22DFA81DA01C12CD12CEE
:100570007601DDCFD8019D918D018191891B990B69
:10058000889F9001899F300D300D1124A3E0B0E0C9
:100590000E940508C60ED71EE81EF91ED1CF73941F
:1005A000AC81BD81A458BF4FBD83AC83B8E07B1242
:1005B000A6CF862D0F900F900F900F900F90DF9188
:1005C000CF911F910F91FF90EF90DF90CF90BF9050
:1005D000AF909F908F907F906F905F904F903F90E3
:1005E0002F90089588E0682EE4CF2FE14FE10C941E
:1005F0004B02883048F4E82FF0E0EE0FFF1FE25B7B
:10060000FB4F8081918108958FEA94E00895CDB7E2
:10061000DEB7C654D1090FB6F894DEBF0FBECDBF0A
:1006200060E875E280E090E00E94A5010E94C601AA
:100630001FBC8AE08EBD8CEA90E09BBD8ABD99BD4F
:1006400088BD83E087B98EEE86B980B78F7180BF91
:1006500080B7806A80BF78940E94AD0060E080E03F
:100660000E940F0178948FE14E0120E2820E911CCE
:10067000F401282F11922A95E9F7AE014F5F5F4FE1
:1006800021965FAF4EAF2197FA0111928A95E9F753
:10069000F1E02496FFAF2497E12C21E025962FAFBF
:1006A0002597712CF12C412C512CC12CD12C212CB3
:1006B000312C6DE7A62EB12C40E45FE123965FAFAD
:1006C0004EAF239731E040E020E08DE790E050917D
:1006D000C9045115E1F31092C9040091CA041091A4
:1006E000CB041A956091CC047091CD04642E672BD5
:1006F000D1F566246394101611060CF0612C3111AB
:1007000002C064122F5F019769F5203130F181E05A
:1007100090E09093CD048093CC044EE554E060E0EB
:1007200080E00E94D600412C512CC12CD12C212CD0
:10073000312C91E024969FAF2497E12CE1E025969F
:10074000EFAF2597712CF12C5DE7A52EB12C20EA97
:100750003FE023963FAF2EAF239731E020E08DE7B7
:1007600090E001C030E04091CC045091CD04413084
:10077000510541F541E0A41AB10861E010161106D7
:100780000CF060E0A114B10409F459C017FF03C0D4
:10079000119501951109C00ED11E24965FAD2497C5
:1007A00051117CC06E11F39423964EAD5FAD23972B
:1007B0004150510923965FAF4EAF2397452B09F463
:1007C00071C0E62E4091CC045091CD0442305105C9
:1007D000A1F54FE654E060E080E00E94D6008E0173
:1007E0000F5F1F4F27969FAE8EAE2797F80191910E
:1007F0008F012796EEADFFAD279781912796FFAF2A
:10080000EEAF27971F929F931F928F9320E834E0BB
:100810003F932F930E9469090F900F900F900F90B4
:100820000F900F908016910609F71092CD04109248
:10083000CC0431E020E08DE790E0462D48CFE6265D
:100840002596EFAD2597E11581F017FF03C01195AF
:10085000019511097F2CFE2C2601680125961FAEFB
:1008600025974DE7A42EB12C9FCFF401E20DF31D87
:100870004C0C5D1C5082FE013196E20DF31D7F0C85
:100880007082FFEF2F1A3F0A17FF03C011950195E1
:1008900011097F2CFE2C26016801E3CF24961FAEA0
:1008A000249782CFE2E0F0E0F093CD04E093CC0413
:1008B00088CFAFE0B0E0EFE5F4E00C9414087C01E1
:1008C0003B015A01FC0117821682838181FF57C3C5
:1008D0009AE0292EF7012381F30123FD859123FF5F
:1008E00081913F01811509F442C0853239F423FD1D
:1008F000959123FF91913F01953239F4B70190E032
:100900000E94390965015601E5CF30E010E0912CD5
:10091000812CF0E28F1608F03CC09B3279F160F434
:10092000903271F1933291F19E3209F046C086FC0B
:100930001EC0689486F806C09D3229F1903359F59F
:10094000689480F8F30123FD959123FF91913F0175
:100950009111DFCF082D097F903709F486C208F086
:100960007CC2983509F484C29F3609F488C2F70125
:10097000868197812F96E2E10C943008689481F883
:10098000689482F8DFCF689483F8DCCF689484F8A9
:10099000D9CF87FC1CC080ED890F8A3028F686FEEF
:1009A00005C0129D800D1124182FCCCF929C800D74
:1009B0001124982E689485F8C5CF9C3619F4689454
:1009C00087F8C0CF9C3409F1983609F4BBCF3115B4
:1009D000F1F0892F8F7D8554833008F098C165012F
:1009E00028E0C20ED11C8FE3898301E010E0AE0144
:1009F0004F5F5F4F5A01E89487F883FC04C00915E4
:100A0000110508F4F0C1592C03C231E09BCF8BEBE8
:100A1000890F833098F4689484F8905E86FE16E01F
:100A2000582D5F73852E953689F4689486F8212FAA
:100A3000183010F027E017E0412C14C08BE9890F23
:100A4000833008F064C1E89484F8E8CF963681F5E5
:100A5000689487F8812F1C3308F08BE34424439477
:100A6000480E27E0F50161917191819191916F019B
:100A7000042DAE014F5F5F4F0E944B085C0139802F
:100A800030FE03C00DE233FE05C082FA002705F9EF
:100A900081FC0BE2F32DFC705F2EF11529F10111A1
:100AA00071C224E0512C921608F483C283E06FC215
:100AB00020E0111509F4C0CF1150B9CF8110805238
:100AC000B70190E00E9439090F5F1F4FF801849130
:100AD0008111F4CF511409F416CFB70180E290E0F0
:100AE0000E9439095A94F6CF87FE30C0842D8A0DB2
:100AF00034FE04C09A81913309F481504424439414
:100B0000181634F4482EF9E08F1710F088E0482EBC
:100B1000C501B7FE02C080E090E001960111019688
:100B2000111531F0212F30E02F5F3F4F820F931FBF
:100B30008915910514F4592C581A882D8970811142
:100B400036C051102DC00115D9F133C086FC25C027
:100B5000E12FF0E01A151B043CF02CEFA2162FEF4A
:100B6000B20614F0689487F83296AE014F5F5F4F7B
:100B7000E40FF51F01C01150111519F08291803357
:100B8000D1F387FE0AC044244394410EA116B10458
:100B900014F41A19BDCF10E0BBCF85E090E0BECFB2
:100BA000B70180E290E00E9439095A94CACF01153A
:100BB00029F0B701802F90E00E94390983FC02C020
:100BC00051103FC087FE57C04501B7FE02C0812CBF
:100BD000912CCE0101968A0D9B1DFC01E819F909A3
:100BE000FD87EC879501241931093F872E87012F56
:100BF00010E0119501951109A814B9044CF14E8526
:100C00005F854815590524F5EC85FD858181F1E066
:100C10008F1A91082C853D852F5F3F4F3D872C878C
:100C200080169106BCF0B70190E00E9439093FEFB1
:100C30008316930609F7B7018EE290E00E94390906
:100C4000DBCFB70180E390E00E9439095A94B8CF16
:100C500080E3DDCFA814B90439F49A81963348F4BF
:100C6000953311F434FE05C0B70190E00E943909B4
:100C700031CF81E3F9CF8A81813311F0E89434F8E0
:100C8000B70190E00E943909111125C085E490E078
:100C900084FC02C085E690E0B7010E943909B7FCE8
:100CA00005C0A114B10461F534FE2AC0B194A19429
:100CB000B1088DE2B70190E00E94390980E35AE063
:100CC000A516B104FCF4B70190E00E943909B70100
:100CD000C501C096CBCFB7018EE290E00E943909E2
:100CE0001E5F02E0802F0F5FFE013196E80FF11DBD
:100CF0008081B70190E00E9439090113F3CFC6CF7C
:100D00008BE2D8CF8F5F4AE0A41AB108D8CF9336D0
:100D1000E1F1933709F447C0933509F453C0943691
:100D200019F0993609F080C0F50187FE75C0619110
:100D30007191819191916F01082D0F7697FF08C0F5
:100D400090958095709561957F4F8F4F9F4F00686C
:100D50002AE030E0AE014F5F5F4F5A010E947F09E9
:100D6000B82EBA1806FF95C0802F8E7FB11608F0F6
:100D70008FC004FFE1C002FDD5C00E7E512E802F32
:100D80008678811509F490C0D2C0650182E0C80E52
:100D9000D11CF5018081898301E010E09E012F5F65
:100DA0003F4F590128CEF501A190B1906F01612FFD
:100DB00070E086FC02C06FEF7FEFC5010E942E0934
:100DC0008C0119CEF501A190B1906F01612F70E0F7
:100DD00086FC02C06FEF7FEFC5010E9423098C01E2
:100DE000689487F80ACEB70180E290E00E94390942
:100DF0009A9405CEF50187FC859187FE81915F016C
:100E0000B70190E00E94390951105A94015011091C
:100E10000115110579F75ECE619171916F01072E71
:100E2000000C880B990B88CF082D0F7E2AE030E04C
:100E3000953709F08FCDF50107FF24C061917191BD
:100E4000819191916F01AE014F5F5F4F5A010E94F6
:100E50007F09B82EBA180F7785CF983709F087CD5C
:100E600084FC04C020E130E0E6CF00610460FACFEA
:100E700084FE02C0082D066020E132E0DCCF28E0CD
:100E800030E0D9CF619171916F0180E090E0DBCFCC
:100E9000082F5B2C04FF73CFFE01EB0DF11D808149
:100EA000803309F042C0097E03FD0EC000FF50C030
:100EB0001B2D591418F4190D1519592C892D851944
:100EC000951408F480E0580E591408F043C09518A2
:100ED000592C04FF41C0B70180E390E00E9439091A
:100EE00002FF09C088E590E001FD02C088E790E0BC
:100EF000B7010E943909B116D8F1BA940B2D10E050
:100F00000F5F1F4FCE0101965C01080F191FF801FA
:100F100082918F01B70190E00E943909A016B106B5
:100F2000B1F7D8CD512E082FB7CF02FD02C0539490
:100F3000BBCF53945394B8CF512E082F20CFB70175
:100F400080E290E00E943909A394A914C0F3B6CFBF
:100F5000A52CFBCF512CBDCF802F8678811559F25F
:100F600080E201FD8BE207FD8DE2B70190E0C1CF89
:100F7000B70180E390E00E9439091150BCCF8FEF98
:100F80009FEFF8CCF5E0512C9F1670F084E0592CBF
:100F9000581A83FC07C0B70180E290E00E9439092B
:100FA0005A94C9F7011529F0B701802F90E00E94EB
:100FB000390904E510E033FC02C008E510E0282DF3
:100FC0002071822E83CDA1E21A2EAA1BBB1BFD012C
:100FD0000DC0AA1FBB1FEE1FFF1FA217B307E40718
:100FE000F50720F0A21BB30BE40BF50B661F771F70
:100FF000881F991F1A9469F7609570958095909550
:101000009B01AC01BD01CF010895A29FB001B39F28
:10101000C001A39F700D811D1124911DB29F700D01
:10102000811D1124911D08952F923F924F925F923E
:101030006F927F928F929F92AF92BF92CF92DF92E8
:10104000EF92FF920F931F93CF93DF93CDB7DEB74D
:10105000CA1BDB0B0FB6F894DEBF0FBECDBF0994E1
:101060002A88398848885F846E847D848C849B8438
:10107000AA84B984C884DF80EE80FD800C811B8146
:10108000AA81B981CE0FD11D0FB6F894DEBF0FBE75
:10109000CDBFED010895283008F027E03327DA01AD
:1010A000990F311D87FD916000966105710539F436
:1010B00032602E5F3D9330E32A95E1F708959F3F1C
:1010C00030F080387105610509F03C5F3C5F3D936D
:1010D000913008F08068911DDF93CF931F930F9399
:1010E000FF92EF92192F987F9695E92F96959695F6
:1010F000E90FFF27E85EFB4E99273327EE24FF24F4
:10110000A701E70105900894079428F4360FE71E1D
:10111000F81E491F511D660F771F881F991F0694DF
:10112000A1F70590079428F4E70EF81E491F561FF3
:10113000C11D770F881F991F661F0694A1F70590A0
:10114000079428F4F80E491F561FC71FD11D880F9A
:10115000991F661F771F0694A1F70590079420F446
:10116000490F561FC71FD81F990F661F771F881F6B
:101170000694A9F784911095177041F0D695C795FC
:1011800057954795F794E7941A95C1F7EEEBF3E17D
:1011900068941590159135916591959105907FE230
:1011A0007395E118F10A430B560BC90BD009C0F730
:1011B000E10CF11E431F561FC91FD01D7EF4703372
:1011C00011F48A95E6CFE894015030F0080F0AF444
:1011D0000027021708F4202F2395022F7A3328F0D6
:1011E00079E37D932A95E9F710C07D932A9589F6D6
:1011F000069497956795379517951794E118F10A16
:10120000430B560BC90BD00998F023957E9173952B
:101210007A3308F070E37C932013B8F77E91706105
:101220007D9330F0839571E37D9370E32A95E1F728
:101230001124EF90FF900F911F91CF91DF9199278B
:1012400087FD90950895FC01059061507040011054
:10125000D8F7809590958E0F9F1F0895FC016150DF
:10126000704001900110D8F7809590958E0F9F1FC8
:1012700008950F931F93CF93DF93182F092FEB013E
:101280008B8181FD09C01FEF0FEF812F902FDF9120
:10129000CF911F910F91089582FF14C02E813F813D
:1012A0008C819D81281739073CF4E881F981CF01B1
:1012B00001969983888310838E819F8101969F83F5
:1012C0008E83E3CFE885F985812F0995892BA1F3DA
:1012D000DACFA0E0B0E0EFE6F9E00C942408AE012C
:1012E0004B5F5F4FFA0161917191AF018091D00422
:1012F0009091D1040E945904E2E00C944008FA0154
:10130000AA27283051F1203181F1E8946F936E7F44
:101310006E5F7F4F8F4F9F4FAF4FB1E03ED0B4E035
:101320003CD0670F781F891F9A1FA11D680F791F76
:101330008A1F911DA11D6A0F711D811D911DA11D87
:1013400020D009F468943F912AE0269F1124301997
:10135000305D3193DEF6CF010895462F4770405D32
:101360004193B3E00FD0C9F7F6CF462F4F70405DE1
:101370004A3318F0495D31FD4052419302D0A9F73C
:10138000EACFB4E0A6959795879577956795BA9536
:10139000C9F700976105710508959B01AC010A2EFC
:1013A00006945795479537952795BA95C9F7620FD3
:1013B000731F841F951FA01D0895F894FFCF004050
:1013C0007A10F35A00A0724E18090010A5D4E80054
:1013D00000E87648170000E40B54020000CA9A3B6C
:1013E000000000E1F50500008096980000004042F2
:1013F0000F000000A0860100000010270000000080
:10140000E803000000006400000000000A00000083
:1014100000000100000000002C76D888DC674F082F
:1014200023DFC1DFAE59E1B1B796E5E3E453C63A35
:10143000E651997696E8E6C28426EB898C9B62EDAC
:10144000407C6FFCEFBC9C9F40F2BAA56FA5F49066
:10145000055A2AF75C936B6CF9676DC11BFCE0E4DD
:101460000D47FEF520E6B500D0ED902E0300943533
:1014700077050080841E080000204E0A000000C886
:101480000C333333330F986E12831141EF8D2114D7
:10149000893BE65516CFFEE6DB18D1844B381BF7A7
:1014A0007C1D901DA4BBE424203284725E22810046
:0814B000C9F124ECA1E53D2780
:1014B80000000003000000009F019A0100005F681F
:1014C8006B7271644D3A302B2A2F3231281C130E5F
:1014D8000D0907060504040302020202021C1E1E6F
:1014E800232A26212221201E160F0F110F0C0E145D
:1014F8001512131922262625252F32237F99A8B0E5
:10150800B4B6B6AB927C6D5D5355524A4233201740
:10151800130E0A08070605040404042424252628B3
:101528002826221E1D1D1D1A15120F0E0F0F0F0F34
:101538000E0E0D0E1011110F0D0E31161013101086
:101548000E0B0B0A08080A0C1310080607060605F6
:101558000505050406060506060A1E1E101E22209D
:10156800333A363A444A4E4D3C343530323C3E3CB0
:101578004646405460504A48879CA8ACACA2805864
:101588003F32271E18120C0907060504030303023D
:101598000202020202020220212525222122201D08
:1015A8001C1F222834393B3C4043413B322B262424
:1015B800201A1917161891A4B6BDBBB6AA9A876B3C
:1015C8004B352A20160F0B090605040403030303F1
:1015D800020303030327272524232222222222226F
:1015E8001F1B18181B1A1A202C3B403528221F1CB9
:1015F8001512151721201A110A08091C4A738DA7FC
:10160800B8BEB8AEA6987C63503E2C2218100A08C3
:1016180007050486847E7A6E675E4A3A2E2E292450
:101628002222222121231F23241A13161E1C1C26C2
:101638003230221F1E1814100B0E21467FA5A5A8B4
:10164800B0A17A472E3029211A100A090806030387
:1016580002958970727F80828278472124282A2700
:1016680028262521140E0F0B0E120B132327201DDD
:10167800A2ABABAEA98D5E382A251F18120D0A0839
:101688000705030302020202020202020202022208
:101698002324242423211F1C1814121214171B1F7F
:1016A800212525211C20231B18181B1A181A92A85B
:1016B800B4BEC4B07C492F26201A140F0C090706A3
:1016C800050403030404030303030303032828286E
:1016D800282725232626201B191615191E21212106
:1016E8002221201E19181815131010152311101176
:1016F8000E0908090A0808090A0A080809090B0A4C
:101708000909090A0A09090C0F0D0C131D201628CE
:10171800373C3C3445473B34303D3F363F52483AEE
:1017280040473E303730231E3233A9B6ACA0948CE4
:101738008277726C5D4F433728211E1914100C0AEA
:101748000908070605050403022826272A2A292648
:1017580024221D171512101313100E0F0F0F0F1040
:101768001012120C0B141F21413A353B52789BA9D9
:10177800A49C9993897964564E49433C342E27207A
:101788001915110D0A08070E0E0F151E25272729F2
:101798002C2B272624221F1B1713100F0F0E0D0F9B
:1017A80011100E0E1110393A3E43567896A7ACAB7D
:1017B800A68C603B29221C150F0A080605040404A0
:1017C8000403030202151517202528292827262592
:1017D800252521202327272726272B2F323A49562C
:1017E800544A413B91A8B4AF9D7249382B22191332
:1017F8000E0A07050403030303020202020202029F
:10180800020202262624232423201D1D2123212110
:10181800201B2230384C5C544636262325201D19BF
:101828001E20939C9F9D9B9996949083715E493648
:10183800261B130E0A08050404030303030202020D
:10184800022425262A2C2D2E2B2825211D1A171473
:1018580012101015202D374651544638322E2921A2
:101868004757789EB2AFA6A6A7A29D9A958674649C
:101878004A362B1D140F0C08060505040404041C25
:101888002024242324272B2F30302C2726231D1CEB
:101898001A131012141215222F3538392A178A04F0
:1018A8008D04910497049C049F04A404A904526520
:1018B800636F7264696E672E2E2E202020200043ED
:1018C8006C617373696679696E672E2E2E2020000D
:1018D8002531752C2531750D0A004F4E004F4646AF
:1018E8000053544152540053544F50005550004433
:1018F8004F574E004C4546540052494748540055EE
:081908004E4B4E4F574E0000FC
:00000001FF
